{
  "_format": "hh-sol-artifact-1",
  "contractName": "Actions",
  "sourceName": "contracts/deploy/Actions.sol",
  "abi": [
    {
      "inputs": [
        {
          "internalType": "contract IConfigurableRightsPool",
          "name": "crp",
          "type": "address"
        },
        {
          "internalType": "uint256[]",
          "name": "sort",
          "type": "uint256[]"
        },
        {
          "internalType": "address[]",
          "name": "token",
          "type": "address[]"
        }
      ],
      "name": "addTokenToWhitelist",
      "outputs": [],
      "stateMutability": "nonpayable",
      "type": "function"
    },
    {
      "inputs": [
        {
          "internalType": "address",
          "name": "pool",
          "type": "address"
        }
      ],
      "name": "claimKolReward",
      "outputs": [],
      "stateMutability": "nonpayable",
      "type": "function"
    },
    {
      "inputs": [
        {
          "internalType": "contract IConfigurableRightsPool",
          "name": "crp",
          "type": "address"
        }
      ],
      "name": "claimManagementFee",
      "outputs": [],
      "stateMutability": "nonpayable",
      "type": "function"
    },
    {
      "inputs": [
        {
          "internalType": "address",
          "name": "vault_",
          "type": "address"
        },
        {
          "internalType": "address",
          "name": "pool",
          "type": "address"
        }
      ],
      "name": "claimManagersReward",
      "outputs": [],
      "stateMutability": "nonpayable",
      "type": "function"
    },
    {
      "inputs": [
        {
          "internalType": "contract FactoryActions",
          "name": "factory",
          "type": "address"
        },
        {
          "internalType": "address[]",
          "name": "tokens",
          "type": "address[]"
        },
        {
          "internalType": "uint256[]",
          "name": "balances",
          "type": "uint256[]"
        },
        {
          "internalType": "uint256[]",
          "name": "weights",
          "type": "uint256[]"
        },
        {
          "internalType": "bool",
          "name": "finalize",
          "type": "bool"
        }
      ],
      "name": "create",
      "outputs": [
        {
          "internalType": "contract LiquidityPoolActions",
          "name": "pool",
          "type": "address"
        }
      ],
      "stateMutability": "nonpayable",
      "type": "function"
    },
    {
      "inputs": [
        {
          "internalType": "contract ICRPFactory",
          "name": "factory",
          "type": "address"
        },
        {
          "internalType": "contract FactoryActions",
          "name": "coreFactory",
          "type": "address"
        },
        {
          "components": [
            {
              "internalType": "string",
              "name": "poolTokenSymbol",
              "type": "string"
            },
            {
              "internalType": "string",
              "name": "poolTokenName",
              "type": "string"
            },
            {
              "internalType": "address[]",
              "name": "constituentTokens",
              "type": "address[]"
            },
            {
              "internalType": "uint256[]",
              "name": "tokenBalances",
              "type": "uint256[]"
            },
            {
              "internalType": "uint256[]",
              "name": "tokenWeights",
              "type": "uint256[]"
            },
            {
              "internalType": "uint256",
              "name": "managerFee",
              "type": "uint256"
            },
            {
              "internalType": "uint256",
              "name": "redeemFee",
              "type": "uint256"
            },
            {
              "internalType": "uint256",
              "name": "issueFee",
              "type": "uint256"
            },
            {
              "internalType": "uint256",
              "name": "perfermanceFee",
              "type": "uint256"
            },
            {
              "internalType": "enum IConfigurableRightsPool.Etypes",
              "name": "etype",
              "type": "uint8"
            }
          ],
          "internalType": "struct IConfigurableRightsPool.PoolParams",
          "name": "poolParams",
          "type": "tuple"
        },
        {
          "components": [
            {
              "internalType": "uint256",
              "name": "initialSupply",
              "type": "uint256"
            },
            {
              "internalType": "uint256",
              "name": "collectPeriod",
              "type": "uint256"
            },
            {
              "internalType": "enum IConfigurableRightsPool.Period",
              "name": "period",
              "type": "uint8"
            }
          ],
          "internalType": "struct IConfigurableRightsPool.CrpParams",
          "name": "crpParams",
          "type": "tuple"
        },
        {
          "components": [
            {
              "internalType": "bool",
              "name": "canWhitelistLPs",
              "type": "bool"
            },
            {
              "internalType": "bool",
              "name": "canTokenWhiteLists",
              "type": "bool"
            }
          ],
          "internalType": "struct RightsManager.Rights",
          "name": "rights",
          "type": "tuple"
        },
        {
          "components": [
            {
              "components": [
                {
                  "components": [
                    {
                      "internalType": "uint256",
                      "name": "level",
                      "type": "uint256"
                    },
                    {
                      "internalType": "uint256",
                      "name": "ratio",
                      "type": "uint256"
                    }
                  ],
                  "internalType": "struct SmartPoolManager.levelParams",
                  "name": "firstLevel",
                  "type": "tuple"
                },
                {
                  "components": [
                    {
                      "internalType": "uint256",
                      "name": "level",
                      "type": "uint256"
                    },
                    {
                      "internalType": "uint256",
                      "name": "ratio",
                      "type": "uint256"
                    }
                  ],
                  "internalType": "struct SmartPoolManager.levelParams",
                  "name": "secondLevel",
                  "type": "tuple"
                },
                {
                  "components": [
                    {
                      "internalType": "uint256",
                      "name": "level",
                      "type": "uint256"
                    },
                    {
                      "internalType": "uint256",
                      "name": "ratio",
                      "type": "uint256"
                    }
                  ],
                  "internalType": "struct SmartPoolManager.levelParams",
                  "name": "thirdLevel",
                  "type": "tuple"
                },
                {
                  "components": [
                    {
                      "internalType": "uint256",
                      "name": "level",
                      "type": "uint256"
                    },
                    {
                      "internalType": "uint256",
                      "name": "ratio",
                      "type": "uint256"
                    }
                  ],
                  "internalType": "struct SmartPoolManager.levelParams",
                  "name": "fourLevel",
                  "type": "tuple"
                }
              ],
              "internalType": "struct SmartPoolManager.feeParams",
              "name": "managerFee",
              "type": "tuple"
            },
            {
              "components": [
                {
                  "components": [
                    {
                      "internalType": "uint256",
                      "name": "level",
                      "type": "uint256"
                    },
                    {
                      "internalType": "uint256",
                      "name": "ratio",
                      "type": "uint256"
                    }
                  ],
                  "internalType": "struct SmartPoolManager.levelParams",
                  "name": "firstLevel",
                  "type": "tuple"
                },
                {
                  "components": [
                    {
                      "internalType": "uint256",
                      "name": "level",
                      "type": "uint256"
                    },
                    {
                      "internalType": "uint256",
                      "name": "ratio",
                      "type": "uint256"
                    }
                  ],
                  "internalType": "struct SmartPoolManager.levelParams",
                  "name": "secondLevel",
                  "type": "tuple"
                },
                {
                  "components": [
                    {
                      "internalType": "uint256",
                      "name": "level",
                      "type": "uint256"
                    },
                    {
                      "internalType": "uint256",
                      "name": "ratio",
                      "type": "uint256"
                    }
                  ],
                  "internalType": "struct SmartPoolManager.levelParams",
                  "name": "thirdLevel",
                  "type": "tuple"
                },
                {
                  "components": [
                    {
                      "internalType": "uint256",
                      "name": "level",
                      "type": "uint256"
                    },
                    {
                      "internalType": "uint256",
                      "name": "ratio",
                      "type": "uint256"
                    }
                  ],
                  "internalType": "struct SmartPoolManager.levelParams",
                  "name": "fourLevel",
                  "type": "tuple"
                }
              ],
              "internalType": "struct SmartPoolManager.feeParams",
              "name": "issueFee",
              "type": "tuple"
            },
            {
              "components": [
                {
                  "components": [
                    {
                      "internalType": "uint256",
                      "name": "level",
                      "type": "uint256"
                    },
                    {
                      "internalType": "uint256",
                      "name": "ratio",
                      "type": "uint256"
                    }
                  ],
                  "internalType": "struct SmartPoolManager.levelParams",
                  "name": "firstLevel",
                  "type": "tuple"
                },
                {
                  "components": [
                    {
                      "internalType": "uint256",
                      "name": "level",
                      "type": "uint256"
                    },
                    {
                      "internalType": "uint256",
                      "name": "ratio",
                      "type": "uint256"
                    }
                  ],
                  "internalType": "struct SmartPoolManager.levelParams",
                  "name": "secondLevel",
                  "type": "tuple"
                },
                {
                  "components": [
                    {
                      "internalType": "uint256",
                      "name": "level",
                      "type": "uint256"
                    },
                    {
                      "internalType": "uint256",
                      "name": "ratio",
                      "type": "uint256"
                    }
                  ],
                  "internalType": "struct SmartPoolManager.levelParams",
                  "name": "thirdLevel",
                  "type": "tuple"
                },
                {
                  "components": [
                    {
                      "internalType": "uint256",
                      "name": "level",
                      "type": "uint256"
                    },
                    {
                      "internalType": "uint256",
                      "name": "ratio",
                      "type": "uint256"
                    }
                  ],
                  "internalType": "struct SmartPoolManager.levelParams",
                  "name": "fourLevel",
                  "type": "tuple"
                }
              ],
              "internalType": "struct SmartPoolManager.feeParams",
              "name": "redeemFee",
              "type": "tuple"
            },
            {
              "components": [
                {
                  "components": [
                    {
                      "internalType": "uint256",
                      "name": "level",
                      "type": "uint256"
                    },
                    {
                      "internalType": "uint256",
                      "name": "ratio",
                      "type": "uint256"
                    }
                  ],
                  "internalType": "struct SmartPoolManager.levelParams",
                  "name": "firstLevel",
                  "type": "tuple"
                },
                {
                  "components": [
                    {
                      "internalType": "uint256",
                      "name": "level",
                      "type": "uint256"
                    },
                    {
                      "internalType": "uint256",
                      "name": "ratio",
                      "type": "uint256"
                    }
                  ],
                  "internalType": "struct SmartPoolManager.levelParams",
                  "name": "secondLevel",
                  "type": "tuple"
                },
                {
                  "components": [
                    {
                      "internalType": "uint256",
                      "name": "level",
                      "type": "uint256"
                    },
                    {
                      "internalType": "uint256",
                      "name": "ratio",
                      "type": "uint256"
                    }
                  ],
                  "internalType": "struct SmartPoolManager.levelParams",
                  "name": "thirdLevel",
                  "type": "tuple"
                },
                {
                  "components": [
                    {
                      "internalType": "uint256",
                      "name": "level",
                      "type": "uint256"
                    },
                    {
                      "internalType": "uint256",
                      "name": "ratio",
                      "type": "uint256"
                    }
                  ],
                  "internalType": "struct SmartPoolManager.levelParams",
                  "name": "fourLevel",
                  "type": "tuple"
                }
              ],
              "internalType": "struct SmartPoolManager.feeParams",
              "name": "perfermanceFee",
              "type": "tuple"
            }
          ],
          "internalType": "struct SmartPoolManager.KolPoolParams",
          "name": "kolPoolParams",
          "type": "tuple"
        },
        {
          "internalType": "address[]",
          "name": "owners",
          "type": "address[]"
        },
        {
          "internalType": "uint256[]",
          "name": "ownerPercentage",
          "type": "uint256[]"
        },
        {
          "components": [
            {
              "internalType": "uint256",
              "name": "bspFloor",
              "type": "uint256"
            },
            {
              "internalType": "uint256",
              "name": "bspCap",
              "type": "uint256"
            }
          ],
          "internalType": "struct IConfigurableRightsPool.PoolTokenRange",
          "name": "tokenRange",
          "type": "tuple"
        }
      ],
      "name": "createSmartPool",
      "outputs": [
        {
          "internalType": "contract IConfigurableRightsPool",
          "name": "crp",
          "type": "address"
        }
      ],
      "stateMutability": "nonpayable",
      "type": "function"
    },
    {
      "inputs": [
        {
          "internalType": "contract IConfigurableRightsPool",
          "name": "pool",
          "type": "address"
        },
        {
          "internalType": "uint256",
          "name": "poolAmountIn",
          "type": "uint256"
        },
        {
          "internalType": "uint256[]",
          "name": "minAmountsOut",
          "type": "uint256[]"
        }
      ],
      "name": "exitPool",
      "outputs": [],
      "stateMutability": "nonpayable",
      "type": "function"
    },
    {
      "inputs": [
        {
          "internalType": "contract LiquidityPoolActions",
          "name": "pool",
          "type": "address"
        }
      ],
      "name": "finalize",
      "outputs": [],
      "stateMutability": "nonpayable",
      "type": "function"
    },
    {
      "inputs": [
        {
          "internalType": "contract LiquidityPoolActions",
          "name": "pool",
          "type": "address"
        },
        {
          "internalType": "uint256",
          "name": "poolAmountOut",
          "type": "uint256"
        },
        {
          "internalType": "uint256[]",
          "name": "maxAmountsIn",
          "type": "uint256[]"
        }
      ],
      "name": "joinPool",
      "outputs": [],
      "stateMutability": "nonpayable",
      "type": "function"
    },
    {
      "inputs": [
        {
          "internalType": "contract IConfigurableRightsPool",
          "name": "pool",
          "type": "address"
        },
        {
          "internalType": "uint256",
          "name": "poolAmountOut",
          "type": "uint256"
        },
        {
          "internalType": "uint256[]",
          "name": "maxAmountsIn",
          "type": "uint256[]"
        },
        {
          "internalType": "address",
          "name": "kol",
          "type": "address"
        }
      ],
      "name": "joinSmartPool",
      "outputs": [],
      "stateMutability": "nonpayable",
      "type": "function"
    },
    {
      "inputs": [
        {
          "internalType": "contract RebalaceAdapter",
          "name": "rebalanceAdapter",
          "type": "address"
        },
        {
          "components": [
            {
              "internalType": "address",
              "name": "etf",
              "type": "address"
            },
            {
              "internalType": "address",
              "name": "token0",
              "type": "address"
            },
            {
              "internalType": "address",
              "name": "token1",
              "type": "address"
            },
            {
              "internalType": "address",
              "name": "aggregator",
              "type": "address"
            },
            {
              "internalType": "enum RebalaceAdapter.SwapType",
              "name": "swapType",
              "type": "uint8"
            },
            {
              "internalType": "uint256",
              "name": "quantity",
              "type": "uint256"
            },
            {
              "internalType": "bytes",
              "name": "data",
              "type": "bytes"
            }
          ],
          "internalType": "struct RebalaceAdapter.RebalanceInfo",
          "name": "rebalanceInfo",
          "type": "tuple"
        }
      ],
      "name": "rebalance",
      "outputs": [],
      "stateMutability": "nonpayable",
      "type": "function"
    },
    {
      "inputs": [
        {
          "internalType": "contract IConfigurableRightsPool",
          "name": "crp",
          "type": "address"
        },
        {
          "internalType": "address",
          "name": "provider",
          "type": "address"
        }
      ],
      "name": "removeWhitelistedLiquidityProvider",
      "outputs": [],
      "stateMutability": "nonpayable",
      "type": "function"
    },
    {
      "inputs": [
        {
          "internalType": "contract IConfigurableRightsPool",
          "name": "crp",
          "type": "address"
        },
        {
          "internalType": "uint256",
          "name": "newCap",
          "type": "uint256"
        }
      ],
      "name": "setCap",
      "outputs": [],
      "stateMutability": "nonpayable",
      "type": "function"
    },
    {
      "inputs": [
        {
          "internalType": "contract AbstractPool",
          "name": "pool",
          "type": "address"
        },
        {
          "internalType": "address",
          "name": "newController",
          "type": "address"
        }
      ],
      "name": "setController",
      "outputs": [],
      "stateMutability": "nonpayable",
      "type": "function"
    },
    {
      "inputs": [
        {
          "internalType": "contract AbstractPool",
          "name": "pool",
          "type": "address"
        },
        {
          "internalType": "address[]",
          "name": "_owners",
          "type": "address[]"
        },
        {
          "internalType": "uint256[]",
          "name": "_ownerPercentage",
          "type": "uint256[]"
        }
      ],
      "name": "setManagersInfo",
      "outputs": [],
      "stateMutability": "nonpayable",
      "type": "function"
    },
    {
      "inputs": [
        {
          "internalType": "contract AbstractPool",
          "name": "pool",
          "type": "address"
        },
        {
          "internalType": "bool",
          "name": "publicSwap",
          "type": "bool"
        }
      ],
      "name": "setPublicSwap",
      "outputs": [],
      "stateMutability": "nonpayable",
      "type": "function"
    },
    {
      "inputs": [
        {
          "internalType": "contract LiquidityPoolActions",
          "name": "pool",
          "type": "address"
        },
        {
          "internalType": "address[]",
          "name": "tokens",
          "type": "address[]"
        },
        {
          "internalType": "uint256[]",
          "name": "balances",
          "type": "uint256[]"
        },
        {
          "internalType": "uint256[]",
          "name": "denorms",
          "type": "uint256[]"
        }
      ],
      "name": "setTokens",
      "outputs": [],
      "stateMutability": "nonpayable",
      "type": "function"
    },
    {
      "inputs": [
        {
          "internalType": "contract IConfigurableRightsPool",
          "name": "pool",
          "type": "address"
        }
      ],
      "name": "snapshotBeginAssets",
      "outputs": [],
      "stateMutability": "nonpayable",
      "type": "function"
    },
    {
      "inputs": [
        {
          "internalType": "contract IConfigurableRightsPool",
          "name": "pool",
          "type": "address"
        }
      ],
      "name": "snapshotEndAssets",
      "outputs": [],
      "stateMutability": "nonpayable",
      "type": "function"
    },
    {
      "inputs": [
        {
          "internalType": "contract IConfigurableRightsPool",
          "name": "crp",
          "type": "address"
        },
        {
          "internalType": "address",
          "name": "provider",
          "type": "address"
        }
      ],
      "name": "whitelistLiquidityProvider",
      "outputs": [],
      "stateMutability": "nonpayable",
      "type": "function"
    }
  ],
  "bytecode": "0x608060405234801561001057600080fd5b5061355f806100206000396000f3fe608060405234801561001057600080fd5b50600436106100fc5760003560e01c806307f4e347146101015780630ebb32711461012a578063135b968d1461013f5780631eccc18514610152578063271b789514610165578063333fbeef146101785780633e67f1571461018b5780634ef39b751461019e5780635135aafb146101b157806363ced092146101c45780636936674d146101d75780637b7d6c68146101ea57806380ad2cf3146101fd5780638a5c57df146102105780639589da7614610223578063a7f28da714610236578063a92f00ff14610249578063e0d945bf1461025c578063e221e73a1461026f578063fb41126514610282575b600080fd5b61011461010f3660046128b9565b610295565b6040516101219190612eb3565b60405180910390f35b61013d610138366004612629565b6105a2565b005b61013d61014d366004612a3d565b6105f8565b61013d6101603660046127d1565b61072a565b61013d610173366004612629565b610784565b61013d61018636600461274d565b6107bf565b61013d610199366004612bfb565b6107eb565b61013d6101ac366004612629565b610817565b61013d6101bf36600461275f565b61097e565b61013d6101d2366004612aae565b6109ec565b61013d6101e5366004612629565b610ae7565b61013d6101f836600461274d565b610b21565b61013d61020b366004612a12565b610b56565b61013d61021e366004612ba2565b610b82565b61013d6102313660046129aa565b610c3c565b61013d61024436600461274d565b610c6a565b6101146102573660046127fe565b610c96565b61013d61026a366004612afa565b611040565b61013d61027d366004612661565b611707565b61013d610290366004612629565b611733565b60006102a460608901896133b2565b90506102b360408a018a6133b2565b9050146102db5760405162461bcd60e51b81526004016102d29061310d565b60405180910390fd5b6102e860808901896133b2565b90506102f760408a018a6133b2565b9050146103165760405162461bcd60e51b81526004016102d29061310d565b604051632c60e63560e01b81526001600160a01b038b1690632c60e6359061034c908c908c908b908b908b908b90600401612f1e565b602060405180830381600087803b15801561036657600080fd5b505af115801561037a573d6000803e3d6000fd5b505050506040513d601f19601f8201168201806040525081019061039e9190612645565b905060005b6103b060408a018a6133b2565b905081101561047f5760006103c860408b018b6133b2565b838181106103d257fe5b90506020020160208101906103e79190612629565b905061042633306103fb60608e018e6133b2565b8681811061040557fe5b90506020020135846001600160a01b031661176e909392919063ffffffff16565b61043b6001600160a01b0382168460006117c6565b6104768361044c60608d018d6133b2565b8581811061045657fe5b90506020020135836001600160a01b03166117c69092919063ffffffff16565b506001016103a3565b506001600160a01b038116630892b93d883560208a01356104a660608c0160408d01612c5f565b866040518563ffffffff1660e01b81526004016104c6949392919061337b565b600060405180830381600087803b1580156104e057600080fd5b505af11580156104f4573d6000803e3d6000fd5b505060405163a9059cbb60e01b81526001600160a01b038416925063a9059cbb91506105279033908b3590600401612eeb565b602060405180830381600087803b15801561054157600080fd5b505af1158015610555573d6000803e3d6000fd5b505050506040513d601f19601f820116820180604052508101906105799190612731565b6105955760405162461bcd60e51b81526004016102d29061316f565b9998505050505050505050565b806001600160a01b03166343774a6b6040518163ffffffff1660e01b8152600401600060405180830381600087803b1580156105dd57600080fd5b505af11580156105f1573d6000803e3d6000fd5b5050505050565b6060856001600160a01b031663b64ef17b6040518163ffffffff1660e01b815260040160206040518083038186803b15801561063357600080fd5b505afa158015610647573d6000803e3d6000fd5b505050506040513d601f19601f8201168201806040525081019061066b9190612645565b6001600160a01b031663cc77828d6040518163ffffffff1660e01b815260040160006040518083038186803b1580156106a357600080fd5b505afa1580156106b7573d6000803e3d6000fd5b505050506040513d6000823e601f3d908101601f191682016040526106df9190810190612699565b905061072286828787878080602002602001604051908101604052809392919081815260200183836020028082843760009201919091525089925061188e915050565b505050505050565b6040516324dacaa960e11b81526001600160a01b038316906349b5955290610756908490600401613102565b600060405180830381600087803b15801561077057600080fd5b505af1158015610722573d6000803e3d6000fd5b806001600160a01b0316631296548f6040518163ffffffff1660e01b8152600401600060405180830381600087803b1580156105dd57600080fd5b60405163c83a1c2d60e01b81526001600160a01b0383169063c83a1c2d90610756908490600401612eb3565b604051637051b85760e11b81526001600160a01b0383169063e0a370ae90610756908490600401613273565b806001600160a01b0316634bb278f36040518163ffffffff1660e01b8152600401600060405180830381600087803b15801561085257600080fd5b505af1158015610866573d6000803e3d6000fd5b50506040516370a0823160e01b81526001600160a01b038416925063a9059cbb9150339083906370a08231906108a0903090600401612eb3565b60206040518083038186803b1580156108b857600080fd5b505afa1580156108cc573d6000803e3d6000fd5b505050506040513d601f19601f820116820180604052508101906108f09190612c7b565b6040518363ffffffff1660e01b815260040161090d929190612eeb565b602060405180830381600087803b15801561092757600080fd5b505af115801561093b573d6000803e3d6000fd5b505050506040513d601f19601f8201168201806040525081019061095f9190612731565b61097b5760405162461bcd60e51b81526004016102d29061316f565b50565b61098783611bab565b6040516303c153ef60e61b81526001600160a01b0384169063f054fbc0906109b590859085906004016130af565b600060405180830381600087803b1580156109cf57600080fd5b505af11580156109e3573d6000803e3d6000fd5b50505050505050565b6060836001600160a01b031663b64ef17b6040518163ffffffff1660e01b815260040160206040518083038186803b158015610a2757600080fd5b505afa158015610a3b573d6000803e3d6000fd5b505050506040513d601f19601f82011682018060405250810190610a5f9190612645565b6001600160a01b031663cc77828d6040518163ffffffff1660e01b815260040160006040518083038186803b158015610a9757600080fd5b505afa158015610aab573d6000803e3d6000fd5b505050506040513d6000823e601f3d908101601f19168201604052610ad39190810190612699565b9050610ae184848484611bbd565b50505050565b6000610af282611e29565b60405163325a48a760e21b81529091506001600160a01b0382169063c969229c90610756908590600401612eb3565b610b2a82611bab565b6040516392eefe9b60e01b81526001600160a01b038316906392eefe9b90610756908490600401612eb3565b6040516347786d3760e01b81526001600160a01b038316906347786d3790610756908490600401613328565b6060846001600160a01b031663be3bbd2e6040518163ffffffff1660e01b815260040160006040518083038186803b158015610bbd57600080fd5b505afa158015610bd1573d6000803e3d6000fd5b505050506040513d6000823e601f3d908101601f19168201604052610bf99190810190612699565b90506105f185828686868080602002602001604051908101604052809392919081815260200183836020028082843760009201919091525033925061188e915050565b6040516329b0917160e21b81526001600160a01b0384169063a6c245c4906109b590859085906004016130dd565b60405163e2762d4b60e01b81526001600160a01b0383169063e2762d4b90610756908490600401612eb3565b6000868514610cb75760405162461bcd60e51b81526004016102d29061310d565b868314610cd65760405162461bcd60e51b81526004016102d29061310d565b886001600160a01b03166391cefde46040518163ffffffff1660e01b8152600401602060405180830381600087803b158015610d1157600080fd5b505af1158015610d25573d6000803e3d6000fd5b505050506040513d601f19601f82011682018060405250810190610d499190612645565b905060005b87811015610e64576000898983818110610d6457fe5b9050602002016020810190610d799190612629565b9050610d8c33308a8a8681811061040557fe5b610da16001600160a01b0382168460006117c6565b610db18389898581811061045657fe5b826001600160a01b031663e4e1e5388b8b85818110610dcc57fe5b9050602002016020810190610de19190612629565b8a8a86818110610ded57fe5b90506020020135898987818110610e0057fe5b905060200201356040518463ffffffff1660e01b8152600401610e259392919061308e565b600060405180830381600087803b158015610e3f57600080fd5b505af1158015610e53573d6000803e3d6000fd5b505060019093019250610d4e915050565b508115610fd457806001600160a01b0316634bb278f36040518163ffffffff1660e01b8152600401600060405180830381600087803b158015610ea657600080fd5b505af1158015610eba573d6000803e3d6000fd5b50506040516370a0823160e01b81526001600160a01b038416925063a9059cbb9150339083906370a0823190610ef4903090600401612eb3565b60206040518083038186803b158015610f0c57600080fd5b505afa158015610f20573d6000803e3d6000fd5b505050506040513d601f19601f82011682018060405250810190610f449190612c7b565b6040518363ffffffff1660e01b8152600401610f61929190612eeb565b602060405180830381600087803b158015610f7b57600080fd5b505af1158015610f8f573d6000803e3d6000fd5b505050506040513d601f19601f82011682018060405250810190610fb39190612731565b610fcf5760405162461bcd60e51b81526004016102d29061316f565b611034565b6040516324dacaa960e11b81526001600160a01b038216906349b595529061100190600190600401613102565b600060405180830381600087803b15801561101b57600080fd5b505af115801561102f573d6000803e3d6000fd5b505050505b98975050505050505050565b84831461105f5760405162461bcd60e51b81526004016102d29061310d565b84811461107e5760405162461bcd60e51b81526004016102d29061310d565b60005b858110156116fd57600087878381811061109757fe5b90506020020160208101906110ac9190612629565b9050886001600160a01b0316632f37b6248989858181106110c957fe5b90506020020160208101906110de9190612629565b6040518263ffffffff1660e01b81526004016110fa9190612eb3565b60206040518083038186803b15801561111257600080fd5b505afa158015611126573d6000803e3d6000fd5b505050506040513d601f19601f8201168201806040525081019061114a9190612731565b1561150157886001600160a01b031663f8b2cb4f89898581811061116a57fe5b905060200201602081019061117f9190612629565b6040518263ffffffff1660e01b815260040161119b9190612eb3565b60206040518083038186803b1580156111b357600080fd5b505afa1580156111c7573d6000803e3d6000fd5b505050506040513d601f19601f820116820180604052508101906111eb9190612c7b565b8686848181106111f757fe5b9050602002013511156113b5576112d333308b6001600160a01b031663f8b2cb4f8c8c8881811061122457fe5b90506020020160208101906112399190612629565b6040518263ffffffff1660e01b81526004016112559190612eb3565b60206040518083038186803b15801561126d57600080fd5b505afa158015611281573d6000803e3d6000fd5b505050506040513d601f19601f820116820180604052508101906112a59190612c7b565b8989878181106112b157fe5b9050602002013503846001600160a01b031661176e909392919063ffffffff16565b6112e86001600160a01b0382168a60006117c6565b6113b5898a6001600160a01b031663f8b2cb4f8b8b8781811061130757fe5b905060200201602081019061131c9190612629565b6040518263ffffffff1660e01b81526004016113389190612eb3565b60206040518083038186803b15801561135057600080fd5b505afa158015611364573d6000803e3d6000fd5b505050506040513d601f19601f820116820180604052508101906113889190612c7b565b88888681811061139457fe5b9050602002013503836001600160a01b03166117c69092919063ffffffff16565b620f42408686848181106113c557fe5b90506020020135111561147d57886001600160a01b0316633fdddaa28989858181106113ed57fe5b90506020020160208101906114029190612629565b88888681811061140e57fe5b9050602002013587878781811061142157fe5b905060200201356040518463ffffffff1660e01b81526004016114469392919061308e565b600060405180830381600087803b15801561146057600080fd5b505af1158015611474573d6000803e3d6000fd5b505050506114fc565b886001600160a01b031663cf5e7bd389898581811061149857fe5b90506020020160208101906114ad9190612629565b6040518263ffffffff1660e01b81526004016114c99190612eb3565b600060405180830381600087803b1580156114e357600080fd5b505af11580156114f7573d6000803e3d6000fd5b505050505b6115de565b611512333088888681811061040557fe5b6115276001600160a01b0382168a60006117c6565b6115378987878581811061045657fe5b886001600160a01b031663e4e1e53889898581811061155257fe5b90506020020160208101906115679190612629565b88888681811061157357fe5b9050602002013587878781811061158657fe5b905060200201356040518463ffffffff1660e01b81526004016115ab9392919061308e565b600060405180830381600087803b1580156115c557600080fd5b505af11580156115d9573d6000803e3d6000fd5b505050505b6040516370a0823160e01b81526000906001600160a01b038316906370a082319061160d903090600401612eb3565b60206040518083038186803b15801561162557600080fd5b505afa158015611639573d6000803e3d6000fd5b505050506040513d601f19601f8201168201806040525081019061165d9190612c7b565b11156116f4576116f433826001600160a01b03166370a08231306040518263ffffffff1660e01b81526004016116939190612eb3565b60206040518083038186803b1580156116ab57600080fd5b505afa1580156116bf573d6000803e3d6000fd5b505050506040513d601f19601f820116820180604052508101906116e39190612c7b565b6001600160a01b0384169190611eb1565b50600101611081565b5050505050505050565b60405163edb12adf60e01b81526001600160a01b0383169063edb12adf90610756908490600401612eb3565b806001600160a01b031663d2fed42e6040518163ffffffff1660e01b8152600401600060405180830381600087803b1580156105dd57600080fd5b610ae1846323b872dd60e01b85858560405160240161178f93929190612ec7565b60408051601f198184030181529190526020810180516001600160e01b03166001600160e01b031990931692909217909152611ed0565b80158061184e5750604051636eb1769f60e11b81526001600160a01b0384169063dd62ed3e906117fc9030908690600401612f04565b60206040518083038186803b15801561181457600080fd5b505afa158015611828573d6000803e3d6000fd5b505050506040513d601f19601f8201168201806040525081019061184c9190612c7b565b155b61186a5760405162461bcd60e51b81526004016102d2906131e6565b6118898363095ea7b360e01b848460405160240161178f929190612eeb565b505050565b83518251146118af5760405162461bcd60e51b81526004016102d29061310d565b60005b84518110156119555760008582815181106118c957fe5b6020026020010151905061190633308685815181106118e457fe5b6020026020010151846001600160a01b031661176e909392919063ffffffff16565b61191b6001600160a01b0382168860006117c6565b61194c8785848151811061192b57fe5b6020026020010151836001600160a01b03166117c69092919063ffffffff16565b506001016118b2565b5060405163077df9bd60e31b81526001600160a01b03861690633befcde8906119869086908690869060040161334a565b600060405180830381600087803b1580156119a057600080fd5b505af11580156119b4573d6000803e3d6000fd5b5050505060005b8451811015611a995760008582815181106119d257fe5b602002602001015190506000816001600160a01b03166370a08231306040518263ffffffff1660e01b8152600401611a0a9190612eb3565b60206040518083038186803b158015611a2257600080fd5b505afa158015611a36573d6000803e3d6000fd5b505050506040513d601f19601f82011682018060405250810190611a5a9190612c7b565b1115611a9057611a9033826001600160a01b03166370a08231306040518263ffffffff1660e01b81526004016116939190612eb3565b506001016119bb565b506040516370a0823160e01b81526001600160a01b0386169063a9059cbb90339083906370a0823190611ad0903090600401612eb3565b60206040518083038186803b158015611ae857600080fd5b505afa158015611afc573d6000803e3d6000fd5b505050506040513d601f19601f82011682018060405250810190611b209190612c7b565b6040518363ffffffff1660e01b8152600401611b3d929190612eeb565b602060405180830381600087803b158015611b5757600080fd5b505af1158015611b6b573d6000803e3d6000fd5b505050506040513d601f19601f82011682018060405250810190611b8f9190612731565b6105f15760405162461bcd60e51b81526004016102d29061316f565b611bb481611733565b61097b81611fb5565b6040516370a0823160e01b81526000906001600160a01b038616906370a0823190611bec903390600401612eb3565b60206040518083038186803b158015611c0457600080fd5b505afa158015611c18573d6000803e3d6000fd5b505050506040513d601f19601f82011682018060405250810190611c3c9190612c7b565b6040516323b872dd60e01b81529091506001600160a01b038616906323b872dd90611c6f90339030908690600401612ec7565b602060405180830381600087803b158015611c8957600080fd5b505af1158015611c9d573d6000803e3d6000fd5b505050506040513d601f19601f82011682018060405250810190611cc19190612731565b611cdd5760405162461bcd60e51b81526004016102d29061316f565b611ce8858683612245565b60405163b02f0b7360e01b81526001600160a01b0386169063b02f0b7390611d169087908790600401613331565b600060405180830381600087803b158015611d3057600080fd5b505af1158015611d44573d6000803e3d6000fd5b5050505060005b8251811015611a99576000838281518110611d6257fe5b602002602001015190506000816001600160a01b03166370a08231306040518263ffffffff1660e01b8152600401611d9a9190612eb3565b60206040518083038186803b158015611db257600080fd5b505afa158015611dc6573d6000803e3d6000fd5b505050506040513d601f19601f82011682018060405250810190611dea9190612c7b565b1115611e2057611e2033826001600160a01b03166370a08231306040518263ffffffff1660e01b81526004016116939190612eb3565b50600101611d4b565b600080611e35836123cf565b9050806001600160a01b0316639daafec76040518163ffffffff1660e01b8152600401602060405180830381600087803b158015611e7257600080fd5b505af1158015611e86573d6000803e3d6000fd5b505050506040513d601f19601f82011682018060405250810190611eaa9190612645565b9392505050565b6118898363a9059cbb60e01b848460405160240161178f929190612eeb565b611ee2826001600160a01b0316612448565b611efe5760405162461bcd60e51b81526004016102d29061323c565b60006060836001600160a01b031683604051611f1a9190612e7a565b6000604051808303816000865af19150503d8060008114611f57576040519150601f19603f3d011682016040523d82523d6000602084013e611f5c565b606091505b509150915081611f7e5760405162461bcd60e51b81526004016102d29061313a565b805115610ae15780806020019051810190611f999190612731565b610ae15760405162461bcd60e51b81526004016102d29061319c565b6000611fc0826123cf565b90506000611fcd83611e29565b90506000826001600160a01b031663c0fcb166856040518263ffffffff1660e01b8152600401611ffd9190612eb3565b60206040518083038186803b15801561201557600080fd5b505afa158015612029573d6000803e3d6000fd5b505050506040513d601f19601f8201168201806040525081019061204d9190612731565b90506000826001600160a01b031663c0fcb166866040518263ffffffff1660e01b815260040161207d9190612eb3565b60206040518083038186803b15801561209557600080fd5b505afa1580156120a9573d6000803e3d6000fd5b505050506040513d601f19601f820116820180604052508101906120cd9190612731565b90506000856001600160a01b03166373a9855c6040518163ffffffff1660e01b8152600401602060405180830381600087803b15801561210c57600080fd5b505af1158015612120573d6000803e3d6000fd5b505050506040513d601f19601f820116820180604052508101906121449190612c43565b9050600081600181111561215457fe5b14801561215e5750825b156121c25760405163edb12adf60e01b81526001600160a01b0386169063edb12adf9061218f908990600401612eb3565b600060405180830381600087803b1580156121a957600080fd5b505af11580156121bd573d6000803e3d6000fd5b505050505b60018160018111156121d057fe5b1480156121da5750815b156107225760405163edb12adf60e01b81526001600160a01b0385169063edb12adf9061220b908990600401612eb3565b600060405180830381600087803b15801561222557600080fd5b505af1158015612239573d6000803e3d6000fd5b50505050505050505050565b604051636eb1769f60e11b81526000906001600160a01b0385169063dd62ed3e906122769030908790600401612f04565b60206040518083038186803b15801561228e57600080fd5b505afa1580156122a2573d6000803e3d6000fd5b505050506040513d601f19601f820116820180604052508101906122c69190612c7b565b111561234f5760405163095ea7b360e01b81526001600160a01b0384169063095ea7b3906122fb908590600090600401612eeb565b602060405180830381600087803b15801561231557600080fd5b505af1158015612329573d6000803e3d6000fd5b505050506040513d601f19601f8201168201806040525081019061234d9190612731565b505b60405163095ea7b360e01b81526001600160a01b0384169063095ea7b39061237d9085908590600401612eeb565b602060405180830381600087803b15801561239757600080fd5b505af11580156123ab573d6000803e3d6000fd5b505050506040513d601f19601f82011682018060405250810190610ae19190612731565b6000816001600160a01b031663430bf08a6040518163ffffffff1660e01b815260040160206040518083038186803b15801561240a57600080fd5b505afa15801561241e573d6000803e3d6000fd5b505050506040513d601f19601f820116820180604052508101906124429190612645565b92915050565b6000813f7fc5d2460186f7233c927e7db2dcc703c0e500b653ca82273b7bfad8045d85a47081811480159061247c57508115155b949350505050565b8035612442816134ec565b60008083601f8401126124a0578182fd5b5081356001600160401b038111156124b6578182fd5b60208301915083602080830285010111156124d057600080fd5b9250929050565b600082601f8301126124e7578081fd5b81356124fa6124f58261341e565b6133f8565b81815291506020808301908481018184028601820187101561251b57600080fd5b60005b84811015612543578135612531816134ec565b8452928201929082019060010161251e565b505050505092915050565b600082601f83011261255e578081fd5b813561256c6124f58261341e565b81815291506020808301908481018184028601820187101561258d57600080fd5b60005b8481101561254357813584529282019290820190600101612590565b6000606082840312156125bd578081fd5b50919050565b600061040082840312156125bd578081fd5b600061014082840312156125bd578081fd5b6000604082840312156125f8578081fd5b61260260406133f8565b9050813581526020820135602082015292915050565b6000604082840312156125bd578081fd5b60006020828403121561263a578081fd5b8135611eaa816134ec565b600060208284031215612656578081fd5b8151611eaa816134ec565b60008060408385031215612673578081fd5b823561267e816134ec565b9150602083013561268e816134ec565b809150509250929050565b600060208083850312156126ab578182fd5b82516001600160401b038111156126c0578283fd5b8301601f810185136126d0578283fd5b80516126de6124f58261341e565b81815283810190838501858402850186018910156126fa578687fd5b8694505b83851015612725578051612711816134ec565b8352600194909401939185019185016126fe565b50979650505050505050565b600060208284031215612742578081fd5b8151611eaa81613501565b60008060408385031215612673578182fd5b600080600060608486031215612773578081fd5b833561277e816134ec565b925060208401356001600160401b0380821115612799578283fd5b6127a5878388016124d7565b935060408601359150808211156127ba578283fd5b506127c78682870161254e565b9150509250925092565b600080604083850312156127e3578182fd5b82356127ee816134ec565b9150602083013561268e81613501565b60008060008060008060008060a0898b031215612819578586fd5b8835612824816134ec565b975060208901356001600160401b038082111561283f578788fd5b61284b8c838d0161248f565b909950975060408b0135915080821115612863578586fd5b61286f8c838d0161248f565b909750955060608b0135915080821115612887578485fd5b506128948b828c0161248f565b90945092505060808901356128a881613501565b809150509295985092959890939650565b60008060008060008060008060006105808a8c0312156128d7578283fd5b6128e18b8b612484565b98506128f08b60208c01612484565b975060408a01356001600160401b038082111561290b578485fd5b6129178d838e016125d5565b98506129268d60608e016125ac565b97506129358d60c08e01612618565b96506129458d6101008e016125c3565b95506105008c013591508082111561295b578485fd5b6129678d838e016124d7565b94506105208c013591508082111561297d578283fd5b5061298a8c828d0161254e565b92505061299b8b6105408c016125e7565b90509295985092959850929598565b6000806000606084860312156129be578081fd5b83356129c9816134ec565b925060208401356001600160401b03808211156129e4578283fd5b6129f08783880161254e565b93506040860135915080821115612a05578283fd5b506127c7868287016124d7565b60008060408385031215612a24578182fd5b8235612a2f816134ec565b946020939093013593505050565b600080600080600060808688031215612a54578283fd5b8535612a5f816134ec565b94506020860135935060408601356001600160401b03811115612a80578384fd5b612a8c8882890161248f565b9094509250506060860135612aa0816134ec565b809150509295509295909350565b600080600060608486031215612ac2578081fd5b8335612acd816134ec565b92506020840135915060408401356001600160401b03811115612aee578182fd5b6127c78682870161254e565b60008060008060008060006080888a031215612b14578081fd5b8735612b1f816134ec565b965060208801356001600160401b0380821115612b3a578283fd5b612b468b838c0161248f565b909850965060408a0135915080821115612b5e578283fd5b612b6a8b838c0161248f565b909650945060608a0135915080821115612b82578283fd5b50612b8f8a828b0161248f565b989b979a50959850939692959293505050565b60008060008060608587031215612bb7578182fd5b8435612bc2816134ec565b93506020850135925060408501356001600160401b03811115612be3578283fd5b612bef8782880161248f565b95989497509550505050565b60008060408385031215612c0d578182fd5b8235612c18816134ec565b915060208301356001600160401b03811115612c32578182fd5b830160e0818603121561268e578182fd5b600060208284031215612c54578081fd5b8151611eaa8161350f565b600060208284031215612c70578081fd5b8135611eaa8161351c565b600060208284031215612c8c578081fd5b5051919050565b6001600160a01b03169052565b60008284526020808501945082825b85811015612cdd578135612cc2816134ec565b6001600160a01b031687529582019590820190600101612caf565b509495945050505050565b6000815180845260208085019450808401835b83811015612cdd5781516001600160a01b031687529582019590820190600101612cfb565b81835260006001600160fb1b03831115612d38578081fd5b6020830280836020870137939093016020019283525090919050565b6000815180845260208085019450808401835b83811015612cdd57815187529582019590820190600101612d67565b60008284528282602086013780602084860101526020601f19601f85011685010190509392505050565b60028110612db757fe5b9052565b612db7816134e2565b612dce8282612e2d565b610100612ddf818401828401612e2d565b50610200612df1818401828401612e2d565b50610300611889818401828401612e2d565b8035612e0e81613501565b151582526020810135612e2081613501565b8015156020840152505050565b612e378282612e6b565b612e476040830160408301612e6b565b612e576080830160808301612e6b565b612e6760c0830160c08301612e6b565b5050565b80358252602090810135910152565b60008251815b81811015612e9a5760208186018101518583015201612e80565b81811115612ea85782828501525b509190910192915050565b6001600160a01b0391909116815260200190565b6001600160a01b039384168152919092166020820152604081019190915260600190565b6001600160a01b03929092168252602082015260400190565b6001600160a01b0392831681529116602082015260400190565b6001600160a01b03871681526104c060208201819052600090612f418880613484565b61014083860152612f5761060086018284612d83565b92505050612f686020890189613484565b6104bf1980868503016104e0870152612f82848385612d83565b9350612f9160408c018c61343d565b935091508086850301610500870152612fab848484612ca0565b9350612fba60608c018c61343d565b935091508086850301610520870152612fd4848484612d20565b9350612fe360808c018c61343d565b93509150808685030161054087015250612ffe838383612d20565b9250505060a088013561056084015260c088013561058084015260e08801356105a08401526101008801356105c084015261303d6101208901896134c8565b61304b6105e0850182612dad565b506130596040840188612e03565b6130666080840187612dc4565b8281036104808401526130798186612ce8565b90508281036104a08401526105958185612d54565b6001600160a01b039390931683526020830191909152604082015260600190565b6000604082526130c26040830185612ce8565b82810360208401526130d48185612d54565b95945050505050565b6000604082526130f06040830185612d54565b82810360208401526130d48185612ce8565b901515815260200190565b60208082526013908201527208aa4a4be988a9c8ea890be9a92a69a82a8869606b1b604082015260600190565b6020808252818101527f5361666545524332303a206c6f772d6c6576656c2063616c6c206661696c6564604082015260600190565b60208082526013908201527211549497d514905394d1915497d19052531151606a1b604082015260600190565b6020808252602a908201527f5361666545524332303a204552433230206f7065726174696f6e20646964206e6040820152691bdd081cdd58d8d9595960b21b606082015260800190565b60208082526036908201527f5361666545524332303a20617070726f76652066726f6d206e6f6e2d7a65726f60408201527520746f206e6f6e2d7a65726f20616c6c6f77616e636560501b606082015260800190565b6020808252601f908201527f5361666545524332303a2063616c6c20746f206e6f6e2d636f6e747261637400604082015260600190565b6000602082528235613284816134ec565b6001600160a01b03908116602084810191909152840135906132a5826134ec565b8082166040850152604085013591506132bd826134ec565b166060838101919091528301356132d3816134ec565b6132e06080840182612c93565b506132ee60808401846134d5565b6132fb60a0840182612dbb565b5060a083013560c083015261331360c0840184613484565b60e0808501526130d461010085018284612d83565b90815260200190565b60008382526040602083015261247c6040830184612d54565b6000848252606060208301526133636060830185612d54565b905060018060a01b0383166040830152949350505050565b8481526020810184905260a08101613392846134e2565b836040830152825160608301526020830151608083015295945050505050565b6000808335601e198436030181126133c8578283fd5b8301803591506001600160401b038211156133e1578283fd5b60209081019250810236038213156124d057600080fd5b6040518181016001600160401b038111828210171561341657600080fd5b604052919050565b60006001600160401b03821115613433578081fd5b5060209081020190565b6000808335601e19843603018112613453578283fd5b83016020810192503590506001600160401b0381111561347257600080fd5b6020810236038313156124d057600080fd5b6000808335601e1984360301811261349a578283fd5b83016020810192503590506001600160401b038111156134b957600080fd5b8036038313156124d057600080fd5b60008235611eaa8161350f565b60008235611eaa8161351c565b6003811061097b57fe5b6001600160a01b038116811461097b57600080fd5b801515811461097b57600080fd5b6002811061097b57600080fd5b6003811061097b57600080fdfea2646970667358221220ff26e6447cf27ab39fa78e33db145ee0531703a4a20b83a691499b8792f7256364736f6c634300060c0033",
  "linkReferences": {},
  "deployedLinkReferences": {}
}