{
  "_format": "hh-sol-artifact-1",
  "contractName": "Actions",
  "sourceName": "contracts/deploy/Actions.sol",
  "abi": [
    {
      "inputs": [
        {
          "components": [
            {
              "internalType": "address",
              "name": "aggregator",
              "type": "address"
            },
            {
              "internalType": "enum IAggregator.SwapType",
              "name": "swapType",
              "type": "uint8"
            }
          ],
          "internalType": "struct IAggregator.SwapInfoBase",
          "name": "swapBase",
          "type": "tuple"
        },
        {
          "components": [
            {
              "internalType": "uint256",
              "name": "quantity",
              "type": "uint256"
            },
            {
              "internalType": "bytes",
              "name": "data",
              "type": "bytes"
            }
          ],
          "internalType": "struct IAggregator.SwapData",
          "name": "swapData",
          "type": "tuple"
        },
        {
          "internalType": "contract IERC20",
          "name": "swapAcceptToken",
          "type": "address"
        }
      ],
      "name": "_makeSwap",
      "outputs": [
        {
          "internalType": "uint256",
          "name": "postSwap",
          "type": "uint256"
        }
      ],
      "stateMutability": "nonpayable",
      "type": "function"
    },
    {
      "inputs": [
        {
          "internalType": "contract IConfigurableRightsPool",
          "name": "crp",
          "type": "address"
        },
        {
          "internalType": "uint256[]",
          "name": "sort",
          "type": "uint256[]"
        },
        {
          "internalType": "address[]",
          "name": "token",
          "type": "address[]"
        }
      ],
      "name": "addTokenToWhitelist",
      "outputs": [],
      "stateMutability": "nonpayable",
      "type": "function"
    },
    {
      "inputs": [
        {
          "internalType": "contract RebalaceAdapter",
          "name": "rebalanceAdapter",
          "type": "address"
        },
        {
          "internalType": "address",
          "name": "etf",
          "type": "address"
        },
        {
          "internalType": "address",
          "name": "token",
          "type": "address"
        },
        {
          "internalType": "address",
          "name": "spender",
          "type": "address"
        },
        {
          "internalType": "uint256",
          "name": "amount",
          "type": "uint256"
        }
      ],
      "name": "approveUnderlying",
      "outputs": [],
      "stateMutability": "nonpayable",
      "type": "function"
    },
    {
      "inputs": [
        {
          "internalType": "contract IConfigurableRightsPool",
          "name": "pool",
          "type": "address"
        },
        {
          "internalType": "uint256",
          "name": "poolAmountIn",
          "type": "uint256"
        },
        {
          "internalType": "uint256[]",
          "name": "minAmountsOut",
          "type": "uint256[]"
        },
        {
          "internalType": "uint256",
          "name": "minSwapReturn",
          "type": "uint256"
        },
        {
          "internalType": "address",
          "name": "handleToekn",
          "type": "address"
        },
        {
          "components": [
            {
              "internalType": "address",
              "name": "aggregator",
              "type": "address"
            },
            {
              "internalType": "enum IAggregator.SwapType",
              "name": "swapType",
              "type": "uint8"
            }
          ],
          "internalType": "struct IAggregator.SwapInfoBase",
          "name": "swapBase",
          "type": "tuple"
        },
        {
          "components": [
            {
              "internalType": "uint256",
              "name": "quantity",
              "type": "uint256"
            },
            {
              "internalType": "bytes",
              "name": "data",
              "type": "bytes"
            }
          ],
          "internalType": "struct IAggregator.SwapData[]",
          "name": "swapDatas",
          "type": "tuple[]"
        }
      ],
      "name": "autoExitSmartPool",
      "outputs": [],
      "stateMutability": "nonpayable",
      "type": "function"
    },
    {
      "inputs": [
        {
          "internalType": "contract IConfigurableRightsPool",
          "name": "pool",
          "type": "address"
        },
        {
          "internalType": "address",
          "name": "kol",
          "type": "address"
        },
        {
          "internalType": "uint256",
          "name": "issueAmount",
          "type": "uint256"
        },
        {
          "internalType": "uint256",
          "name": "poolAmountOut",
          "type": "uint256"
        },
        {
          "internalType": "address",
          "name": "handleToekn",
          "type": "address"
        },
        {
          "components": [
            {
              "internalType": "address",
              "name": "aggregator",
              "type": "address"
            },
            {
              "internalType": "enum IAggregator.SwapType",
              "name": "swapType",
              "type": "uint8"
            }
          ],
          "internalType": "struct IAggregator.SwapInfoBase",
          "name": "swapBase",
          "type": "tuple"
        },
        {
          "components": [
            {
              "internalType": "uint256",
              "name": "quantity",
              "type": "uint256"
            },
            {
              "internalType": "bytes",
              "name": "data",
              "type": "bytes"
            }
          ],
          "internalType": "struct IAggregator.SwapData[]",
          "name": "swapDatas",
          "type": "tuple[]"
        }
      ],
      "name": "autoJoinSmartPool",
      "outputs": [],
      "stateMutability": "nonpayable",
      "type": "function"
    },
    {
      "inputs": [
        {
          "internalType": "address",
          "name": "pool",
          "type": "address"
        }
      ],
      "name": "claimKolReward",
      "outputs": [],
      "stateMutability": "nonpayable",
      "type": "function"
    },
    {
      "inputs": [
        {
          "internalType": "contract IConfigurableRightsPool",
          "name": "crp",
          "type": "address"
        }
      ],
      "name": "claimManagementFee",
      "outputs": [],
      "stateMutability": "nonpayable",
      "type": "function"
    },
    {
      "inputs": [
        {
          "internalType": "address",
          "name": "vault_",
          "type": "address"
        },
        {
          "internalType": "address",
          "name": "pool",
          "type": "address"
        }
      ],
      "name": "claimManagersReward",
      "outputs": [],
      "stateMutability": "nonpayable",
      "type": "function"
    },
    {
      "inputs": [
        {
          "internalType": "contract FactoryActions",
          "name": "factory",
          "type": "address"
        },
        {
          "internalType": "address[]",
          "name": "tokens",
          "type": "address[]"
        },
        {
          "internalType": "uint256[]",
          "name": "balances",
          "type": "uint256[]"
        },
        {
          "internalType": "uint256[]",
          "name": "weights",
          "type": "uint256[]"
        },
        {
          "internalType": "bool",
          "name": "finalize",
          "type": "bool"
        }
      ],
      "name": "create",
      "outputs": [
        {
          "internalType": "contract LiquidityPoolActions",
          "name": "pool",
          "type": "address"
        }
      ],
      "stateMutability": "nonpayable",
      "type": "function"
    },
    {
      "inputs": [
        {
          "internalType": "contract ICRPFactory",
          "name": "factory",
          "type": "address"
        },
        {
          "internalType": "contract FactoryActions",
          "name": "coreFactory",
          "type": "address"
        },
        {
          "components": [
            {
              "internalType": "string",
              "name": "poolTokenSymbol",
              "type": "string"
            },
            {
              "internalType": "string",
              "name": "poolTokenName",
              "type": "string"
            },
            {
              "internalType": "address[]",
              "name": "constituentTokens",
              "type": "address[]"
            },
            {
              "internalType": "uint256[]",
              "name": "tokenBalances",
              "type": "uint256[]"
            },
            {
              "internalType": "uint256[]",
              "name": "tokenWeights",
              "type": "uint256[]"
            },
            {
              "internalType": "uint256",
              "name": "managerFee",
              "type": "uint256"
            },
            {
              "internalType": "uint256",
              "name": "redeemFee",
              "type": "uint256"
            },
            {
              "internalType": "uint256",
              "name": "issueFee",
              "type": "uint256"
            },
            {
              "internalType": "uint256",
              "name": "perfermanceFee",
              "type": "uint256"
            },
            {
              "internalType": "enum IConfigurableRightsPool.Etypes",
              "name": "etype",
              "type": "uint8"
            }
          ],
          "internalType": "struct IConfigurableRightsPool.PoolParams",
          "name": "poolParams",
          "type": "tuple"
        },
        {
          "components": [
            {
              "internalType": "uint256",
              "name": "initialSupply",
              "type": "uint256"
            },
            {
              "internalType": "uint256",
              "name": "collectPeriod",
              "type": "uint256"
            },
            {
              "internalType": "enum IConfigurableRightsPool.Period",
              "name": "period",
              "type": "uint8"
            }
          ],
          "internalType": "struct IConfigurableRightsPool.CrpParams",
          "name": "crpParams",
          "type": "tuple"
        },
        {
          "components": [
            {
              "internalType": "bool",
              "name": "canWhitelistLPs",
              "type": "bool"
            },
            {
              "internalType": "bool",
              "name": "canTokenWhiteLists",
              "type": "bool"
            }
          ],
          "internalType": "struct RightsManager.Rights",
          "name": "rights",
          "type": "tuple"
        },
        {
          "components": [
            {
              "components": [
                {
                  "components": [
                    {
                      "internalType": "uint256",
                      "name": "level",
                      "type": "uint256"
                    },
                    {
                      "internalType": "uint256",
                      "name": "ratio",
                      "type": "uint256"
                    }
                  ],
                  "internalType": "struct SmartPoolManager.levelParams",
                  "name": "firstLevel",
                  "type": "tuple"
                },
                {
                  "components": [
                    {
                      "internalType": "uint256",
                      "name": "level",
                      "type": "uint256"
                    },
                    {
                      "internalType": "uint256",
                      "name": "ratio",
                      "type": "uint256"
                    }
                  ],
                  "internalType": "struct SmartPoolManager.levelParams",
                  "name": "secondLevel",
                  "type": "tuple"
                },
                {
                  "components": [
                    {
                      "internalType": "uint256",
                      "name": "level",
                      "type": "uint256"
                    },
                    {
                      "internalType": "uint256",
                      "name": "ratio",
                      "type": "uint256"
                    }
                  ],
                  "internalType": "struct SmartPoolManager.levelParams",
                  "name": "thirdLevel",
                  "type": "tuple"
                },
                {
                  "components": [
                    {
                      "internalType": "uint256",
                      "name": "level",
                      "type": "uint256"
                    },
                    {
                      "internalType": "uint256",
                      "name": "ratio",
                      "type": "uint256"
                    }
                  ],
                  "internalType": "struct SmartPoolManager.levelParams",
                  "name": "fourLevel",
                  "type": "tuple"
                }
              ],
              "internalType": "struct SmartPoolManager.feeParams",
              "name": "managerFee",
              "type": "tuple"
            },
            {
              "components": [
                {
                  "components": [
                    {
                      "internalType": "uint256",
                      "name": "level",
                      "type": "uint256"
                    },
                    {
                      "internalType": "uint256",
                      "name": "ratio",
                      "type": "uint256"
                    }
                  ],
                  "internalType": "struct SmartPoolManager.levelParams",
                  "name": "firstLevel",
                  "type": "tuple"
                },
                {
                  "components": [
                    {
                      "internalType": "uint256",
                      "name": "level",
                      "type": "uint256"
                    },
                    {
                      "internalType": "uint256",
                      "name": "ratio",
                      "type": "uint256"
                    }
                  ],
                  "internalType": "struct SmartPoolManager.levelParams",
                  "name": "secondLevel",
                  "type": "tuple"
                },
                {
                  "components": [
                    {
                      "internalType": "uint256",
                      "name": "level",
                      "type": "uint256"
                    },
                    {
                      "internalType": "uint256",
                      "name": "ratio",
                      "type": "uint256"
                    }
                  ],
                  "internalType": "struct SmartPoolManager.levelParams",
                  "name": "thirdLevel",
                  "type": "tuple"
                },
                {
                  "components": [
                    {
                      "internalType": "uint256",
                      "name": "level",
                      "type": "uint256"
                    },
                    {
                      "internalType": "uint256",
                      "name": "ratio",
                      "type": "uint256"
                    }
                  ],
                  "internalType": "struct SmartPoolManager.levelParams",
                  "name": "fourLevel",
                  "type": "tuple"
                }
              ],
              "internalType": "struct SmartPoolManager.feeParams",
              "name": "issueFee",
              "type": "tuple"
            },
            {
              "components": [
                {
                  "components": [
                    {
                      "internalType": "uint256",
                      "name": "level",
                      "type": "uint256"
                    },
                    {
                      "internalType": "uint256",
                      "name": "ratio",
                      "type": "uint256"
                    }
                  ],
                  "internalType": "struct SmartPoolManager.levelParams",
                  "name": "firstLevel",
                  "type": "tuple"
                },
                {
                  "components": [
                    {
                      "internalType": "uint256",
                      "name": "level",
                      "type": "uint256"
                    },
                    {
                      "internalType": "uint256",
                      "name": "ratio",
                      "type": "uint256"
                    }
                  ],
                  "internalType": "struct SmartPoolManager.levelParams",
                  "name": "secondLevel",
                  "type": "tuple"
                },
                {
                  "components": [
                    {
                      "internalType": "uint256",
                      "name": "level",
                      "type": "uint256"
                    },
                    {
                      "internalType": "uint256",
                      "name": "ratio",
                      "type": "uint256"
                    }
                  ],
                  "internalType": "struct SmartPoolManager.levelParams",
                  "name": "thirdLevel",
                  "type": "tuple"
                },
                {
                  "components": [
                    {
                      "internalType": "uint256",
                      "name": "level",
                      "type": "uint256"
                    },
                    {
                      "internalType": "uint256",
                      "name": "ratio",
                      "type": "uint256"
                    }
                  ],
                  "internalType": "struct SmartPoolManager.levelParams",
                  "name": "fourLevel",
                  "type": "tuple"
                }
              ],
              "internalType": "struct SmartPoolManager.feeParams",
              "name": "redeemFee",
              "type": "tuple"
            },
            {
              "components": [
                {
                  "components": [
                    {
                      "internalType": "uint256",
                      "name": "level",
                      "type": "uint256"
                    },
                    {
                      "internalType": "uint256",
                      "name": "ratio",
                      "type": "uint256"
                    }
                  ],
                  "internalType": "struct SmartPoolManager.levelParams",
                  "name": "firstLevel",
                  "type": "tuple"
                },
                {
                  "components": [
                    {
                      "internalType": "uint256",
                      "name": "level",
                      "type": "uint256"
                    },
                    {
                      "internalType": "uint256",
                      "name": "ratio",
                      "type": "uint256"
                    }
                  ],
                  "internalType": "struct SmartPoolManager.levelParams",
                  "name": "secondLevel",
                  "type": "tuple"
                },
                {
                  "components": [
                    {
                      "internalType": "uint256",
                      "name": "level",
                      "type": "uint256"
                    },
                    {
                      "internalType": "uint256",
                      "name": "ratio",
                      "type": "uint256"
                    }
                  ],
                  "internalType": "struct SmartPoolManager.levelParams",
                  "name": "thirdLevel",
                  "type": "tuple"
                },
                {
                  "components": [
                    {
                      "internalType": "uint256",
                      "name": "level",
                      "type": "uint256"
                    },
                    {
                      "internalType": "uint256",
                      "name": "ratio",
                      "type": "uint256"
                    }
                  ],
                  "internalType": "struct SmartPoolManager.levelParams",
                  "name": "fourLevel",
                  "type": "tuple"
                }
              ],
              "internalType": "struct SmartPoolManager.feeParams",
              "name": "perfermanceFee",
              "type": "tuple"
            }
          ],
          "internalType": "struct SmartPoolManager.KolPoolParams",
          "name": "kolPoolParams",
          "type": "tuple"
        },
        {
          "internalType": "address[]",
          "name": "owners",
          "type": "address[]"
        },
        {
          "internalType": "uint256[]",
          "name": "ownerPercentage",
          "type": "uint256[]"
        },
        {
          "components": [
            {
              "internalType": "uint256",
              "name": "bspFloor",
              "type": "uint256"
            },
            {
              "internalType": "uint256",
              "name": "bspCap",
              "type": "uint256"
            }
          ],
          "internalType": "struct IConfigurableRightsPool.PoolTokenRange",
          "name": "tokenRange",
          "type": "tuple"
        }
      ],
      "name": "createSmartPool",
      "outputs": [
        {
          "internalType": "contract IConfigurableRightsPool",
          "name": "crp",
          "type": "address"
        }
      ],
      "stateMutability": "nonpayable",
      "type": "function"
    },
    {
      "inputs": [
        {
          "internalType": "contract IConfigurableRightsPool",
          "name": "pool",
          "type": "address"
        },
        {
          "internalType": "uint256",
          "name": "poolAmountIn",
          "type": "uint256"
        },
        {
          "internalType": "uint256[]",
          "name": "minAmountsOut",
          "type": "uint256[]"
        }
      ],
      "name": "exitPool",
      "outputs": [],
      "stateMutability": "nonpayable",
      "type": "function"
    },
    {
      "inputs": [
        {
          "internalType": "contract LiquidityPoolActions",
          "name": "pool",
          "type": "address"
        }
      ],
      "name": "finalize",
      "outputs": [],
      "stateMutability": "nonpayable",
      "type": "function"
    },
    {
      "inputs": [
        {
          "internalType": "contract LiquidityPoolActions",
          "name": "pool",
          "type": "address"
        },
        {
          "internalType": "uint256",
          "name": "poolAmountOut",
          "type": "uint256"
        },
        {
          "internalType": "uint256[]",
          "name": "maxAmountsIn",
          "type": "uint256[]"
        }
      ],
      "name": "joinPool",
      "outputs": [],
      "stateMutability": "nonpayable",
      "type": "function"
    },
    {
      "inputs": [
        {
          "internalType": "contract IConfigurableRightsPool",
          "name": "pool",
          "type": "address"
        },
        {
          "internalType": "uint256",
          "name": "poolAmountOut",
          "type": "uint256"
        },
        {
          "internalType": "uint256[]",
          "name": "maxAmountsIn",
          "type": "uint256[]"
        },
        {
          "internalType": "address",
          "name": "kol",
          "type": "address"
        }
      ],
      "name": "joinSmartPool",
      "outputs": [],
      "stateMutability": "nonpayable",
      "type": "function"
    },
    {
      "inputs": [
        {
          "internalType": "contract RebalaceAdapter",
          "name": "rebalanceAdapter",
          "type": "address"
        },
        {
          "components": [
            {
              "internalType": "address",
              "name": "etf",
              "type": "address"
            },
            {
              "internalType": "address",
              "name": "token0",
              "type": "address"
            },
            {
              "internalType": "address",
              "name": "token1",
              "type": "address"
            },
            {
              "internalType": "address",
              "name": "aggregator",
              "type": "address"
            },
            {
              "internalType": "enum RebalaceAdapter.SwapType",
              "name": "swapType",
              "type": "uint8"
            },
            {
              "internalType": "uint256",
              "name": "quantity",
              "type": "uint256"
            },
            {
              "internalType": "bytes",
              "name": "data",
              "type": "bytes"
            }
          ],
          "internalType": "struct RebalaceAdapter.RebalanceInfo",
          "name": "rebalanceInfo",
          "type": "tuple"
        }
      ],
      "name": "rebalance",
      "outputs": [],
      "stateMutability": "nonpayable",
      "type": "function"
    },
    {
      "inputs": [
        {
          "internalType": "contract IConfigurableRightsPool",
          "name": "crp",
          "type": "address"
        },
        {
          "internalType": "address",
          "name": "provider",
          "type": "address"
        }
      ],
      "name": "removeWhitelistedLiquidityProvider",
      "outputs": [],
      "stateMutability": "nonpayable",
      "type": "function"
    },
    {
      "inputs": [
        {
          "internalType": "contract IConfigurableRightsPool",
          "name": "crp",
          "type": "address"
        },
        {
          "internalType": "uint256",
          "name": "newCap",
          "type": "uint256"
        }
      ],
      "name": "setCap",
      "outputs": [],
      "stateMutability": "nonpayable",
      "type": "function"
    },
    {
      "inputs": [
        {
          "internalType": "contract AbstractPool",
          "name": "pool",
          "type": "address"
        },
        {
          "internalType": "address",
          "name": "newController",
          "type": "address"
        }
      ],
      "name": "setController",
      "outputs": [],
      "stateMutability": "nonpayable",
      "type": "function"
    },
    {
      "inputs": [
        {
          "internalType": "contract AbstractPool",
          "name": "pool",
          "type": "address"
        },
        {
          "internalType": "address[]",
          "name": "_owners",
          "type": "address[]"
        },
        {
          "internalType": "uint256[]",
          "name": "_ownerPercentage",
          "type": "uint256[]"
        }
      ],
      "name": "setManagersInfo",
      "outputs": [],
      "stateMutability": "nonpayable",
      "type": "function"
    },
    {
      "inputs": [
        {
          "internalType": "contract AbstractPool",
          "name": "pool",
          "type": "address"
        },
        {
          "internalType": "bool",
          "name": "publicSwap",
          "type": "bool"
        }
      ],
      "name": "setPublicSwap",
      "outputs": [],
      "stateMutability": "nonpayable",
      "type": "function"
    },
    {
      "inputs": [
        {
          "internalType": "contract IConfigurableRightsPool",
          "name": "pool",
          "type": "address"
        }
      ],
      "name": "snapshotBeginAssets",
      "outputs": [],
      "stateMutability": "nonpayable",
      "type": "function"
    },
    {
      "inputs": [
        {
          "internalType": "contract IConfigurableRightsPool",
          "name": "pool",
          "type": "address"
        }
      ],
      "name": "snapshotEndAssets",
      "outputs": [],
      "stateMutability": "nonpayable",
      "type": "function"
    },
    {
      "inputs": [
        {
          "internalType": "contract IConfigurableRightsPool",
          "name": "crp",
          "type": "address"
        },
        {
          "internalType": "address",
          "name": "provider",
          "type": "address"
        }
      ],
      "name": "whitelistLiquidityProvider",
      "outputs": [],
      "stateMutability": "nonpayable",
      "type": "function"
    }
  ],
  "bytecode": "0x608060405234801561001057600080fd5b50614483806100206000396000f3fe608060405234801561001057600080fd5b506004361061011d5760003560e01c806307f4e347146101225780630ebb32711461014b578063135b968d146101605780631eccc18514610173578063271b789514610186578063333fbeef146101995780633e67f157146101ac57806349f77d55146101bf5780634ef39b75146101d25780635135aafb146101e557806363ced092146101f85780636936674d1461020b5780637b7d6c681461021e57806380ad2cf31461023157806383af451a146102445780638a5c57df146102575780638a6900f21461026a5780639589da761461028a5780639f39fa7d1461029d578063a7f28da7146102b0578063a92f00ff146102c3578063e221e73a146102d6578063fb411265146102e9575b600080fd5b6101356101303660046133a0565b6102fc565b6040516101429190613bae565b60405180910390f35b61015e610159366004613176565b610609565b005b61015e61016e3660046135bc565b61065f565b61015e6101813660046132b8565b610791565b61015e610194366004613176565b6107eb565b61015e6101a7366004613234565b610826565b61015e6101ba3660046137d4565b610852565b61015e6101cd366004613771565b61087e565b61015e6101e0366004613176565b6108e9565b61015e6101f3366004613246565b610a50565b61015e61020636600461362d565b610abe565b61015e610219366004613176565b610bbb565b61015e61022c366004613234565b610bf5565b61015e61023f366004613591565b610c2a565b61015e610252366004613491565b610c56565b61015e610265366004613718565b61120a565b61027d610278366004613854565b6112c4565b6040516101429190614190565b61015e610298366004613529565b611541565b61015e6102ab366004613679565b61156f565b61015e6102be366004613234565b611a56565b6101356102d13660046132e5565b611a82565b61015e6102e43660046131ae565b611e2c565b61015e6102f7366004613176565b611e58565b600061030b6060890189614275565b905061031a60408a018a614275565b9050146103425760405162461bcd60e51b815260040161033990613e5c565b60405180910390fd5b61034f6080890189614275565b905061035e60408a018a614275565b90501461037d5760405162461bcd60e51b815260040161033990613e5c565b604051632c60e63560e01b81526001600160a01b038b1690632c60e635906103b3908c908c908b908b908b908b90600401613c43565b602060405180830381600087803b1580156103cd57600080fd5b505af11580156103e1573d6000803e3d6000fd5b505050506040513d601f19601f820116820180604052508101906104059190613192565b905060005b61041760408a018a614275565b90508110156104e657600061042f60408b018b614275565b8381811061043957fe5b905060200201602081019061044e9190613176565b905061048d333061046260608e018e614275565b8681811061046c57fe5b90506020020135846001600160a01b0316611e93909392919063ffffffff16565b6104a26001600160a01b038216846000611eeb565b6104dd836104b360608d018d614275565b858181106104bd57fe5b90506020020135836001600160a01b0316611eeb9092919063ffffffff16565b5060010161040a565b506001600160a01b038116630892b93d883560208a013561050d60608c0160408d01613838565b866040518563ffffffff1660e01b815260040161052d949392919061423e565b600060405180830381600087803b15801561054757600080fd5b505af115801561055b573d6000803e3d6000fd5b505060405163a9059cbb60e01b81526001600160a01b038416925063a9059cbb915061058e9033908b3590600401613be6565b602060405180830381600087803b1580156105a857600080fd5b505af11580156105bc573d6000803e3d6000fd5b505050506040513d601f19601f820116820180604052508101906105e09190613218565b6105fc5760405162461bcd60e51b815260040161033990613f6b565b9998505050505050505050565b806001600160a01b03166343774a6b6040518163ffffffff1660e01b8152600401600060405180830381600087803b15801561064457600080fd5b505af1158015610658573d6000803e3d6000fd5b5050505050565b6060856001600160a01b031663b64ef17b6040518163ffffffff1660e01b815260040160206040518083038186803b15801561069a57600080fd5b505afa1580156106ae573d6000803e3d6000fd5b505050506040513d601f19601f820116820180604052508101906106d29190613192565b6001600160a01b031663cc77828d6040518163ffffffff1660e01b815260040160006040518083038186803b15801561070a57600080fd5b505afa15801561071e573d6000803e3d6000fd5b505050506040513d6000823e601f3d908101601f1916820160405261074691908101906131e6565b9050610789868287878780806020026020016040519081016040528093929190818152602001838360200280828437600092019190915250899250611fb3915050565b505050505050565b6040516324dacaa960e11b81526001600160a01b038316906349b59552906107bd908490600401613e1e565b600060405180830381600087803b1580156107d757600080fd5b505af1158015610789573d6000803e3d6000fd5b806001600160a01b0316631296548f6040518163ffffffff1660e01b8152600401600060405180830381600087803b15801561064457600080fd5b60405163c83a1c2d60e01b81526001600160a01b0383169063c83a1c2d906107bd908490600401613bae565b604051637051b85760e11b81526001600160a01b0383169063e0a370ae906107bd9084906004016140db565b60405163167ae91560e21b81526001600160a01b038616906359eba454906108b0908790879087908790600401613c19565b600060405180830381600087803b1580156108ca57600080fd5b505af11580156108de573d6000803e3d6000fd5b505050505050505050565b806001600160a01b0316634bb278f36040518163ffffffff1660e01b8152600401600060405180830381600087803b15801561092457600080fd5b505af1158015610938573d6000803e3d6000fd5b50506040516370a0823160e01b81526001600160a01b038416925063a9059cbb9150339083906370a0823190610972903090600401613bae565b60206040518083038186803b15801561098a57600080fd5b505afa15801561099e573d6000803e3d6000fd5b505050506040513d601f19601f820116820180604052508101906109c291906138b4565b6040518363ffffffff1660e01b81526004016109df929190613be6565b602060405180830381600087803b1580156109f957600080fd5b505af1158015610a0d573d6000803e3d6000fd5b505050506040513d601f19601f82011682018060405250810190610a319190613218565b610a4d5760405162461bcd60e51b815260040161033990613f6b565b50565b610a59836122af565b6040516303c153ef60e61b81526001600160a01b0384169063f054fbc090610a879085908590600401613dd4565b600060405180830381600087803b158015610aa157600080fd5b505af1158015610ab5573d6000803e3d6000fd5b50505050505050565b6060836001600160a01b031663b64ef17b6040518163ffffffff1660e01b815260040160206040518083038186803b158015610af957600080fd5b505afa158015610b0d573d6000803e3d6000fd5b505050506040513d601f19601f82011682018060405250810190610b319190613192565b6001600160a01b031663cc77828d6040518163ffffffff1660e01b815260040160006040518083038186803b158015610b6957600080fd5b505afa158015610b7d573d6000803e3d6000fd5b505050506040513d6000823e601f3d908101601f19168201604052610ba591908101906131e6565b9050610bb58484848460006122c1565b50505050565b6000610bc682612645565b60405163325a48a760e21b81529091506001600160a01b0382169063c969229c906107bd908590600401613bae565b610bfe826122af565b6040516392eefe9b60e01b81526001600160a01b038316906392eefe9b906107bd908490600401613bae565b6040516347786d3760e01b81526001600160a01b038316906347786d37906107bd908490600401614190565b6060876001600160a01b031663b64ef17b6040518163ffffffff1660e01b815260040160206040518083038186803b158015610c9157600080fd5b505afa158015610ca5573d6000803e3d6000fd5b505050506040513d601f19601f82011682018060405250810190610cc99190613192565b6001600160a01b031663cc77828d6040518163ffffffff1660e01b815260040160006040518083038186803b158015610d0157600080fd5b505afa158015610d15573d6000803e3d6000fd5b505050506040513d6000823e601f3d908101601f19168201604052610d3d91908101906131e6565b90508151815114610d605760405162461bcd60e51b815260040161033990613ebe565b606081516001600160401b0381118015610d7957600080fd5b50604051908082528060200260200182016040528015610da3578160200160208202803683370190505b5090503385610dbd6001600160a01b03821683308c611e93565b610ddf610dcd6020880188613176565b6001600160a01b038316906000611eeb565b610e00610def6020880188613176565b6001600160a01b038316908b611eeb565b60005b8451811015610f1657610e14612e53565b868281518110610e2057fe5b602002602001015190506000868381518110610e3857fe5b60200260200101519050896001600160a01b0316878481518110610e5857fe5b60200260200101516001600160a01b031614610ea857610e8c8983898681518110610e7f57fe5b60200260200101516112c4565b868481518110610e9857fe5b6020026020010181815250610ec5565b8160000151868481518110610eb957fe5b60200260200101818152505b50610edb6001600160a01b0382168f6000611eeb565b610f0c8e878581518110610eeb57fe5b6020026020010151836001600160a01b0316611eeb9092919063ffffffff16565b5050600101610e03565b5060405163077df9bd60e31b81526001600160a01b038c1690633befcde890610f47908b9087908f906004016141b2565b600060405180830381600087803b158015610f6157600080fd5b505af1158015610f75573d6000803e3d6000fd5b5050505060005b84518110156110bb576000858281518110610f9357fe5b602002602001015190506000816001600160a01b03166370a08231306040518263ffffffff1660e01b8152600401610fcb9190613bae565b60206040518083038186803b158015610fe357600080fd5b505afa158015610ff7573d6000803e3d6000fd5b505050506040513d601f19601f8201168201806040525081019061101b91906138b4565b11156110b2576110b284826001600160a01b03166370a08231306040518263ffffffff1660e01b81526004016110519190613bae565b60206040518083038186803b15801561106957600080fd5b505afa15801561107d573d6000803e3d6000fd5b505050506040513d601f19601f820116820180604052508101906110a191906138b4565b6001600160a01b03841691906126cd565b50600101610f7c565b506110ec82826001600160a01b03166370a08231306040518263ffffffff1660e01b81526004016110519190613bae565b6040516370a0823160e01b81526001600160a01b038c169063a9059cbb90849083906370a0823190611122903090600401613bae565b60206040518083038186803b15801561113a57600080fd5b505afa15801561114e573d6000803e3d6000fd5b505050506040513d601f19601f8201168201806040525081019061117291906138b4565b6040518363ffffffff1660e01b815260040161118f929190613be6565b602060405180830381600087803b1580156111a957600080fd5b505af11580156111bd573d6000803e3d6000fd5b505050506040513d601f19601f820116820180604052508101906111e19190613218565b6111fd5760405162461bcd60e51b815260040161033990613f6b565b5050505050505050505050565b6060846001600160a01b031663be3bbd2e6040518163ffffffff1660e01b815260040160006040518083038186803b15801561124557600080fd5b505afa158015611259573d6000803e3d6000fd5b505050506040513d6000823e601f3d908101601f1916820160405261128191908101906131e6565b9050610658858286868680806020026020016040519081016040528093929190818152602001838360200280828437600092019190915250339250611fb3915050565b600080826001600160a01b03166370a08231306040518263ffffffff1660e01b81526004016112f39190613bae565b60206040518083038186803b15801561130b57600080fd5b505afa15801561131f573d6000803e3d6000fd5b505050506040513d601f19601f8201168201806040525081019061134391906138b4565b905060016113576040870160208801613838565b600281111561136257fe5b1415611401576000606085602001518060200190518101906113849190613910565b90925090506113966020880188613176565b8651604051637224811760e11b81526001600160a01b03929092169163e449022e916113c8918690869060040161421f565b600060405180830381600087803b1580156113e257600080fd5b505af11580156113f6573d6000803e3d6000fd5b5050505050506114b2565b60006114136040870160208801613838565b600281111561141e57fe5b14156114945760006060856020015180602001905181019061144091906138cc565b90925090506114526020880188613176565b6001600160a01b03166338ed17398760000151848430611474426107086126ec565b6040518663ffffffff1660e01b81526004016113c89594939291906141e3565b6114b06114a46020870187613176565b8560200151600061271a565b505b6040516370a0823160e01b8152611538906001600160a01b038516906370a08231906114e2903090600401613bae565b60206040518083038186803b1580156114fa57600080fd5b505afa15801561150e573d6000803e3d6000fd5b505050506040513d601f19601f8201168201806040525081019061153291906138b4565b82612748565b95945050505050565b6040516329b0917160e21b81526001600160a01b0384169063a6c245c490610a879085908590600401613df9565b6060876001600160a01b031663b64ef17b6040518163ffffffff1660e01b815260040160206040518083038186803b1580156115aa57600080fd5b505afa1580156115be573d6000803e3d6000fd5b505050506040513d601f19601f820116820180604052508101906115e29190613192565b6001600160a01b031663cc77828d6040518163ffffffff1660e01b815260040160006040518083038186803b15801561161a57600080fd5b505afa15801561162e573d6000803e3d6000fd5b505050506040513d6000823e601f3d908101601f1916820160405261165691908101906131e6565b8251815191925090811461167c5760405162461bcd60e51b815260040161033990613ebe565b6040516370a0823160e01b815285906000906001600160a01b038316906370a08231906116ad903090600401613bae565b60206040518083038186803b1580156116c557600080fd5b505afa1580156116d9573d6000803e3d6000fd5b505050506040513d601f19601f820116820180604052508101906116fd91906138b4565b90506060836001600160401b038111801561171757600080fd5b50604051908082528060200260200182016040528015611741578160200160208202803683370190505b50905060005b848110156117fd5785818151811061175b57fe5b60200260200101516001600160a01b03166370a08231306040518263ffffffff1660e01b815260040161178e9190613bae565b60206040518083038186803b1580156117a657600080fd5b505afa1580156117ba573d6000803e3d6000fd5b505050506040513d601f19601f820116820180604052508101906117de91906138b4565b8282815181106117ea57fe5b6020908102919091010152600101611747565b506118136001600160a01b038d16306000611eeb565b6118296001600160a01b038d1630600019611eeb565b6118378c8c8c8860016122c1565b60005b848110156119895761184a612e53565b87828151811061185657fe5b60200260200101519050600087838151811061186e57fe5b60200260200101519050856001600160a01b031688848151811061188e57fe5b60200260200101516001600160a01b03161461197f576040516370a0823160e01b815261193d906001600160a01b038316906370a08231906118d4903090600401613bae565b60206040518083038186803b1580156118ec57600080fd5b505afa158015611900573d6000803e3d6000fd5b505050506040513d601f19601f8201168201806040525081019061192491906138b4565b85858151811061193057fe5b6020026020010151612748565b825261194f610dcd60208c018c613176565b61197261195f60208c018c613176565b83516001600160a01b0384169190611eeb565b61197d8a838d6112c4565b505b505060010161183a565b506000611a11846001600160a01b03166370a08231306040518263ffffffff1660e01b81526004016119bb9190613bae565b60206040518083038186803b1580156119d357600080fd5b505afa1580156119e7573d6000803e3d6000fd5b505050506040513d601f19601f82011682018060405250810190611a0b91906138b4565b84612748565b9050808a1115611a335760405162461bcd60e51b815260040161033990613fcf565b611a476001600160a01b03851633836126cd565b50505050505050505050505050565b60405163e2762d4b60e01b81526001600160a01b0383169063e2762d4b906107bd908490600401613bae565b6000868514611aa35760405162461bcd60e51b815260040161033990613e5c565b868314611ac25760405162461bcd60e51b815260040161033990613e5c565b886001600160a01b03166391cefde46040518163ffffffff1660e01b8152600401602060405180830381600087803b158015611afd57600080fd5b505af1158015611b11573d6000803e3d6000fd5b505050506040513d601f19601f82011682018060405250810190611b359190613192565b905060005b87811015611c50576000898983818110611b5057fe5b9050602002016020810190611b659190613176565b9050611b7833308a8a8681811061046c57fe5b611b8d6001600160a01b038216846000611eeb565b611b9d838989858181106104bd57fe5b826001600160a01b031663e4e1e5388b8b85818110611bb857fe5b9050602002016020810190611bcd9190613176565b8a8a86818110611bd957fe5b90506020020135898987818110611bec57fe5b905060200201356040518463ffffffff1660e01b8152600401611c1193929190613db3565b600060405180830381600087803b158015611c2b57600080fd5b505af1158015611c3f573d6000803e3d6000fd5b505060019093019250611b3a915050565b508115611dc057806001600160a01b0316634bb278f36040518163ffffffff1660e01b8152600401600060405180830381600087803b158015611c9257600080fd5b505af1158015611ca6573d6000803e3d6000fd5b50506040516370a0823160e01b81526001600160a01b038416925063a9059cbb9150339083906370a0823190611ce0903090600401613bae565b60206040518083038186803b158015611cf857600080fd5b505afa158015611d0c573d6000803e3d6000fd5b505050506040513d601f19601f82011682018060405250810190611d3091906138b4565b6040518363ffffffff1660e01b8152600401611d4d929190613be6565b602060405180830381600087803b158015611d6757600080fd5b505af1158015611d7b573d6000803e3d6000fd5b505050506040513d601f19601f82011682018060405250810190611d9f9190613218565b611dbb5760405162461bcd60e51b815260040161033990613f6b565b611e20565b6040516324dacaa960e11b81526001600160a01b038216906349b5955290611ded90600190600401613e1e565b600060405180830381600087803b158015611e0757600080fd5b505af1158015611e1b573d6000803e3d6000fd5b505050505b98975050505050505050565b60405163edb12adf60e01b81526001600160a01b0383169063edb12adf906107bd908490600401613bae565b806001600160a01b031663d2fed42e6040518163ffffffff1660e01b8152600401600060405180830381600087803b15801561064457600080fd5b610bb5846323b872dd60e01b858585604051602401611eb493929190613bc2565b60408051601f198184030181529190526020810180516001600160e01b03166001600160e01b03199093169290921790915261278a565b801580611f735750604051636eb1769f60e11b81526001600160a01b0384169063dd62ed3e90611f219030908690600401613bff565b60206040518083038186803b158015611f3957600080fd5b505afa158015611f4d573d6000803e3d6000fd5b505050506040513d601f19601f82011682018060405250810190611f7191906138b4565b155b611f8f5760405162461bcd60e51b81526004016103399061404e565b611fae8363095ea7b360e01b8484604051602401611eb4929190613be6565b505050565b8351825114611fd45760405162461bcd60e51b815260040161033990613e5c565b60005b8451811015612059576000858281518110611fee57fe5b6020026020010151905061202b333086858151811061200957fe5b6020026020010151846001600160a01b0316611e93909392919063ffffffff16565b6120406001600160a01b038216886000611eeb565b61205087858481518110610eeb57fe5b50600101611fd7565b5060405163077df9bd60e31b81526001600160a01b03861690633befcde89061208a908690869086906004016141b2565b600060405180830381600087803b1580156120a457600080fd5b505af11580156120b8573d6000803e3d6000fd5b5050505060005b845181101561219d5760008582815181106120d657fe5b602002602001015190506000816001600160a01b03166370a08231306040518263ffffffff1660e01b815260040161210e9190613bae565b60206040518083038186803b15801561212657600080fd5b505afa15801561213a573d6000803e3d6000fd5b505050506040513d601f19601f8201168201806040525081019061215e91906138b4565b11156121945761219433826001600160a01b03166370a08231306040518263ffffffff1660e01b81526004016110519190613bae565b506001016120bf565b506040516370a0823160e01b81526001600160a01b0386169063a9059cbb90339083906370a08231906121d4903090600401613bae565b60206040518083038186803b1580156121ec57600080fd5b505afa158015612200573d6000803e3d6000fd5b505050506040513d601f19601f8201168201806040525081019061222491906138b4565b6040518363ffffffff1660e01b8152600401612241929190613be6565b602060405180830381600087803b15801561225b57600080fd5b505af115801561226f573d6000803e3d6000fd5b505050506040513d601f19601f820116820180604052508101906122939190613218565b6106585760405162461bcd60e51b815260040161033990613f6b565b6122b881611e58565b610a4d8161286f565b6040516370a0823160e01b81526000906001600160a01b038716906370a08231906122f0903390600401613bae565b60206040518083038186803b15801561230857600080fd5b505afa15801561231c573d6000803e3d6000fd5b505050506040513d601f19601f8201168201806040525081019061234091906138b4565b6040516323b872dd60e01b81529091506001600160a01b038716906323b872dd9061237390339030908690600401613bc2565b602060405180830381600087803b15801561238d57600080fd5b505af11580156123a1573d6000803e3d6000fd5b505050506040513d601f19601f820116820180604052508101906123c59190613218565b6123e15760405162461bcd60e51b815260040161033990613f6b565b6123ec868783612aff565b60405163b02f0b7360e01b81526001600160a01b0387169063b02f0b739061241a9088908890600401614199565b600060405180830381600087803b15801561243457600080fd5b505af1158015612448573d6000803e3d6000fd5b50505050816125345760005b835181101561253257600084828151811061246b57fe5b602002602001015190506000816001600160a01b03166370a08231306040518263ffffffff1660e01b81526004016124a39190613bae565b60206040518083038186803b1580156124bb57600080fd5b505afa1580156124cf573d6000803e3d6000fd5b505050506040513d601f19601f820116820180604052508101906124f391906138b4565b11156125295761252933826001600160a01b03166370a08231306040518263ffffffff1660e01b81526004016110519190613bae565b50600101612454565b505b6040516370a0823160e01b81526001600160a01b0387169063a9059cbb90339083906370a082319061256a903090600401613bae565b60206040518083038186803b15801561258257600080fd5b505afa158015612596573d6000803e3d6000fd5b505050506040513d601f19601f820116820180604052508101906125ba91906138b4565b6040518363ffffffff1660e01b81526004016125d7929190613be6565b602060405180830381600087803b1580156125f157600080fd5b505af1158015612605573d6000803e3d6000fd5b505050506040513d601f19601f820116820180604052508101906126299190613218565b6107895760405162461bcd60e51b815260040161033990613f6b565b60008061265183612c89565b9050806001600160a01b0316639daafec76040518163ffffffff1660e01b8152600401602060405180830381600087803b15801561268e57600080fd5b505af11580156126a2573d6000803e3d6000fd5b505050506040513d601f19601f820116820180604052508101906126c69190613192565b9392505050565b611fae8363a9059cbb60e01b8484604051602401611eb4929190613be6565b6000828201838110156127115760405162461bcd60e51b815260040161033990613e89565b90505b92915050565b606061274084848460405180606001604052806029815260200161442560299139612cfc565b949350505050565b600061271183836040518060400160405280601e81526020017f536166654d6174683a207375627472616374696f6e206f766572666c6f770000815250612d2a565b61279c826001600160a01b0316612d56565b6127b85760405162461bcd60e51b8152600401610339906140a4565b60006060836001600160a01b0316836040516127d49190613b92565b6000604051808303816000865af19150503d8060008114612811576040519150601f19603f3d011682016040523d82523d6000602084013e612816565b606091505b5091509150816128385760405162461bcd60e51b815260040161033990613ef0565b805115610bb557808060200190518101906128539190613218565b610bb55760405162461bcd60e51b815260040161033990614004565b600061287a82612c89565b9050600061288783612645565b90506000826001600160a01b031663c0fcb166856040518263ffffffff1660e01b81526004016128b79190613bae565b60206040518083038186803b1580156128cf57600080fd5b505afa1580156128e3573d6000803e3d6000fd5b505050506040513d601f19601f820116820180604052508101906129079190613218565b90506000826001600160a01b031663c0fcb166866040518263ffffffff1660e01b81526004016129379190613bae565b60206040518083038186803b15801561294f57600080fd5b505afa158015612963573d6000803e3d6000fd5b505050506040513d601f19601f820116820180604052508101906129879190613218565b90506000856001600160a01b03166373a9855c6040518163ffffffff1660e01b8152600401602060405180830381600087803b1580156129c657600080fd5b505af11580156129da573d6000803e3d6000fd5b505050506040513d601f19601f820116820180604052508101906129fe919061381c565b90506000816001811115612a0e57fe5b148015612a185750825b15612a7c5760405163edb12adf60e01b81526001600160a01b0386169063edb12adf90612a49908990600401613bae565b600060405180830381600087803b158015612a6357600080fd5b505af1158015612a77573d6000803e3d6000fd5b505050505b6001816001811115612a8a57fe5b148015612a945750815b156107895760405163edb12adf60e01b81526001600160a01b0385169063edb12adf90612ac5908990600401613bae565b600060405180830381600087803b158015612adf57600080fd5b505af1158015612af3573d6000803e3d6000fd5b50505050505050505050565b604051636eb1769f60e11b81526000906001600160a01b0385169063dd62ed3e90612b309030908790600401613bff565b60206040518083038186803b158015612b4857600080fd5b505afa158015612b5c573d6000803e3d6000fd5b505050506040513d601f19601f82011682018060405250810190612b8091906138b4565b1115612c095760405163095ea7b360e01b81526001600160a01b0384169063095ea7b390612bb5908590600090600401613be6565b602060405180830381600087803b158015612bcf57600080fd5b505af1158015612be3573d6000803e3d6000fd5b505050506040513d601f19601f82011682018060405250810190612c079190613218565b505b60405163095ea7b360e01b81526001600160a01b0384169063095ea7b390612c379085908590600401613be6565b602060405180830381600087803b158015612c5157600080fd5b505af1158015612c65573d6000803e3d6000fd5b505050506040513d601f19601f82011682018060405250810190610bb59190613218565b6000816001600160a01b031663430bf08a6040518163ffffffff1660e01b815260040160206040518083038186803b158015612cc457600080fd5b505afa158015612cd8573d6000803e3d6000fd5b505050506040513d601f19601f820116820180604052508101906127149190613192565b606082471015612d1e5760405162461bcd60e51b815260040161033990613f25565b61153885858585612d8f565b60008184841115612d4e5760405162461bcd60e51b81526004016103399190613e29565b505050900390565b6000813f7fc5d2460186f7233c927e7db2dcc703c0e500b653ca82273b7bfad8045d85a470818114801590612740575050151592915050565b6060612d9a85612d56565b612db65760405162461bcd60e51b815260040161033990613f98565b60006060866001600160a01b03168587604051612dd39190613b92565b60006040518083038185875af1925050503d8060008114612e10576040519150601f19603f3d011682016040523d82523d6000602084013e612e15565b606091505b50915091508115612e295791506127409050565b805115612e395780518082602001fd5b8360405162461bcd60e51b81526004016103399190613e29565b604051806040016040528060008152602001606081525090565b60008083601f840112612e7e578182fd5b5081356001600160401b03811115612e94578182fd5b6020830191508360208083028501011115612eae57600080fd5b9250929050565b600082601f830112612ec5578081fd5b8135612ed8612ed3826142e1565b6142bb565b818152915060208083019084810181840286018201871015612ef957600080fd5b60005b84811015612f21578135612f0f816143e7565b84529282019290820190600101612efc565b505050505092915050565b600082601f830112612f3c578081fd5b8151612f4a612ed3826142e1565b818152915060208083019084810181840286018201871015612f6b57600080fd5b60005b84811015612f21578151612f81816143e7565b84529282019290820190600101612f6e565b600082601f830112612fa3578081fd5b8135612fb1612ed3826142e1565b818152915060208083019084810160005b84811015612f2157612fd9888484358a01016130d1565b84529282019290820190600101612fc2565b600082601f830112612ffb578081fd5b8135613009612ed3826142e1565b81815291506020808301908481018184028601820187101561302a57600080fd5b60005b84811015612f215781358452928201929082019060010161302d565b8035612714816143e7565b600060608284031215613065578081fd5b50919050565b60006104008284031215613065578081fd5b60006101408284031215613065578081fd5b6000604082840312156130a0578081fd5b6130aa60406142bb565b9050813581526020820135602082015292915050565b600060408284031215613065578081fd5b6000604082840312156130e2578081fd5b6130ec60406142bb565b9050813581526020808301356001600160401b038082111561310d57600080fd5b818501915085601f83011261312157600080fd5b81358181111561313057600080fd5b613142601f8201601f191685016142bb565b9150808252868482850101111561315857600080fd5b613167818584018686016143a5565b50808385015250505092915050565b600060208284031215613187578081fd5b8135612711816143e7565b6000602082840312156131a3578081fd5b8151612711816143e7565b600080604083850312156131c0578081fd5b82356131cb816143e7565b915060208301356131db816143e7565b809150509250929050565b6000602082840312156131f7578081fd5b81516001600160401b0381111561320c578182fd5b61274084828501612f2c565b600060208284031215613229578081fd5b8151612711816143fc565b600080604083850312156131c0578182fd5b60008060006060848603121561325a578081fd5b8335613265816143e7565b925060208401356001600160401b0380821115613280578283fd5b61328c87838801612eb5565b935060408601359150808211156132a1578283fd5b506132ae86828701612feb565b9150509250925092565b600080604083850312156132ca578182fd5b82356132d5816143e7565b915060208301356131db816143fc565b60008060008060008060008060a0898b031215613300578586fd5b883561330b816143e7565b975060208901356001600160401b0380821115613326578788fd5b6133328c838d01612e6d565b909950975060408b013591508082111561334a578586fd5b6133568c838d01612e6d565b909750955060608b013591508082111561336e578485fd5b5061337b8b828c01612e6d565b909450925050608089013561338f816143fc565b809150509295985092959890939650565b60008060008060008060008060006105808a8c0312156133be578283fd5b6133c88b8b613049565b98506133d78b60208c01613049565b975060408a01356001600160401b03808211156133f2578485fd5b6133fe8d838e0161307d565b985061340d8d60608e01613054565b975061341c8d60c08e016130c0565b965061342c8d6101008e0161306b565b95506105008c0135915080821115613442578485fd5b61344e8d838e01612eb5565b94506105208c0135915080821115613464578283fd5b506134718c828d01612feb565b9250506134828b6105408c0161308f565b90509295985092959850929598565b6000806000806000806000610100888a0312156134ac578081fd5b87356134b7816143e7565b965060208801356134c7816143e7565b9550604088013594506060880135935060808801356134e5816143e7565b92506134f48960a08a016130c0565b915060e08801356001600160401b0381111561350e578182fd5b61351a8a828b01612f93565b91505092959891949750929550565b60008060006060848603121561353d578081fd5b8335613548816143e7565b925060208401356001600160401b0380821115613563578283fd5b61356f87838801612feb565b93506040860135915080821115613584578283fd5b506132ae86828701612eb5565b600080604083850312156135a3578182fd5b82356135ae816143e7565b946020939093013593505050565b6000806000806000608086880312156135d3578283fd5b85356135de816143e7565b94506020860135935060408601356001600160401b038111156135ff578384fd5b61360b88828901612e6d565b909450925050606086013561361f816143e7565b809150509295509295909350565b600080600060608486031215613641578081fd5b833561364c816143e7565b92506020840135915060408401356001600160401b0381111561366d578182fd5b6132ae86828701612feb565b6000806000806000806000610100888a031215613694578081fd5b873561369f816143e7565b96506020880135955060408801356001600160401b03808211156136c1578283fd5b6136cd8b838c01612feb565b965060608a0135955060808a013591506136e6826143e7565b8194506136f68b60a08c016130c0565b935060e08a013591508082111561370b578283fd5b5061351a8a828b01612f93565b6000806000806060858703121561372d578182fd5b8435613738816143e7565b93506020850135925060408501356001600160401b03811115613759578283fd5b61376587828801612e6d565b95989497509550505050565b600080600080600060a08688031215613788578283fd5b8535613793816143e7565b945060208601356137a3816143e7565b935060408601356137b3816143e7565b925060608601356137c3816143e7565b949793965091946080013592915050565b600080604083850312156137e6578182fd5b82356137f1816143e7565b915060208301356001600160401b0381111561380b578182fd5b830160e081860312156131db578182fd5b60006020828403121561382d578081fd5b81516127118161440a565b600060208284031215613849578081fd5b813561271181614417565b600080600060808486031215613868578081fd5b61387285856130c0565b925060408401356001600160401b0381111561388c578182fd5b613898868287016130d1565b92505060608401356138a9816143e7565b809150509250925092565b6000602082840312156138c5578081fd5b5051919050565b600080604083850312156138de578182fd5b8251915060208301516001600160401b038111156138fa578182fd5b61390685828601612f2c565b9150509250929050565b60008060408385031215613922578182fd5b825191506020808401516001600160401b0381111561393f578283fd5b8401601f8101861361394f578283fd5b805161395d612ed3826142e1565b81815283810190838501858402850186018a1015613979578687fd5b8694505b8385101561399b57805183526001949094019391850191850161397d565b5080955050505050509250929050565b6001600160a01b03169052565b60008284526020808501945082825b858110156139f55781356139da816143e7565b6001600160a01b0316875295820195908201906001016139c7565b509495945050505050565b6000815180845260208085019450808401835b838110156139f55781516001600160a01b031687529582019590820190600101613a13565b81835260006001600160fb1b03831115613a50578081fd5b6020830280836020870137939093016020019283525090919050565b6000815180845260208085019450808401835b838110156139f557815187529582019590820190600101613a7f565b60008284528282602086013780602084860101526020601f19601f85011685010190509392505050565b60028110613acf57fe5b9052565b613acf816143dd565b613ae68282613b45565b610100613af7818401828401613b45565b50610200613b09818401828401613b45565b50610300611fae818401828401613b45565b8035613b26816143fc565b151582526020810135613b38816143fc565b8015156020840152505050565b613b4f8282613b83565b613b5f6040830160408301613b83565b613b6f6080830160808301613b83565b613b7f60c0830160c08301613b83565b5050565b80358252602090810135910152565b60008251613ba48184602087016143b1565b9190910192915050565b6001600160a01b0391909116815260200190565b6001600160a01b039384168152919092166020820152604081019190915260600190565b6001600160a01b03929092168252602082015260400190565b6001600160a01b0392831681529116602082015260400190565b6001600160a01b039485168152928416602084015292166040820152606081019190915260800190565b6001600160a01b03871681526104c060208201819052600090613c668880614347565b61014083860152613c7c61060086018284613a9b565b92505050613c8d6020890189614347565b6104bf1980868503016104e0870152613ca7848385613a9b565b9350613cb660408c018c614300565b935091508086850301610500870152613cd08484846139b8565b9350613cdf60608c018c614300565b935091508086850301610520870152613cf9848484613a38565b9350613d0860808c018c614300565b93509150808685030161054087015250613d23838383613a38565b9250505060a088013561056084015260c088013561058084015260e08801356105a08401526101008801356105c0840152613d6261012089018961438b565b613d706105e0850182613ac5565b50613d7e6040840188613b1b565b613d8b6080840187613adc565b828103610480840152613d9e8186613a00565b90508281036104a08401526105fc8185613a6c565b6001600160a01b039390931683526020830191909152604082015260600190565b600060408252613de76040830185613a00565b82810360208401526115388185613a6c565b600060408252613e0c6040830185613a6c565b82810360208401526115388185613a00565b901515815260200190565b6000602082528251806020840152613e488160408501602087016143b1565b601f01601f19169190910160400192915050565b60208082526013908201527208aa4a4be988a9c8ea890be9a92a69a82a8869606b1b604082015260600190565b6020808252601b908201527a536166654d6174683a206164646974696f6e206f766572666c6f7760281b604082015260600190565b60208082526018908201527708aa4a4bea89e968a9c988a9c8ea890be9a92a69a82a886960431b604082015260600190565b6020808252818101527f5361666545524332303a206c6f772d6c6576656c2063616c6c206661696c6564604082015260600190565b60208082526026908201527f416464726573733a20696e73756666696369656e742062616c616e636520666f6040820152651c8818d85b1b60d21b606082015260800190565b60208082526013908201527211549497d514905394d1915497d19052531151606a1b604082015260600190565b6020808252601d908201527f416464726573733a2063616c6c20746f206e6f6e2d636f6e7472616374000000604082015260600190565b6020808252601b908201527a11549497d49150d152559157d05353d5539517d513d7d4d3505313602a1b604082015260600190565b6020808252602a908201527f5361666545524332303a204552433230206f7065726174696f6e20646964206e6040820152691bdd081cdd58d8d9595960b21b606082015260800190565b60208082526036908201527f5361666545524332303a20617070726f76652066726f6d206e6f6e2d7a65726f60408201527520746f206e6f6e2d7a65726f20616c6c6f77616e636560501b606082015260800190565b6020808252601f908201527f5361666545524332303a2063616c6c20746f206e6f6e2d636f6e747261637400604082015260600190565b60006020825282356140ec816143e7565b6001600160a01b039081166020848101919091528401359061410d826143e7565b808216604085015260408501359150614125826143e7565b1660608381019190915283013561413b816143e7565b61414860808401826139ab565b506141566080840184614398565b61416360a0840182613ad3565b5060a083013560c083015261417b60c0840184614347565b60e08085015261153861010085018284613a9b565b90815260200190565b6000838252604060208301526127406040830184613a6c565b6000848252606060208301526141cb6060830185613a6c565b905060018060a01b0383166040830152949350505050565b600086825285602083015260a0604083015261420260a0830186613a00565b6001600160a01b0394909416606083015250608001529392505050565b6000848252836020830152606060408301526115386060830184613a6c565b8481526020810184905260a08101614255846143dd565b836040830152825160608301526020830151608083015295945050505050565b6000808335601e1984360301811261428b578283fd5b8301803591506001600160401b038211156142a4578283fd5b6020908101925081023603821315612eae57600080fd5b6040518181016001600160401b03811182821017156142d957600080fd5b604052919050565b60006001600160401b038211156142f6578081fd5b5060209081020190565b6000808335601e19843603018112614316578283fd5b83016020810192503590506001600160401b0381111561433557600080fd5b602081023603831315612eae57600080fd5b6000808335601e1984360301811261435d578283fd5b83016020810192503590506001600160401b0381111561437c57600080fd5b803603831315612eae57600080fd5b600082356127118161440a565b6000823561271181614417565b82818337506000910152565b60005b838110156143cc5781810151838201526020016143b4565b83811115610bb55750506000910152565b60038110610a4d57fe5b6001600160a01b0381168114610a4d57600080fd5b8015158114610a4d57600080fd5b60028110610a4d57600080fd5b60038110610a4d57600080fdfe416464726573733a206c6f772d6c6576656c2063616c6c20776974682076616c7565206661696c6564a2646970667358221220ba4def47afbbe782a0319f3f187ec2b22e9d0a53a80b7c7e5623c8e4e1bfeafa64736f6c634300060c0033",
  "linkReferences": {},
  "deployedLinkReferences": {}
}