{
  "_format": "hh-sol-artifact-1",
  "contractName": "Actions",
  "sourceName": "contracts/deploy/Actions.sol",
  "abi": [
    {
      "inputs": [
        {
          "internalType": "contract IConfigurableRightsPool",
          "name": "crp",
          "type": "address"
        },
        {
          "internalType": "uint256[]",
          "name": "sort",
          "type": "uint256[]"
        },
        {
          "internalType": "address[]",
          "name": "token",
          "type": "address[]"
        }
      ],
      "name": "addTokenToWhitelist",
      "outputs": [],
      "stateMutability": "nonpayable",
      "type": "function"
    },
    {
      "inputs": [
        {
          "internalType": "contract RebalaceAdapter",
          "name": "rebalanceAdapter",
          "type": "address"
        },
        {
          "internalType": "address",
          "name": "etf",
          "type": "address"
        },
        {
          "internalType": "address",
          "name": "token",
          "type": "address"
        },
        {
          "internalType": "address",
          "name": "spender",
          "type": "address"
        },
        {
          "internalType": "uint256",
          "name": "amount",
          "type": "uint256"
        }
      ],
      "name": "approveUnderlying",
      "outputs": [],
      "stateMutability": "nonpayable",
      "type": "function"
    },
    {
      "inputs": [
        {
          "internalType": "address",
          "name": "pool",
          "type": "address"
        }
      ],
      "name": "claimKolReward",
      "outputs": [],
      "stateMutability": "nonpayable",
      "type": "function"
    },
    {
      "inputs": [
        {
          "internalType": "contract IConfigurableRightsPool",
          "name": "crp",
          "type": "address"
        }
      ],
      "name": "claimManagementFee",
      "outputs": [],
      "stateMutability": "nonpayable",
      "type": "function"
    },
    {
      "inputs": [
        {
          "internalType": "address",
          "name": "vault_",
          "type": "address"
        },
        {
          "internalType": "address",
          "name": "pool",
          "type": "address"
        }
      ],
      "name": "claimManagersReward",
      "outputs": [],
      "stateMutability": "nonpayable",
      "type": "function"
    },
    {
      "inputs": [
        {
          "internalType": "contract FactoryActions",
          "name": "factory",
          "type": "address"
        },
        {
          "internalType": "address[]",
          "name": "tokens",
          "type": "address[]"
        },
        {
          "internalType": "uint256[]",
          "name": "balances",
          "type": "uint256[]"
        },
        {
          "internalType": "uint256[]",
          "name": "weights",
          "type": "uint256[]"
        },
        {
          "internalType": "bool",
          "name": "finalize",
          "type": "bool"
        }
      ],
      "name": "create",
      "outputs": [
        {
          "internalType": "contract LiquidityPoolActions",
          "name": "pool",
          "type": "address"
        }
      ],
      "stateMutability": "nonpayable",
      "type": "function"
    },
    {
      "inputs": [
        {
          "internalType": "contract ICRPFactory",
          "name": "factory",
          "type": "address"
        },
        {
          "internalType": "contract FactoryActions",
          "name": "coreFactory",
          "type": "address"
        },
        {
          "components": [
            {
              "internalType": "string",
              "name": "poolTokenSymbol",
              "type": "string"
            },
            {
              "internalType": "string",
              "name": "poolTokenName",
              "type": "string"
            },
            {
              "internalType": "address[]",
              "name": "constituentTokens",
              "type": "address[]"
            },
            {
              "internalType": "uint256[]",
              "name": "tokenBalances",
              "type": "uint256[]"
            },
            {
              "internalType": "uint256[]",
              "name": "tokenWeights",
              "type": "uint256[]"
            },
            {
              "internalType": "uint256",
              "name": "managerFee",
              "type": "uint256"
            },
            {
              "internalType": "uint256",
              "name": "redeemFee",
              "type": "uint256"
            },
            {
              "internalType": "uint256",
              "name": "issueFee",
              "type": "uint256"
            },
            {
              "internalType": "uint256",
              "name": "perfermanceFee",
              "type": "uint256"
            },
            {
              "internalType": "enum IConfigurableRightsPool.Etypes",
              "name": "etype",
              "type": "uint8"
            }
          ],
          "internalType": "struct IConfigurableRightsPool.PoolParams",
          "name": "poolParams",
          "type": "tuple"
        },
        {
          "components": [
            {
              "internalType": "uint256",
              "name": "initialSupply",
              "type": "uint256"
            },
            {
              "internalType": "uint256",
              "name": "collectPeriod",
              "type": "uint256"
            },
            {
              "internalType": "enum IConfigurableRightsPool.Period",
              "name": "period",
              "type": "uint8"
            }
          ],
          "internalType": "struct IConfigurableRightsPool.CrpParams",
          "name": "crpParams",
          "type": "tuple"
        },
        {
          "components": [
            {
              "internalType": "bool",
              "name": "canWhitelistLPs",
              "type": "bool"
            },
            {
              "internalType": "bool",
              "name": "canTokenWhiteLists",
              "type": "bool"
            }
          ],
          "internalType": "struct RightsManager.Rights",
          "name": "rights",
          "type": "tuple"
        },
        {
          "components": [
            {
              "components": [
                {
                  "components": [
                    {
                      "internalType": "uint256",
                      "name": "level",
                      "type": "uint256"
                    },
                    {
                      "internalType": "uint256",
                      "name": "ratio",
                      "type": "uint256"
                    }
                  ],
                  "internalType": "struct SmartPoolManager.levelParams",
                  "name": "firstLevel",
                  "type": "tuple"
                },
                {
                  "components": [
                    {
                      "internalType": "uint256",
                      "name": "level",
                      "type": "uint256"
                    },
                    {
                      "internalType": "uint256",
                      "name": "ratio",
                      "type": "uint256"
                    }
                  ],
                  "internalType": "struct SmartPoolManager.levelParams",
                  "name": "secondLevel",
                  "type": "tuple"
                },
                {
                  "components": [
                    {
                      "internalType": "uint256",
                      "name": "level",
                      "type": "uint256"
                    },
                    {
                      "internalType": "uint256",
                      "name": "ratio",
                      "type": "uint256"
                    }
                  ],
                  "internalType": "struct SmartPoolManager.levelParams",
                  "name": "thirdLevel",
                  "type": "tuple"
                },
                {
                  "components": [
                    {
                      "internalType": "uint256",
                      "name": "level",
                      "type": "uint256"
                    },
                    {
                      "internalType": "uint256",
                      "name": "ratio",
                      "type": "uint256"
                    }
                  ],
                  "internalType": "struct SmartPoolManager.levelParams",
                  "name": "fourLevel",
                  "type": "tuple"
                }
              ],
              "internalType": "struct SmartPoolManager.feeParams",
              "name": "managerFee",
              "type": "tuple"
            },
            {
              "components": [
                {
                  "components": [
                    {
                      "internalType": "uint256",
                      "name": "level",
                      "type": "uint256"
                    },
                    {
                      "internalType": "uint256",
                      "name": "ratio",
                      "type": "uint256"
                    }
                  ],
                  "internalType": "struct SmartPoolManager.levelParams",
                  "name": "firstLevel",
                  "type": "tuple"
                },
                {
                  "components": [
                    {
                      "internalType": "uint256",
                      "name": "level",
                      "type": "uint256"
                    },
                    {
                      "internalType": "uint256",
                      "name": "ratio",
                      "type": "uint256"
                    }
                  ],
                  "internalType": "struct SmartPoolManager.levelParams",
                  "name": "secondLevel",
                  "type": "tuple"
                },
                {
                  "components": [
                    {
                      "internalType": "uint256",
                      "name": "level",
                      "type": "uint256"
                    },
                    {
                      "internalType": "uint256",
                      "name": "ratio",
                      "type": "uint256"
                    }
                  ],
                  "internalType": "struct SmartPoolManager.levelParams",
                  "name": "thirdLevel",
                  "type": "tuple"
                },
                {
                  "components": [
                    {
                      "internalType": "uint256",
                      "name": "level",
                      "type": "uint256"
                    },
                    {
                      "internalType": "uint256",
                      "name": "ratio",
                      "type": "uint256"
                    }
                  ],
                  "internalType": "struct SmartPoolManager.levelParams",
                  "name": "fourLevel",
                  "type": "tuple"
                }
              ],
              "internalType": "struct SmartPoolManager.feeParams",
              "name": "issueFee",
              "type": "tuple"
            },
            {
              "components": [
                {
                  "components": [
                    {
                      "internalType": "uint256",
                      "name": "level",
                      "type": "uint256"
                    },
                    {
                      "internalType": "uint256",
                      "name": "ratio",
                      "type": "uint256"
                    }
                  ],
                  "internalType": "struct SmartPoolManager.levelParams",
                  "name": "firstLevel",
                  "type": "tuple"
                },
                {
                  "components": [
                    {
                      "internalType": "uint256",
                      "name": "level",
                      "type": "uint256"
                    },
                    {
                      "internalType": "uint256",
                      "name": "ratio",
                      "type": "uint256"
                    }
                  ],
                  "internalType": "struct SmartPoolManager.levelParams",
                  "name": "secondLevel",
                  "type": "tuple"
                },
                {
                  "components": [
                    {
                      "internalType": "uint256",
                      "name": "level",
                      "type": "uint256"
                    },
                    {
                      "internalType": "uint256",
                      "name": "ratio",
                      "type": "uint256"
                    }
                  ],
                  "internalType": "struct SmartPoolManager.levelParams",
                  "name": "thirdLevel",
                  "type": "tuple"
                },
                {
                  "components": [
                    {
                      "internalType": "uint256",
                      "name": "level",
                      "type": "uint256"
                    },
                    {
                      "internalType": "uint256",
                      "name": "ratio",
                      "type": "uint256"
                    }
                  ],
                  "internalType": "struct SmartPoolManager.levelParams",
                  "name": "fourLevel",
                  "type": "tuple"
                }
              ],
              "internalType": "struct SmartPoolManager.feeParams",
              "name": "redeemFee",
              "type": "tuple"
            },
            {
              "components": [
                {
                  "components": [
                    {
                      "internalType": "uint256",
                      "name": "level",
                      "type": "uint256"
                    },
                    {
                      "internalType": "uint256",
                      "name": "ratio",
                      "type": "uint256"
                    }
                  ],
                  "internalType": "struct SmartPoolManager.levelParams",
                  "name": "firstLevel",
                  "type": "tuple"
                },
                {
                  "components": [
                    {
                      "internalType": "uint256",
                      "name": "level",
                      "type": "uint256"
                    },
                    {
                      "internalType": "uint256",
                      "name": "ratio",
                      "type": "uint256"
                    }
                  ],
                  "internalType": "struct SmartPoolManager.levelParams",
                  "name": "secondLevel",
                  "type": "tuple"
                },
                {
                  "components": [
                    {
                      "internalType": "uint256",
                      "name": "level",
                      "type": "uint256"
                    },
                    {
                      "internalType": "uint256",
                      "name": "ratio",
                      "type": "uint256"
                    }
                  ],
                  "internalType": "struct SmartPoolManager.levelParams",
                  "name": "thirdLevel",
                  "type": "tuple"
                },
                {
                  "components": [
                    {
                      "internalType": "uint256",
                      "name": "level",
                      "type": "uint256"
                    },
                    {
                      "internalType": "uint256",
                      "name": "ratio",
                      "type": "uint256"
                    }
                  ],
                  "internalType": "struct SmartPoolManager.levelParams",
                  "name": "fourLevel",
                  "type": "tuple"
                }
              ],
              "internalType": "struct SmartPoolManager.feeParams",
              "name": "perfermanceFee",
              "type": "tuple"
            }
          ],
          "internalType": "struct SmartPoolManager.KolPoolParams",
          "name": "kolPoolParams",
          "type": "tuple"
        },
        {
          "internalType": "address[]",
          "name": "owners",
          "type": "address[]"
        },
        {
          "internalType": "uint256[]",
          "name": "ownerPercentage",
          "type": "uint256[]"
        },
        {
          "components": [
            {
              "internalType": "uint256",
              "name": "bspFloor",
              "type": "uint256"
            },
            {
              "internalType": "uint256",
              "name": "bspCap",
              "type": "uint256"
            }
          ],
          "internalType": "struct IConfigurableRightsPool.PoolTokenRange",
          "name": "tokenRange",
          "type": "tuple"
        }
      ],
      "name": "createSmartPool",
      "outputs": [
        {
          "internalType": "contract IConfigurableRightsPool",
          "name": "crp",
          "type": "address"
        }
      ],
      "stateMutability": "nonpayable",
      "type": "function"
    },
    {
      "inputs": [
        {
          "internalType": "contract IConfigurableRightsPool",
          "name": "pool",
          "type": "address"
        },
        {
          "internalType": "uint256",
          "name": "poolAmountIn",
          "type": "uint256"
        },
        {
          "internalType": "uint256[]",
          "name": "minAmountsOut",
          "type": "uint256[]"
        }
      ],
      "name": "exitPool",
      "outputs": [],
      "stateMutability": "nonpayable",
      "type": "function"
    },
    {
      "inputs": [
        {
          "internalType": "contract LiquidityPoolActions",
          "name": "pool",
          "type": "address"
        }
      ],
      "name": "finalize",
      "outputs": [],
      "stateMutability": "nonpayable",
      "type": "function"
    },
    {
      "inputs": [
        {
          "internalType": "contract LiquidityPoolActions",
          "name": "pool",
          "type": "address"
        },
        {
          "internalType": "uint256",
          "name": "poolAmountOut",
          "type": "uint256"
        },
        {
          "internalType": "uint256[]",
          "name": "maxAmountsIn",
          "type": "uint256[]"
        }
      ],
      "name": "joinPool",
      "outputs": [],
      "stateMutability": "nonpayable",
      "type": "function"
    },
    {
      "inputs": [
        {
          "internalType": "contract IConfigurableRightsPool",
          "name": "pool",
          "type": "address"
        },
        {
          "internalType": "uint256",
          "name": "poolAmountOut",
          "type": "uint256"
        },
        {
          "internalType": "uint256[]",
          "name": "maxAmountsIn",
          "type": "uint256[]"
        },
        {
          "internalType": "address",
          "name": "kol",
          "type": "address"
        }
      ],
      "name": "joinSmartPool",
      "outputs": [],
      "stateMutability": "nonpayable",
      "type": "function"
    },
    {
      "inputs": [
        {
          "internalType": "contract RebalaceAdapter",
          "name": "rebalanceAdapter",
          "type": "address"
        },
        {
          "components": [
            {
              "internalType": "address",
              "name": "etf",
              "type": "address"
            },
            {
              "internalType": "address",
              "name": "token0",
              "type": "address"
            },
            {
              "internalType": "address",
              "name": "token1",
              "type": "address"
            },
            {
              "internalType": "address",
              "name": "aggregator",
              "type": "address"
            },
            {
              "internalType": "enum RebalaceAdapter.SwapType",
              "name": "swapType",
              "type": "uint8"
            },
            {
              "internalType": "uint256",
              "name": "quantity",
              "type": "uint256"
            },
            {
              "internalType": "bytes",
              "name": "data",
              "type": "bytes"
            }
          ],
          "internalType": "struct RebalaceAdapter.RebalanceInfo",
          "name": "rebalanceInfo",
          "type": "tuple"
        }
      ],
      "name": "rebalance",
      "outputs": [],
      "stateMutability": "nonpayable",
      "type": "function"
    },
    {
      "inputs": [
        {
          "internalType": "contract IConfigurableRightsPool",
          "name": "crp",
          "type": "address"
        },
        {
          "internalType": "address",
          "name": "provider",
          "type": "address"
        }
      ],
      "name": "removeWhitelistedLiquidityProvider",
      "outputs": [],
      "stateMutability": "nonpayable",
      "type": "function"
    },
    {
      "inputs": [
        {
          "internalType": "contract IConfigurableRightsPool",
          "name": "crp",
          "type": "address"
        },
        {
          "internalType": "uint256",
          "name": "newCap",
          "type": "uint256"
        }
      ],
      "name": "setCap",
      "outputs": [],
      "stateMutability": "nonpayable",
      "type": "function"
    },
    {
      "inputs": [
        {
          "internalType": "contract AbstractPool",
          "name": "pool",
          "type": "address"
        },
        {
          "internalType": "address",
          "name": "newController",
          "type": "address"
        }
      ],
      "name": "setController",
      "outputs": [],
      "stateMutability": "nonpayable",
      "type": "function"
    },
    {
      "inputs": [
        {
          "internalType": "contract AbstractPool",
          "name": "pool",
          "type": "address"
        },
        {
          "internalType": "address[]",
          "name": "_owners",
          "type": "address[]"
        },
        {
          "internalType": "uint256[]",
          "name": "_ownerPercentage",
          "type": "uint256[]"
        }
      ],
      "name": "setManagersInfo",
      "outputs": [],
      "stateMutability": "nonpayable",
      "type": "function"
    },
    {
      "inputs": [
        {
          "internalType": "contract AbstractPool",
          "name": "pool",
          "type": "address"
        },
        {
          "internalType": "bool",
          "name": "publicSwap",
          "type": "bool"
        }
      ],
      "name": "setPublicSwap",
      "outputs": [],
      "stateMutability": "nonpayable",
      "type": "function"
    },
    {
      "inputs": [
        {
          "internalType": "contract LiquidityPoolActions",
          "name": "pool",
          "type": "address"
        },
        {
          "internalType": "address[]",
          "name": "tokens",
          "type": "address[]"
        },
        {
          "internalType": "uint256[]",
          "name": "balances",
          "type": "uint256[]"
        },
        {
          "internalType": "uint256[]",
          "name": "denorms",
          "type": "uint256[]"
        }
      ],
      "name": "setTokens",
      "outputs": [],
      "stateMutability": "nonpayable",
      "type": "function"
    },
    {
      "inputs": [
        {
          "internalType": "contract IConfigurableRightsPool",
          "name": "pool",
          "type": "address"
        }
      ],
      "name": "snapshotBeginAssets",
      "outputs": [],
      "stateMutability": "nonpayable",
      "type": "function"
    },
    {
      "inputs": [
        {
          "internalType": "contract IConfigurableRightsPool",
          "name": "pool",
          "type": "address"
        }
      ],
      "name": "snapshotEndAssets",
      "outputs": [],
      "stateMutability": "nonpayable",
      "type": "function"
    },
    {
      "inputs": [
        {
          "internalType": "contract IConfigurableRightsPool",
          "name": "crp",
          "type": "address"
        },
        {
          "internalType": "address",
          "name": "provider",
          "type": "address"
        }
      ],
      "name": "whitelistLiquidityProvider",
      "outputs": [],
      "stateMutability": "nonpayable",
      "type": "function"
    }
  ],
  "bytecode": "0x608060405234801561001057600080fd5b50613675806100206000396000f3fe608060405234801561001057600080fd5b50600436106101075760003560e01c806307f4e3471461010c5780630ebb327114610135578063135b968d1461014a5780631eccc1851461015d578063271b789514610170578063333fbeef146101835780633e67f1571461019657806349f77d55146101a95780634ef39b75146101bc5780635135aafb146101cf57806363ced092146101e25780636936674d146101f55780637b7d6c681461020857806380ad2cf31461021b5780638a5c57df1461022e5780639589da7614610241578063a7f28da714610254578063a92f00ff14610267578063e0d945bf1461027a578063e221e73a1461028d578063fb411265146102a0575b600080fd5b61011f61011a366004612942565b6102b3565b60405161012c9190612f9f565b60405180910390f35b6101486101433660046126b2565b6105c0565b005b610148610158366004612ac6565b610616565b61014861016b36600461285a565b610748565b61014861017e3660046126b2565b6107a2565b6101486101913660046127d6565b6107dd565b6101486101a4366004612ce7565b610809565b6101486101b7366004612c84565b610835565b6101486101ca3660046126b2565b6108a0565b6101486101dd3660046127e8565b610a07565b6101486101f0366004612b37565b610a75565b6101486102033660046126b2565b610b70565b6101486102163660046127d6565b610baa565b610148610229366004612a9b565b610bdf565b61014861023c366004612c2b565b610c0b565b61014861024f366004612a33565b610cc5565b6101486102623660046127d6565b610cf3565b61011f610275366004612887565b610d1f565b610148610288366004612b83565b6110c9565b61014861029b3660046126ea565b611790565b6101486102ae3660046126b2565b6117bc565b60006102c260608901896134c8565b90506102d160408a018a6134c8565b9050146102f95760405162461bcd60e51b81526004016102f090613223565b60405180910390fd5b61030660808901896134c8565b905061031560408a018a6134c8565b9050146103345760405162461bcd60e51b81526004016102f090613223565b604051632c60e63560e01b81526001600160a01b038b1690632c60e6359061036a908c908c908b908b908b908b90600401613034565b602060405180830381600087803b15801561038457600080fd5b505af1158015610398573d6000803e3d6000fd5b505050506040513d601f19601f820116820180604052508101906103bc91906126ce565b905060005b6103ce60408a018a6134c8565b905081101561049d5760006103e660408b018b6134c8565b838181106103f057fe5b905060200201602081019061040591906126b2565b9050610444333061041960608e018e6134c8565b8681811061042357fe5b90506020020135846001600160a01b03166117f7909392919063ffffffff16565b6104596001600160a01b03821684600061184f565b6104948361046a60608d018d6134c8565b8581811061047457fe5b90506020020135836001600160a01b031661184f9092919063ffffffff16565b506001016103c1565b506001600160a01b038116630892b93d883560208a01356104c460608c0160408d01612d4b565b866040518563ffffffff1660e01b81526004016104e49493929190613491565b600060405180830381600087803b1580156104fe57600080fd5b505af1158015610512573d6000803e3d6000fd5b505060405163a9059cbb60e01b81526001600160a01b038416925063a9059cbb91506105459033908b3590600401612fd7565b602060405180830381600087803b15801561055f57600080fd5b505af1158015610573573d6000803e3d6000fd5b505050506040513d601f19601f8201168201806040525081019061059791906127ba565b6105b35760405162461bcd60e51b81526004016102f090613285565b9998505050505050505050565b806001600160a01b03166343774a6b6040518163ffffffff1660e01b8152600401600060405180830381600087803b1580156105fb57600080fd5b505af115801561060f573d6000803e3d6000fd5b5050505050565b6060856001600160a01b031663b64ef17b6040518163ffffffff1660e01b815260040160206040518083038186803b15801561065157600080fd5b505afa158015610665573d6000803e3d6000fd5b505050506040513d601f19601f8201168201806040525081019061068991906126ce565b6001600160a01b031663cc77828d6040518163ffffffff1660e01b815260040160006040518083038186803b1580156106c157600080fd5b505afa1580156106d5573d6000803e3d6000fd5b505050506040513d6000823e601f3d908101601f191682016040526106fd9190810190612722565b9050610740868287878780806020026020016040519081016040528093929190818152602001838360200280828437600092019190915250899250611917915050565b505050505050565b6040516324dacaa960e11b81526001600160a01b038316906349b5955290610774908490600401613218565b600060405180830381600087803b15801561078e57600080fd5b505af1158015610740573d6000803e3d6000fd5b806001600160a01b0316631296548f6040518163ffffffff1660e01b8152600401600060405180830381600087803b1580156105fb57600080fd5b60405163c83a1c2d60e01b81526001600160a01b0383169063c83a1c2d90610774908490600401612f9f565b604051637051b85760e11b81526001600160a01b0383169063e0a370ae90610774908490600401613389565b60405163167ae91560e21b81526001600160a01b038616906359eba4549061086790879087908790879060040161300a565b600060405180830381600087803b15801561088157600080fd5b505af1158015610895573d6000803e3d6000fd5b505050505050505050565b806001600160a01b0316634bb278f36040518163ffffffff1660e01b8152600401600060405180830381600087803b1580156108db57600080fd5b505af11580156108ef573d6000803e3d6000fd5b50506040516370a0823160e01b81526001600160a01b038416925063a9059cbb9150339083906370a0823190610929903090600401612f9f565b60206040518083038186803b15801561094157600080fd5b505afa158015610955573d6000803e3d6000fd5b505050506040513d601f19601f820116820180604052508101906109799190612d67565b6040518363ffffffff1660e01b8152600401610996929190612fd7565b602060405180830381600087803b1580156109b057600080fd5b505af11580156109c4573d6000803e3d6000fd5b505050506040513d601f19601f820116820180604052508101906109e891906127ba565b610a045760405162461bcd60e51b81526004016102f090613285565b50565b610a1083611c34565b6040516303c153ef60e61b81526001600160a01b0384169063f054fbc090610a3e90859085906004016131c5565b600060405180830381600087803b158015610a5857600080fd5b505af1158015610a6c573d6000803e3d6000fd5b50505050505050565b6060836001600160a01b031663b64ef17b6040518163ffffffff1660e01b815260040160206040518083038186803b158015610ab057600080fd5b505afa158015610ac4573d6000803e3d6000fd5b505050506040513d601f19601f82011682018060405250810190610ae891906126ce565b6001600160a01b031663cc77828d6040518163ffffffff1660e01b815260040160006040518083038186803b158015610b2057600080fd5b505afa158015610b34573d6000803e3d6000fd5b505050506040513d6000823e601f3d908101601f19168201604052610b5c9190810190612722565b9050610b6a84848484611c46565b50505050565b6000610b7b82611eb2565b60405163325a48a760e21b81529091506001600160a01b0382169063c969229c90610774908590600401612f9f565b610bb382611c34565b6040516392eefe9b60e01b81526001600160a01b038316906392eefe9b90610774908490600401612f9f565b6040516347786d3760e01b81526001600160a01b038316906347786d379061077490849060040161343e565b6060846001600160a01b031663be3bbd2e6040518163ffffffff1660e01b815260040160006040518083038186803b158015610c4657600080fd5b505afa158015610c5a573d6000803e3d6000fd5b505050506040513d6000823e601f3d908101601f19168201604052610c829190810190612722565b905061060f858286868680806020026020016040519081016040528093929190818152602001838360200280828437600092019190915250339250611917915050565b6040516329b0917160e21b81526001600160a01b0384169063a6c245c490610a3e90859085906004016131f3565b60405163e2762d4b60e01b81526001600160a01b0383169063e2762d4b90610774908490600401612f9f565b6000868514610d405760405162461bcd60e51b81526004016102f090613223565b868314610d5f5760405162461bcd60e51b81526004016102f090613223565b886001600160a01b03166391cefde46040518163ffffffff1660e01b8152600401602060405180830381600087803b158015610d9a57600080fd5b505af1158015610dae573d6000803e3d6000fd5b505050506040513d601f19601f82011682018060405250810190610dd291906126ce565b905060005b87811015610eed576000898983818110610ded57fe5b9050602002016020810190610e0291906126b2565b9050610e1533308a8a8681811061042357fe5b610e2a6001600160a01b03821684600061184f565b610e3a8389898581811061047457fe5b826001600160a01b031663e4e1e5388b8b85818110610e5557fe5b9050602002016020810190610e6a91906126b2565b8a8a86818110610e7657fe5b90506020020135898987818110610e8957fe5b905060200201356040518463ffffffff1660e01b8152600401610eae939291906131a4565b600060405180830381600087803b158015610ec857600080fd5b505af1158015610edc573d6000803e3d6000fd5b505060019093019250610dd7915050565b50811561105d57806001600160a01b0316634bb278f36040518163ffffffff1660e01b8152600401600060405180830381600087803b158015610f2f57600080fd5b505af1158015610f43573d6000803e3d6000fd5b50506040516370a0823160e01b81526001600160a01b038416925063a9059cbb9150339083906370a0823190610f7d903090600401612f9f565b60206040518083038186803b158015610f9557600080fd5b505afa158015610fa9573d6000803e3d6000fd5b505050506040513d601f19601f82011682018060405250810190610fcd9190612d67565b6040518363ffffffff1660e01b8152600401610fea929190612fd7565b602060405180830381600087803b15801561100457600080fd5b505af1158015611018573d6000803e3d6000fd5b505050506040513d601f19601f8201168201806040525081019061103c91906127ba565b6110585760405162461bcd60e51b81526004016102f090613285565b6110bd565b6040516324dacaa960e11b81526001600160a01b038216906349b595529061108a90600190600401613218565b600060405180830381600087803b1580156110a457600080fd5b505af11580156110b8573d6000803e3d6000fd5b505050505b98975050505050505050565b8483146110e85760405162461bcd60e51b81526004016102f090613223565b8481146111075760405162461bcd60e51b81526004016102f090613223565b60005b8581101561178657600087878381811061112057fe5b905060200201602081019061113591906126b2565b9050886001600160a01b0316632f37b62489898581811061115257fe5b905060200201602081019061116791906126b2565b6040518263ffffffff1660e01b81526004016111839190612f9f565b60206040518083038186803b15801561119b57600080fd5b505afa1580156111af573d6000803e3d6000fd5b505050506040513d601f19601f820116820180604052508101906111d391906127ba565b1561158a57886001600160a01b031663f8b2cb4f8989858181106111f357fe5b905060200201602081019061120891906126b2565b6040518263ffffffff1660e01b81526004016112249190612f9f565b60206040518083038186803b15801561123c57600080fd5b505afa158015611250573d6000803e3d6000fd5b505050506040513d601f19601f820116820180604052508101906112749190612d67565b86868481811061128057fe5b90506020020135111561143e5761135c33308b6001600160a01b031663f8b2cb4f8c8c888181106112ad57fe5b90506020020160208101906112c291906126b2565b6040518263ffffffff1660e01b81526004016112de9190612f9f565b60206040518083038186803b1580156112f657600080fd5b505afa15801561130a573d6000803e3d6000fd5b505050506040513d601f19601f8201168201806040525081019061132e9190612d67565b89898781811061133a57fe5b9050602002013503846001600160a01b03166117f7909392919063ffffffff16565b6113716001600160a01b0382168a600061184f565b61143e898a6001600160a01b031663f8b2cb4f8b8b8781811061139057fe5b90506020020160208101906113a591906126b2565b6040518263ffffffff1660e01b81526004016113c19190612f9f565b60206040518083038186803b1580156113d957600080fd5b505afa1580156113ed573d6000803e3d6000fd5b505050506040513d601f19601f820116820180604052508101906114119190612d67565b88888681811061141d57fe5b9050602002013503836001600160a01b031661184f9092919063ffffffff16565b620f424086868481811061144e57fe5b90506020020135111561150657886001600160a01b0316633fdddaa289898581811061147657fe5b905060200201602081019061148b91906126b2565b88888681811061149757fe5b905060200201358787878181106114aa57fe5b905060200201356040518463ffffffff1660e01b81526004016114cf939291906131a4565b600060405180830381600087803b1580156114e957600080fd5b505af11580156114fd573d6000803e3d6000fd5b50505050611585565b886001600160a01b031663cf5e7bd389898581811061152157fe5b905060200201602081019061153691906126b2565b6040518263ffffffff1660e01b81526004016115529190612f9f565b600060405180830381600087803b15801561156c57600080fd5b505af1158015611580573d6000803e3d6000fd5b505050505b611667565b61159b333088888681811061042357fe5b6115b06001600160a01b0382168a600061184f565b6115c08987878581811061047457fe5b886001600160a01b031663e4e1e5388989858181106115db57fe5b90506020020160208101906115f091906126b2565b8888868181106115fc57fe5b9050602002013587878781811061160f57fe5b905060200201356040518463ffffffff1660e01b8152600401611634939291906131a4565b600060405180830381600087803b15801561164e57600080fd5b505af1158015611662573d6000803e3d6000fd5b505050505b6040516370a0823160e01b81526000906001600160a01b038316906370a0823190611696903090600401612f9f565b60206040518083038186803b1580156116ae57600080fd5b505afa1580156116c2573d6000803e3d6000fd5b505050506040513d601f19601f820116820180604052508101906116e69190612d67565b111561177d5761177d33826001600160a01b03166370a08231306040518263ffffffff1660e01b815260040161171c9190612f9f565b60206040518083038186803b15801561173457600080fd5b505afa158015611748573d6000803e3d6000fd5b505050506040513d601f19601f8201168201806040525081019061176c9190612d67565b6001600160a01b0384169190611f3a565b5060010161110a565b5050505050505050565b60405163edb12adf60e01b81526001600160a01b0383169063edb12adf90610774908490600401612f9f565b806001600160a01b031663d2fed42e6040518163ffffffff1660e01b8152600401600060405180830381600087803b1580156105fb57600080fd5b610b6a846323b872dd60e01b85858560405160240161181893929190612fb3565b60408051601f198184030181529190526020810180516001600160e01b03166001600160e01b031990931692909217909152611f59565b8015806118d75750604051636eb1769f60e11b81526001600160a01b0384169063dd62ed3e906118859030908690600401612ff0565b60206040518083038186803b15801561189d57600080fd5b505afa1580156118b1573d6000803e3d6000fd5b505050506040513d601f19601f820116820180604052508101906118d59190612d67565b155b6118f35760405162461bcd60e51b81526004016102f0906132fc565b6119128363095ea7b360e01b8484604051602401611818929190612fd7565b505050565b83518251146119385760405162461bcd60e51b81526004016102f090613223565b60005b84518110156119de57600085828151811061195257fe5b6020026020010151905061198f333086858151811061196d57fe5b6020026020010151846001600160a01b03166117f7909392919063ffffffff16565b6119a46001600160a01b03821688600061184f565b6119d5878584815181106119b457fe5b6020026020010151836001600160a01b031661184f9092919063ffffffff16565b5060010161193b565b5060405163077df9bd60e31b81526001600160a01b03861690633befcde890611a0f90869086908690600401613460565b600060405180830381600087803b158015611a2957600080fd5b505af1158015611a3d573d6000803e3d6000fd5b5050505060005b8451811015611b22576000858281518110611a5b57fe5b602002602001015190506000816001600160a01b03166370a08231306040518263ffffffff1660e01b8152600401611a939190612f9f565b60206040518083038186803b158015611aab57600080fd5b505afa158015611abf573d6000803e3d6000fd5b505050506040513d601f19601f82011682018060405250810190611ae39190612d67565b1115611b1957611b1933826001600160a01b03166370a08231306040518263ffffffff1660e01b815260040161171c9190612f9f565b50600101611a44565b506040516370a0823160e01b81526001600160a01b0386169063a9059cbb90339083906370a0823190611b59903090600401612f9f565b60206040518083038186803b158015611b7157600080fd5b505afa158015611b85573d6000803e3d6000fd5b505050506040513d601f19601f82011682018060405250810190611ba99190612d67565b6040518363ffffffff1660e01b8152600401611bc6929190612fd7565b602060405180830381600087803b158015611be057600080fd5b505af1158015611bf4573d6000803e3d6000fd5b505050506040513d601f19601f82011682018060405250810190611c1891906127ba565b61060f5760405162461bcd60e51b81526004016102f090613285565b611c3d816117bc565b610a048161203e565b6040516370a0823160e01b81526000906001600160a01b038616906370a0823190611c75903390600401612f9f565b60206040518083038186803b158015611c8d57600080fd5b505afa158015611ca1573d6000803e3d6000fd5b505050506040513d601f19601f82011682018060405250810190611cc59190612d67565b6040516323b872dd60e01b81529091506001600160a01b038616906323b872dd90611cf890339030908690600401612fb3565b602060405180830381600087803b158015611d1257600080fd5b505af1158015611d26573d6000803e3d6000fd5b505050506040513d601f19601f82011682018060405250810190611d4a91906127ba565b611d665760405162461bcd60e51b81526004016102f090613285565b611d718586836122ce565b60405163b02f0b7360e01b81526001600160a01b0386169063b02f0b7390611d9f9087908790600401613447565b600060405180830381600087803b158015611db957600080fd5b505af1158015611dcd573d6000803e3d6000fd5b5050505060005b8251811015611b22576000838281518110611deb57fe5b602002602001015190506000816001600160a01b03166370a08231306040518263ffffffff1660e01b8152600401611e239190612f9f565b60206040518083038186803b158015611e3b57600080fd5b505afa158015611e4f573d6000803e3d6000fd5b505050506040513d601f19601f82011682018060405250810190611e739190612d67565b1115611ea957611ea933826001600160a01b03166370a08231306040518263ffffffff1660e01b815260040161171c9190612f9f565b50600101611dd4565b600080611ebe83612458565b9050806001600160a01b0316639daafec76040518163ffffffff1660e01b8152600401602060405180830381600087803b158015611efb57600080fd5b505af1158015611f0f573d6000803e3d6000fd5b505050506040513d601f19601f82011682018060405250810190611f3391906126ce565b9392505050565b6119128363a9059cbb60e01b8484604051602401611818929190612fd7565b611f6b826001600160a01b03166124d1565b611f875760405162461bcd60e51b81526004016102f090613352565b60006060836001600160a01b031683604051611fa39190612f66565b6000604051808303816000865af19150503d8060008114611fe0576040519150601f19603f3d011682016040523d82523d6000602084013e611fe5565b606091505b5091509150816120075760405162461bcd60e51b81526004016102f090613250565b805115610b6a578080602001905181019061202291906127ba565b610b6a5760405162461bcd60e51b81526004016102f0906132b2565b600061204982612458565b9050600061205683611eb2565b90506000826001600160a01b031663c0fcb166856040518263ffffffff1660e01b81526004016120869190612f9f565b60206040518083038186803b15801561209e57600080fd5b505afa1580156120b2573d6000803e3d6000fd5b505050506040513d601f19601f820116820180604052508101906120d691906127ba565b90506000826001600160a01b031663c0fcb166866040518263ffffffff1660e01b81526004016121069190612f9f565b60206040518083038186803b15801561211e57600080fd5b505afa158015612132573d6000803e3d6000fd5b505050506040513d601f19601f8201168201806040525081019061215691906127ba565b90506000856001600160a01b03166373a9855c6040518163ffffffff1660e01b8152600401602060405180830381600087803b15801561219557600080fd5b505af11580156121a9573d6000803e3d6000fd5b505050506040513d601f19601f820116820180604052508101906121cd9190612d2f565b905060008160018111156121dd57fe5b1480156121e75750825b1561224b5760405163edb12adf60e01b81526001600160a01b0386169063edb12adf90612218908990600401612f9f565b600060405180830381600087803b15801561223257600080fd5b505af1158015612246573d6000803e3d6000fd5b505050505b600181600181111561225957fe5b1480156122635750815b156107405760405163edb12adf60e01b81526001600160a01b0385169063edb12adf90612294908990600401612f9f565b600060405180830381600087803b1580156122ae57600080fd5b505af11580156122c2573d6000803e3d6000fd5b50505050505050505050565b604051636eb1769f60e11b81526000906001600160a01b0385169063dd62ed3e906122ff9030908790600401612ff0565b60206040518083038186803b15801561231757600080fd5b505afa15801561232b573d6000803e3d6000fd5b505050506040513d601f19601f8201168201806040525081019061234f9190612d67565b11156123d85760405163095ea7b360e01b81526001600160a01b0384169063095ea7b390612384908590600090600401612fd7565b602060405180830381600087803b15801561239e57600080fd5b505af11580156123b2573d6000803e3d6000fd5b505050506040513d601f19601f820116820180604052508101906123d691906127ba565b505b60405163095ea7b360e01b81526001600160a01b0384169063095ea7b3906124069085908590600401612fd7565b602060405180830381600087803b15801561242057600080fd5b505af1158015612434573d6000803e3d6000fd5b505050506040513d601f19601f82011682018060405250810190610b6a91906127ba565b6000816001600160a01b031663430bf08a6040518163ffffffff1660e01b815260040160206040518083038186803b15801561249357600080fd5b505afa1580156124a7573d6000803e3d6000fd5b505050506040513d601f19601f820116820180604052508101906124cb91906126ce565b92915050565b6000813f7fc5d2460186f7233c927e7db2dcc703c0e500b653ca82273b7bfad8045d85a47081811480159061250557508115155b949350505050565b80356124cb81613602565b60008083601f840112612529578182fd5b5081356001600160401b0381111561253f578182fd5b602083019150836020808302850101111561255957600080fd5b9250929050565b600082601f830112612570578081fd5b813561258361257e82613534565b61350e565b8181529150602080830190848101818402860182018710156125a457600080fd5b60005b848110156125cc5781356125ba81613602565b845292820192908201906001016125a7565b505050505092915050565b600082601f8301126125e7578081fd5b81356125f561257e82613534565b81815291506020808301908481018184028601820187101561261657600080fd5b60005b848110156125cc57813584529282019290820190600101612619565b600060608284031215612646578081fd5b50919050565b60006104008284031215612646578081fd5b60006101408284031215612646578081fd5b600060408284031215612681578081fd5b61268b604061350e565b9050813581526020820135602082015292915050565b600060408284031215612646578081fd5b6000602082840312156126c3578081fd5b8135611f3381613602565b6000602082840312156126df578081fd5b8151611f3381613602565b600080604083850312156126fc578081fd5b823561270781613602565b9150602083013561271781613602565b809150509250929050565b60006020808385031215612734578182fd5b82516001600160401b03811115612749578283fd5b8301601f81018513612759578283fd5b805161276761257e82613534565b8181528381019083850185840285018601891015612783578687fd5b8694505b838510156127ae57805161279a81613602565b835260019490940193918501918501612787565b50979650505050505050565b6000602082840312156127cb578081fd5b8151611f3381613617565b600080604083850312156126fc578182fd5b6000806000606084860312156127fc578081fd5b833561280781613602565b925060208401356001600160401b0380821115612822578283fd5b61282e87838801612560565b93506040860135915080821115612843578283fd5b50612850868287016125d7565b9150509250925092565b6000806040838503121561286c578182fd5b823561287781613602565b9150602083013561271781613617565b60008060008060008060008060a0898b0312156128a2578586fd5b88356128ad81613602565b975060208901356001600160401b03808211156128c8578788fd5b6128d48c838d01612518565b909950975060408b01359150808211156128ec578586fd5b6128f88c838d01612518565b909750955060608b0135915080821115612910578485fd5b5061291d8b828c01612518565b909450925050608089013561293181613617565b809150509295985092959890939650565b60008060008060008060008060006105808a8c031215612960578283fd5b61296a8b8b61250d565b98506129798b60208c0161250d565b975060408a01356001600160401b0380821115612994578485fd5b6129a08d838e0161265e565b98506129af8d60608e01612635565b97506129be8d60c08e016126a1565b96506129ce8d6101008e0161264c565b95506105008c01359150808211156129e4578485fd5b6129f08d838e01612560565b94506105208c0135915080821115612a06578283fd5b50612a138c828d016125d7565b925050612a248b6105408c01612670565b90509295985092959850929598565b600080600060608486031215612a47578081fd5b8335612a5281613602565b925060208401356001600160401b0380821115612a6d578283fd5b612a79878388016125d7565b93506040860135915080821115612a8e578283fd5b5061285086828701612560565b60008060408385031215612aad578182fd5b8235612ab881613602565b946020939093013593505050565b600080600080600060808688031215612add578283fd5b8535612ae881613602565b94506020860135935060408601356001600160401b03811115612b09578384fd5b612b1588828901612518565b9094509250506060860135612b2981613602565b809150509295509295909350565b600080600060608486031215612b4b578081fd5b8335612b5681613602565b92506020840135915060408401356001600160401b03811115612b77578182fd5b612850868287016125d7565b60008060008060008060006080888a031215612b9d578081fd5b8735612ba881613602565b965060208801356001600160401b0380821115612bc3578283fd5b612bcf8b838c01612518565b909850965060408a0135915080821115612be7578283fd5b612bf38b838c01612518565b909650945060608a0135915080821115612c0b578283fd5b50612c188a828b01612518565b989b979a50959850939692959293505050565b60008060008060608587031215612c40578182fd5b8435612c4b81613602565b93506020850135925060408501356001600160401b03811115612c6c578283fd5b612c7887828801612518565b95989497509550505050565b600080600080600060a08688031215612c9b578283fd5b8535612ca681613602565b94506020860135612cb681613602565b93506040860135612cc681613602565b92506060860135612cd681613602565b949793965091946080013592915050565b60008060408385031215612cf9578182fd5b8235612d0481613602565b915060208301356001600160401b03811115612d1e578182fd5b830160e08186031215612717578182fd5b600060208284031215612d40578081fd5b8151611f3381613625565b600060208284031215612d5c578081fd5b8135611f3381613632565b600060208284031215612d78578081fd5b5051919050565b6001600160a01b03169052565b60008284526020808501945082825b85811015612dc9578135612dae81613602565b6001600160a01b031687529582019590820190600101612d9b565b509495945050505050565b6000815180845260208085019450808401835b83811015612dc95781516001600160a01b031687529582019590820190600101612de7565b81835260006001600160fb1b03831115612e24578081fd5b6020830280836020870137939093016020019283525090919050565b6000815180845260208085019450808401835b83811015612dc957815187529582019590820190600101612e53565b60008284528282602086013780602084860101526020601f19601f85011685010190509392505050565b60028110612ea357fe5b9052565b612ea3816135f8565b612eba8282612f19565b610100612ecb818401828401612f19565b50610200612edd818401828401612f19565b50610300611912818401828401612f19565b8035612efa81613617565b151582526020810135612f0c81613617565b8015156020840152505050565b612f238282612f57565b612f336040830160408301612f57565b612f436080830160808301612f57565b612f5360c0830160c08301612f57565b5050565b80358252602090810135910152565b60008251815b81811015612f865760208186018101518583015201612f6c565b81811115612f945782828501525b509190910192915050565b6001600160a01b0391909116815260200190565b6001600160a01b039384168152919092166020820152604081019190915260600190565b6001600160a01b03929092168252602082015260400190565b6001600160a01b0392831681529116602082015260400190565b6001600160a01b039485168152928416602084015292166040820152606081019190915260800190565b6001600160a01b03871681526104c060208201819052600090613057888061359a565b6101408386015261306d61060086018284612e6f565b9250505061307e602089018961359a565b6104bf1980868503016104e0870152613098848385612e6f565b93506130a760408c018c613553565b9350915080868503016105008701526130c1848484612d8c565b93506130d060608c018c613553565b9350915080868503016105208701526130ea848484612e0c565b93506130f960808c018c613553565b93509150808685030161054087015250613114838383612e0c565b9250505060a088013561056084015260c088013561058084015260e08801356105a08401526101008801356105c08401526131536101208901896135de565b6131616105e0850182612e99565b5061316f6040840188612eef565b61317c6080840187612eb0565b82810361048084015261318f8186612dd4565b90508281036104a08401526105b38185612e40565b6001600160a01b039390931683526020830191909152604082015260600190565b6000604082526131d86040830185612dd4565b82810360208401526131ea8185612e40565b95945050505050565b6000604082526132066040830185612e40565b82810360208401526131ea8185612dd4565b901515815260200190565b60208082526013908201527208aa4a4be988a9c8ea890be9a92a69a82a8869606b1b604082015260600190565b6020808252818101527f5361666545524332303a206c6f772d6c6576656c2063616c6c206661696c6564604082015260600190565b60208082526013908201527211549497d514905394d1915497d19052531151606a1b604082015260600190565b6020808252602a908201527f5361666545524332303a204552433230206f7065726174696f6e20646964206e6040820152691bdd081cdd58d8d9595960b21b606082015260800190565b60208082526036908201527f5361666545524332303a20617070726f76652066726f6d206e6f6e2d7a65726f60408201527520746f206e6f6e2d7a65726f20616c6c6f77616e636560501b606082015260800190565b6020808252601f908201527f5361666545524332303a2063616c6c20746f206e6f6e2d636f6e747261637400604082015260600190565b600060208252823561339a81613602565b6001600160a01b03908116602084810191909152840135906133bb82613602565b8082166040850152604085013591506133d382613602565b166060838101919091528301356133e981613602565b6133f66080840182612d7f565b5061340460808401846135eb565b61341160a0840182612ea7565b5060a083013560c083015261342960c084018461359a565b60e0808501526131ea61010085018284612e6f565b90815260200190565b6000838252604060208301526125056040830184612e40565b6000848252606060208301526134796060830185612e40565b905060018060a01b0383166040830152949350505050565b8481526020810184905260a081016134a8846135f8565b836040830152825160608301526020830151608083015295945050505050565b6000808335601e198436030181126134de578283fd5b8301803591506001600160401b038211156134f7578283fd5b602090810192508102360382131561255957600080fd5b6040518181016001600160401b038111828210171561352c57600080fd5b604052919050565b60006001600160401b03821115613549578081fd5b5060209081020190565b6000808335601e19843603018112613569578283fd5b83016020810192503590506001600160401b0381111561358857600080fd5b60208102360383131561255957600080fd5b6000808335601e198436030181126135b0578283fd5b83016020810192503590506001600160401b038111156135cf57600080fd5b80360383131561255957600080fd5b60008235611f3381613625565b60008235611f3381613632565b60038110610a0457fe5b6001600160a01b0381168114610a0457600080fd5b8015158114610a0457600080fd5b60028110610a0457600080fd5b60038110610a0457600080fdfea2646970667358221220093df604b1d9b2a41ca09474043c7bede92c8b869334416ac46fdff4a7432e4464736f6c634300060c0033",
  "linkReferences": {},
  "deployedLinkReferences": {}
}