{
  "_format": "hh-sol-artifact-1",
  "contractName": "ConfigurableRightsPool",
  "sourceName": "contracts/base/ConfigurableRightsPool.sol",
  "abi": [
    {
      "inputs": [
        {
          "internalType": "string",
          "name": "tokenSymbol",
          "type": "string"
        },
        {
          "internalType": "string",
          "name": "tokenName",
          "type": "string"
        }
      ],
      "stateMutability": "nonpayable",
      "type": "constructor"
    },
    {
      "anonymous": false,
      "inputs": [
        {
          "indexed": true,
          "internalType": "address",
          "name": "newAdmin",
          "type": "address"
        },
        {
          "indexed": true,
          "internalType": "uint256",
          "name": "amount",
          "type": "uint256"
        }
      ],
      "name": "AddAdmin",
      "type": "event"
    },
    {
      "anonymous": false,
      "inputs": [
        {
          "indexed": true,
          "internalType": "address",
          "name": "owner",
          "type": "address"
        },
        {
          "indexed": true,
          "internalType": "address",
          "name": "spender",
          "type": "address"
        },
        {
          "indexed": false,
          "internalType": "uint256",
          "name": "value",
          "type": "uint256"
        }
      ],
      "name": "Approval",
      "type": "event"
    },
    {
      "anonymous": false,
      "inputs": [
        {
          "indexed": true,
          "internalType": "address",
          "name": "spender",
          "type": "address"
        },
        {
          "indexed": true,
          "internalType": "uint256",
          "name": "sort",
          "type": "uint256"
        },
        {
          "indexed": true,
          "internalType": "address",
          "name": "caller",
          "type": "address"
        },
        {
          "indexed": false,
          "internalType": "address",
          "name": "token",
          "type": "address"
        }
      ],
      "name": "LOG_DEL_WHITELIST",
      "type": "event"
    },
    {
      "anonymous": false,
      "inputs": [
        {
          "indexed": true,
          "internalType": "address",
          "name": "spender",
          "type": "address"
        },
        {
          "indexed": true,
          "internalType": "uint256",
          "name": "sort",
          "type": "uint256"
        },
        {
          "indexed": true,
          "internalType": "address",
          "name": "caller",
          "type": "address"
        },
        {
          "indexed": false,
          "internalType": "address",
          "name": "token",
          "type": "address"
        }
      ],
      "name": "LOG_WHITELIST",
      "type": "event"
    },
    {
      "anonymous": true,
      "inputs": [
        {
          "indexed": true,
          "internalType": "bytes4",
          "name": "sig",
          "type": "bytes4"
        },
        {
          "indexed": true,
          "internalType": "address",
          "name": "caller",
          "type": "address"
        },
        {
          "indexed": false,
          "internalType": "bytes",
          "name": "data",
          "type": "bytes"
        }
      ],
      "name": "LogCall",
      "type": "event"
    },
    {
      "anonymous": false,
      "inputs": [
        {
          "indexed": true,
          "internalType": "address",
          "name": "caller",
          "type": "address"
        },
        {
          "indexed": true,
          "internalType": "address",
          "name": "tokenOut",
          "type": "address"
        },
        {
          "indexed": false,
          "internalType": "uint256",
          "name": "tokenAmountOut",
          "type": "uint256"
        }
      ],
      "name": "LogExit",
      "type": "event"
    },
    {
      "anonymous": false,
      "inputs": [
        {
          "indexed": true,
          "internalType": "address",
          "name": "caller",
          "type": "address"
        },
        {
          "indexed": true,
          "internalType": "address",
          "name": "tokenIn",
          "type": "address"
        },
        {
          "indexed": false,
          "internalType": "uint256",
          "name": "tokenAmountIn",
          "type": "uint256"
        }
      ],
      "name": "LogJoin",
      "type": "event"
    },
    {
      "anonymous": false,
      "inputs": [
        {
          "indexed": true,
          "internalType": "address",
          "name": "previousOwner",
          "type": "address"
        },
        {
          "indexed": true,
          "internalType": "address",
          "name": "newOwner",
          "type": "address"
        }
      ],
      "name": "OwnershipTransferred",
      "type": "event"
    },
    {
      "anonymous": false,
      "inputs": [
        {
          "indexed": true,
          "internalType": "address",
          "name": "caller",
          "type": "address"
        },
        {
          "indexed": false,
          "internalType": "address",
          "name": "pool",
          "type": "address"
        },
        {
          "indexed": false,
          "internalType": "address",
          "name": "initToken",
          "type": "address"
        },
        {
          "indexed": false,
          "internalType": "uint256",
          "name": "initTokenTotal",
          "type": "uint256"
        },
        {
          "indexed": false,
          "internalType": "uint256",
          "name": "initShare",
          "type": "uint256"
        }
      ],
      "name": "PoolTokenInit",
      "type": "event"
    },
    {
      "anonymous": false,
      "inputs": [
        {
          "indexed": true,
          "internalType": "address",
          "name": "oldAdmin",
          "type": "address"
        },
        {
          "indexed": true,
          "internalType": "uint256",
          "name": "amount",
          "type": "uint256"
        }
      ],
      "name": "RemoveAdmin",
      "type": "event"
    },
    {
      "anonymous": false,
      "inputs": [
        {
          "indexed": true,
          "internalType": "uint256",
          "name": "managerFee",
          "type": "uint256"
        },
        {
          "indexed": true,
          "internalType": "uint256",
          "name": "issueFee",
          "type": "uint256"
        },
        {
          "indexed": true,
          "internalType": "uint256",
          "name": "redeemFee",
          "type": "uint256"
        },
        {
          "indexed": false,
          "internalType": "uint256",
          "name": "perfermanceFee",
          "type": "uint256"
        }
      ],
      "name": "SetManagerFee",
      "type": "event"
    },
    {
      "anonymous": false,
      "inputs": [
        {
          "indexed": true,
          "internalType": "address",
          "name": "caller",
          "type": "address"
        },
        {
          "indexed": true,
          "internalType": "string",
          "name": "sizeType",
          "type": "string"
        },
        {
          "indexed": false,
          "internalType": "uint256",
          "name": "oldSize",
          "type": "uint256"
        },
        {
          "indexed": false,
          "internalType": "uint256",
          "name": "newSize",
          "type": "uint256"
        }
      ],
      "name": "SizeChanged",
      "type": "event"
    },
    {
      "anonymous": false,
      "inputs": [
        {
          "indexed": true,
          "internalType": "address",
          "name": "from",
          "type": "address"
        },
        {
          "indexed": true,
          "internalType": "address",
          "name": "to",
          "type": "address"
        },
        {
          "indexed": false,
          "internalType": "uint256",
          "name": "value",
          "type": "uint256"
        }
      ],
      "name": "Transfer",
      "type": "event"
    },
    {
      "inputs": [],
      "name": "DECIMALS",
      "outputs": [
        {
          "internalType": "uint8",
          "name": "",
          "type": "uint8"
        }
      ],
      "stateMutability": "view",
      "type": "function"
    },
    {
      "inputs": [],
      "name": "NAME",
      "outputs": [
        {
          "internalType": "string",
          "name": "",
          "type": "string"
        }
      ],
      "stateMutability": "view",
      "type": "function"
    },
    {
      "inputs": [
        {
          "internalType": "address",
          "name": "token",
          "type": "address"
        }
      ],
      "name": "_verifyWhiteToken",
      "outputs": [],
      "stateMutability": "view",
      "type": "function"
    },
    {
      "inputs": [
        {
          "internalType": "uint256[]",
          "name": "sort",
          "type": "uint256[]"
        },
        {
          "internalType": "address[]",
          "name": "token",
          "type": "address[]"
        }
      ],
      "name": "addTokenToWhitelist",
      "outputs": [],
      "stateMutability": "nonpayable",
      "type": "function"
    },
    {
      "inputs": [
        {
          "internalType": "address",
          "name": "",
          "type": "address"
        }
      ],
      "name": "adminList",
      "outputs": [
        {
          "internalType": "bool",
          "name": "",
          "type": "bool"
        }
      ],
      "stateMutability": "view",
      "type": "function"
    },
    {
      "inputs": [],
      "name": "allOwnerPercentage",
      "outputs": [
        {
          "internalType": "uint256",
          "name": "",
          "type": "uint256"
        }
      ],
      "stateMutability": "view",
      "type": "function"
    },
    {
      "inputs": [
        {
          "internalType": "address",
          "name": "owner",
          "type": "address"
        },
        {
          "internalType": "address",
          "name": "spender",
          "type": "address"
        }
      ],
      "name": "allowance",
      "outputs": [
        {
          "internalType": "uint256",
          "name": "",
          "type": "uint256"
        }
      ],
      "stateMutability": "view",
      "type": "function"
    },
    {
      "inputs": [
        {
          "internalType": "address",
          "name": "spender",
          "type": "address"
        },
        {
          "internalType": "uint256",
          "name": "amount",
          "type": "uint256"
        }
      ],
      "name": "approve",
      "outputs": [
        {
          "internalType": "bool",
          "name": "",
          "type": "bool"
        }
      ],
      "stateMutability": "nonpayable",
      "type": "function"
    },
    {
      "inputs": [],
      "name": "bFactory",
      "outputs": [
        {
          "internalType": "contract IBFactory",
          "name": "",
          "type": "address"
        }
      ],
      "stateMutability": "view",
      "type": "function"
    },
    {
      "inputs": [],
      "name": "bPool",
      "outputs": [
        {
          "internalType": "contract IBPool",
          "name": "",
          "type": "address"
        }
      ],
      "stateMutability": "view",
      "type": "function"
    },
    {
      "inputs": [
        {
          "internalType": "address",
          "name": "account",
          "type": "address"
        }
      ],
      "name": "balanceOf",
      "outputs": [
        {
          "internalType": "uint256",
          "name": "",
          "type": "uint256"
        }
      ],
      "stateMutability": "view",
      "type": "function"
    },
    {
      "inputs": [],
      "name": "beginFundAssets",
      "outputs": [
        {
          "components": [
            {
              "internalType": "uint256",
              "name": "etfAmount",
              "type": "uint256"
            },
            {
              "internalType": "uint256",
              "name": "fundAmount",
              "type": "uint256"
            },
            {
              "internalType": "uint256",
              "name": "snapshotTime",
              "type": "uint256"
            },
            {
              "internalType": "address[]",
              "name": "tokens",
              "type": "address[]"
            },
            {
              "internalType": "uint256[]",
              "name": "tokensAmount",
              "type": "uint256[]"
            }
          ],
          "internalType": "struct SmartPoolManager.Fund",
          "name": "",
          "type": "tuple"
        }
      ],
      "stateMutability": "view",
      "type": "function"
    },
    {
      "inputs": [
        {
          "internalType": "uint256",
          "name": "amount",
          "type": "uint256"
        }
      ],
      "name": "burnPoolShareFromLib",
      "outputs": [],
      "stateMutability": "nonpayable",
      "type": "function"
    },
    {
      "inputs": [
        {
          "internalType": "address",
          "name": "provider",
          "type": "address"
        }
      ],
      "name": "canProvideLiquidity",
      "outputs": [
        {
          "internalType": "bool",
          "name": "",
          "type": "bool"
        }
      ],
      "stateMutability": "view",
      "type": "function"
    },
    {
      "inputs": [],
      "name": "claimManagerFee",
      "outputs": [],
      "stateMutability": "nonpayable",
      "type": "function"
    },
    {
      "inputs": [],
      "name": "claimPeriod",
      "outputs": [
        {
          "internalType": "uint256",
          "name": "",
          "type": "uint256"
        }
      ],
      "stateMutability": "view",
      "type": "function"
    },
    {
      "inputs": [],
      "name": "couldClaimManagerFee",
      "outputs": [
        {
          "internalType": "bool",
          "name": "state",
          "type": "bool"
        },
        {
          "internalType": "uint256",
          "name": "timePoint",
          "type": "uint256"
        },
        {
          "internalType": "uint256",
          "name": "timeElapsed",
          "type": "uint256"
        }
      ],
      "stateMutability": "view",
      "type": "function"
    },
    {
      "inputs": [
        {
          "internalType": "uint256",
          "name": "initialSupply",
          "type": "uint256"
        },
        {
          "internalType": "uint256",
          "name": "collectPeriod",
          "type": "uint256"
        },
        {
          "internalType": "enum SmartPoolManager.Period",
          "name": "closurePeriod",
          "type": "uint8"
        },
        {
          "components": [
            {
              "internalType": "uint256",
              "name": "bspFloor",
              "type": "uint256"
            },
            {
              "internalType": "uint256",
              "name": "bspCap",
              "type": "uint256"
            }
          ],
          "internalType": "struct SmartPoolManager.PoolTokenRange",
          "name": "tokenRange",
          "type": "tuple"
        }
      ],
      "name": "createPool",
      "outputs": [],
      "stateMutability": "nonpayable",
      "type": "function"
    },
    {
      "inputs": [],
      "name": "decimals",
      "outputs": [
        {
          "internalType": "uint8",
          "name": "",
          "type": "uint8"
        }
      ],
      "stateMutability": "view",
      "type": "function"
    },
    {
      "inputs": [
        {
          "internalType": "address",
          "name": "spender",
          "type": "address"
        },
        {
          "internalType": "uint256",
          "name": "amount",
          "type": "uint256"
        }
      ],
      "name": "decreaseApproval",
      "outputs": [
        {
          "internalType": "bool",
          "name": "",
          "type": "bool"
        }
      ],
      "stateMutability": "nonpayable",
      "type": "function"
    },
    {
      "inputs": [],
      "name": "endFundAssets",
      "outputs": [
        {
          "components": [
            {
              "internalType": "uint256",
              "name": "etfAmount",
              "type": "uint256"
            },
            {
              "internalType": "uint256",
              "name": "fundAmount",
              "type": "uint256"
            },
            {
              "internalType": "uint256",
              "name": "snapshotTime",
              "type": "uint256"
            },
            {
              "internalType": "address[]",
              "name": "tokens",
              "type": "address[]"
            },
            {
              "internalType": "uint256[]",
              "name": "tokensAmount",
              "type": "uint256[]"
            }
          ],
          "internalType": "struct SmartPoolManager.Fund",
          "name": "",
          "type": "tuple"
        }
      ],
      "stateMutability": "view",
      "type": "function"
    },
    {
      "inputs": [],
      "name": "etfStatus",
      "outputs": [
        {
          "internalType": "uint256",
          "name": "collectPeriod",
          "type": "uint256"
        },
        {
          "internalType": "uint256",
          "name": "collectEndTime",
          "type": "uint256"
        },
        {
          "internalType": "uint256",
          "name": "closurePeriod",
          "type": "uint256"
        },
        {
          "internalType": "uint256",
          "name": "closureEndTime",
          "type": "uint256"
        },
        {
          "internalType": "uint256",
          "name": "upperCap",
          "type": "uint256"
        },
        {
          "internalType": "uint256",
          "name": "floorCap",
          "type": "uint256"
        },
        {
          "internalType": "uint256",
          "name": "managerFee",
          "type": "uint256"
        },
        {
          "internalType": "uint256",
          "name": "redeemFee",
          "type": "uint256"
        },
        {
          "internalType": "uint256",
          "name": "issueFee",
          "type": "uint256"
        },
        {
          "internalType": "uint256",
          "name": "perfermanceFee",
          "type": "uint256"
        },
        {
          "internalType": "uint256",
          "name": "startClaimFeeTime",
          "type": "uint256"
        }
      ],
      "stateMutability": "view",
      "type": "function"
    },
    {
      "inputs": [],
      "name": "etype",
      "outputs": [
        {
          "internalType": "enum SmartPoolManager.Etypes",
          "name": "",
          "type": "uint8"
        }
      ],
      "stateMutability": "view",
      "type": "function"
    },
    {
      "inputs": [
        {
          "internalType": "address",
          "name": "_target",
          "type": "address"
        },
        {
          "internalType": "uint256",
          "name": "_value",
          "type": "uint256"
        },
        {
          "internalType": "bytes",
          "name": "_data",
          "type": "bytes"
        },
        {
          "internalType": "bool",
          "name": "isUnderlying",
          "type": "bool"
        }
      ],
      "name": "execute",
      "outputs": [
        {
          "internalType": "bytes",
          "name": "_returnValue",
          "type": "bytes"
        }
      ],
      "stateMutability": "nonpayable",
      "type": "function"
    },
    {
      "inputs": [
        {
          "internalType": "uint256",
          "name": "poolAmountIn",
          "type": "uint256"
        },
        {
          "internalType": "uint256[]",
          "name": "minAmountsOut",
          "type": "uint256[]"
        }
      ],
      "name": "exitPool",
      "outputs": [],
      "stateMutability": "nonpayable",
      "type": "function"
    },
    {
      "inputs": [],
      "name": "getController",
      "outputs": [
        {
          "internalType": "address",
          "name": "",
          "type": "address"
        }
      ],
      "stateMutability": "view",
      "type": "function"
    },
    {
      "inputs": [],
      "name": "getDesynSafeMathVersion",
      "outputs": [
        {
          "internalType": "address",
          "name": "",
          "type": "address"
        }
      ],
      "stateMutability": "pure",
      "type": "function"
    },
    {
      "inputs": [],
      "name": "getOwnerPercentage",
      "outputs": [
        {
          "internalType": "uint256[]",
          "name": "",
          "type": "uint256[]"
        }
      ],
      "stateMutability": "view",
      "type": "function"
    },
    {
      "inputs": [],
      "name": "getOwners",
      "outputs": [
        {
          "internalType": "address[]",
          "name": "",
          "type": "address[]"
        }
      ],
      "stateMutability": "view",
      "type": "function"
    },
    {
      "inputs": [],
      "name": "getRightsManagerVersion",
      "outputs": [
        {
          "internalType": "address",
          "name": "",
          "type": "address"
        }
      ],
      "stateMutability": "pure",
      "type": "function"
    },
    {
      "inputs": [],
      "name": "getSmartPoolManagerVersion",
      "outputs": [
        {
          "internalType": "address",
          "name": "",
          "type": "address"
        }
      ],
      "stateMutability": "pure",
      "type": "function"
    },
    {
      "inputs": [],
      "name": "hasClaimManageFee",
      "outputs": [
        {
          "internalType": "bool",
          "name": "",
          "type": "bool"
        }
      ],
      "stateMutability": "view",
      "type": "function"
    },
    {
      "inputs": [
        {
          "internalType": "enum RightsManager.Permissions",
          "name": "permission",
          "type": "uint8"
        }
      ],
      "name": "hasPermission",
      "outputs": [
        {
          "internalType": "bool",
          "name": "",
          "type": "bool"
        }
      ],
      "stateMutability": "view",
      "type": "function"
    },
    {
      "inputs": [],
      "name": "hasSetBeginFund",
      "outputs": [
        {
          "internalType": "bool",
          "name": "",
          "type": "bool"
        }
      ],
      "stateMutability": "view",
      "type": "function"
    },
    {
      "inputs": [],
      "name": "hasSetEndFund",
      "outputs": [
        {
          "internalType": "bool",
          "name": "",
          "type": "bool"
        }
      ],
      "stateMutability": "view",
      "type": "function"
    },
    {
      "inputs": [
        {
          "internalType": "address",
          "name": "spender",
          "type": "address"
        },
        {
          "internalType": "uint256",
          "name": "amount",
          "type": "uint256"
        }
      ],
      "name": "increaseApproval",
      "outputs": [
        {
          "internalType": "bool",
          "name": "",
          "type": "bool"
        }
      ],
      "stateMutability": "nonpayable",
      "type": "function"
    },
    {
      "inputs": [
        {
          "internalType": "address",
          "name": "factoryAddress",
          "type": "address"
        },
        {
          "components": [
            {
              "internalType": "string",
              "name": "poolTokenSymbol",
              "type": "string"
            },
            {
              "internalType": "string",
              "name": "poolTokenName",
              "type": "string"
            },
            {
              "internalType": "address[]",
              "name": "constituentTokens",
              "type": "address[]"
            },
            {
              "internalType": "uint256[]",
              "name": "tokenBalances",
              "type": "uint256[]"
            },
            {
              "internalType": "uint256[]",
              "name": "tokenWeights",
              "type": "uint256[]"
            },
            {
              "internalType": "uint256",
              "name": "managerFee",
              "type": "uint256"
            },
            {
              "internalType": "uint256",
              "name": "redeemFee",
              "type": "uint256"
            },
            {
              "internalType": "uint256",
              "name": "issueFee",
              "type": "uint256"
            },
            {
              "internalType": "uint256",
              "name": "perfermanceFee",
              "type": "uint256"
            },
            {
              "internalType": "enum SmartPoolManager.Etypes",
              "name": "etype",
              "type": "uint8"
            }
          ],
          "internalType": "struct SmartPoolManager.PoolParams",
          "name": "poolParams",
          "type": "tuple"
        },
        {
          "components": [
            {
              "internalType": "bool",
              "name": "canWhitelistLPs",
              "type": "bool"
            },
            {
              "internalType": "bool",
              "name": "canTokenWhiteLists",
              "type": "bool"
            }
          ],
          "internalType": "struct RightsManager.Rights",
          "name": "rightsStruct",
          "type": "tuple"
        }
      ],
      "name": "init",
      "outputs": [],
      "stateMutability": "nonpayable",
      "type": "function"
    },
    {
      "inputs": [
        {
          "internalType": "address[]",
          "name": "_owners",
          "type": "address[]"
        },
        {
          "internalType": "uint256[]",
          "name": "_ownerPercentage",
          "type": "uint256[]"
        }
      ],
      "name": "initHandle",
      "outputs": [],
      "stateMutability": "nonpayable",
      "type": "function"
    },
    {
      "inputs": [],
      "name": "isCompletedCollect",
      "outputs": [
        {
          "internalType": "bool",
          "name": "",
          "type": "bool"
        }
      ],
      "stateMutability": "view",
      "type": "function"
    },
    {
      "inputs": [
        {
          "internalType": "uint256",
          "name": "poolAmountOut",
          "type": "uint256"
        },
        {
          "internalType": "uint256[]",
          "name": "maxAmountsIn",
          "type": "uint256[]"
        },
        {
          "internalType": "address",
          "name": "kol",
          "type": "address"
        }
      ],
      "name": "joinPool",
      "outputs": [],
      "stateMutability": "nonpayable",
      "type": "function"
    },
    {
      "inputs": [
        {
          "internalType": "uint256",
          "name": "amount",
          "type": "uint256"
        }
      ],
      "name": "mintPoolShareFromLib",
      "outputs": [],
      "stateMutability": "nonpayable",
      "type": "function"
    },
    {
      "inputs": [],
      "name": "name",
      "outputs": [
        {
          "internalType": "string",
          "name": "",
          "type": "string"
        }
      ],
      "stateMutability": "view",
      "type": "function"
    },
    {
      "inputs": [
        {
          "internalType": "address",
          "name": "from",
          "type": "address"
        },
        {
          "internalType": "uint256",
          "name": "amount",
          "type": "uint256"
        }
      ],
      "name": "pullPoolShareFromLib",
      "outputs": [],
      "stateMutability": "nonpayable",
      "type": "function"
    },
    {
      "inputs": [
        {
          "internalType": "address",
          "name": "to",
          "type": "address"
        },
        {
          "internalType": "uint256",
          "name": "amount",
          "type": "uint256"
        }
      ],
      "name": "pushPoolShareFromLib",
      "outputs": [],
      "stateMutability": "nonpayable",
      "type": "function"
    },
    {
      "inputs": [
        {
          "internalType": "address",
          "name": "provider",
          "type": "address"
        }
      ],
      "name": "removeWhitelistedLiquidityProvider",
      "outputs": [],
      "stateMutability": "nonpayable",
      "type": "function"
    },
    {
      "inputs": [],
      "name": "rights",
      "outputs": [
        {
          "internalType": "bool",
          "name": "canWhitelistLPs",
          "type": "bool"
        },
        {
          "internalType": "bool",
          "name": "canTokenWhiteLists",
          "type": "bool"
        }
      ],
      "stateMutability": "view",
      "type": "function"
    },
    {
      "inputs": [
        {
          "internalType": "uint256",
          "name": "newCap",
          "type": "uint256"
        }
      ],
      "name": "setCap",
      "outputs": [],
      "stateMutability": "nonpayable",
      "type": "function"
    },
    {
      "inputs": [
        {
          "internalType": "address",
          "name": "newOwner",
          "type": "address"
        }
      ],
      "name": "setController",
      "outputs": [],
      "stateMutability": "nonpayable",
      "type": "function"
    },
    {
      "inputs": [
        {
          "internalType": "address[]",
          "name": "_owners",
          "type": "address[]"
        },
        {
          "internalType": "uint256[]",
          "name": "_ownerPercentage",
          "type": "uint256[]"
        }
      ],
      "name": "setManagersInfo",
      "outputs": [],
      "stateMutability": "nonpayable",
      "type": "function"
    },
    {
      "inputs": [],
      "name": "snapshotAssets",
      "outputs": [
        {
          "components": [
            {
              "internalType": "uint256",
              "name": "etfAmount",
              "type": "uint256"
            },
            {
              "internalType": "uint256",
              "name": "fundAmount",
              "type": "uint256"
            },
            {
              "internalType": "uint256",
              "name": "snapshotTime",
              "type": "uint256"
            },
            {
              "internalType": "address[]",
              "name": "tokens",
              "type": "address[]"
            },
            {
              "internalType": "uint256[]",
              "name": "tokensAmount",
              "type": "uint256[]"
            }
          ],
          "internalType": "struct SmartPoolManager.Fund",
          "name": "",
          "type": "tuple"
        }
      ],
      "stateMutability": "nonpayable",
      "type": "function"
    },
    {
      "inputs": [],
      "name": "snapshotBeginAssets",
      "outputs": [],
      "stateMutability": "nonpayable",
      "type": "function"
    },
    {
      "inputs": [],
      "name": "snapshotEndAssets",
      "outputs": [],
      "stateMutability": "nonpayable",
      "type": "function"
    },
    {
      "inputs": [],
      "name": "symbol",
      "outputs": [
        {
          "internalType": "string",
          "name": "",
          "type": "string"
        }
      ],
      "stateMutability": "view",
      "type": "function"
    },
    {
      "inputs": [],
      "name": "totalSupply",
      "outputs": [
        {
          "internalType": "uint256",
          "name": "",
          "type": "uint256"
        }
      ],
      "stateMutability": "view",
      "type": "function"
    },
    {
      "inputs": [
        {
          "internalType": "address",
          "name": "recipient",
          "type": "address"
        },
        {
          "internalType": "uint256",
          "name": "amount",
          "type": "uint256"
        }
      ],
      "name": "transfer",
      "outputs": [
        {
          "internalType": "bool",
          "name": "",
          "type": "bool"
        }
      ],
      "stateMutability": "nonpayable",
      "type": "function"
    },
    {
      "inputs": [
        {
          "internalType": "address",
          "name": "sender",
          "type": "address"
        },
        {
          "internalType": "address",
          "name": "recipient",
          "type": "address"
        },
        {
          "internalType": "uint256",
          "name": "amount",
          "type": "uint256"
        }
      ],
      "name": "transferFrom",
      "outputs": [
        {
          "internalType": "bool",
          "name": "",
          "type": "bool"
        }
      ],
      "stateMutability": "nonpayable",
      "type": "function"
    },
    {
      "inputs": [],
      "name": "vaultAddress",
      "outputs": [
        {
          "internalType": "address",
          "name": "",
          "type": "address"
        }
      ],
      "stateMutability": "view",
      "type": "function"
    },
    {
      "inputs": [
        {
          "internalType": "address",
          "name": "provider",
          "type": "address"
        }
      ],
      "name": "whitelistLiquidityProvider",
      "outputs": [],
      "stateMutability": "nonpayable",
      "type": "function"
    }
  ],
  "bytecode": "0x6080604052612710600655610384602b553480156200001d57600080fd5b5060405162006206380380620062068339810160408190526200004091620001d4565b8151829082906200005990600390602085019062000091565b5080516200006f90600490602084019062000091565b5050600780546001600160a01b0319163317905550506001600b55506200023b565b828054600181600116156101000203166002900490600052602060002090601f016020900481019282601f10620000d457805160ff191683800117855562000104565b8280016001018555821562000104579182015b8281111562000104578251825591602001919060010190620000e7565b506200011292915062000116565b5090565b5b8082111562000112576000815560010162000117565b600082601f8301126200013e578081fd5b81516001600160401b038082111562000155578283fd5b6040516020601f8401601f191682018101838111838210171562000177578586fd5b806040525081945083825286818588010111156200019457600080fd5b600092505b83831015620001b8578583018101518284018201529182019162000199565b83831115620001ca5760008185840101525b5050505092915050565b60008060408385031215620001e7578182fd5b82516001600160401b0380821115620001fe578384fd5b6200020c868387016200012d565b9350602085015191508082111562000222578283fd5b5062000231858286016200012d565b9150509250929050565b615fbb806200024b6000396000f3fe608060405234801561001057600080fd5b50600436106102ae5760003560e01c806374983a0d1161016e57806374983a0d146104bf5780637dc2cd98146104c7578063806c6f87146104cf5780638cf3b3d5146104e257806390ca071b146104ea57806392eefe9b146104fd57806395c5736d1461051057806395d89b411461052757806396a2db021461052f578063980e8db6146105375780639d829c2b1461054d578063a0e67e2b14610555578063a3f4df7e1461056a578063a6c245c414610572578063a9059cbb14610585578063b02f0b7314610598578063b36b4fa0146105ab578063b64ef17b146105be578063c83a1c2d146105c6578063c9735f23146105d9578063d29986c1146105ec578063d2fed42e146105f4578063d73dd623146105fc578063dd62ed3e1461060f578063e2762d4b14610622578063f054fbc014610635578063f329a8c714610648578063f3b0857214610650578063f605bebf14610658576102ae565b806306fdde03146102b35780630892b93d146102d1578063095dcccc146102e6578063095ea7b3146102f95780630a165940146103195780631296548f1461032e57806316131388146103365780631748c0881461033e57806318160ddd14610353578063220eb7601461036857806323b872dd1461037b57806327304dfd1461038e5780632e0f2625146103a15780633018205f146103b6578063309a042c146103be578063313ce567146103d357806337c6f4d9146103db5780633befcde8146103ee5780633ef1447914610401578063430bf08a1461041457806343774a6b1461041c57806347786d37146104245780634ba57882146104375780635468d6d71461044a57806355c32a2314610452578063661884631461046557806370a08231146104785780637228c87b1461048b57806373a9855c146104aa575b600080fd5b6102bb610660565b6040516102c891906154b1565b60405180910390f35b6102e46102df366004614fed565b6106f6565b005b6102e46102f4366004614bdd565b610b7a565b61030c610307366004614bdd565b610ba7565b6040516102c89190615428565b610321610c00565b6040516102c891906151c1565b6102e4610c0f565b61030c610d51565b610346610d61565b6040516102c89190615ccc565b61035b610e48565b6040516102c89190615d56565b6102e4610376366004614f18565b610e4e565b61030c610389366004614a3d565b610e79565b61030c61039c3660046149cd565b610fa1565b6103a9610fb6565b6040516102c89190615e20565b610321610fbb565b6103c6610fca565b6040516102c89190615415565b6103a9611021565b61030c6103e9366004614efc565b611026565b6102e46103fc366004614f91565b6110bb565b6102e461040f366004614d3e565b611915565b61032161199f565b6102e46119ae565b6102e4610432366004614f18565b611c22565b6102e4610445366004614f18565b611d57565b61030c611d7f565b6102e4610460366004614bdd565b611d8f565b61030c610473366004614bdd565b611db8565b61035b6104863660046149cd565b611e92565b610493611ead565b6040516102c89b9a99989796959493929190615dd2565b6104b2611ed1565b6040516102c89190615635565b610321611ee1565b61035b611ef9565b61030c6104dd3660046149cd565b611eff565b610346611fce565b6102e46104f8366004614a7d565b6120b1565b6102e461050b3660046149cd565b61239e565b610518612504565b6040516102c893929190615485565b6102bb612588565b6103466125e9565b61053f612724565b6040516102c8929190615433565b610321612736565b61055d61274e565b6040516102c89190615390565b6102bb6127af565b6102e4610580366004614e21565b6127db565b61030c610593366004614bdd565b61298c565b6102e46105a6366004614f48565b6129c8565b6102bb6105b9366004614c08565b61307d565b61032161329c565b6102e46105d43660046149cd565b6132ab565b6102e46105e73660046149cd565b6133c0565b61035b613493565b6102e4613499565b61030c61060a366004614bdd565b613576565b61035b61061d366004614a05565b6135ea565b6102e46106303660046149cd565b613615565b6102e4610643366004614d3e565b613743565b61030c6137ae565b6103216137be565b61030c6137d6565b60048054604080516020601f60026000196101006001881615020190951694909404938401819004810282018101909252828152606093909290918301828280156106ec5780601f106106c1576101008083540402835291602001916106ec565b820191906000526020600020905b8154815290600101906020018083116106cf57829003601f168201915b5050505050905090565b6007546001600160a01b031633146107295760405162461bcd60e51b81526004016107209061566b565b60405180910390fd5b336001600160a01b03166000356001600160e01b0319166001600160e01b03191660003660405161075b92919061549d565b60405180910390a26002600b5414156107865760405162461bcd60e51b8152600401610720906158d8565b6002600b55600f54604080516358c3de9360e11b815290516001600160a01b039092169163b187bd2691600480820192602092909190829003018186803b1580156107d057600080fd5b505afa1580156107e4573d6000803e3d6000fd5b505050506040513d601f19601f820116820180604052508101906108089190614e77565b156108255760405162461bcd60e51b81526004016107209061588d565b6001602c54600160d01b900460ff16600181111561083f57fe5b1415610b6657601654604051633e9fc0bd60e01b815273__$c61de259b17579437cb458fbe4ba8c0f49$__91633e9fc0bd916108819187918990600401615d84565b60006040518083038186803b15801561089957600080fd5b505af41580156108ad573d6000803e3d6000fd5b5050601654601754602880549294509092506108f4916000906108cc57fe5b90600052602060002001546108ee8560200151896137e690919063ffffffff16565b90613863565b60165560288054610922919060009061090957fe5b60009182526020909120015484516108ee9089906137e6565b6017556027805433917f8e15e99837ccd5505c7306f1c665c90b4710600100e4720421a8b2c3e86f4ff49130919060009061095957fe5b6000918252602082200154602880546001600160a01b0390921692909161097c57fe5b90600052602060002001548a60405161099894939291906152fb565b60405180910390a26040516109ac9061519f565b60405190819003812060165490913391600080516020615efd833981519152916109d7918791615d76565b60405180910390a36040516109eb906151b0565b60405190819003812060175490913391600080516020615efd83398151915291610a16918691615d76565b60405180910390a3600042860181866002811115610a3057fe5b1415610a40576104b09150610a67565b6001866002811115610a4e57fe5b1415610a5f5762ed4e009150610a67565b6301da9c0091505b6012879055601381905560148290558082016015819055600f546040805163703a9ec960e01b815290516001600160a01b039092169163703a9ec991600480820192602092909190829003018186803b158015610ac357600080fd5b505afa158015610ad7573d6000803e3d6000fd5b505050506040513d601f19601f82011682018060405250810190610afb91906149e9565b6001600160a01b031663d7256c703333602760286040518563ffffffff1660e01b8152600401610b2e94939291906151d5565b600060405180830381600087803b158015610b4857600080fd5b505af1158015610b5c573d6000803e3d6000fd5b5050505050505050505b610b6f846138f4565b50506001600b555050565b333014610b995760405162461bcd60e51b81526004016107209061566b565b610ba38282613bb2565b5050565b3360008181526002602090815260408083206001600160a01b03871680855292528083208590555191929091600080516020615f6683398151915290610bee908690615d56565b60405180910390a35060015b92915050565b600f546001600160a01b031681565b602c544290600160b81b900460ff16158015610c345750602c54600160b01b900460ff165b8015610c5757506001602c54600160d01b900460ff166001811115610c5557fe5b145b8015610c695750601354610384018111155b610c855760405162461bcd60e51b815260040161072090615bb1565b60135461012c018111801590610cd9573360009081526005602052604090205460ff1680610cbd57506007546001600160a01b031633145b610cd95760405162461bcd60e51b815260040161072090615648565b610ce16125e9565b8051601d908155602080830151601e556040830151601f5560608301518051610d0d929182019061470c565b5060808201518051610d29916004840191602090910190614771565b5050602c805460ff60b81b1916600160b81b17905550601354821015610ba357426013555050565b602c54600160c01b900460ff1681565b610d696147b8565b6040805160a081018252601d80548252601e54602080840191909152601f54838501528054845181830281018301909552808552929391926060850192919082820182828015610de257602002820191906000526020600020905b81546001600160a01b03168152600190910190602001808311610dc4575b5050505050815260200160048201805480602002602001604051908101604052809291908181526020018280548015610e3a57602002820191906000526020600020905b815481526020019060010190808311610e26575b505050505081525050905090565b60005490565b333014610e6d5760405162461bcd60e51b81526004016107209061566b565b610e7681613bbd565b50565b60006001600160a01b038316610ea15760405162461bcd60e51b815260040161072090615779565b336001600160a01b0385161480610edb57506001600160a01b03841660009081526002602090815260408083203384529091529020548211155b610ef75760405162461bcd60e51b8152600401610720906159de565b610f02848484613c25565b6001600160a01b0384166000818152600260209081526040808320338085529252909120549114801590610f3857506000198114155b15610f9657610f478184613cc4565b6001600160a01b03861660008181526002602090815260408083203380855292529182902084905590519092600080516020615f6683398151915291610f8d9190615d56565b60405180910390a35b506001949350505050565b60056020526000908152604090205460ff1681565b601281565b6007546001600160a01b031690565b606060098054806020026020016040519081016040528092919081815260200182805480156106ec57602002820191906000526020600020905b815481526020019060010190808311611004575050505050905090565b601290565b6040516322c1aa2560e11b815260009073__$3a9c388c21df3b52adbbb2b73829b93ce6$__90634583544a90611063906011908690600401615d23565b60206040518083038186803b15801561107b57600080fd5b505af415801561108f573d6000803e3d6000fd5b505050506040513d601f19601f820116820180604052508101906110b39190614e77565b90505b919050565b336001600160a01b03166000356001600160e01b0319166001600160e01b0319166000366040516110ed92919061549d565b60405180910390a26002600b5414156111185760405162461bcd60e51b8152600401610720906158d8565b6002600b556010546001600160a01b03166111455760405162461bcd60e51b81526004016107209061581c565b600f60009054906101000a90046001600160a01b03166001600160a01b031663b187bd266040518163ffffffff1660e01b815260040160206040518083038186803b15801561119357600080fd5b505afa1580156111a7573d6000803e3d6000fd5b505050506040513d601f19601f820116820180604052508101906111cb9190614e77565b156111e85760405162461bcd60e51b81526004016107209061588d565b60115460405163806c6f8760e01b815273__$c61de259b17579437cb458fbe4ba8c0f49$__9163dba4989a9160ff90911690309063806c6f87906112309033906004016151c1565b60206040518083038186803b15801561124857600080fd5b505afa15801561125c573d6000803e3d6000fd5b505050506040513d601f19601f820116820180604052508101906112809190614e77565b6001602c54600160d01b900460ff16600181111561129a57fe5b146012600101546040518563ffffffff1660e01b81526004016112c09493929190615466565b60006040518083038186803b1580156112d857600080fd5b505af41580156112ec573d6000803e3d6000fd5b5050601154610100900460ff1615915061132690505761130a613cfd565b6113265760405162461bcd60e51b815260040161072090615be1565b601054601a5460405163b78e0bc960e01b815260609273__$c61de259b17579437cb458fbe4ba8c0f49$__9263b78e0bc9926113799230926001600160a01b03909116918b918b918b91906004016155ee565b60006040518083038186803b15801561139157600080fd5b505af41580156113a5573d6000803e3d6000fd5b505050506040513d6000823e601f3d908101601f191682016040526113cd9190810190614d9e565b90506060601060009054906101000a90046001600160a01b03166001600160a01b031663cc77828d6040518163ffffffff1660e01b815260040160006040518083038186803b15801561141f57600080fd5b505afa158015611433573d6000803e3d6000fd5b505050506040513d6000823e601f3d908101601f1916820160405261145b9190810190614ca6565b9050606081516001600160401b038111801561147657600080fd5b506040519080825280602002602001820160405280156114a0578160200160208202803683370190505b50601a549091506001602c54600160d01b900460ff1660018111156114c157fe5b14156115c957600f60009054906101000a90046001600160a01b03166001600160a01b031663703a9ec96040518163ffffffff1660e01b815260040160206040518083038186803b15801561151557600080fd5b505afa158015611529573d6000803e3d6000fd5b505050506040513d601f19601f8201168201806040525081019061154d91906149e9565b6001600160a01b031663d7256c70863386886040518563ffffffff1660e01b815260040161157e949392919061528e565b600060405180830381600087803b15801561159857600080fd5b505af11580156115ac573d6000803e3d6000fd5b5050602c54600160b01b900460ff16151591506115c99050575060005b60005b835181101561173557600073__$c61de259b17579437cb458fbe4ba8c0f49$__63d378778c30601060009054906101000a90046001600160a01b031688868151811061161457fe5b60200260200101518a878151811061162857fe5b6020026020010151886040518663ffffffff1660e01b81526004016116519594939291906154f7565b60206040518083038186803b15801561166957600080fd5b505af415801561167d573d6000803e3d6000fd5b505050506040513d601f19601f820116820180604052508101906116a19190614f30565b90508482815181106116af57fe5b60200260200101516001600160a01b0316336001600160a01b03167fea39e3b35c5cd8937999ed5f7fbab30acd562a931fc4a887fed2a47c3074aa728885815181106116f757fe5b602002602001015160405161170c9190615d56565b60405180910390a38084838151811061172157fe5b6020908102919091010152506001016115cc565b5080156117a657602c54604051631483d99d60e01b81526001600160a01b0390911690631483d99d90611773908690869081906000906004016153c8565b600060405180830381600087803b15801561178d57600080fd5b505af11580156117a1573d6000803e3d6000fd5b505050505b6117af88611d76565b6117b93389610b99565b60006001602c54600160d01b900460ff1660018111156117d557fe5b1480156118575750601260050154306001600160a01b03166318160ddd6040518163ffffffff1660e01b815260040160206040518083038186803b15801561181c57600080fd5b505afa158015611830573d6000803e3d6000fd5b505050506040513d601f19601f820116820180604052508101906118549190614f30565b10155b801561186d5750602c54600160b01b900460ff16155b9050801561190557602c805460ff60b01b1916600160b01b179055601054601a54604051637547433160e11b815273__$c61de259b17579437cb458fbe4ba8c0f49$__9263ea8e8662926118d49230926001600160a01b0316918a9160009060040161552b565b60006040518083038186803b1580156118ec57600080fd5b505af4158015611900573d6000803e3d6000fd5b505050505b50506001600b5550505050505050565b80518251146119365760405162461bcd60e51b81526004016107209061586d565b600a5460ff16156119595760405162461bcd60e51b8152600401610720906156be565b61196282613d18565b815161197590600890602085019061470c565b508051611989906009906020840190614771565b50600a805460ff19166001179055610ba3613dc3565b602c546001600160a01b031681565b602c544290600160c01b900460ff161580156119d35750602c54600160b81b900460ff165b80156119f657506001602c54600160d01b900460ff1660018111156119f457fe5b145b8015611a0457506015548110155b611a205760405162461bcd60e51b815260040161072090615bb1565b60155461012c018111801590611a74573360009081526005602052604090205460ff1680611a5857506007546001600160a01b031633145b611a745760405162461bcd60e51b815260040161072090615648565b611a7c6125e9565b80516022908155602080830151602355604083015160245560608301518051611aa992602592019061470c565b5060808201518051611ac5916004840191602090910190614771565b505060225460235460009250611ada91613863565b601d54601e54919250600091611aef91613863565b905080821115611c0957601b54600090611b119084906108ee908583036137e6565b6010546040805163cc77828d60e01b8152905192935073__$c61de259b17579437cb458fbe4ba8c0f49$__9263ea8e86629230926001600160a01b0390911691829163cc77828d916004808301926000929190829003018186803b158015611b7857600080fd5b505afa158015611b8c573d6000803e3d6000fd5b505050506040513d6000823e601f3d908101601f19168201604052611bb49190810190614ca6565b8560016040518663ffffffff1660e01b8152600401611bd795949392919061552b565b60006040518083038186803b158015611bef57600080fd5b505af4158015611c03573d6000803e3d6000fd5b50505050505b5050602c805460ff60c01b1916600160c01b1790555050565b336001600160a01b03166000356001600160e01b0319166001600160e01b031916600036604051611c5492919061549d565b60405180910390a26002600b541415611c7f5760405162461bcd60e51b8152600401610720906158d8565b6002600b556010546001600160a01b0316611cac5760405162461bcd60e51b81526004016107209061581c565b6007546001600160a01b03163314611cd65760405162461bcd60e51b81526004016107209061566b565b6000602c54600160d01b900460ff166001811115611cf057fe5b14611d0d5760405162461bcd60e51b815260040161072090615c6a565b604051611d199061519f565b60405190819003812060165490913391600080516020615efd83398151915291611d4591908690615d76565b60405180910390a36016556001600b55565b333014611d765760405162461bcd60e51b81526004016107209061566b565b610e7681613e19565b602c54600160b01b900460ff1681565b333014611dae5760405162461bcd60e51b81526004016107209061566b565b610ba38282613e46565b3360009081526002602090815260408083206001600160a01b0386168452909152812054808310611e0c573360009081526002602090815260408083206001600160a01b0388168452909152812055611e3b565b611e168184613cc4565b3360009081526002602090815260408083206001600160a01b03891684529091529020555b3360008181526002602090815260408083206001600160a01b038916808552925291829020549151909291600080516020615f6683398151915291611e809190615d56565b60405180910390a35060019392505050565b6001600160a01b031660009081526001602052604090205490565b601254601354601454601554601654601754601854601954601a54601b54601c548b565b602c54600160d01b900460ff1681565b73__$3a9c388c21df3b52adbbb2b73829b93ce6$__90565b602b5481565b60115460009060ff1615611fbc576001600160a01b0382166000908152602a602052604090205460ff1680611fb55750306001600160a01b0316633018205f6040518163ffffffff1660e01b815260040160206040518083038186803b158015611f6857600080fd5b505afa158015611f7c573d6000803e3d6000fd5b505050506040513d601f19601f82011682018060405250810190611fa091906149e9565b6001600160a01b0316826001600160a01b0316145b90506110b6565b506001600160a01b03811615156110b6565b611fd66147b8565b6040805160a081018252602280548252602354602080840191909152602454838501526025805485518184028101840190965280865293949293606086019392830182828015610de2576020028201919060005260206000209081546001600160a01b03168152600190910190602001808311610dc4575050505050815260200160048201805480602002602001604051908101604052809291908181526020018280548015610e3a5760200282019190600052602060002090815481526020019060010190808311610e2657505050505081525050905090565b73__$c61de259b17579437cb458fbe4ba8c0f49$__6344e3696f8360a001518460e001518560c00151866101000151876060015151886080015151896040015151602c60159054906101000a900460ff166040518963ffffffff1660e01b8152600401612125989796959493929190615d9a565b60006040518083038186803b15801561213d57600080fd5b505af4158015612151573d6000803e3d6000fd5b5050602c805460ff60a81b1916600160a81b179055505080516011805460208085015115156101000261ff001994151560ff199093169290921793909316179055604083015180516121a792602792019061470c565b50606082015180516121c191602891602090910190614771565b50608082015180516121db91602991602090910190614771565b506040805161016081018252600080825260208201819052918101829052606081018290526000196080820181905260a080830184905285015160c080840182905286015160e0808501829052870151610100808601829052880151610120808701829052426101409097018790526012889055601388905560148890556015889055601695909555601796909655601892909255601955601a55601b92909255601c55820151602c805460ff60d01b1916600160d01b83600181111561229e57fe5b0217905550600f80546001600160a01b0319166001600160a01b038581169190911791829055604080516311b2515f60e31b815290519290911691638d928af891600480820192602092909190829003018186803b1580156122ff57600080fd5b505afa158015612313573d6000803e3d6000fd5b505050506040513d601f19601f8201168201806040525081019061233791906149e9565b602c80546001600160a01b0319166001600160a01b0392909216919091179055601954601a54601854601b546040517f3d6667963e842e2b5ff1d4feab2c9b92f17c9003592e2ad229952eeb9a293fd09161239191615d56565b60405180910390a4505050565b6007546001600160a01b031633146123c85760405162461bcd60e51b81526004016107209061566b565b6001600160a01b0381166123ee5760405162461bcd60e51b815260040161072090615779565b6007546040516001600160a01b038084169216907f8be0079c531659141344cd1fd0a4f28419497f9722a3daafe3b4186f6b6457e090600090a360005b6008548110156124b257600754600880546001600160a01b03909216918390811061245257fe5b6000918252602090912001546001600160a01b031614156124aa57816008828154811061247b57fe5b9060005260206000200160006101000a8154816001600160a01b0302191690836001600160a01b031602179055505b60010161242b565b50600780546001600160a01b03908116600090815260056020526040808220805460ff1990811690915594909216808252919020805490931660011790925580546001600160a01b0319169091179055565b60008080806001602c54600160d01b900460ff16600181111561252357fe5b149050429250808015612537575060155483115b156125425760155492505b612551836012600a0154613cc4565b9150602b54821061256157600193505b8080156125785750602c54600160b01b900460ff16155b1561258257600093505b50909192565b60038054604080516020601f60026000196101006001881615020190951694909404938401819004810282018101909252828152606093909290918301828280156106ec5780601f106106c1576101008083540402835291602001916106ec565b6125f16147b8565b6125f96147b8565b6000548152612606613e51565b60808301526060820152600f546040805163b18b78dd60e01b815290516001600160a01b039092169163b18b78dd91600480820192602092909190829003018186803b15801561265557600080fd5b505afa158015612669573d6000803e3d6000fd5b505050506040513d601f19601f8201168201806040525081019061268d91906149e9565b6001600160a01b031663422b66f4826060015183608001516040518363ffffffff1660e01b81526004016126c29291906153a3565b602060405180830381600087803b1580156126dc57600080fd5b505af11580156126f0573d6000803e3d6000fd5b505050506040513d601f19601f820116820180604052508101906127149190614f30565b6020820152426040820152905090565b60115460ff8082169161010090041682565b73__$c61de259b17579437cb458fbe4ba8c0f49$__90565b606060088054806020026020016040519081016040528092919081815260200182805480156106ec57602002820191906000526020600020905b81546001600160a01b03168152600190910190602001808311612788575050505050905090565b6040518060400160405280601081526020016f11195cde5b8814db585c9d08141bdbdb60821b81525081565b6007546001600160a01b031633146128055760405162461bcd60e51b81526004016107209061566b565b601154610100900460ff1680156128265750602c54600160a01b900460ff16155b6128425760405162461bcd60e51b815260040161072090615697565b80518251146128635760405162461bcd60e51b815260040161072090615a45565b60005b815181101561297457600f5483516000916001600160a01b031690638f49f44d9086908590811061289357fe5b60200260200101518585815181106128a757fe5b60200260200101516040518363ffffffff1660e01b81526004016128cc929190615d5f565b60206040518083038186803b1580156128e457600080fd5b505afa1580156128f8573d6000803e3d6000fd5b505050506040513d601f19601f8201168201806040525081019061291c9190614e77565b90508061293b5760405162461bcd60e51b8152600401610720906157a3565b61296b84838151811061294a57fe5b602002602001015184848151811061295e57fe5b6020026020010151613ff4565b50600101612866565b5050602c805460ff60a01b1916600160a01b17905550565b60006001600160a01b0383166129b45760405162461bcd60e51b815260040161072090615779565b6129bf338484613c25565b50600192915050565b336001600160a01b03166000356001600160e01b0319166001600160e01b0319166000366040516129fa92919061549d565b60405180910390a26002600b541415612a255760405162461bcd60e51b8152600401610720906158d8565b6002600b556010546001600160a01b0316612a525760405162461bcd60e51b81526004016107209061581c565b600f60009054906101000a90046001600160a01b03166001600160a01b031663b187bd266040518163ffffffff1660e01b815260040160206040518083038186803b158015612aa057600080fd5b505afa158015612ab4573d6000803e3d6000fd5b505050506040513d601f19601f82011682018060405250810190612ad89190614e77565b15612af55760405162461bcd60e51b81526004016107209061588d565b6000806001602c54600160d01b900460ff166001811115612b1257fe5b1415612b9857602c54600160b01b900460ff16158015612b3457506013544210155b905080612b9857602c54600160c81b900460ff16612b6857612b546140ce565b602c805460ff60c81b1916600160c81b1790555b602c54600160b81b900460ff168015612b8b5750602c54600160c01b900460ff16155b15612b9857612b986119ae565b73__$c61de259b17579437cb458fbe4ba8c0f49$__637f717d85306001602c54600160d01b900460ff166001811115612bcd57fe5b602c5460155460135460405160e088901b6001600160e01b0319168152612c0a96959490941493600160b01b90930460ff16928d906004016154c4565b60206040518083038186803b158015612c2257600080fd5b505af4158015612c36573d6000803e3d6000fd5b505050506040513d601f19601f82011682018060405250810190612c5a9190614f30565b60105460405163151c70f960e21b815291935060609173__$c61de259b17579437cb458fbe4ba8c0f49$__91635471c3e491612cac9130916001600160a01b039091169088908b908b906004016155ba565b60006040518083038186803b158015612cc457600080fd5b505af4158015612cd8573d6000803e3d6000fd5b505050506040513d6000823e601f3d908101601f19168201604052612d009190810190614d9e565b9050612d0c3384611dae565b612d1583610e6d565b6010546040805163cc77828d60e01b815290516060926001600160a01b03169163cc77828d916004808301926000929190829003018186803b158015612d5a57600080fd5b505afa158015612d6e573d6000803e3d6000fd5b505050506040513d6000823e601f3d908101601f19168201604052612d969190810190614ca6565b9050606081516001600160401b0381118015612db157600080fd5b50604051908082528060200260200182016040528015612ddb578160200160208202803683370190505b506019549091506001602c54600160d01b900460ff166001811115612dfc57fe5b1415612e39578415612e1057506000612e39565b4260126003015461012c011115612e395760405162461bcd60e51b815260040161072090615adb565b606083516001600160401b0381118015612e5257600080fd5b50604051908082528060200260200182016040528015612e7c578160200160208202803683370190505b50905060005b8451811015612ffb57600080600073__$c61de259b17579437cb458fbe4ba8c0f49$__632c948f6f30601060009054906101000a90046001600160a01b03168b8881518110612ecd57fe5b60200260200101518d8981518110612ee157fe5b60200260200101518b6040518663ffffffff1660e01b8152600401612f0a9594939291906154f7565b60606040518083038186803b158015612f2257600080fd5b505af4158015612f36573d6000803e3d6000fd5b505050506040513d601f19601f82011682018060405250810190612f5a919061505a565b92509250925080858581518110612f6d57fe5b60200260200101818152505082878581518110612f8657fe5b602002602001018181525050878481518110612f9e57fe5b60200260200101516001600160a01b0316336001600160a01b03167fc62fc35ac75e3bff532648e2859a3e1694002cfa357614ae8e034df7f83db5e984604051612fe89190615d56565b60405180910390a3505050600101612e82565b50811561306c57602c54604051631483d99d60e01b81526001600160a01b0390911690631483d99d90613039908790879086906001906004016153c8565b600060405180830381600087803b15801561305357600080fd5b505af1158015613067573d6000803e3d6000fd5b505050505b50506001600b555050505050505050565b6060336001600160a01b03166000356001600160e01b0319166001600160e01b0319166000366040516130b192919061549d565b60405180910390a26002600b5414156130dc5760405162461bcd60e51b8152600401610720906158d8565b6002600b556010546001600160a01b03166131095760405162461bcd60e51b81526004016107209061581c565b600f546040516338f0d24560e01b81526001600160a01b03909116906338f0d2459061313b9030903390600401615274565b60206040518083038186803b15801561315357600080fd5b505afa158015613167573d6000803e3d6000fd5b505050506040513d601f19601f8201168201806040525081019061318b9190614e77565b6131a75760405162461bcd60e51b815260040161072090615714565b811561324057601054604051635b0e93fb60e11b81526001600160a01b039091169063b61d27f6906131e390899089908990899060040161533d565b600060405180830381600087803b1580156131fd57600080fd5b505af1158015613211573d6000803e3d6000fd5b505050506040513d6000823e601f3d908101601f191682016040526132399190810190614e93565b905061328e565b61328b84848080601f01602080910402602001604051908101604052809392919081815260200183838082843760009201919091525050506001600160a01b03891691905087614285565b90505b6001600b5595945050505050565b6010546001600160a01b031681565b6007546001600160a01b031633146132d55760405162461bcd60e51b81526004016107209061566b565b6002600b5414156132f85760405162461bcd60e51b8152600401610720906158d8565b6002600b556040513390600080356001600160e01b0319169161331d9190369061549d565b60405180910390a2601154604051630d3aa47160e41b815273__$c61de259b17579437cb458fbe4ba8c0f49$__9163d3aa4710916133669160ff16906001908690600401615445565b60006040518083038186803b15801561337e57600080fd5b505af4158015613392573d6000803e3d6000fd5b505050506001600160a01b03166000908152602a60205260409020805460ff19166001908117909155600b55565b600f5460405163db7ca46b60e01b81526001600160a01b039091169063db7ca46b906133f09084906004016151c1565b60206040518083038186803b15801561340857600080fd5b505afa15801561341c573d6000803e3d6000fd5b505050506040513d601f19601f820116820180604052508101906134409190614e77565b61345c5760405162461bcd60e51b8152600401610720906158fd565b602c54600160a01b900460ff1615610e7657613477816142b3565b610e765760405162461bcd60e51b8152600401610720906158fd565b60065481565b336001600160a01b03166000356001600160e01b0319166001600160e01b0319166000366040516134cb92919061549d565b60405180910390a26002600b5414156134f65760405162461bcd60e51b8152600401610720906158d8565b6002600b553360009081526005602052604090205460ff168061352357506007546001600160a01b031633145b61353f5760405162461bcd60e51b815260040161072090615648565b6010546001600160a01b03166135675760405162461bcd60e51b81526004016107209061581c565b61356f6140ce565b6001600b55565b3360009081526002602090815260408083206001600160a01b03861684529091528120546135a490836142d1565b3360008181526002602090815260408083206001600160a01b03891680855292529182902084905590519092600080516020615f6683398151915291610bee9190615d56565b6001600160a01b03918216600090815260026020908152604080832093909416825291909152205490565b6007546001600160a01b0316331461363f5760405162461bcd60e51b81526004016107209061566b565b6002600b5414156136625760405162461bcd60e51b8152600401610720906158d8565b6002600b556040513390600080356001600160e01b031916916136879190369061549d565b60405180910390a26011546001600160a01b0382166000908152602a602052604090819020549051630d3aa47160e41b815273__$c61de259b17579437cb458fbe4ba8c0f49$__9263d3aa4710926136ed9260ff92831692909116908690600401615445565b60006040518083038186803b15801561370557600080fd5b505af4158015613719573d6000803e3d6000fd5b505050506001600160a01b03166000908152602a60205260409020805460ff191690556001600b55565b6007546001600160a01b0316331461376d5760405162461bcd60e51b81526004016107209061566b565b6137756142fd565b61377e82613d18565b815161379190600890602085019061470c565b5080516137a5906009906020840190614771565b50610ba3613dc3565b602c54600160b81b900460ff1681565b73__$24afbdeda01e131946d055322cce080c01$__90565b602c54600160c81b900460ff1681565b6000826137f557506000610bfa565b8282028284828161380257fe5b04146138205760405162461bcd60e51b81526004016107209061595f565b6706f05b59d3b2000081018181101561384b5760405162461bcd60e51b81526004016107209061595f565b6000670de0b6b3a7640000825b049695505050505050565b6000816138825760405162461bcd60e51b815260040161072090615989565b8261388f57506000610bfa565b670de0b6b3a7640000838102908482816138a557fe5b04146138c35760405162461bcd60e51b8152600401610720906158ae565b600283048101818110156138e95760405162461bcd60e51b8152600401610720906158ae565b600084828161385857fe5b6010546001600160a01b03161561391d5760405162461bcd60e51b815260040161072090615845565b61392681611d76565b6139303382610b99565b600f60009054906101000a90046001600160a01b03166001600160a01b03166391cefde46040518163ffffffff1660e01b8152600401602060405180830381600087803b15801561398057600080fd5b505af1158015613994573d6000803e3d6000fd5b505050506040513d601f19601f820116820180604052508101906139b891906149e9565b601080546001600160a01b0319166001600160a01b03928316179081905560405163d03f2a0f60e01b815273__$c61de259b17579437cb458fbe4ba8c0f49$__9263d03f2a0f92613a10929116908590600401615324565b60006040518083038186803b158015613a2857600080fd5b505af4158015613a3c573d6000803e3d6000fd5b5050505060005b602754811015613b7657600060278281548110613a5c57fe5b6000918252602082200154602880546001600160a01b0390921693509084908110613a8357fe5b90600052602060002001549050600060298481548110613a9f57fe5b90600052602060002001549050613ab5836133c0565b613aca6001600160a01b03841633308561434f565b601054613ae5906001600160a01b03858116911660006143ad565b601054613b01906001600160a01b0385811691166000196143ad565b601054604051631c9c3ca760e31b81526001600160a01b039091169063e4e1e53890613b359086908690869060040161536f565b600060405180830381600087803b158015613b4f57600080fd5b505af1158015613b63573d6000803e3d6000fd5b505060019095019450613a439350505050565b505b60275415610e76576027805480613b8b57fe5b600082815260209020810160001990810180546001600160a01b0319169055019055613b78565b610ba3308383613c25565b30600090815260016020526040902054613bd79082613cc4565b3060009081526001602052604081209190915554613bf59082613cc4565b60009081556040513090600080516020615f4683398151915290613c1a908590615d56565b60405180910390a350565b6001600160a01b038316600090815260016020526040902054613c489082613cc4565b6001600160a01b038085166000908152600160205260408082209390935590841681522054613c7790826142d1565b6001600160a01b038084166000818152600160205260409081902093909355915190851690600080516020615f4683398151915290613cb7908590615d56565b60405180910390a3505050565b6000806000613cd38585614470565b915091508015613cf55760405162461bcd60e51b815260040161072090615b12565b509392505050565b6000600c54600014613d10576001613d13565b60005b905090565b6000805b8251811015613da557600160056000858481518110613d3757fe5b6020908102919091018101516001600160a01b03908116835290820192909252604001600020805460ff1916921515929092179091556007548451911690849083908110613d8157fe5b60200260200101516001600160a01b03161415613d9d57600191505b600101613d1c565b5080610ba35760405162461bcd60e51b81526004016107209061592a565b6000805b600954811015613df75760098181548110613dde57fe5b6000918252602090912001549190910190600101613dc7565b508061271014610e765760405162461bcd60e51b8152600401610720906156e4565b613e2281614495565b6016546000541115610e765760405162461bcd60e51b8152600401610720906159af565b610ba3823083613c25565b6060806060601060009054906101000a90046001600160a01b03166001600160a01b031663cc77828d6040518163ffffffff1660e01b815260040160006040518083038186803b158015613ea457600080fd5b505afa158015613eb8573d6000803e3d6000fd5b505050506040513d6000823e601f3d908101601f19168201604052613ee09190810190614ca6565b9050606081516001600160401b0381118015613efb57600080fd5b50604051908082528060200260200182016040528015613f25578160200160208202803683370190505b50905060005b8251811015613fea5760105483516001600160a01b039091169063f8b2cb4f90859084908110613f5757fe5b60200260200101516040518263ffffffff1660e01b8152600401613f7b91906151c1565b60206040518083038186803b158015613f9357600080fd5b505afa158015613fa7573d6000803e3d6000fd5b505050506040513d601f19601f82011682018060405250810190613fcb9190614f30565b828281518110613fd757fe5b6020908102919091010152600101613f2b565b5090925090509091565b6001600160a01b03811661401a5760405162461bcd60e51b815260040161072090615a76565b614023816142b3565b156140405760405162461bcd60e51b815260040161072090615aa9565b6000828152600e602090815260408083206001600160a01b038516845282528083208054600160ff199182168117909255600d9093529281902080549092168317909155600c8054909201909155513390839030907f5ab6a0d7af8e86f78c34acea4f8aff1be027227ce1bc29e03f57f39b788f4b04906140c29086906151c1565b60405180910390a45050565b60008060006140db612504565b9250925092508215614280576010546040805163cc77828d60e01b815290516060926001600160a01b03169163cc77828d916004808301926000929190829003018186803b15801561412c57600080fd5b505afa158015614140573d6000803e3d6000fd5b505050506040513d6000823e601f3d908101601f191682016040526141689190810190614ca6565b601054601854602b54604051631abc9a6960e11b815293945060609373__$c61de259b17579437cb458fbe4ba8c0f49$__9363357934d2936141bf9330936001600160a01b03909316928992918b91600401615570565b60006040518083038186803b1580156141d757600080fd5b505af41580156141eb573d6000803e3d6000fd5b505050506040513d6000823e601f3d908101601f191682016040526142139190810190614d9e565b602c54604051630bac7b8160e01b81529192506001600160a01b031690630bac7b819061424690859085906004016153a3565b600060405180830381600087803b15801561426057600080fd5b505af1158015614274573d6000803e3d6000fd5b505050601c8590555050505b505050565b60606142ab848484604051806060016040528060298152602001615f1d602991396144f3565b949350505050565b6001600160a01b03166000908152600d602052604090205460ff1690565b6000828201838110156142f65760405162461bcd60e51b815260040161072090615b3d565b9392505050565b60005b600854811015610e7657600560006008838154811061431b57fe5b60009182526020808320909101546001600160a01b031683528201929092526040019020805460ff19169055600101614300565b6143a7846323b872dd60e01b858585604051602401614370939291906152d7565b60408051601f198184030181529190526020810180516001600160e01b03166001600160e01b03199093169290921790915261452a565b50505050565b8015806144355750604051636eb1769f60e11b81526001600160a01b0384169063dd62ed3e906143e39030908690600401615274565b60206040518083038186803b1580156143fb57600080fd5b505afa15801561440f573d6000803e3d6000fd5b505050506040513d601f19601f820116820180604052508101906144339190614f30565b155b6144515760405162461bcd60e51b815260040161072090615c14565b6142808363095ea7b360e01b8484604051602401614370929190615324565b600080838311614486575050808203600061448e565b505081810360015b9250929050565b306000908152600160205260409020546144af90826142d1565b30600090815260016020526040812091909155546144cd90826142d1565b6000908155604051309190600080516020615f4683398151915290613c1a908590615d56565b6060824710156145155760405162461bcd60e51b8152600401610720906157d6565b6145218585858561460f565b95945050505050565b61453c826001600160a01b03166146d3565b6145585760405162461bcd60e51b815260040161072090615c95565b60006060836001600160a01b0316836040516145749190615183565b6000604051808303816000865af19150503d80600081146145b1576040519150601f19603f3d011682016040523d82523d6000602084013e6145b6565b606091505b5091509150816145d85760405162461bcd60e51b815260040161072090615744565b8051156143a757808060200190518101906145f39190614e77565b6143a75760405162461bcd60e51b815260040161072090615b67565b606061461a856146d3565b6146365760405162461bcd60e51b815260040161072090615a0e565b60006060866001600160a01b031685876040516146539190615183565b60006040518083038185875af1925050503d8060008114614690576040519150601f19603f3d011682016040523d82523d6000602084013e614695565b606091505b509150915081156146a95791506142ab9050565b8051156146b95780518082602001fd5b8360405162461bcd60e51b815260040161072091906154b1565b6000813f7fc5d2460186f7233c927e7db2dcc703c0e500b653ca82273b7bfad8045d85a4708181148015906142ab575050151592915050565b828054828255906000526020600020908101928215614761579160200282015b8281111561476157825182546001600160a01b0319166001600160a01b0390911617825560209092019160019091019061472c565b5061476d9291506147e7565b5090565b8280548282559060005260206000209081019282156147ac579160200282015b828111156147ac578251825591602001919060010190614791565b5061476d929150614806565b6040518060a0016040528060008152602001600081526020016000815260200160608152602001606081525090565b5b8082111561476d5780546001600160a01b03191681556001016147e8565b5b8082111561476d5760008155600101614807565b600082601f83011261482b578081fd5b813561483e61483982615e54565b615e2e565b81815291506020808301908481018184028601820187101561485f57600080fd5b60005b8481101561488757813561487581615ecc565b84529282019290820190600101614862565b505050505092915050565b60008083601f8401126148a3578182fd5b5081356001600160401b038111156148b9578182fd5b602083019150836020808302850101111561448e57600080fd5b600082601f8301126148e3578081fd5b81356148f161483982615e54565b81815291506020808301908481018184028601820187101561491257600080fd5b60005b8481101561488757813584529282019290820190600101614915565b8035610bfa81615eef565b600082601f83011261494c578081fd5b813561495a61483982615e73565b915080825283602082850101111561497157600080fd5b8060208401602084013760009082016020015292915050565b60006040828403121561499b578081fd5b6149a56040615e2e565b905081356149b281615ee1565b815260208201356149c281615ee1565b602082015292915050565b6000602082840312156149de578081fd5b81356142f681615ecc565b6000602082840312156149fa578081fd5b81516142f681615ecc565b60008060408385031215614a17578081fd5b8235614a2281615ecc565b91506020830135614a3281615ecc565b809150509250929050565b600080600060608486031215614a51578081fd5b8335614a5c81615ecc565b92506020840135614a6c81615ecc565b929592945050506040919091013590565b600080600060808486031215614a91578081fd5b8335614a9c81615ecc565b925060208401356001600160401b0380821115614ab7578283fd5b8186019150610140808389031215614acd578384fd5b614ad681615e2e565b9050823582811115614ae6578485fd5b614af28982860161493c565b825250602083013582811115614b06578485fd5b614b128982860161493c565b602083015250604083013582811115614b29578485fd5b614b358982860161481b565b604083015250606083013582811115614b4c578485fd5b614b58898286016148d3565b606083015250608083013582811115614b6f578485fd5b614b7b898286016148d3565b60808301525060a083013560a082015260c083013560c082015260e083013560e0820152610100915081830135828201526101209150614bbd88838501614931565b82820152809450505050614bd4856040860161498a565b90509250925092565b60008060408385031215614bef578182fd5b8235614bfa81615ecc565b946020939093013593505050565b600080600080600060808688031215614c1f578283fd5b8535614c2a81615ecc565b94506020860135935060408601356001600160401b0380821115614c4c578485fd5b818801915088601f830112614c5f578485fd5b813581811115614c6d578586fd5b896020828501011115614c7e578586fd5b6020830195508094505050506060860135614c9881615ee1565b809150509295509295909350565b60006020808385031215614cb8578182fd5b82516001600160401b03811115614ccd578283fd5b8301601f81018513614cdd578283fd5b8051614ceb61483982615e54565b8181528381019083850185840285018601891015614d07578687fd5b8694505b83851015614d32578051614d1e81615ecc565b835260019490940193918501918501614d0b565b50979650505050505050565b60008060408385031215614d50578182fd5b82356001600160401b0380821115614d66578384fd5b614d728683870161481b565b93506020850135915080821115614d87578283fd5b50614d94858286016148d3565b9150509250929050565b60006020808385031215614db0578182fd5b82516001600160401b03811115614dc5578283fd5b8301601f81018513614dd5578283fd5b8051614de361483982615e54565b8181528381019083850185840285018601891015614dff578687fd5b8694505b83851015614d32578051835260019490940193918501918501614e03565b60008060408385031215614e33578182fd5b82356001600160401b0380821115614e49578384fd5b614e55868387016148d3565b93506020850135915080821115614e6a578283fd5b50614d948582860161481b565b600060208284031215614e88578081fd5b81516142f681615ee1565b600060208284031215614ea4578081fd5b81516001600160401b03811115614eb9578182fd5b8201601f81018413614ec9578182fd5b8051614ed761483982615e73565b818152856020838501011115614eeb578384fd5b614521826020830160208601615e96565b600060208284031215614f0d578081fd5b81356142f681615eef565b600060208284031215614f29578081fd5b5035919050565b600060208284031215614f41578081fd5b5051919050565b600080600060408486031215614f5c578081fd5b8335925060208401356001600160401b03811115614f78578182fd5b614f8486828701614892565b9497909650939450505050565b60008060008060608587031215614fa6578182fd5b8435935060208501356001600160401b03811115614fc2578283fd5b614fce87828801614892565b9094509250506040850135614fe281615ecc565b939692955090935050565b60008060008084860360a0811215615003578283fd5b853594506020860135935060408601356003811061501f578384fd5b92506040605f1982011215615032578182fd5b5061503d6040615e2e565b606086013581526080909501356020860152509194909350909190565b60008060006060848603121561506e578081fd5b8351925060208401519150604084015190509250925092565b6000815180845260208085019450808401835b838110156150bf5781516001600160a01b03168752958201959082019060010161509a565b509495945050505050565b81835260006001600160fb1b038311156150e2578081fd5b6020830280836020870137939093016020019283525090919050565b6000815180845260208085019450808401835b838110156150bf57815187529582019590820190600101615111565b60008284528282602086013780602084860101526020601f19601f85011685010190509392505050565b6000815180845261516f816020860160208601615e96565b601f01601f19169290920160200192915050565b60008251615195818460208701615e96565b9190910192915050565b642aa82822a960d91b815260050190565b64232627a7a960d91b815260050190565b6001600160a01b0391909116815260200190565b60006080820160018060a01b0380881684526020818816818601526080604086015282875480855260a0870191508886528286209450855b8181101561522b57855485168352600195860195928401920161520d565b50508581036060870152865480825287865282862091830194509250845b8381101561526557815485529382019360019182019101615249565b50929998505050505050505050565b6001600160a01b0392831681529116602082015260400190565b6001600160a01b038581168252841660208201526080604082018190526000906152ba90830185615087565b82810360608401526152cc81856150fe565b979650505050505050565b6001600160a01b039384168152919092166020820152604081019190915260600190565b6001600160a01b0394851681529290931660208301526040820152606081019190915260800190565b6001600160a01b03929092168252602082015260400190565b600060018060a01b03861682528460208301526060604083015261536560608301848661512d565b9695505050505050565b6001600160a01b039390931683526020830191909152604082015260600190565b6000602082526142f66020830184615087565b6000604082526153b66040830185615087565b828103602084015261452181856150fe565b6000608082526153db6080830187615087565b82810360208401526153ed81876150fe565b9050828103604084015261540181866150fe565b915050821515606083015295945050505050565b6000602082526142f660208301846150fe565b901515815260200190565b91151582521515602082015260400190565b921515835290151560208301526001600160a01b0316604082015260600190565b9315158452911515602084015215156040830152606082015260800190565b92151583526020830191909152604082015260600190565b6000602082526142ab60208301848661512d565b6000602082526142f66020830184615157565b6001600160a01b03969096168652931515602086015291151560408501526060840152608083015260a082015260c00190565b6001600160a01b03958616815293851660208501529190931660408301526060820192909252608081019190915260a00190565b6001600160a01b0386811682528516602082015260a06040820181905260009061555790830186615087565b6060830194909452509015156080909101529392505050565b6001600160a01b0387811682528616602082015260c06040820181905260009061559c90830187615087565b606083019590955250608081019290925260a0909101529392505050565b6001600160a01b03868116825285166020820152604081018490526080606082018190526000906152cc90830184866150ca565b6001600160a01b038781168252861660208201526040810185905260a06060820181905260009061562290830185876150ca565b9050826080830152979650505050505050565b6020810161564283615ec2565b91905290565b60208082526009908201526837b7363ca0b236b4b760b91b604082015260600190565b60208082526012908201527122a9292fa727aa2fa1a7a72a2927a62622a960711b604082015260600190565b6020808252600d908201526c4552525f4e4f5f52494748545360981b604082015260600190565b6020808252600c908201526b696e697469616c697a65642160a01b604082015260600190565b6020808252601690820152754552525f494c4c4547414c5f50455243454e5441474560501b604082015260600190565b60208082526016908201527526a7a22aa6229024a9902727aa102922a3a4a9aa22a960511b604082015260600190565b6020808252818101527f5361666545524332303a206c6f772d6c6576656c2063616c6c206661696c6564604082015260600190565b60208082526010908201526f4552525f5a45524f5f4144445245535360801b604082015260600190565b602080825260199082015278544f4b454e5f4d5553545f494e5f57484954455f4c4953545360381b604082015260600190565b60208082526026908201527f416464726573733a20696e73756666696369656e742062616c616e636520666f6040820152651c8818d85b1b60d21b606082015260800190565b6020808252600f908201526e11549497d393d517d0d49150551151608a1b604082015260600190565b6020808252600e908201526d11549497d254d7d0d4915055115160921b604082015260600190565b60208082526006908201526506f776e6572560d41b604082015260600190565b602080825260079082015266085c185d5cd95960ca1b604082015260600190565b60208082526010908201526f11549497d1125597d25395115493905360821b604082015260600190565b6020808252600b908201526a4552525f5245454e54525960a81b604082015260600190565b60208082526013908201527222a9292fa727aa2faba424aa22afaa27a5a2a760691b604082015260600190565b6020808252601b908201527a22a9292fa722abafa0a226a4a729afa420a9afa727afa7aba722a960291b604082015260600190565b60208082526010908201526f4552525f4d554c5f4f564552464c4f5760801b604082015260600190565b6020808252600c908201526b4552525f4449565f5a45524f60a01b604082015260600190565b60208082526015908201527411549497d0d05417d31253525517d4915050d21151605a1b604082015260600190565b60208082526016908201527522a9292fa821aa27a5a2a72fa120a22fa1a0a62622a960511b604082015260600190565b6020808252601d908201527f416464726573733a2063616c6c20746f206e6f6e2d636f6e7472616374000000604082015260600190565b60208082526017908201527608aa4a4bea69ea4a8bea89e968a9cbe9a92a69a82a8869604b1b604082015260600190565b6020808252601990820152784552525f494e56414c49445f544f4b454e5f4144445245535360381b604082015260600190565b6020808252601890820152774552525f4841535f4245454e5f41444445445f574849544560401b604082015260600190565b6020808252601d908201527f4552525f434c4f535552455f54494d455f4e4f545f4152524956454421000000604082015260600190565b6020808252601190820152704552525f5355425f554e444552464c4f5760781b604082015260600190565b60208082526010908201526f4552525f4144445f4f564552464c4f5760801b604082015260600190565b6020808252602a908201527f5361666545524332303a204552433230206f7065726174696f6e20646964206e6040820152691bdd081cdd58d8d9595960b21b606082015260800190565b60208082526016908201527511549497d0d3d39112551253d394d7d393d517d3515560521b604082015260600190565b60208082526019908201527822a9292fa9a427aaa6222fa9a2aa2faba424aa22aa27a5a2a760391b604082015260600190565b60208082526036908201527f5361666545524332303a20617070726f76652066726f6d206e6f6e2d7a65726f60408201527520746f206e6f6e2d7a65726f20616c6c6f77616e636560501b606082015260800190565b60208082526011908201527022a9292fa6aaa9aa2fa7a822a72fa2aa2360791b604082015260600190565b6020808252601f908201527f5361666545524332303a2063616c6c20746f206e6f6e2d636f6e747261637400604082015260600190565b600060208252825160208301526020830151604083015260408301516060830152606083015160a06080840152615d0660c0840182615087565b90506080840151601f198483030160a085015261452182826150fe565b825460ff8082161515835260089190911c161515602082015260608101615d4983615ec2565b8260408301529392505050565b90815260200190565b9182526001600160a01b0316602082015260400190565b918252602082015260400190565b9283526020830191909152604082015260600190565b978852602088019690965260408701949094526060860192909252608085015260a084015260c0830152151560e08201526101000190565b9a8b5260208b019990995260408a01979097526060890195909552608088019390935260a087019190915260c086015260e08501526101008401526101208301526101408201526101600190565b60ff91909116815260200190565b6040518181016001600160401b0381118282101715615e4c57600080fd5b604052919050565b60006001600160401b03821115615e69578081fd5b5060209081020190565b60006001600160401b03821115615e88578081fd5b50601f01601f191660200190565b60005b83811015615eb1578181015183820152602001615e99565b838111156143a75750506000910152565b60028110610e7657fe5b6001600160a01b0381168114610e7657600080fd5b8015158114610e7657600080fd5b60028110610e7657600080fdfecc86385c52bf4aeaa8583735b29e4a0abc0c5489fae93dbaef02bd838c2d297d416464726573733a206c6f772d6c6576656c2063616c6c20776974682076616c7565206661696c6564ddf252ad1be2c89b69c2b068fc378daa952ba7f163c4a11628f55a4df523b3ef8c5be1e5ebec7d5bd14f71427d1e84f3dd0314c0f7b2291e5b200ac8c7c3b925a2646970667358221220deede0f93d997583a1fddee06f10a9826d893946b84c783d04116ebcc60a3e1864736f6c634300060c0033",
  "linkReferences": {
    "contracts/libraries/DesynSafeMath.sol": {
      "DesynSafeMath": [
        {
          "length": 20,
          "start": 14859
        }
      ]
    },
    "contracts/libraries/RightsManager.sol": {
      "RightsManager": [
        {
          "length": 20,
          "start": 4739
        },
        {
          "length": 20,
          "start": 8494
        }
      ]
    },
    "contracts/libraries/SmartPoolManager.sol": {
      "SmartPoolManager": [
        {
          "length": 20,
          "start": 2722
        },
        {
          "length": 20,
          "start": 5189
        },
        {
          "length": 20,
          "start": 5513
        },
        {
          "length": 20,
          "start": 6180
        },
        {
          "length": 20,
          "start": 6888
        },
        {
          "length": 20,
          "start": 7540
        },
        {
          "length": 20,
          "start": 8958
        },
        {
          "length": 20,
          "start": 10627
        },
        {
          "length": 20,
          "start": 11749
        },
        {
          "length": 20,
          "start": 11965
        },
        {
          "length": 20,
          "start": 12509
        },
        {
          "length": 20,
          "start": 13698
        },
        {
          "length": 20,
          "start": 14598
        },
        {
          "length": 20,
          "start": 15408
        },
        {
          "length": 20,
          "start": 17361
        }
      ]
    }
  },
  "deployedLinkReferences": {
    "contracts/libraries/DesynSafeMath.sol": {
      "DesynSafeMath": [
        {
          "length": 20,
          "start": 14272
        }
      ]
    },
    "contracts/libraries/RightsManager.sol": {
      "RightsManager": [
        {
          "length": 20,
          "start": 4152
        },
        {
          "length": 20,
          "start": 7907
        }
      ]
    },
    "contracts/libraries/SmartPoolManager.sol": {
      "SmartPoolManager": [
        {
          "length": 20,
          "start": 2135
        },
        {
          "length": 20,
          "start": 4602
        },
        {
          "length": 20,
          "start": 4926
        },
        {
          "length": 20,
          "start": 5593
        },
        {
          "length": 20,
          "start": 6301
        },
        {
          "length": 20,
          "start": 6953
        },
        {
          "length": 20,
          "start": 8371
        },
        {
          "length": 20,
          "start": 10040
        },
        {
          "length": 20,
          "start": 11162
        },
        {
          "length": 20,
          "start": 11378
        },
        {
          "length": 20,
          "start": 11922
        },
        {
          "length": 20,
          "start": 13111
        },
        {
          "length": 20,
          "start": 14011
        },
        {
          "length": 20,
          "start": 14821
        },
        {
          "length": 20,
          "start": 16774
        }
      ]
    }
  }
}