{
  "address": "0xB79aa252F9c89c509649a21b098Eee4264cF1208",
  "abi": [
    {
      "anonymous": true,
      "inputs": [
        {
          "indexed": true,
          "internalType": "bytes4",
          "name": "sig",
          "type": "bytes4"
        },
        {
          "indexed": true,
          "internalType": "address",
          "name": "caller",
          "type": "address"
        },
        {
          "indexed": false,
          "internalType": "bytes",
          "name": "data",
          "type": "bytes"
        }
      ],
      "name": "LOG_CALL",
      "type": "event"
    },
    {
      "anonymous": false,
      "inputs": [
        {
          "indexed": true,
          "internalType": "address",
          "name": "middleware",
          "type": "address"
        },
        {
          "indexed": true,
          "internalType": "address",
          "name": "caller",
          "type": "address"
        }
      ],
      "name": "LOG_MIDDLEWARE",
      "type": "event"
    },
    {
      "anonymous": false,
      "inputs": [
        {
          "indexed": true,
          "internalType": "address",
          "name": "vault",
          "type": "address"
        },
        {
          "indexed": true,
          "internalType": "address",
          "name": "caller",
          "type": "address"
        }
      ],
      "name": "LOG_USER_VAULT",
      "type": "event"
    },
    {
      "anonymous": false,
      "inputs": [
        {
          "indexed": true,
          "internalType": "address",
          "name": "caller",
          "type": "address"
        },
        {
          "indexed": true,
          "internalType": "address",
          "name": "pool",
          "type": "address"
        }
      ],
      "name": "LogNewCrp",
      "type": "event"
    },
    {
      "inputs": [],
      "name": "bytecodes",
      "outputs": [
        {
          "internalType": "bytes",
          "name": "",
          "type": "bytes"
        }
      ],
      "stateMutability": "view",
      "type": "function"
    },
    {
      "inputs": [
        {
          "internalType": "address",
          "name": "addr",
          "type": "address"
        }
      ],
      "name": "isCrp",
      "outputs": [
        {
          "internalType": "bool",
          "name": "",
          "type": "bool"
        }
      ],
      "stateMutability": "view",
      "type": "function"
    },
    {
      "inputs": [
        {
          "internalType": "address",
          "name": "factoryAddress",
          "type": "address"
        },
        {
          "components": [
            {
              "internalType": "string",
              "name": "poolTokenSymbol",
              "type": "string"
            },
            {
              "internalType": "string",
              "name": "poolTokenName",
              "type": "string"
            },
            {
              "internalType": "address[]",
              "name": "constituentTokens",
              "type": "address[]"
            },
            {
              "internalType": "uint256[]",
              "name": "tokenBalances",
              "type": "uint256[]"
            },
            {
              "internalType": "uint256[]",
              "name": "tokenWeights",
              "type": "uint256[]"
            },
            {
              "internalType": "uint256",
              "name": "managerFee",
              "type": "uint256"
            },
            {
              "internalType": "uint256",
              "name": "redeemFee",
              "type": "uint256"
            },
            {
              "internalType": "uint256",
              "name": "issueFee",
              "type": "uint256"
            },
            {
              "internalType": "uint256",
              "name": "perfermanceFee",
              "type": "uint256"
            },
            {
              "internalType": "enum IConfigurableRightsPool.Etypes",
              "name": "etype",
              "type": "uint8"
            }
          ],
          "internalType": "struct IConfigurableRightsPool.PoolParams",
          "name": "poolParams",
          "type": "tuple"
        },
        {
          "components": [
            {
              "internalType": "bool",
              "name": "canWhitelistLPs",
              "type": "bool"
            },
            {
              "internalType": "bool",
              "name": "canTokenWhiteLists",
              "type": "bool"
            }
          ],
          "internalType": "struct RightsManager.Rights",
          "name": "rights",
          "type": "tuple"
        },
        {
          "components": [
            {
              "components": [
                {
                  "components": [
                    {
                      "internalType": "uint256",
                      "name": "level",
                      "type": "uint256"
                    },
                    {
                      "internalType": "uint256",
                      "name": "ratio",
                      "type": "uint256"
                    }
                  ],
                  "internalType": "struct SmartPoolManager.levelParams",
                  "name": "firstLevel",
                  "type": "tuple"
                },
                {
                  "components": [
                    {
                      "internalType": "uint256",
                      "name": "level",
                      "type": "uint256"
                    },
                    {
                      "internalType": "uint256",
                      "name": "ratio",
                      "type": "uint256"
                    }
                  ],
                  "internalType": "struct SmartPoolManager.levelParams",
                  "name": "secondLevel",
                  "type": "tuple"
                },
                {
                  "components": [
                    {
                      "internalType": "uint256",
                      "name": "level",
                      "type": "uint256"
                    },
                    {
                      "internalType": "uint256",
                      "name": "ratio",
                      "type": "uint256"
                    }
                  ],
                  "internalType": "struct SmartPoolManager.levelParams",
                  "name": "thirdLevel",
                  "type": "tuple"
                },
                {
                  "components": [
                    {
                      "internalType": "uint256",
                      "name": "level",
                      "type": "uint256"
                    },
                    {
                      "internalType": "uint256",
                      "name": "ratio",
                      "type": "uint256"
                    }
                  ],
                  "internalType": "struct SmartPoolManager.levelParams",
                  "name": "fourLevel",
                  "type": "tuple"
                }
              ],
              "internalType": "struct SmartPoolManager.feeParams",
              "name": "managerFee",
              "type": "tuple"
            },
            {
              "components": [
                {
                  "components": [
                    {
                      "internalType": "uint256",
                      "name": "level",
                      "type": "uint256"
                    },
                    {
                      "internalType": "uint256",
                      "name": "ratio",
                      "type": "uint256"
                    }
                  ],
                  "internalType": "struct SmartPoolManager.levelParams",
                  "name": "firstLevel",
                  "type": "tuple"
                },
                {
                  "components": [
                    {
                      "internalType": "uint256",
                      "name": "level",
                      "type": "uint256"
                    },
                    {
                      "internalType": "uint256",
                      "name": "ratio",
                      "type": "uint256"
                    }
                  ],
                  "internalType": "struct SmartPoolManager.levelParams",
                  "name": "secondLevel",
                  "type": "tuple"
                },
                {
                  "components": [
                    {
                      "internalType": "uint256",
                      "name": "level",
                      "type": "uint256"
                    },
                    {
                      "internalType": "uint256",
                      "name": "ratio",
                      "type": "uint256"
                    }
                  ],
                  "internalType": "struct SmartPoolManager.levelParams",
                  "name": "thirdLevel",
                  "type": "tuple"
                },
                {
                  "components": [
                    {
                      "internalType": "uint256",
                      "name": "level",
                      "type": "uint256"
                    },
                    {
                      "internalType": "uint256",
                      "name": "ratio",
                      "type": "uint256"
                    }
                  ],
                  "internalType": "struct SmartPoolManager.levelParams",
                  "name": "fourLevel",
                  "type": "tuple"
                }
              ],
              "internalType": "struct SmartPoolManager.feeParams",
              "name": "issueFee",
              "type": "tuple"
            },
            {
              "components": [
                {
                  "components": [
                    {
                      "internalType": "uint256",
                      "name": "level",
                      "type": "uint256"
                    },
                    {
                      "internalType": "uint256",
                      "name": "ratio",
                      "type": "uint256"
                    }
                  ],
                  "internalType": "struct SmartPoolManager.levelParams",
                  "name": "firstLevel",
                  "type": "tuple"
                },
                {
                  "components": [
                    {
                      "internalType": "uint256",
                      "name": "level",
                      "type": "uint256"
                    },
                    {
                      "internalType": "uint256",
                      "name": "ratio",
                      "type": "uint256"
                    }
                  ],
                  "internalType": "struct SmartPoolManager.levelParams",
                  "name": "secondLevel",
                  "type": "tuple"
                },
                {
                  "components": [
                    {
                      "internalType": "uint256",
                      "name": "level",
                      "type": "uint256"
                    },
                    {
                      "internalType": "uint256",
                      "name": "ratio",
                      "type": "uint256"
                    }
                  ],
                  "internalType": "struct SmartPoolManager.levelParams",
                  "name": "thirdLevel",
                  "type": "tuple"
                },
                {
                  "components": [
                    {
                      "internalType": "uint256",
                      "name": "level",
                      "type": "uint256"
                    },
                    {
                      "internalType": "uint256",
                      "name": "ratio",
                      "type": "uint256"
                    }
                  ],
                  "internalType": "struct SmartPoolManager.levelParams",
                  "name": "fourLevel",
                  "type": "tuple"
                }
              ],
              "internalType": "struct SmartPoolManager.feeParams",
              "name": "redeemFee",
              "type": "tuple"
            },
            {
              "components": [
                {
                  "components": [
                    {
                      "internalType": "uint256",
                      "name": "level",
                      "type": "uint256"
                    },
                    {
                      "internalType": "uint256",
                      "name": "ratio",
                      "type": "uint256"
                    }
                  ],
                  "internalType": "struct SmartPoolManager.levelParams",
                  "name": "firstLevel",
                  "type": "tuple"
                },
                {
                  "components": [
                    {
                      "internalType": "uint256",
                      "name": "level",
                      "type": "uint256"
                    },
                    {
                      "internalType": "uint256",
                      "name": "ratio",
                      "type": "uint256"
                    }
                  ],
                  "internalType": "struct SmartPoolManager.levelParams",
                  "name": "secondLevel",
                  "type": "tuple"
                },
                {
                  "components": [
                    {
                      "internalType": "uint256",
                      "name": "level",
                      "type": "uint256"
                    },
                    {
                      "internalType": "uint256",
                      "name": "ratio",
                      "type": "uint256"
                    }
                  ],
                  "internalType": "struct SmartPoolManager.levelParams",
                  "name": "thirdLevel",
                  "type": "tuple"
                },
                {
                  "components": [
                    {
                      "internalType": "uint256",
                      "name": "level",
                      "type": "uint256"
                    },
                    {
                      "internalType": "uint256",
                      "name": "ratio",
                      "type": "uint256"
                    }
                  ],
                  "internalType": "struct SmartPoolManager.levelParams",
                  "name": "fourLevel",
                  "type": "tuple"
                }
              ],
              "internalType": "struct SmartPoolManager.feeParams",
              "name": "perfermanceFee",
              "type": "tuple"
            }
          ],
          "internalType": "struct SmartPoolManager.KolPoolParams",
          "name": "kolPoolParams",
          "type": "tuple"
        },
        {
          "internalType": "address[]",
          "name": "owners",
          "type": "address[]"
        },
        {
          "internalType": "uint256[]",
          "name": "ownerPercentage",
          "type": "uint256[]"
        }
      ],
      "name": "newCrp",
      "outputs": [
        {
          "internalType": "contract IConfigurableRightsPool",
          "name": "",
          "type": "address"
        }
      ],
      "stateMutability": "nonpayable",
      "type": "function"
    },
    {
      "inputs": [
        {
          "internalType": "bytes",
          "name": "_bytecodes",
          "type": "bytes"
        }
      ],
      "name": "setByteCodes",
      "outputs": [],
      "stateMutability": "nonpayable",
      "type": "function"
    },
    {
      "inputs": [
        {
          "internalType": "address",
          "name": "newVault",
          "type": "address"
        }
      ],
      "name": "setUserVault",
      "outputs": [],
      "stateMutability": "nonpayable",
      "type": "function"
    },
    {
      "inputs": [],
      "name": "userVault",
      "outputs": [
        {
          "internalType": "address",
          "name": "",
          "type": "address"
        }
      ],
      "stateMutability": "view",
      "type": "function"
    }
  ],
  "transactionHash": "0x83e6648e836061ce43aa2417ad0bd63030d51ab088f6299029aa0d2bbdeebbbd",
  "args": [],
  "numDeployments": 1,
  "solcInputHash": "ea87177e94f7977eab75d04c80b07225",
  "bytecode": "0x6080604052600380546001600160a01b0319163317905534801561002257600080fd5b50610efb806100326000396000f3fe608060405234801561001057600080fd5b50600436106100625760003560e01c806308463965146100675780632c60e635146100855780638b0e8e67146100a55780639daafec7146100ba578063b2ebfea5146100c2578063dc19e842146100d5575b600080fd5b61006f6100f5565b60405161007c9190610cc6565b60405180910390f35b6100986100933660046107ab565b610180565b60405161007c9190610a71565b6100b86100b3366004610789565b61036c565b005b6100986103ec565b6100b86100d036600461086f565b6103fb565b6100e86100e3366004610789565b610476565b60405161007c9190610ca7565b6002805460408051602060018416156101000260001901909316849004601f810184900484028201840190925281815292918301828280156101785780601f1061014d57610100808354040283529160200191610178565b820191906000526020600020905b81548152906001019060200180831161015b57829003601f168201915b505050505081565b60008061018c87610494565b6040519091506001600160a01b0382169033907f8aaa45dbe91f274e1c80489691f3d62dbf595d587fcc6a989fa27696e7c2a23290600090a36001600160a01b03811660008181526020819052604090819020805460ff19166001179055516390ca071b60e01b81526390ca071b9061020d908b908b908b90600401610ad9565b600060405180830381600087803b15801561022757600080fd5b505af115801561023b573d6000803e3d6000fd5b505060048054604051634660c5a560e01b81526001600160a01b039091169350634660c5a592506102709185918a9101610a85565b600060405180830381600087803b15801561028a57600080fd5b505af115801561029e573d6000803e3d6000fd5b50506040516392eefe9b60e01b81526001600160a01b03841692506392eefe9b91506102ce903390600401610a71565b600060405180830381600087803b1580156102e857600080fd5b505af11580156102fc573d6000803e3d6000fd5b5050604051633ef1447960e01b81526001600160a01b0384169250633ef14479915061032e9087908790600401610c19565b600060405180830381600087803b15801561034857600080fd5b505af115801561035c573d6000803e3d6000fd5b50929a9950505050505050505050565b6003546001600160a01b0316331461039f5760405162461bcd60e51b815260040161039690610d2b565b60405180910390fd5b600480546001600160a01b0319166001600160a01b0383169081179091556040513391907fbe29361fcb0d6d7a528b06b7e3c978b225c152a431ac559470986926fe26692590600090a350565b6004546001600160a01b031681565b6003546001600160a01b031633146104255760405162461bcd60e51b815260040161039690610d2b565b336001600160a01b03166000356001600160e01b0319166001600160e01b031916600036604051610457929190610cb2565b60405180910390a280516104729060029060208401906105dc565b5050565b6001600160a01b031660009081526020819052604090205460ff1690565b6002805460408051602060018416156101000260001901909316849004601f81018490048402820184019092528181526000936060939192909183018282801561051f5780601f106104f45761010080835404028352916020019161051f565b820191906000526020600020905b81548152906001019060200180831161050257829003601f168201915b505050505090506060818480600001906105399190610d52565b6105466020880188610d52565b6040516020016105599493929190610cf9565b60408051601f19818403018152908290526105779291602001610a39565b60408051601f1981840301815290829052600180548082019091559092506000916105a59190602001610a68565b604051602081830303815290604052805190602001209050808251602084016000f59350833b6105d457600080fd5b505050919050565b828054600181600116156101000203166002900490600052602060002090601f016020900481019282601f1061061d57805160ff191683800117855561064a565b8280016001018555821561064a579182015b8281111561064a57825182559160200191906001019061062f565b5061065692915061065a565b5090565b5b80821115610656576000815560010161065b565b80356001600160a01b038116811461068657600080fd5b92915050565b600082601f83011261069c578081fd5b81356106af6106aa82610dc3565b610d9d565b8181529150602080830190848101818402860182018710156106d057600080fd5b60005b848110156106f7576106e5888361066f565b845292820192908201906001016106d3565b505050505092915050565b600082601f830112610712578081fd5b81356107206106aa82610dc3565b81815291506020808301908481018184028601820187101561074157600080fd5b60005b848110156106f757813584529282019290820190600101610744565b60006104008284031215610772578081fd5b50919050565b600060408284031215610772578081fd5b60006020828403121561079a578081fd5b6107a4838361066f565b9392505050565b6000806000806000806104c087890312156107c4578182fd5b86356107cf81610ead565b955060208701356001600160401b03808211156107ea578384fd5b90880190610140828b0312156107fe578384fd5b81965061080e8a60408b01610778565b955061081d8a60808b01610760565b9450610480890135915080821115610833578384fd5b61083f8a838b0161068c565b93506104a0890135915080821115610855578283fd5b5061086289828a01610702565b9150509295509295509295565b60006020808385031215610881578182fd5b82356001600160401b0380821115610897578384fd5b818501915085601f8301126108aa578384fd5b8135818111156108b8578485fd5b6108ca601f8201601f19168501610d9d565b915080825286848285010111156108df578485fd5b80848401858401378101909201929092529392505050565b815260200190565b6001600160a01b03169052565b60008284526020808501945082825b85811015610949578183016001600160a01b03610938828561066f565b16885296830196915060010161091b565b509495945050505050565b81835260006001600160fb1b0383111561096c578081fd5b6020830280836020870137939093016020019283525090919050565b60008284528282602086013780602084860101526020601f19601f85011685010190509392505050565b600281106109bc57fe5b9052565b80358015158082146109d157600080fd5b83525060208101358015158082146109e857600080fd5b80602085015250505050565b6109fe8282610a2a565b610a0e6040830160408301610a2a565b610a1e6080830160808301610a2a565b61047260c0830160c083015b80358252602090810135910152565b60008351610a4b818460208801610e7d565b835190830190610a5f818360208801610e7d565b01949350505050565b90815260200190565b6001600160a01b0391909116815260200190565b6001600160a01b03831681526104208101610aa360208301846109f4565b610ab5610120830161010085016109f4565b610ac7610220830161020085016109f4565b6107a4610320830161030085016109f4565b6001600160a01b0384168152608060208201526000610af88480610e39565b610140806080860152610b106101c086018385610988565b9250610b1f6020880188610e39565b9250607f19808786030160a0880152610b39858584610988565b9450610b4860408a018a610de2565b94509150808786030160c0880152610b6185858461090c565b9450610b7060608a018a610de2565b94509150808786030160e0880152610b89858584610954565b9450610b9860808a018a610de2565b94509150610100818887030181890152610bb3868685610954565b9550610120945060a08a01358589015260c08a01358489015260e08a0135610160890152808a013561018089015250505050610bf181870187610e29565b9050610c016101a08501826109b2565b509050610c1160408301846109c0565b949350505050565b604080825283519082018190526000906020906060840190828701845b82811015610c5957610c498483516108ff565b9284019290840190600101610c36565b50505083810382850152808551610c708184610a68565b91508387019250845b81811015610c9a57610c8c8385516108f7565b938501939250600101610c79565b5090979650505050505050565b901515815260200190565b600060208252610c11602083018486610988565b6000602082528251806020840152610ce5816040850160208701610e7d565b601f01601f19169190910160400192915050565b600060408252610d0d604083018688610988565b8281036020840152610d20818587610988565b979650505050505050565b6020808252600d908201526c4552525f4e4f545f424c41425360981b604082015260600190565b6000808335601e19843603018112610d68578283fd5b8301803591506001600160401b03821115610d81578283fd5b602001915036819003821315610d9657600080fd5b9250929050565b6040518181016001600160401b0381118282101715610dbb57600080fd5b604052919050565b60006001600160401b03821115610dd8578081fd5b5060209081020190565b6000808335601e19843603018112610df8578283fd5b83016020810192503590506001600160401b03811115610e1757600080fd5b602081023603831315610d9657600080fd5b60008235600281106107a4578182fd5b6000808335601e19843603018112610e4f578283fd5b83016020810192503590506001600160401b03811115610e6e57600080fd5b803603831315610d9657600080fd5b60005b83811015610e98578181015183820152602001610e80565b83811115610ea7576000848401525b50505050565b6001600160a01b0381168114610ec257600080fd5b5056fea2646970667358221220b73e67f3b18d4e9331b6649c94d74b95e22888f93e35786a35b24c46a0b57dea64736f6c634300060c0033",
  "libraries": {},
  "devdoc": {
    "author": "Desyn Labs",
    "details": "Rights are held in a corresponding struct in ConfigurableRightsPool      Index values are as follows:                            by default, it is off on initialization and can only be turned on      4: canWhitelistLPs - if set, only whitelisted addresses can join pools                           (enables private pools with more than one LP)      5: canChangeCap - can change the BSP cap (max # of pool tokens)",
    "kind": "dev",
    "methods": {
      "isCrp(address)": {
        "params": {
          "addr": "- address to check"
        },
        "returns": {
          "_0": "boolean indicating whether it is a CRP"
        }
      },
      "newCrp(address,(string,string,address[],uint256[],uint256[],uint256,uint256,uint256,uint256,uint8),(bool,bool),(((uint256,uint256),(uint256,uint256),(uint256,uint256),(uint256,uint256)),((uint256,uint256),(uint256,uint256),(uint256,uint256),(uint256,uint256)),((uint256,uint256),(uint256,uint256),(uint256,uint256),(uint256,uint256)),((uint256,uint256),(uint256,uint256),(uint256,uint256),(uint256,uint256))),address[],uint256[])": {
        "details": "emits a LogNewCRP event",
        "params": {
          "factoryAddress": "- the BFactory instance used to create the underlying pool",
          "poolParams": "- struct containing the names, tokens, weights, balances, and swap fee",
          "rights": "- struct of permissions, configuring this CRP instance (see above for definitions)"
        }
      }
    },
    "title": "Configurable Rights Pool Factory - create parameterized smart pools",
    "version": 1
  },
  "userdoc": {
    "kind": "user",
    "methods": {
      "isCrp(address)": {
        "notice": "Check to see if a given address is a CRP"
      },
      "newCrp(address,(string,string,address[],uint256[],uint256[],uint256,uint256,uint256,uint256,uint8),(bool,bool),(((uint256,uint256),(uint256,uint256),(uint256,uint256),(uint256,uint256)),((uint256,uint256),(uint256,uint256),(uint256,uint256),(uint256,uint256)),((uint256,uint256),(uint256,uint256),(uint256,uint256),(uint256,uint256)),((uint256,uint256),(uint256,uint256),(uint256,uint256),(uint256,uint256))),address[],uint256[])": {
        "notice": "Create a new CRP"
      }
    },
    "version": 1
  },
  "storageLayout": {
    "storage": [
      {
        "astId": 7803,
        "contract": "contracts/deploy/CRPFactory.sol:CRPFactory",
        "label": "_isCrp",
        "offset": 0,
        "slot": "0",
        "type": "t_mapping(t_address,t_bool)"
      },
      {
        "astId": 7823,
        "contract": "contracts/deploy/CRPFactory.sol:CRPFactory",
        "label": "counters",
        "offset": 0,
        "slot": "1",
        "type": "t_uint256"
      },
      {
        "astId": 7825,
        "contract": "contracts/deploy/CRPFactory.sol:CRPFactory",
        "label": "bytecodes",
        "offset": 0,
        "slot": "2",
        "type": "t_bytes_storage"
      },
      {
        "astId": 7829,
        "contract": "contracts/deploy/CRPFactory.sol:CRPFactory",
        "label": "_blabs",
        "offset": 0,
        "slot": "3",
        "type": "t_address"
      },
      {
        "astId": 7831,
        "contract": "contracts/deploy/CRPFactory.sol:CRPFactory",
        "label": "userVault",
        "offset": 0,
        "slot": "4",
        "type": "t_address"
      }
    ],
    "types": {
      "t_address": {
        "encoding": "inplace",
        "label": "address",
        "numberOfBytes": "20"
      },
      "t_bool": {
        "encoding": "inplace",
        "label": "bool",
        "numberOfBytes": "1"
      },
      "t_bytes_storage": {
        "encoding": "bytes",
        "label": "bytes",
        "numberOfBytes": "32"
      },
      "t_mapping(t_address,t_bool)": {
        "encoding": "mapping",
        "key": "t_address",
        "label": "mapping(address => bool)",
        "numberOfBytes": "32",
        "value": "t_bool"
      },
      "t_uint256": {
        "encoding": "inplace",
        "label": "uint256",
        "numberOfBytes": "32"
      }
    }
  }
}