{
  "address": "0xfa23D5A7ABD502Dc3b0995981d37d366c8A44574",
  "abi": [
    {
      "inputs": [
        {
          "internalType": "address",
          "name": "oracle",
          "type": "address"
        },
        {
          "internalType": "address",
          "name": "vault",
          "type": "address"
        },
        {
          "internalType": "address",
          "name": "userVault",
          "type": "address"
        }
      ],
      "stateMutability": "nonpayable",
      "type": "constructor"
    },
    {
      "anonymous": false,
      "inputs": [
        {
          "indexed": true,
          "internalType": "address",
          "name": "caller",
          "type": "address"
        },
        {
          "indexed": true,
          "internalType": "address",
          "name": "blabs",
          "type": "address"
        }
      ],
      "name": "LOG_BLABS",
      "type": "event"
    },
    {
      "anonymous": false,
      "inputs": [
        {
          "indexed": true,
          "internalType": "address",
          "name": "spender",
          "type": "address"
        },
        {
          "indexed": true,
          "internalType": "uint256",
          "name": "sort",
          "type": "uint256"
        },
        {
          "indexed": true,
          "internalType": "address",
          "name": "caller",
          "type": "address"
        },
        {
          "indexed": false,
          "internalType": "address",
          "name": "token",
          "type": "address"
        }
      ],
      "name": "LOG_DEL_WHITELIST",
      "type": "event"
    },
    {
      "anonymous": false,
      "inputs": [
        {
          "indexed": true,
          "internalType": "address",
          "name": "manager",
          "type": "address"
        },
        {
          "indexed": true,
          "internalType": "address",
          "name": "caller",
          "type": "address"
        }
      ],
      "name": "LOG_MANAGER",
      "type": "event"
    },
    {
      "anonymous": false,
      "inputs": [
        {
          "indexed": true,
          "internalType": "address",
          "name": "caller",
          "type": "address"
        },
        {
          "indexed": true,
          "internalType": "address",
          "name": "pool",
          "type": "address"
        }
      ],
      "name": "LOG_NEW_POOL",
      "type": "event"
    },
    {
      "anonymous": false,
      "inputs": [
        {
          "indexed": true,
          "internalType": "address",
          "name": "caller",
          "type": "address"
        },
        {
          "indexed": true,
          "internalType": "address",
          "name": "oracle",
          "type": "address"
        }
      ],
      "name": "LOG_ORACLE",
      "type": "event"
    },
    {
      "anonymous": false,
      "inputs": [
        {
          "indexed": true,
          "internalType": "address",
          "name": "caller",
          "type": "address"
        },
        {
          "indexed": true,
          "internalType": "address",
          "name": "router",
          "type": "address"
        }
      ],
      "name": "LOG_ROUTER",
      "type": "event"
    },
    {
      "anonymous": false,
      "inputs": [
        {
          "indexed": true,
          "internalType": "address",
          "name": "vault",
          "type": "address"
        },
        {
          "indexed": true,
          "internalType": "address",
          "name": "caller",
          "type": "address"
        }
      ],
      "name": "LOG_USER_VAULT",
      "type": "event"
    },
    {
      "anonymous": false,
      "inputs": [
        {
          "indexed": true,
          "internalType": "address",
          "name": "vault",
          "type": "address"
        },
        {
          "indexed": true,
          "internalType": "address",
          "name": "caller",
          "type": "address"
        }
      ],
      "name": "LOG_VAULT",
      "type": "event"
    },
    {
      "anonymous": false,
      "inputs": [
        {
          "indexed": true,
          "internalType": "address",
          "name": "spender",
          "type": "address"
        },
        {
          "indexed": true,
          "internalType": "uint256",
          "name": "sort",
          "type": "uint256"
        },
        {
          "indexed": true,
          "internalType": "address",
          "name": "caller",
          "type": "address"
        },
        {
          "indexed": false,
          "internalType": "address",
          "name": "token",
          "type": "address"
        }
      ],
      "name": "LOG_WHITELIST",
      "type": "event"
    },
    {
      "anonymous": false,
      "inputs": [
        {
          "indexed": false,
          "internalType": "address",
          "name": "etf",
          "type": "address"
        },
        {
          "indexed": false,
          "internalType": "address",
          "name": "module",
          "type": "address"
        },
        {
          "indexed": false,
          "internalType": "bool",
          "name": "status",
          "type": "bool"
        }
      ],
      "name": "MODULE_STATUS_CHANGE",
      "type": "event"
    },
    {
      "anonymous": false,
      "inputs": [
        {
          "indexed": false,
          "internalType": "bool",
          "name": "state",
          "type": "bool"
        }
      ],
      "name": "PAUSED_STATUS",
      "type": "event"
    },
    {
      "anonymous": false,
      "inputs": [
        {
          "indexed": false,
          "internalType": "address",
          "name": "module",
          "type": "address"
        },
        {
          "indexed": false,
          "internalType": "bool",
          "name": "state",
          "type": "bool"
        }
      ],
      "name": "SYSTEM_MODULE_CHANGED",
      "type": "event"
    },
    {
      "inputs": [
        {
          "internalType": "uint256[]",
          "name": "sort",
          "type": "uint256[]"
        },
        {
          "internalType": "address[]",
          "name": "token",
          "type": "address[]"
        }
      ],
      "name": "addTokenToWhitelist",
      "outputs": [],
      "stateMutability": "nonpayable",
      "type": "function"
    },
    {
      "inputs": [
        {
          "internalType": "contract IERC20",
          "name": "token",
          "type": "address"
        }
      ],
      "name": "collect",
      "outputs": [],
      "stateMutability": "nonpayable",
      "type": "function"
    },
    {
      "inputs": [],
      "name": "getBLabs",
      "outputs": [
        {
          "internalType": "address",
          "name": "",
          "type": "address"
        }
      ],
      "stateMutability": "view",
      "type": "function"
    },
    {
      "inputs": [
        {
          "internalType": "address",
          "name": "etf",
          "type": "address"
        },
        {
          "internalType": "address",
          "name": "module",
          "type": "address"
        }
      ],
      "name": "getModuleStatus",
      "outputs": [
        {
          "internalType": "bool",
          "name": "",
          "type": "bool"
        }
      ],
      "stateMutability": "view",
      "type": "function"
    },
    {
      "inputs": [],
      "name": "getOracleAddress",
      "outputs": [
        {
          "internalType": "address",
          "name": "",
          "type": "address"
        }
      ],
      "stateMutability": "view",
      "type": "function"
    },
    {
      "inputs": [],
      "name": "getUserVault",
      "outputs": [
        {
          "internalType": "address",
          "name": "",
          "type": "address"
        }
      ],
      "stateMutability": "view",
      "type": "function"
    },
    {
      "inputs": [],
      "name": "getVault",
      "outputs": [
        {
          "internalType": "address",
          "name": "",
          "type": "address"
        }
      ],
      "stateMutability": "view",
      "type": "function"
    },
    {
      "inputs": [
        {
          "internalType": "address",
          "name": "b",
          "type": "address"
        }
      ],
      "name": "isLiquidityPool",
      "outputs": [
        {
          "internalType": "bool",
          "name": "",
          "type": "bool"
        }
      ],
      "stateMutability": "view",
      "type": "function"
    },
    {
      "inputs": [],
      "name": "isPaused",
      "outputs": [
        {
          "internalType": "bool",
          "name": "",
          "type": "bool"
        }
      ],
      "stateMutability": "view",
      "type": "function"
    },
    {
      "inputs": [
        {
          "internalType": "uint256",
          "name": "sort",
          "type": "uint256"
        },
        {
          "internalType": "address",
          "name": "token",
          "type": "address"
        }
      ],
      "name": "isTokenWhitelistedForVerify",
      "outputs": [
        {
          "internalType": "bool",
          "name": "",
          "type": "bool"
        }
      ],
      "stateMutability": "view",
      "type": "function"
    },
    {
      "inputs": [
        {
          "internalType": "address",
          "name": "token",
          "type": "address"
        }
      ],
      "name": "isTokenWhitelistedForVerify",
      "outputs": [
        {
          "internalType": "bool",
          "name": "",
          "type": "bool"
        }
      ],
      "stateMutability": "view",
      "type": "function"
    },
    {
      "inputs": [],
      "name": "newLiquidityPool",
      "outputs": [
        {
          "internalType": "contract IBPool",
          "name": "",
          "type": "address"
        }
      ],
      "stateMutability": "nonpayable",
      "type": "function"
    },
    {
      "inputs": [
        {
          "internalType": "address",
          "name": "etf",
          "type": "address"
        },
        {
          "internalType": "address",
          "name": "module",
          "type": "address"
        }
      ],
      "name": "registerModule",
      "outputs": [],
      "stateMutability": "nonpayable",
      "type": "function"
    },
    {
      "inputs": [
        {
          "internalType": "address",
          "name": "etf",
          "type": "address"
        },
        {
          "internalType": "address",
          "name": "module",
          "type": "address"
        }
      ],
      "name": "removeModule",
      "outputs": [],
      "stateMutability": "nonpayable",
      "type": "function"
    },
    {
      "inputs": [
        {
          "internalType": "uint256[]",
          "name": "sort",
          "type": "uint256[]"
        },
        {
          "internalType": "address[]",
          "name": "token",
          "type": "address[]"
        }
      ],
      "name": "removeTokenFromWhitelist",
      "outputs": [],
      "stateMutability": "nonpayable",
      "type": "function"
    },
    {
      "inputs": [
        {
          "internalType": "address",
          "name": "b",
          "type": "address"
        }
      ],
      "name": "setBLabs",
      "outputs": [],
      "stateMutability": "nonpayable",
      "type": "function"
    },
    {
      "inputs": [
        {
          "internalType": "bytes",
          "name": "_bytecode",
          "type": "bytes"
        }
      ],
      "name": "setByteCodes",
      "outputs": [],
      "stateMutability": "nonpayable",
      "type": "function"
    },
    {
      "inputs": [
        {
          "internalType": "address",
          "name": "oracle",
          "type": "address"
        }
      ],
      "name": "setOracle",
      "outputs": [],
      "stateMutability": "nonpayable",
      "type": "function"
    },
    {
      "inputs": [
        {
          "internalType": "bool",
          "name": "state",
          "type": "bool"
        }
      ],
      "name": "setProtocolPaused",
      "outputs": [],
      "stateMutability": "nonpayable",
      "type": "function"
    },
    {
      "inputs": [
        {
          "internalType": "address",
          "name": "module",
          "type": "address"
        },
        {
          "internalType": "bool",
          "name": "state",
          "type": "bool"
        }
      ],
      "name": "setSystemModule",
      "outputs": [],
      "stateMutability": "nonpayable",
      "type": "function"
    },
    {
      "inputs": [
        {
          "internalType": "address",
          "name": "newVault",
          "type": "address"
        }
      ],
      "name": "setUserVault",
      "outputs": [],
      "stateMutability": "nonpayable",
      "type": "function"
    },
    {
      "inputs": [
        {
          "internalType": "address",
          "name": "newVault",
          "type": "address"
        }
      ],
      "name": "setVault",
      "outputs": [],
      "stateMutability": "nonpayable",
      "type": "function"
    }
  ],
  "transactionHash": "0xa6b1f0421cb9ba1b9d245a6dd16bee12e18681d4ab21a467c18ddd0871ff765e",
  "args": [
    "0xf860c4DbB8b813Cae29B48149f041293b8d2b298",
    "0xcE98b1fAd7528853b1C4B9A1DABb112D8d2508f3",
    "0x6F36F08655c36894712942c481A1649e86D31FbA"
  ],
  "numDeployments": 1,
  "solcInputHash": "ea87177e94f7977eab75d04c80b07225",
  "bytecode": "0x608060405234801561001057600080fd5b50604051611af5380380611af58339818101604052606081101561003357600080fd5b508051602082015160409092015160088054610100600160a81b0319163361010002179055600980546001600160a01b03199081166001600160a01b0394851617909155600a8054821694841694909417909355600b80549093169116179055611a53806100a26000396000f3fe608060405234801561001057600080fd5b50600436106101125760003560e01c806306ec16f814610117578063131d6a121461013f57806336ffb1671461026257806338f0d245146102865780636817031b146102c85780636a36e3a2146102ee578063703a9ec91461031c5780637adbf973146103245780638275d4711461034a5780638a53ea77146103695780638b0e8e67146103975780638d928af8146103bd5780638f49f44d146103c557806391cefde4146103f1578063a6c245c4146103f9578063b187bd261461051c578063b18b78dd14610524578063b2ebfea51461052c578063c6ce34fb146105d0578063db7ca46b146105f6578063e85455d71461061c578063f4b2f6ce14610642575b600080fd5b61013d6004803603602081101561012d57600080fd5b50356001600160a01b0316610670565b005b61013d6004803603604081101561015557600080fd5b810190602081018135600160201b81111561016f57600080fd5b82018360208201111561018157600080fd5b803590602001918460208302840111600160201b831117156101a257600080fd5b9190808060200260200160405190810160405280939291908181526020018383602002808284376000920191909152509295949360208101935035915050600160201b8111156101f157600080fd5b82018360208201111561020357600080fd5b803590602001918460208302840111600160201b8311171561022457600080fd5b919080806020026020016040519081016040528093929190818152602001838360200280828437600092019190915250929550610765945050505050565b61026a610852565b604080516001600160a01b039092168252519081900360200190f35b6102b46004803603604081101561029c57600080fd5b506001600160a01b0381358116916020013516610866565b604080519115158252519081900360200190f35b61013d600480360360208110156102de57600080fd5b50356001600160a01b03166108b9565b61013d6004803603604081101561030457600080fd5b506001600160a01b03813581169160200135166109a8565b61026a610b04565b61013d6004803603602081101561033a57600080fd5b50356001600160a01b0316610b13565b61013d6004803603602081101561036057600080fd5b50351515610c0d565b61013d6004803603604081101561037f57600080fd5b506001600160a01b0381358116916020013516610ca8565b61013d600480360360208110156103ad57600080fd5b50356001600160a01b0316610e0e565b61026a610efd565b6102b4600480360360408110156103db57600080fd5b50803590602001356001600160a01b0316610f0c565b61026a610f18565b61013d6004803603604081101561040f57600080fd5b810190602081018135600160201b81111561042957600080fd5b82018360208201111561043b57600080fd5b803590602001918460208302840111600160201b8311171561045c57600080fd5b9190808060200260200160405190810160405280939291908181526020018383602002808284376000920191909152509295949360208101935035915050600160201b8111156104ab57600080fd5b8201836020820111156104bd57600080fd5b803590602001918460208302840111600160201b831117156104de57600080fd5b919080806020026020016040519081016040528093929190818152602001838360200280828437600092019190915250929550610fd7945050505050565b6102b46110bf565b61026a6110c8565b61013d6004803603602081101561054257600080fd5b810190602081018135600160201b81111561055c57600080fd5b82018360208201111561056e57600080fd5b803590602001918460018302840111600160201b8311171561058f57600080fd5b91908080601f0160208091040260200160405190810160405280939291908181526020018383808284376000920191909152509295506110d7945050505050565b61013d600480360360208110156105e657600080fd5b50356001600160a01b031661113e565b6102b46004803603602081101561060c57600080fd5b50356001600160a01b031661123e565b6102b46004803603602081101561063257600080fd5b50356001600160a01b031661124f565b61013d6004803603604081101561065857600080fd5b506001600160a01b038135169060200135151561126d565b60085461010090046001600160a01b031633146106c4576040805162461bcd60e51b815260206004820152600d60248201526c4552525f4e4f545f424c41425360981b604482015290519081900360640190fd5b6000816001600160a01b03166370a08231306040518263ffffffff1660e01b815260040180826001600160a01b0316815260200191505060206040518083038186803b15801561071357600080fd5b505afa158015610727573d6000803e3d6000fd5b505050506040513d602081101561073d57600080fd5b5051600854909150610761906001600160a01b03848116916101009004168361136f565b5050565b60085461010090046001600160a01b031633146107b9576040805162461bcd60e51b815260206004820152600d60248201526c4552525f4e4f545f424c41425360981b604482015290519081900360640190fd5b8051825114610809576040805162461bcd60e51b815260206004820152601760248201527608aa4a4bea69ea4a8bea89e968a9cbe9a92a69a82a8869604b1b604482015290519081900360640190fd5b60005b825181101561084d5761084583828151811061082457fe5b602002602001015183838151811061083857fe5b60200260200101516113c1565b60010161080c565b505050565b60085461010090046001600160a01b031690565b6001600160a01b03811660009081526004602052604081205460ff16806108b257506001600160a01b0380841660009081526005602090815260408083209386168352929052205460ff165b9392505050565b60085461010090046001600160a01b0316331461090d576040805162461bcd60e51b815260206004820152600d60248201526c4552525f4e4f545f424c41425360981b604482015290519081900360640190fd5b6001600160a01b03811661095b576040805162461bcd60e51b815260206004820152601060248201526f4552525f5a45524f5f4144445245535360801b604482015290519081900360640190fd5b600a80546001600160a01b0319166001600160a01b0383169081179091556040513391907fb4dea88882442451a462d3bdfdca2f8ef2b3516e079b0d5aaff6460ccdb706f490600090a350565b60085461010090046001600160a01b031633146109fc576040805162461bcd60e51b815260206004820152600d60248201526c4552525f4e4f545f424c41425360981b604482015290519081900360640190fd5b6001600160a01b038216610a4a576040805162461bcd60e51b815260206004820152601060248201526f5a45524f20455446204144445245535360801b604482015290519081900360640190fd5b6001600160a01b038116610a94576040805162461bcd60e51b815260206004820152600c60248201526b5a45524f204144445245535360a01b604482015290519081900360640190fd5b6001600160a01b038083166000818152600560209081526040808320948616808452948252808320805460ff191690558051938452908301939093528183015290517f68c33efced6f26119f0dd6351ae1fb557d5329dfac87e377d4f9d1a1d77d8acb9181900360600190a15050565b600b546001600160a01b031690565b60085461010090046001600160a01b03163314610b67576040805162461bcd60e51b815260206004820152600d60248201526c4552525f4e4f545f424c41425360981b604482015290519081900360640190fd5b6001600160a01b038116610bb5576040805162461bcd60e51b815260206004820152601060248201526f4552525f5a45524f5f4144445245535360801b604482015290519081900360640190fd5b6040516001600160a01b0382169033907f7301a3fa5e149ffdc294fe3b3ac0abb0ec25be499c812f4daa2edacaa85e44cd90600090a3600980546001600160a01b0319166001600160a01b0392909216919091179055565b60085461010090046001600160a01b03163314610c61576040805162461bcd60e51b815260206004820152600d60248201526c4552525f4e4f545f424c41425360981b604482015290519081900360640190fd5b6008805482151560ff19909116811790915560408051918252517f2b68200aa3fdf77c32eaa2697db7199e738eb7ab3b8f47917991907193b751b79181900360200190a150565b60085461010090046001600160a01b03163314610cfc576040805162461bcd60e51b815260206004820152600d60248201526c4552525f4e4f545f424c41425360981b604482015290519081900360640190fd5b6001600160a01b038216610d4a576040805162461bcd60e51b815260206004820152601060248201526f5a45524f20455446204144445245535360801b604482015290519081900360640190fd5b6001600160a01b038116610d94576040805162461bcd60e51b815260206004820152600c60248201526b5a45524f204144445245535360a01b604482015290519081900360640190fd5b6001600160a01b03808316600081815260056020908152604080832094861680845294825291829020805460ff191660019081179091558251938452908301939093528181019290925290517f68c33efced6f26119f0dd6351ae1fb557d5329dfac87e377d4f9d1a1d77d8acb9181900360600190a15050565b60085461010090046001600160a01b03163314610e62576040805162461bcd60e51b815260206004820152600d60248201526c4552525f4e4f545f424c41425360981b604482015290519081900360640190fd5b6001600160a01b038116610eb0576040805162461bcd60e51b815260206004820152601060248201526f4552525f5a45524f5f4144445245535360801b604482015290519081900360640190fd5b600b80546001600160a01b0319166001600160a01b0383169081179091556040513391907fbe29361fcb0d6d7a528b06b7e3c978b225c152a431ac559470986926fe26692590600090a350565b600a546001600160a01b031690565b60006108b28383611504565b600080610f2361152f565b6001600160a01b038116600081815260036020526040808220805460ff1916600117905551929350909133917f8ccec77b0cb63ac2cafd0f5de8cdfadab91ce656d262240ba8a6343bccc5f94591a3604080516392eefe9b60e01b815233600482015290516001600160a01b038316916392eefe9b91602480830192600092919082900301818387803b158015610fb957600080fd5b505af1158015610fcd573d6000803e3d6000fd5b5092935050505090565b60085461010090046001600160a01b0316331461102b576040805162461bcd60e51b815260206004820152600d60248201526c4552525f4e4f545f424c41425360981b604482015290519081900360640190fd5b805182511461107b576040805162461bcd60e51b815260206004820152601760248201527608aa4a4bea69ea4a8bea89e968a9cbe9a92a69a82a8869604b1b604482015290519081900360640190fd5b60005b825181101561084d576110b783828151811061109657fe5b60200260200101518383815181106110aa57fe5b6020026020010151611619565b60010161107e565b60085460ff1681565b6009546001600160a01b031690565b60085461010090046001600160a01b0316331461112b576040805162461bcd60e51b815260206004820152600d60248201526c4552525f4e4f545f424c41425360981b604482015290519081900360640190fd5b8051610761906007906020840190611960565b60085461010090046001600160a01b03163314611192576040805162461bcd60e51b815260206004820152600d60248201526c4552525f4e4f545f424c41425360981b604482015290519081900360640190fd5b6001600160a01b0381166111e0576040805162461bcd60e51b815260206004820152601060248201526f4552525f5a45524f5f4144445245535360801b604482015290519081900360640190fd5b6040516001600160a01b0382169033907ff586fa6ee1fc42f5b727f3b214ccbd0b6d7e698c45d49ba32f224fbb8670155d90600090a3600880546001600160a01b0390921661010002610100600160a81b0319909216919091179055565b600061124982611748565b92915050565b6001600160a01b031660009081526003602052604090205460ff1690565b60085461010090046001600160a01b031633146112c1576040805162461bcd60e51b815260206004820152600d60248201526c4552525f4e4f545f424c41425360981b604482015290519081900360640190fd5b6001600160a01b03821661130b576040805162461bcd60e51b815260206004820152600c60248201526b5a45524f204144445245535360a01b604482015290519081900360640190fd5b6001600160a01b038216600081815260046020908152604091829020805460ff191685151590811790915582519384529083015280517f745be35343868882339320dd5210770eb27ab2d12a1fbf39e7436e82102541379281900390910190a15050565b604080516001600160a01b038416602482015260448082018490528251808303909101815260649091019091526020810180516001600160e01b031663a9059cbb60e01b17905261084d908490611766565b6113ca81611748565b1515600114611416576040805162461bcd60e51b815260206004820152601360248201527222a9292fa727aa2faba424aa22afaa27a5a2a760691b604482015290519081900360640190fd5b60008281526002602090815260408083206001600160a01b038516845290915290205460ff16611484576040805162461bcd60e51b815260206004820152601460248201527311549497d4d3d49517d393d517d3505510d2115160621b604482015290519081900360640190fd5b60008281526002602090815260408083206001600160a01b038516808552908352818420805460ff1990811690915560018452828520805490911690558354600019019093558051928352513392859230927ff27ed63b9bdfafba10ef35fe37741d317458bbdb30dddc979bd9df79fc8b5d4f9281900390910190a45050565b60009182526002602090815260408084206001600160a01b0393909316845291905290205460ff1690565b6007805460408051602060026001851615610100026000190190941693909304601f8101849004840282018401909252818152600093606093919290918301828280156115bd5780601f10611592576101008083540402835291602001916115bd565b820191906000526020600020905b8154815290600101906020018083116115a057829003601f168201915b50506006805460018101909155604080516020808201939093528151808203840181529082019091528051908201208551959650948594509250850190506000f59250823b61160b57600080fd5b505060068054600101905590565b6001600160a01b038116611670576040805162461bcd60e51b81526020600482015260196024820152784552525f494e56414c49445f544f4b454e5f4144445245535360381b604482015290519081900360640190fd5b61167981611748565b156116c6576040805162461bcd60e51b81526020600482015260186024820152774552525f4841535f4245454e5f41444445445f574849544560401b604482015290519081900360640190fd5b60008281526002602090815260408083206001600160a01b0385168085529083528184208054600160ff1991821681179092558185528386208054909116821790558454019093558051928352513392859230927f5ab6a0d7af8e86f78c34acea4f8aff1be027227ce1bc29e03f57f39b788f4b049281900390910190a45050565b6001600160a01b031660009081526001602052604090205460ff1690565b611778826001600160a01b0316611924565b6117c9576040805162461bcd60e51b815260206004820152601f60248201527f5361666545524332303a2063616c6c20746f206e6f6e2d636f6e747261637400604482015290519081900360640190fd5b60006060836001600160a01b0316836040518082805190602001908083835b602083106118075780518252601f1990920191602091820191016117e8565b6001836020036101000a0380198251168184511680821785525050505050509050019150506000604051808303816000865af19150503d8060008114611869576040519150601f19603f3d011682016040523d82523d6000602084013e61186e565b606091505b5091509150816118c5576040805162461bcd60e51b815260206004820181905260248201527f5361666545524332303a206c6f772d6c6576656c2063616c6c206661696c6564604482015290519081900360640190fd5b80511561191e578080602001905160208110156118e157600080fd5b505161191e5760405162461bcd60e51b815260040180806020018281038252602a8152602001806119f4602a913960400191505060405180910390fd5b50505050565b6000813f7fc5d2460186f7233c927e7db2dcc703c0e500b653ca82273b7bfad8045d85a47081811480159061195857508115155b949350505050565b828054600181600116156101000203166002900490600052602060002090601f016020900481019282601f106119a157805160ff19168380011785556119ce565b828001600101855582156119ce579182015b828111156119ce5782518255916020019190600101906119b3565b506119da9291506119de565b5090565b5b808211156119da57600081556001016119df56fe5361666545524332303a204552433230206f7065726174696f6e20646964206e6f742073756363656564a264697066735822122073cc19b91eff745c93505102210ce7ab610d7d2a7ec933a0693f1490fe937d6064736f6c634300060c0033",
  "libraries": {},
  "devdoc": {
    "kind": "dev",
    "methods": {},
    "version": 1
  },
  "userdoc": {
    "kind": "user",
    "methods": {},
    "version": 1
  },
  "storageLayout": {
    "storage": [
      {
        "astId": 5971,
        "contract": "contracts/deploy/Factory.sol:Factory",
        "label": "_whiteTokenCount",
        "offset": 0,
        "slot": "0",
        "type": "t_uint256"
      },
      {
        "astId": 5975,
        "contract": "contracts/deploy/Factory.sol:Factory",
        "label": "_isTokenWhitelisted",
        "offset": 0,
        "slot": "1",
        "type": "t_mapping(t_address,t_bool)"
      },
      {
        "astId": 5981,
        "contract": "contracts/deploy/Factory.sol:Factory",
        "label": "_tokenWhitelistedInfo",
        "offset": 0,
        "slot": "2",
        "type": "t_mapping(t_uint256,t_mapping(t_address,t_bool))"
      },
      {
        "astId": 8773,
        "contract": "contracts/deploy/Factory.sol:Factory",
        "label": "_isLiquidityPool",
        "offset": 0,
        "slot": "3",
        "type": "t_mapping(t_address,t_bool)"
      },
      {
        "astId": 8777,
        "contract": "contracts/deploy/Factory.sol:Factory",
        "label": "_isSystemModule",
        "offset": 0,
        "slot": "4",
        "type": "t_mapping(t_address,t_bool)"
      },
      {
        "astId": 8783,
        "contract": "contracts/deploy/Factory.sol:Factory",
        "label": "_isModuleRegistered",
        "offset": 0,
        "slot": "5",
        "type": "t_mapping(t_address,t_mapping(t_address,t_bool))"
      },
      {
        "astId": 8785,
        "contract": "contracts/deploy/Factory.sol:Factory",
        "label": "counters",
        "offset": 0,
        "slot": "6",
        "type": "t_uint256"
      },
      {
        "astId": 8787,
        "contract": "contracts/deploy/Factory.sol:Factory",
        "label": "bytecodes",
        "offset": 0,
        "slot": "7",
        "type": "t_bytes_storage"
      },
      {
        "astId": 8789,
        "contract": "contracts/deploy/Factory.sol:Factory",
        "label": "isPaused",
        "offset": 0,
        "slot": "8",
        "type": "t_bool"
      },
      {
        "astId": 8791,
        "contract": "contracts/deploy/Factory.sol:Factory",
        "label": "_blabs",
        "offset": 1,
        "slot": "8",
        "type": "t_address"
      },
      {
        "astId": 8793,
        "contract": "contracts/deploy/Factory.sol:Factory",
        "label": "_oracle",
        "offset": 0,
        "slot": "9",
        "type": "t_address"
      },
      {
        "astId": 8795,
        "contract": "contracts/deploy/Factory.sol:Factory",
        "label": "_vaultAddress",
        "offset": 0,
        "slot": "10",
        "type": "t_address"
      },
      {
        "astId": 8797,
        "contract": "contracts/deploy/Factory.sol:Factory",
        "label": "_userVaultAddress",
        "offset": 0,
        "slot": "11",
        "type": "t_address"
      }
    ],
    "types": {
      "t_address": {
        "encoding": "inplace",
        "label": "address",
        "numberOfBytes": "20"
      },
      "t_bool": {
        "encoding": "inplace",
        "label": "bool",
        "numberOfBytes": "1"
      },
      "t_bytes_storage": {
        "encoding": "bytes",
        "label": "bytes",
        "numberOfBytes": "32"
      },
      "t_mapping(t_address,t_bool)": {
        "encoding": "mapping",
        "key": "t_address",
        "label": "mapping(address => bool)",
        "numberOfBytes": "32",
        "value": "t_bool"
      },
      "t_mapping(t_address,t_mapping(t_address,t_bool))": {
        "encoding": "mapping",
        "key": "t_address",
        "label": "mapping(address => mapping(address => bool))",
        "numberOfBytes": "32",
        "value": "t_mapping(t_address,t_bool)"
      },
      "t_mapping(t_uint256,t_mapping(t_address,t_bool))": {
        "encoding": "mapping",
        "key": "t_uint256",
        "label": "mapping(uint256 => mapping(address => bool))",
        "numberOfBytes": "32",
        "value": "t_mapping(t_address,t_bool)"
      },
      "t_uint256": {
        "encoding": "inplace",
        "label": "uint256",
        "numberOfBytes": "32"
      }
    }
  }
}