{
  "_format": "hh-sol-artifact-1",
  "contractName": "LiquidityPool",
  "sourceName": "contracts/base/LiquidityPool.sol",
  "abi": [
    {
      "inputs": [],
      "stateMutability": "nonpayable",
      "type": "constructor"
    },
    {
      "anonymous": false,
      "inputs": [
        {
          "indexed": true,
          "internalType": "address",
          "name": "owner",
          "type": "address"
        },
        {
          "indexed": true,
          "internalType": "address",
          "name": "spender",
          "type": "address"
        },
        {
          "indexed": false,
          "internalType": "uint256",
          "name": "value",
          "type": "uint256"
        }
      ],
      "name": "Approval",
      "type": "event"
    },
    {
      "anonymous": true,
      "inputs": [
        {
          "indexed": true,
          "internalType": "bytes4",
          "name": "sig",
          "type": "bytes4"
        },
        {
          "indexed": true,
          "internalType": "address",
          "name": "caller",
          "type": "address"
        },
        {
          "indexed": false,
          "internalType": "bytes",
          "name": "data",
          "type": "bytes"
        }
      ],
      "name": "LOG_CALL",
      "type": "event"
    },
    {
      "anonymous": false,
      "inputs": [
        {
          "indexed": true,
          "internalType": "address",
          "name": "caller",
          "type": "address"
        },
        {
          "indexed": true,
          "internalType": "address",
          "name": "tokenOut",
          "type": "address"
        },
        {
          "indexed": false,
          "internalType": "uint256",
          "name": "tokenAmountOut",
          "type": "uint256"
        }
      ],
      "name": "LOG_EXIT",
      "type": "event"
    },
    {
      "anonymous": false,
      "inputs": [
        {
          "indexed": true,
          "internalType": "address",
          "name": "caller",
          "type": "address"
        },
        {
          "indexed": true,
          "internalType": "address",
          "name": "tokenIn",
          "type": "address"
        },
        {
          "indexed": false,
          "internalType": "uint256",
          "name": "tokenAmountIn",
          "type": "uint256"
        }
      ],
      "name": "LOG_JOIN",
      "type": "event"
    },
    {
      "anonymous": false,
      "inputs": [
        {
          "indexed": true,
          "internalType": "address",
          "name": "tokenA",
          "type": "address"
        },
        {
          "indexed": true,
          "internalType": "address",
          "name": "tokenB",
          "type": "address"
        },
        {
          "indexed": false,
          "internalType": "uint256",
          "name": "newWeightA",
          "type": "uint256"
        },
        {
          "indexed": false,
          "internalType": "uint256",
          "name": "newWeightB",
          "type": "uint256"
        },
        {
          "indexed": false,
          "internalType": "uint256",
          "name": "newBalanceA",
          "type": "uint256"
        },
        {
          "indexed": false,
          "internalType": "uint256",
          "name": "newBalanceB",
          "type": "uint256"
        },
        {
          "indexed": false,
          "internalType": "bool",
          "name": "isSoldout",
          "type": "bool"
        }
      ],
      "name": "LOG_REBALANCE",
      "type": "event"
    },
    {
      "anonymous": false,
      "inputs": [
        {
          "indexed": true,
          "internalType": "address",
          "name": "from",
          "type": "address"
        },
        {
          "indexed": true,
          "internalType": "address",
          "name": "to",
          "type": "address"
        },
        {
          "indexed": false,
          "internalType": "uint256",
          "name": "value",
          "type": "uint256"
        }
      ],
      "name": "Transfer",
      "type": "event"
    },
    {
      "inputs": [],
      "name": "BONE",
      "outputs": [
        {
          "internalType": "uint256",
          "name": "",
          "type": "uint256"
        }
      ],
      "stateMutability": "view",
      "type": "function"
    },
    {
      "inputs": [],
      "name": "BPOW_PRECISION",
      "outputs": [
        {
          "internalType": "uint256",
          "name": "",
          "type": "uint256"
        }
      ],
      "stateMutability": "view",
      "type": "function"
    },
    {
      "inputs": [],
      "name": "EXIT_FEE",
      "outputs": [
        {
          "internalType": "uint256",
          "name": "",
          "type": "uint256"
        }
      ],
      "stateMutability": "view",
      "type": "function"
    },
    {
      "inputs": [],
      "name": "INIT_POOL_SUPPLY",
      "outputs": [
        {
          "internalType": "uint256",
          "name": "",
          "type": "uint256"
        }
      ],
      "stateMutability": "view",
      "type": "function"
    },
    {
      "inputs": [],
      "name": "MAX_BOUND_TOKENS",
      "outputs": [
        {
          "internalType": "uint256",
          "name": "",
          "type": "uint256"
        }
      ],
      "stateMutability": "view",
      "type": "function"
    },
    {
      "inputs": [],
      "name": "MAX_BPOW_BASE",
      "outputs": [
        {
          "internalType": "uint256",
          "name": "",
          "type": "uint256"
        }
      ],
      "stateMutability": "view",
      "type": "function"
    },
    {
      "inputs": [],
      "name": "MAX_FEE",
      "outputs": [
        {
          "internalType": "uint256",
          "name": "",
          "type": "uint256"
        }
      ],
      "stateMutability": "view",
      "type": "function"
    },
    {
      "inputs": [],
      "name": "MAX_IN_RATIO",
      "outputs": [
        {
          "internalType": "uint256",
          "name": "",
          "type": "uint256"
        }
      ],
      "stateMutability": "view",
      "type": "function"
    },
    {
      "inputs": [],
      "name": "MAX_OUT_RATIO",
      "outputs": [
        {
          "internalType": "uint256",
          "name": "",
          "type": "uint256"
        }
      ],
      "stateMutability": "view",
      "type": "function"
    },
    {
      "inputs": [],
      "name": "MAX_TOTAL_WEIGHT",
      "outputs": [
        {
          "internalType": "uint256",
          "name": "",
          "type": "uint256"
        }
      ],
      "stateMutability": "view",
      "type": "function"
    },
    {
      "inputs": [],
      "name": "MAX_WEIGHT",
      "outputs": [
        {
          "internalType": "uint256",
          "name": "",
          "type": "uint256"
        }
      ],
      "stateMutability": "view",
      "type": "function"
    },
    {
      "inputs": [],
      "name": "MIN_BALANCE",
      "outputs": [
        {
          "internalType": "uint256",
          "name": "",
          "type": "uint256"
        }
      ],
      "stateMutability": "view",
      "type": "function"
    },
    {
      "inputs": [],
      "name": "MIN_BOUND_TOKENS",
      "outputs": [
        {
          "internalType": "uint256",
          "name": "",
          "type": "uint256"
        }
      ],
      "stateMutability": "view",
      "type": "function"
    },
    {
      "inputs": [],
      "name": "MIN_BPOW_BASE",
      "outputs": [
        {
          "internalType": "uint256",
          "name": "",
          "type": "uint256"
        }
      ],
      "stateMutability": "view",
      "type": "function"
    },
    {
      "inputs": [],
      "name": "MIN_FEE",
      "outputs": [
        {
          "internalType": "uint256",
          "name": "",
          "type": "uint256"
        }
      ],
      "stateMutability": "view",
      "type": "function"
    },
    {
      "inputs": [],
      "name": "MIN_WEIGHT",
      "outputs": [
        {
          "internalType": "uint256",
          "name": "",
          "type": "uint256"
        }
      ],
      "stateMutability": "view",
      "type": "function"
    },
    {
      "inputs": [
        {
          "internalType": "address",
          "name": "src",
          "type": "address"
        },
        {
          "internalType": "address",
          "name": "dst",
          "type": "address"
        }
      ],
      "name": "allowance",
      "outputs": [
        {
          "internalType": "uint256",
          "name": "",
          "type": "uint256"
        }
      ],
      "stateMutability": "view",
      "type": "function"
    },
    {
      "inputs": [
        {
          "internalType": "address",
          "name": "dst",
          "type": "address"
        },
        {
          "internalType": "uint256",
          "name": "amt",
          "type": "uint256"
        }
      ],
      "name": "approve",
      "outputs": [
        {
          "internalType": "bool",
          "name": "",
          "type": "bool"
        }
      ],
      "stateMutability": "nonpayable",
      "type": "function"
    },
    {
      "inputs": [
        {
          "internalType": "address",
          "name": "whom",
          "type": "address"
        }
      ],
      "name": "balanceOf",
      "outputs": [
        {
          "internalType": "uint256",
          "name": "",
          "type": "uint256"
        }
      ],
      "stateMutability": "view",
      "type": "function"
    },
    {
      "inputs": [
        {
          "internalType": "address",
          "name": "token",
          "type": "address"
        },
        {
          "internalType": "uint256",
          "name": "balance",
          "type": "uint256"
        },
        {
          "internalType": "uint256",
          "name": "denorm",
          "type": "uint256"
        }
      ],
      "name": "bind",
      "outputs": [],
      "stateMutability": "nonpayable",
      "type": "function"
    },
    {
      "inputs": [
        {
          "internalType": "uint256",
          "name": "tokenBalanceIn",
          "type": "uint256"
        },
        {
          "internalType": "uint256",
          "name": "tokenWeightIn",
          "type": "uint256"
        },
        {
          "internalType": "uint256",
          "name": "tokenBalanceOut",
          "type": "uint256"
        },
        {
          "internalType": "uint256",
          "name": "tokenWeightOut",
          "type": "uint256"
        },
        {
          "internalType": "uint256",
          "name": "tokenAmountOut",
          "type": "uint256"
        },
        {
          "internalType": "uint256",
          "name": "swapFee",
          "type": "uint256"
        }
      ],
      "name": "calcInGivenOut",
      "outputs": [
        {
          "internalType": "uint256",
          "name": "tokenAmountIn",
          "type": "uint256"
        }
      ],
      "stateMutability": "pure",
      "type": "function"
    },
    {
      "inputs": [
        {
          "internalType": "uint256",
          "name": "tokenBalanceIn",
          "type": "uint256"
        },
        {
          "internalType": "uint256",
          "name": "tokenWeightIn",
          "type": "uint256"
        },
        {
          "internalType": "uint256",
          "name": "tokenBalanceOut",
          "type": "uint256"
        },
        {
          "internalType": "uint256",
          "name": "tokenWeightOut",
          "type": "uint256"
        },
        {
          "internalType": "uint256",
          "name": "tokenAmountIn",
          "type": "uint256"
        },
        {
          "internalType": "uint256",
          "name": "swapFee",
          "type": "uint256"
        }
      ],
      "name": "calcOutGivenIn",
      "outputs": [
        {
          "internalType": "uint256",
          "name": "tokenAmountOut",
          "type": "uint256"
        }
      ],
      "stateMutability": "pure",
      "type": "function"
    },
    {
      "inputs": [
        {
          "internalType": "uint256",
          "name": "tokenBalanceOut",
          "type": "uint256"
        },
        {
          "internalType": "uint256",
          "name": "tokenWeightOut",
          "type": "uint256"
        },
        {
          "internalType": "uint256",
          "name": "poolSupply",
          "type": "uint256"
        },
        {
          "internalType": "uint256",
          "name": "totalWeight",
          "type": "uint256"
        },
        {
          "internalType": "uint256",
          "name": "tokenAmountOut",
          "type": "uint256"
        },
        {
          "internalType": "uint256",
          "name": "swapFee",
          "type": "uint256"
        }
      ],
      "name": "calcPoolInGivenSingleOut",
      "outputs": [
        {
          "internalType": "uint256",
          "name": "poolAmountIn",
          "type": "uint256"
        }
      ],
      "stateMutability": "pure",
      "type": "function"
    },
    {
      "inputs": [
        {
          "internalType": "uint256",
          "name": "tokenBalanceIn",
          "type": "uint256"
        },
        {
          "internalType": "uint256",
          "name": "tokenWeightIn",
          "type": "uint256"
        },
        {
          "internalType": "uint256",
          "name": "poolSupply",
          "type": "uint256"
        },
        {
          "internalType": "uint256",
          "name": "totalWeight",
          "type": "uint256"
        },
        {
          "internalType": "uint256",
          "name": "tokenAmountIn",
          "type": "uint256"
        },
        {
          "internalType": "uint256",
          "name": "swapFee",
          "type": "uint256"
        }
      ],
      "name": "calcPoolOutGivenSingleIn",
      "outputs": [
        {
          "internalType": "uint256",
          "name": "poolAmountOut",
          "type": "uint256"
        }
      ],
      "stateMutability": "pure",
      "type": "function"
    },
    {
      "inputs": [
        {
          "internalType": "uint256",
          "name": "tokenBalanceIn",
          "type": "uint256"
        },
        {
          "internalType": "uint256",
          "name": "tokenWeightIn",
          "type": "uint256"
        },
        {
          "internalType": "uint256",
          "name": "poolSupply",
          "type": "uint256"
        },
        {
          "internalType": "uint256",
          "name": "totalWeight",
          "type": "uint256"
        },
        {
          "internalType": "uint256",
          "name": "poolAmountOut",
          "type": "uint256"
        },
        {
          "internalType": "uint256",
          "name": "swapFee",
          "type": "uint256"
        }
      ],
      "name": "calcSingleInGivenPoolOut",
      "outputs": [
        {
          "internalType": "uint256",
          "name": "tokenAmountIn",
          "type": "uint256"
        }
      ],
      "stateMutability": "pure",
      "type": "function"
    },
    {
      "inputs": [
        {
          "internalType": "uint256",
          "name": "tokenBalanceOut",
          "type": "uint256"
        },
        {
          "internalType": "uint256",
          "name": "tokenWeightOut",
          "type": "uint256"
        },
        {
          "internalType": "uint256",
          "name": "poolSupply",
          "type": "uint256"
        },
        {
          "internalType": "uint256",
          "name": "totalWeight",
          "type": "uint256"
        },
        {
          "internalType": "uint256",
          "name": "poolAmountIn",
          "type": "uint256"
        },
        {
          "internalType": "uint256",
          "name": "swapFee",
          "type": "uint256"
        }
      ],
      "name": "calcSingleOutGivenPoolIn",
      "outputs": [
        {
          "internalType": "uint256",
          "name": "tokenAmountOut",
          "type": "uint256"
        }
      ],
      "stateMutability": "pure",
      "type": "function"
    },
    {
      "inputs": [
        {
          "internalType": "uint256",
          "name": "tokenBalanceIn",
          "type": "uint256"
        },
        {
          "internalType": "uint256",
          "name": "tokenWeightIn",
          "type": "uint256"
        },
        {
          "internalType": "uint256",
          "name": "tokenBalanceOut",
          "type": "uint256"
        },
        {
          "internalType": "uint256",
          "name": "tokenWeightOut",
          "type": "uint256"
        },
        {
          "internalType": "uint256",
          "name": "swapFee",
          "type": "uint256"
        }
      ],
      "name": "calcSpotPrice",
      "outputs": [
        {
          "internalType": "uint256",
          "name": "spotPrice",
          "type": "uint256"
        }
      ],
      "stateMutability": "pure",
      "type": "function"
    },
    {
      "inputs": [],
      "name": "decimals",
      "outputs": [
        {
          "internalType": "uint8",
          "name": "",
          "type": "uint8"
        }
      ],
      "stateMutability": "view",
      "type": "function"
    },
    {
      "inputs": [
        {
          "internalType": "address",
          "name": "dst",
          "type": "address"
        },
        {
          "internalType": "uint256",
          "name": "amt",
          "type": "uint256"
        }
      ],
      "name": "decreaseApproval",
      "outputs": [
        {
          "internalType": "bool",
          "name": "",
          "type": "bool"
        }
      ],
      "stateMutability": "nonpayable",
      "type": "function"
    },
    {
      "inputs": [
        {
          "internalType": "address",
          "name": "_target",
          "type": "address"
        },
        {
          "internalType": "uint256",
          "name": "_value",
          "type": "uint256"
        },
        {
          "internalType": "bytes",
          "name": "_data",
          "type": "bytes"
        }
      ],
      "name": "execute",
      "outputs": [
        {
          "internalType": "bytes",
          "name": "_returnValue",
          "type": "bytes"
        }
      ],
      "stateMutability": "nonpayable",
      "type": "function"
    },
    {
      "inputs": [
        {
          "internalType": "uint256",
          "name": "poolAmountIn",
          "type": "uint256"
        },
        {
          "internalType": "uint256[]",
          "name": "minAmountsOut",
          "type": "uint256[]"
        }
      ],
      "name": "exitPool",
      "outputs": [],
      "stateMutability": "nonpayable",
      "type": "function"
    },
    {
      "inputs": [],
      "name": "finalize",
      "outputs": [],
      "stateMutability": "nonpayable",
      "type": "function"
    },
    {
      "inputs": [
        {
          "internalType": "address",
          "name": "token",
          "type": "address"
        }
      ],
      "name": "getBalance",
      "outputs": [
        {
          "internalType": "uint256",
          "name": "",
          "type": "uint256"
        }
      ],
      "stateMutability": "view",
      "type": "function"
    },
    {
      "inputs": [],
      "name": "getColor",
      "outputs": [
        {
          "internalType": "bytes32",
          "name": "",
          "type": "bytes32"
        }
      ],
      "stateMutability": "pure",
      "type": "function"
    },
    {
      "inputs": [],
      "name": "getController",
      "outputs": [
        {
          "internalType": "address",
          "name": "",
          "type": "address"
        }
      ],
      "stateMutability": "view",
      "type": "function"
    },
    {
      "inputs": [],
      "name": "getCurrentTokens",
      "outputs": [
        {
          "internalType": "address[]",
          "name": "tokens",
          "type": "address[]"
        }
      ],
      "stateMutability": "view",
      "type": "function"
    },
    {
      "inputs": [
        {
          "internalType": "address",
          "name": "token",
          "type": "address"
        }
      ],
      "name": "getDenormalizedWeight",
      "outputs": [
        {
          "internalType": "uint256",
          "name": "",
          "type": "uint256"
        }
      ],
      "stateMutability": "view",
      "type": "function"
    },
    {
      "inputs": [],
      "name": "getFinalTokens",
      "outputs": [
        {
          "internalType": "address[]",
          "name": "tokens",
          "type": "address[]"
        }
      ],
      "stateMutability": "view",
      "type": "function"
    },
    {
      "inputs": [
        {
          "internalType": "address",
          "name": "token",
          "type": "address"
        }
      ],
      "name": "getNormalizedWeight",
      "outputs": [
        {
          "internalType": "uint256",
          "name": "",
          "type": "uint256"
        }
      ],
      "stateMutability": "nonpayable",
      "type": "function"
    },
    {
      "inputs": [],
      "name": "getNumTokens",
      "outputs": [
        {
          "internalType": "uint256",
          "name": "",
          "type": "uint256"
        }
      ],
      "stateMutability": "view",
      "type": "function"
    },
    {
      "inputs": [],
      "name": "getTotalDenormalizedWeight",
      "outputs": [
        {
          "internalType": "uint256",
          "name": "",
          "type": "uint256"
        }
      ],
      "stateMutability": "view",
      "type": "function"
    },
    {
      "inputs": [
        {
          "internalType": "address",
          "name": "token",
          "type": "address"
        }
      ],
      "name": "gulp",
      "outputs": [],
      "stateMutability": "nonpayable",
      "type": "function"
    },
    {
      "inputs": [
        {
          "internalType": "address",
          "name": "dst",
          "type": "address"
        },
        {
          "internalType": "uint256",
          "name": "amt",
          "type": "uint256"
        }
      ],
      "name": "increaseApproval",
      "outputs": [
        {
          "internalType": "bool",
          "name": "",
          "type": "bool"
        }
      ],
      "stateMutability": "nonpayable",
      "type": "function"
    },
    {
      "inputs": [
        {
          "internalType": "address",
          "name": "t",
          "type": "address"
        }
      ],
      "name": "isBound",
      "outputs": [
        {
          "internalType": "bool",
          "name": "",
          "type": "bool"
        }
      ],
      "stateMutability": "view",
      "type": "function"
    },
    {
      "inputs": [],
      "name": "isFinalized",
      "outputs": [
        {
          "internalType": "bool",
          "name": "",
          "type": "bool"
        }
      ],
      "stateMutability": "view",
      "type": "function"
    },
    {
      "inputs": [],
      "name": "isPublicSwap",
      "outputs": [
        {
          "internalType": "bool",
          "name": "",
          "type": "bool"
        }
      ],
      "stateMutability": "view",
      "type": "function"
    },
    {
      "inputs": [
        {
          "internalType": "uint256",
          "name": "poolAmountOut",
          "type": "uint256"
        },
        {
          "internalType": "uint256[]",
          "name": "maxAmountsIn",
          "type": "uint256[]"
        }
      ],
      "name": "joinPool",
      "outputs": [],
      "stateMutability": "nonpayable",
      "type": "function"
    },
    {
      "inputs": [],
      "name": "name",
      "outputs": [
        {
          "internalType": "string",
          "name": "",
          "type": "string"
        }
      ],
      "stateMutability": "view",
      "type": "function"
    },
    {
      "inputs": [
        {
          "internalType": "address",
          "name": "token",
          "type": "address"
        },
        {
          "internalType": "uint256",
          "name": "balance",
          "type": "uint256"
        },
        {
          "internalType": "uint256",
          "name": "denorm",
          "type": "uint256"
        }
      ],
      "name": "rebind",
      "outputs": [],
      "stateMutability": "nonpayable",
      "type": "function"
    },
    {
      "inputs": [
        {
          "internalType": "address",
          "name": "token",
          "type": "address"
        },
        {
          "internalType": "uint256",
          "name": "balance",
          "type": "uint256"
        },
        {
          "internalType": "uint256",
          "name": "denorm",
          "type": "uint256"
        },
        {
          "internalType": "bool",
          "name": "isBound",
          "type": "bool"
        }
      ],
      "name": "rebindPure",
      "outputs": [],
      "stateMutability": "nonpayable",
      "type": "function"
    },
    {
      "inputs": [
        {
          "internalType": "address",
          "name": "manager",
          "type": "address"
        }
      ],
      "name": "setController",
      "outputs": [],
      "stateMutability": "nonpayable",
      "type": "function"
    },
    {
      "inputs": [
        {
          "internalType": "bool",
          "name": "public_",
          "type": "bool"
        }
      ],
      "name": "setPublicSwap",
      "outputs": [],
      "stateMutability": "nonpayable",
      "type": "function"
    },
    {
      "inputs": [],
      "name": "symbol",
      "outputs": [
        {
          "internalType": "string",
          "name": "",
          "type": "string"
        }
      ],
      "stateMutability": "view",
      "type": "function"
    },
    {
      "inputs": [],
      "name": "totalSupply",
      "outputs": [
        {
          "internalType": "uint256",
          "name": "",
          "type": "uint256"
        }
      ],
      "stateMutability": "view",
      "type": "function"
    },
    {
      "inputs": [
        {
          "internalType": "address",
          "name": "dst",
          "type": "address"
        },
        {
          "internalType": "uint256",
          "name": "amt",
          "type": "uint256"
        }
      ],
      "name": "transfer",
      "outputs": [
        {
          "internalType": "bool",
          "name": "",
          "type": "bool"
        }
      ],
      "stateMutability": "nonpayable",
      "type": "function"
    },
    {
      "inputs": [
        {
          "internalType": "address",
          "name": "src",
          "type": "address"
        },
        {
          "internalType": "address",
          "name": "dst",
          "type": "address"
        },
        {
          "internalType": "uint256",
          "name": "amt",
          "type": "uint256"
        }
      ],
      "name": "transferFrom",
      "outputs": [
        {
          "internalType": "bool",
          "name": "",
          "type": "bool"
        }
      ],
      "stateMutability": "nonpayable",
      "type": "function"
    },
    {
      "inputs": [
        {
          "internalType": "address",
          "name": "token",
          "type": "address"
        }
      ],
      "name": "unbind",
      "outputs": [],
      "stateMutability": "nonpayable",
      "type": "function"
    },
    {
      "inputs": [
        {
          "internalType": "address",
          "name": "token",
          "type": "address"
        }
      ],
      "name": "unbindPure",
      "outputs": [],
      "stateMutability": "nonpayable",
      "type": "function"
    },
    {
      "stateMutability": "payable",
      "type": "receive"
    }
  ],
  "bytecode": "0x60c0604052601060808190526f2232b9bcb7102837b7b6102a37b5b2b760811b60a0908152620000339160039190620000bb565b506040805180820190915260038082526211141560ea1b60209092019182526200006091600491620000bb565b506005805460ff191660121790553480156200007b57600080fd5b50600680546005805462010000600160b01b03191633620100008102919091179091556001600160a01b03199091161761ffff60a01b1916905562000157565b828054600181600116156101000203166002900490600052602060002090601f016020900481019282601f10620000fe57805160ff19168380011785556200012e565b828001600101855582156200012e579182015b828111156200012e57825182559160200191906001019062000111565b506200013c92915062000140565b5090565b5b808211156200013c576000815560010162000141565b61490e80620001676000396000f3fe6080604052600436106102a55760003560e01c806395d89b411161016157806395d89b4114610899578063992e2a92146108ae5780639a86139b146108c3578063a221ee49146108d8578063a61e44f51461091a578063a9059cbb1461094d578063b02f0b7314610986578063b0e0d13614610a08578063b61d27f614610a1d578063b7b800a414610aad578063ba019dab14610aad578063ba9530a614610ac2578063bc063e1a14610b0a578063bc694ea214610b1f578063be3bbd2e14610b34578063c36596a6146103d9578063c6580d1214610764578063cc77828d14610b99578063cd2ed8fb14610bae578063cf5e7bd314610bc3578063d73dd62314610bf6578063dd62ed3e14610c2f578063e4a28a5214610388578063e4e1e53814610c6a578063ec09302114610ca9578063f1b8a9b714610cbe578063f8b2cb4f14610cf1578063f8d6aed414610d24578063fde924f714610d6c576102ac565b806306fdde03146102b1578063095ea7b31461033b57806309a3bbe41461038857806318160ddd146103af578063189d00ca146103c4578063218b5382146103d957806323b872dd146103ee5780632f37b624146104315780633018205f14610464578063313ce567146104955780633fdddaa2146104c0578063471832671461050157806349b59552146105485780634bb278f3146105745780634f69c0d4146105895780635c1bbaf71461060b578063661884631461065357806370a082311461068c57806376c7a3c7146106bf57806382f652ad146106d45780638656b6531461071c578063867378c51461076457806389298012146107795780638c28cbe8146107c15780638d4e4083146107f457806392eefe9b14610809578063936c34771461083c5780639381cd2b14610851578063948d8ce614610866576102ac565b366102ac57005b600080fd5b3480156102bd57600080fd5b506102c6610d81565b6040805160208082528351818301528351919283929083019185019080838360005b838110156103005781810151838201526020016102e8565b50505050905090810190601f16801561032d5780820380516001836020036101000a031916815260200191505b509250505060405180910390f35b34801561034757600080fd5b506103746004803603604081101561035e57600080fd5b506001600160a01b038135169060200135610e17565b604080519115158252519081900360200190f35b34801561039457600080fd5b5061039d610e6c565b60408051918252519081900360200190f35b3480156103bb57600080fd5b5061039d610e79565b3480156103d057600080fd5b5061039d610e7f565b3480156103e557600080fd5b5061039d610e93565b3480156103fa57600080fd5b506103746004803603606081101561041157600080fd5b506001600160a01b03813581169160208101359091169060400135610e9f565b34801561043d57600080fd5b506103746004803603602081101561045457600080fd5b50356001600160a01b0316611043565b34801561047057600080fd5b50610479611061565b604080516001600160a01b039092168252519081900360200190f35b3480156104a157600080fd5b506104aa6110bf565b6040805160ff9092168252519081900360200190f35b3480156104cc57600080fd5b506104ff600480360360608110156104e357600080fd5b506001600160a01b0381351690602081013590604001356110c8565b005b34801561050d57600080fd5b506104ff6004803603608081101561052457600080fd5b506001600160a01b0381351690602081013590604081013590606001351515611454565b34801561055457600080fd5b506104ff6004803603602081101561056b57600080fd5b50351515611688565b34801561058057600080fd5b506104ff61180b565b34801561059557600080fd5b506104ff600480360360408110156105ac57600080fd5b81359190810190604081016020820135600160201b8111156105cd57600080fd5b8201836020820111156105df57600080fd5b803590602001918460208302840111600160201b8311171561060057600080fd5b509092509050611a04565b34801561061757600080fd5b5061039d600480360360c081101561062e57600080fd5b5080359060208101359060408101359060608101359060808101359060a00135611d61565b34801561065f57600080fd5b506103746004803603604081101561067657600080fd5b506001600160a01b038135169060200135611e19565b34801561069857600080fd5b5061039d600480360360208110156106af57600080fd5b50356001600160a01b0316611ef1565b3480156106cb57600080fd5b5061039d611f0c565b3480156106e057600080fd5b5061039d600480360360c08110156106f757600080fd5b5080359060208101359060408101359060608101359060808101359060a00135611f1e565b34801561072857600080fd5b5061039d600480360360c081101561073f57600080fd5b5080359060208101359060408101359060608101359060808101359060a00135611fdd565b34801561077057600080fd5b5061039d61207e565b34801561078557600080fd5b5061039d600480360360c081101561079c57600080fd5b5080359060208101359060408101359060608101359060808101359060a00135612083565b3480156107cd57600080fd5b506104ff600480360360208110156107e457600080fd5b50356001600160a01b0316612133565b34801561080057600080fd5b506103746122e7565b34801561081557600080fd5b506104ff6004803603602081101561082c57600080fd5b50356001600160a01b03166122f7565b34801561084857600080fd5b5061039d61247c565b34801561085d57600080fd5b5061039d6124d1565b34801561087257600080fd5b5061039d6004803603602081101561088957600080fd5b50356001600160a01b03166124de565b3480156108a557600080fd5b506102c661254b565b3480156108ba57600080fd5b5061039d6125ac565b3480156108cf57600080fd5b5061039d6125b8565b3480156108e457600080fd5b5061039d600480360360a08110156108fb57600080fd5b50803590602081013590604081013590606081013590608001356125c5565b34801561092657600080fd5b506104ff6004803603602081101561093d57600080fd5b50356001600160a01b031661262a565b34801561095957600080fd5b506103746004803603604081101561097057600080fd5b506001600160a01b03813516906020013561293e565b34801561099257600080fd5b506104ff600480360360408110156109a957600080fd5b81359190810190604081016020820135600160201b8111156109ca57600080fd5b8201836020820111156109dc57600080fd5b803590602001918460208302840111600160201b831117156109fd57600080fd5b5090925090506129a1565b348015610a1457600080fd5b5061039d612cfe565b348015610a2957600080fd5b506102c660048036036060811015610a4057600080fd5b6001600160a01b0382351691602081013591810190606081016040820135600160201b811115610a6f57600080fd5b820183602082011115610a8157600080fd5b803590602001918460018302840111600160201b83111715610aa257600080fd5b509092509050612d03565b348015610ab957600080fd5b5061039d612ec0565b348015610ace57600080fd5b5061039d600480360360c0811015610ae557600080fd5b5080359060208101359060408101359060608101359060808101359060a00135612ec5565b348015610b1657600080fd5b5061039d612f46565b348015610b2b57600080fd5b5061039d612f56565b348015610b4057600080fd5b50610b49612f62565b60408051602080825283518183015283519192839290830191858101910280838360005b83811015610b85578181015183820152602001610b6d565b505050509050019250505060405180910390f35b348015610ba557600080fd5b50610b49613061565b348015610bba57600080fd5b5061039d6130af565b348015610bcf57600080fd5b506104ff60048036036020811015610be657600080fd5b50356001600160a01b03166130b5565b348015610c0257600080fd5b5061037460048036036040811015610c1957600080fd5b506001600160a01b0381351690602001356133f4565b348015610c3b57600080fd5b5061039d60048036036040811015610c5257600080fd5b506001600160a01b0381358116916020013516613475565b348015610c7657600080fd5b506104ff60048036036060811015610c8d57600080fd5b506001600160a01b0381351690602081013590604001356134a0565b348015610cb557600080fd5b5061039d6136f7565b348015610cca57600080fd5b5061039d60048036036020811015610ce157600080fd5b50356001600160a01b0316613707565b348015610cfd57600080fd5b5061039d60048036036020811015610d1457600080fd5b50356001600160a01b0316613a86565b348015610d3057600080fd5b5061039d600480360360c0811015610d4757600080fd5b5080359060208101359060408101359060608101359060808101359060a00135613af3565b348015610d7857600080fd5b50610374613b76565b60038054604080516020601f6002600019610100600188161502019095169490940493840181900481028201810190925282815260609390929091830182828015610e0d5780601f10610de257610100808354040283529160200191610e0d565b820191906000526020600020905b815481529060010190602001808311610df057829003601f168201915b5050505050905090565b3360008181526001602090815260408083206001600160a01b0387168085529083528184208690558151868152915193949093909260008051602061488f833981519152928290030190a35060015b92915050565b6802b5e3af16b188000081565b60025490565b6402540be400670de0b6b3a76400005b0481565b670de0b6b3a764000081565b60006001600160a01b038316610eee576040805162461bcd60e51b815260206004820152600f60248201526e22a9292fa120a22fa922a1a4ab22a960891b604482015290519081900360640190fd5b336001600160a01b0385161480610f2857506001600160a01b03841660009081526001602090815260408083203384529091529020548211155b610f72576040805162461bcd60e51b815260206004820152601660248201527522a9292fa6282a27a5a2a72fa120a22fa1a0a62622a960511b604482015290519081900360640190fd5b610f7d848484613b86565b336001600160a01b03851614801590610fbb57506001600160a01b038416600090815260016020908152604080832033845290915290205460001914155b15611039576001600160a01b0384166000908152600160209081526040808320338452909152902054610fee9083613c84565b6001600160a01b03851660008181526001602090815260408083203380855290835292819020859055805194855251919360008051602061488f833981519152929081900390910190a35b5060019392505050565b6001600160a01b031660009081526008602052604090205460ff1690565b600554600090610100900460ff16156110af576040805162461bcd60e51b815260206004820152600b60248201526a4552525f5245454e54525960a81b604482015290519081900360640190fd5b506006546001600160a01b031690565b60055460ff1690565b336001600160a01b03166000356001600160e01b0319166001600160e01b03191660003660405180806020018281038252848482818152602001925080828437600083820152604051601f909101601f19169092018290039550909350505050a2600554610100900460ff1615611174576040805162461bcd60e51b815260206004820152600b60248201526a4552525f5245454e54525960a81b604482015290519081900360640190fd5b6005805461ff001916610100179055600654336001600160a01b03909116146111d2576040805162461bcd60e51b81526020600482015260126024820152600080516020614826833981519152604482015290519081900360640190fd5b6001600160a01b03831660009081526008602052604090205460ff1661122f576040805162461bcd60e51b815260206004820152600d60248201526c11549497d393d517d093d55391609a1b604482015290519081900360640190fd5b600654600160a81b900460ff1615611281576040805162461bcd60e51b815260206004820152601060248201526f11549497d254d7d1925390531256915160821b604482015290519081900360640190fd5b670de0b6b3a76400008110156112cf576040805162461bcd60e51b815260206004820152600e60248201526d11549497d3525397d5d15251d21560921b604482015290519081900360640190fd5b6802b5e3af16b188000081111561131e576040805162461bcd60e51b815260206004820152600e60248201526d11549497d3505617d5d15251d21560921b604482015290519081900360640190fd5b6001600160a01b038316600090815260086020526040902060020154808211156113b5576113576009546113528484613c84565b613ce6565b60098190556802b5e3af16b188000010156113b0576040805162461bcd60e51b815260206004820152601460248201527311549497d3505617d513d5105317d5d15251d21560621b604482015290519081900360640190fd5b6113d6565b808210156113d6576113d26009546113cd8385613c84565b613c84565b6009555b6001600160a01b0384166000908152600860205260409020600281018390556003018054908490558084111561141f5761141a85336114158785613c84565b613d3a565b611442565b808410156114425760006114338286613c84565b9050611440863383613d4f565b505b50506005805461ff0019169055505050565b336001600160a01b03166000356001600160e01b0319166001600160e01b03191660003660405180806020018281038252848482818152602001925080828437600083820152604051601f909101601f19169092018290039550909350505050a2600554610100900460ff1615611500576040805162461bcd60e51b815260206004820152600b60248201526a4552525f5245454e54525960a81b604482015290519081900360640190fd5b6005805461ff001916610100179055600654336001600160a01b039091161461155e576040805162461bcd60e51b81526020600482015260126024820152600080516020614826833981519152604482015290519081900360640190fd5b80611651576007546010116115ab576040805162461bcd60e51b815260206004820152600e60248201526d4552525f4d41585f544f4b454e5360901b604482015290519081900360640190fd5b604080516080810182526001808252600780546020808501918252848601888152606086018a81526001600160a01b038c16600081815260089094529783209651875460ff19169015151787559251868601555160028601559051600390940193909355805491820181559091527fa66cc928b5edb82af9bd49922954155ab7b0942694bea4ce44661d9a8736c6880180546001600160a01b0319169091179055611677565b6001600160a01b0384166000908152600860205260409020600281018390556003018390555b50506005805461ff00191690555050565b336001600160a01b03166000356001600160e01b0319166001600160e01b03191660003660405180806020018281038252848482818152602001925080828437600083820152604051601f909101601f19169092018290039550909350505050a2600554610100900460ff1615611734576040805162461bcd60e51b815260206004820152600b60248201526a4552525f5245454e54525960a81b604482015290519081900360640190fd5b6005805461ff001916610100179055600654600160a81b900460ff1615611795576040805162461bcd60e51b815260206004820152601060248201526f11549497d254d7d1925390531256915160821b604482015290519081900360640190fd5b6006546001600160a01b031633146117e2576040805162461bcd60e51b81526020600482015260126024820152600080516020614826833981519152604482015290519081900360640190fd5b60068054911515600160a01b0260ff60a01b199092169190911790556005805461ff0019169055565b336001600160a01b03166000356001600160e01b0319166001600160e01b03191660003660405180806020018281038252848482818152602001925080828437600083820152604051601f909101601f19169092018290039550909350505050a2600554610100900460ff16156118b7576040805162461bcd60e51b815260206004820152600b60248201526a4552525f5245454e54525960a81b604482015290519081900360640190fd5b6005805461ff001916610100179055600654336001600160a01b0390911614611915576040805162461bcd60e51b81526020600482015260126024820152600080516020614826833981519152604482015290519081900360640190fd5b600654600160a81b900460ff1615611967576040805162461bcd60e51b815260206004820152601060248201526f11549497d254d7d1925390531256915160821b604482015290519081900360640190fd5b600754600111156119b0576040805162461bcd60e51b815260206004820152600e60248201526d4552525f4d494e5f544f4b454e5360901b604482015290519081900360640190fd5b6006805460ff60a01b1960ff60a81b19909116600160a81b1716600160a01b1790556119e468056bc75e2d63100000613d63565b6119f73368056bc75e2d63100000613d6f565b6005805461ff0019169055565b336001600160a01b03166000356001600160e01b0319166001600160e01b03191660003660405180806020018281038252848482818152602001925080828437600083820152604051601f909101601f19169092018290039550909350505050a2600554610100900460ff1615611ab0576040805162461bcd60e51b815260206004820152600b60248201526a4552525f5245454e54525960a81b604482015290519081900360640190fd5b6005805461ff001916610100179055600654600160a81b900460ff16611b11576040805162461bcd60e51b815260206004820152601160248201527011549497d393d517d19253905312569151607a1b604482015290519081900360640190fd5b6000306001600160a01b03166318160ddd6040518163ffffffff1660e01b815260040160206040518083038186803b158015611b4c57600080fd5b505afa158015611b60573d6000803e3d6000fd5b505050506040513d6020811015611b7657600080fd5b505190506000611b868583613d7d565b905080611bcc576040805162461bcd60e51b815260206004820152600f60248201526e08aa4a4be9a82a890be82a0a0a49eb608b1b604482015290519081900360640190fd5b60005b600754811015611d4d57600060078281548110611be857fe5b60009182526020808320909101546001600160a01b03168083526008909152604082206003015490925090611c1d8583613e90565b905080611c63576040805162461bcd60e51b815260206004820152600f60248201526e08aa4a4be9a82a890be82a0a0a49eb608b1b604482015290519081900360640190fd5b878785818110611c6f57fe5b90506020020135811115611cb9576040805162461bcd60e51b815260206004820152600c60248201526b22a9292fa624a6a4aa2fa4a760a11b604482015290519081900360640190fd5b6001600160a01b038316600090815260086020526040902060030154611cdf9082613ce6565b6001600160a01b0384166000818152600860209081526040918290206003019390935580518481529051919233927f63982df10efd8dfaaaa0fcc7f50b2d93b7cba26ccc48adee2873220d485dc39a9281900390910190a3611d42833383613d3a565b505050600101611bcf565b50611d5785613d63565b6114423386613d6f565b600080611d6e8786613d7d565b90506000611d7c8786613ce6565b90506000611d8a8289613d7d565b90506000611da0670de0b6b3a764000085613d7d565b90506000611dae8383613f52565b90506000611dbc828e613e90565b90506000611dca828f613c84565b90506000611de9611de3670de0b6b3a76400008a613c84565b8b613e90565b9050611e0682611e01670de0b6b3a764000084613c84565b613d7d565b9f9e505050505050505050505050505050565b3360009081526001602090815260408083206001600160a01b038616845290915281205480831115611e6e573360009081526001602090815260408083206001600160a01b0388168452909152812055611e9d565b611e788184613c84565b3360009081526001602090815260408083206001600160a01b03891684529091529020555b3360008181526001602090815260408083206001600160a01b03891680855290835292819020548151908152905192939260008051602061488f833981519152929181900390910190a35060019392505050565b6001600160a01b031660009081526020819052604090205490565b620f4240670de0b6b3a7640000610e8f565b600080611f2b8786613d7d565b90506000611f41670de0b6b3a764000083613c84565b90506000611f4f8286613e90565b90506000611f6987611e01670de0b6b3a764000085613c84565b90506000611f778c83613c84565b90506000611f85828e613d7d565b90506000611f938288613f52565b90506000611fa1828e613e90565b90506000611faf8e83613c84565b9050611fc881611e01670de0b6b3a76400006000613c84565b99505050505050505050509695505050505050565b600080611fea8786613d7d565b90506000612009612003670de0b6b3a764000084613c84565b85613e90565b9050600061202886612023670de0b6b3a764000085613c84565b613e90565b905060006120368b83613ce6565b90506000612044828d613d7d565b905060006120528287613f52565b90506000612060828d613e90565b905061206c818d613c84565b9e9d5050505050505050505050505050565b600081565b6000806120908786613d7d565b905060006120ab85612023670de0b6b3a76400006000613c84565b905060006120b98883613c84565b905060006120c7828a613d7d565b905060006120e6826120e1670de0b6b3a764000088613d7d565b613f52565b905060006120f4828e613e90565b905060006121028e83613c84565b9050600061211b611de3670de0b6b3a76400008a613c84565b9050611e0682612023670de0b6b3a764000084613c84565b336001600160a01b03166000356001600160e01b0319166001600160e01b03191660003660405180806020018281038252848482818152602001925080828437600083820152604051601f909101601f19169092018290039550909350505050a2600554610100900460ff16156121df576040805162461bcd60e51b815260206004820152600b60248201526a4552525f5245454e54525960a81b604482015290519081900360640190fd5b6005805461ff0019166101001790556001600160a01b03811660009081526008602052604090205460ff1661224b576040805162461bcd60e51b815260206004820152600d60248201526c11549497d393d517d093d55391609a1b604482015290519081900360640190fd5b604080516370a0823160e01b815230600482015290516001600160a01b038316916370a08231916024808301926020929190829003018186803b15801561229157600080fd5b505afa1580156122a5573d6000803e3d6000fd5b505050506040513d60208110156122bb57600080fd5b50516001600160a01b039091166000908152600860205260409020600301556005805461ff0019169055565b600654600160a81b900460ff1690565b336001600160a01b03166000356001600160e01b0319166001600160e01b03191660003660405180806020018281038252848482818152602001925080828437600083820152604051601f909101601f19169092018290039550909350505050a2600554610100900460ff16156123a3576040805162461bcd60e51b815260206004820152600b60248201526a4552525f5245454e54525960a81b604482015290519081900360640190fd5b6005805461ff001916610100179055600654336001600160a01b0390911614612401576040805162461bcd60e51b81526020600482015260126024820152600080516020614826833981519152604482015290519081900360640190fd5b6001600160a01b03811661244f576040805162461bcd60e51b815260206004820152601060248201526f4552525f5a45524f5f4144445245535360801b604482015290519081900360640190fd5b600680546001600160a01b0319166001600160a01b03929092169190911790556005805461ff0019169055565b600554600090610100900460ff16156124ca576040805162461bcd60e51b815260206004820152600b60248201526a4552525f5245454e54525960a81b604482015290519081900360640190fd5b5060095490565b68056bc75e2d6310000081565b600554600090610100900460ff161561252c576040805162461bcd60e51b815260206004820152600b60248201526a4552525f5245454e54525960a81b604482015290519081900360640190fd5b506001600160a01b031660009081526008602052604090206002015490565b60048054604080516020601f6002600019610100600188161502019095169490940493840181900481028201810190925282815260609390929091830182828015610e0d5780601f10610de257610100808354040283529160200191610e0d565b6704a03ce68d21555681565b6542524f4e5a4560d01b90565b6000806125d28787613d7d565b905060006125e08686613d7d565b905060006125ee8383613d7d565b90506000612610670de0b6b3a7640000611e01670de0b6b3a764000089613c84565b905061261c8282613e90565b9a9950505050505050505050565b336001600160a01b03166000356001600160e01b0319166001600160e01b03191660003660405180806020018281038252848482818152602001925080828437600083820152604051601f909101601f19169092018290039550909350505050a2600554610100900460ff16156126d6576040805162461bcd60e51b815260206004820152600b60248201526a4552525f5245454e54525960a81b604482015290519081900360640190fd5b6005805461ff001916610100179055600654336001600160a01b0390911614612734576040805162461bcd60e51b81526020600482015260126024820152600080516020614826833981519152604482015290519081900360640190fd5b6001600160a01b03811660009081526008602052604090205460ff16612791576040805162461bcd60e51b815260206004820152600d60248201526c11549497d393d517d093d55391609a1b604482015290519081900360640190fd5b600654600160a81b900460ff16156127e3576040805162461bcd60e51b815260206004820152601060248201526f11549497d254d7d1925390531256915160821b604482015290519081900360640190fd5b6001600160a01b03811660009081526008602052604090206001015460078054600019810191908290811061281457fe5b600091825260209091200154600780546001600160a01b03909216918490811061283a57fe5b9060005260206000200160006101000a8154816001600160a01b0302191690836001600160a01b0316021790555081600860006007858154811061287a57fe5b60009182526020808320909101546001600160a01b0316835282019290925260400190206001015560078054806128ad57fe5b60008281526020808220600019908401810180546001600160a01b031916905590920190925560408051608081018252838152808301848152818301858152606083018681526001600160a01b039990991686526008909452919093209251835460ff1916901515178355516001830155516002820155925160039093019290925550506005805461ff0019169055565b60006001600160a01b03831661298d576040805162461bcd60e51b815260206004820152600f60248201526e22a9292fa120a22fa922a1a4ab22a960891b604482015290519081900360640190fd5b612998338484613b86565b50600192915050565b336001600160a01b03166000356001600160e01b0319166001600160e01b03191660003660405180806020018281038252848482818152602001925080828437600083820152604051601f909101601f19169092018290039550909350505050a2600554610100900460ff1615612a4d576040805162461bcd60e51b815260206004820152600b60248201526a4552525f5245454e54525960a81b604482015290519081900360640190fd5b6005805461ff001916610100179055600654600160a81b900460ff16612aae576040805162461bcd60e51b815260206004820152601160248201527011549497d393d517d19253905312569151607a1b604482015290519081900360640190fd5b6000306001600160a01b03166318160ddd6040518163ffffffff1660e01b815260040160206040518083038186803b158015612ae957600080fd5b505afa158015612afd573d6000803e3d6000fd5b505050506040513d6020811015612b1357600080fd5b505190506000612b238583613d7d565b905080612b69576040805162461bcd60e51b815260206004820152600f60248201526e08aa4a4be9a82a890be82a0a0a49eb608b1b604482015290519081900360640190fd5b612b733386614060565b612b7c8561406a565b60005b60075481101561144057600060078281548110612b9857fe5b60009182526020808320909101546001600160a01b03168083526008909152604082206003015490925090612bcd8583613e90565b905080612c13576040805162461bcd60e51b815260206004820152600f60248201526e08aa4a4be9a82a890be82a0a0a49eb608b1b604482015290519081900360640190fd5b878785818110612c1f57fe5b90506020020135811015612c6a576040805162461bcd60e51b815260206004820152600d60248201526c11549497d31253525517d3d555609a1b604482015290519081900360640190fd5b6001600160a01b038316600090815260086020526040902060030154612c909082613c84565b6001600160a01b0384166000818152600860209081526040918290206003019390935580518481529051919233927fe74c91552b64c2e2e7bd255639e004e693bd3e1d01cc33e65610b86afcc1ffed9281900390910190a3612cf3833383613d4f565b505050600101612b7f565b601081565b6060336001600160a01b03166000356001600160e01b0319166001600160e01b03191660003660405180806020018281038252848482818152602001925080828437600083820152604051601f909101601f19169092018290039550909350505050a2600554610100900460ff1615612db1576040805162461bcd60e51b815260206004820152600b60248201526a4552525f5245454e54525960a81b604482015290519081900360640190fd5b6005805461ff001916610100179055600654336001600160a01b0390911614612e0f576040805162461bcd60e51b81526020600482015260126024820152600080516020614826833981519152604482015290519081900360640190fd5b600654600160a81b900460ff1615612e61576040805162461bcd60e51b815260206004820152601060248201526f11549497d254d7d1925390531256915160821b604482015290519081900360640190fd5b612eac83838080601f01602080910402602001604051908101604052809392919081815260200183838082843760009201919091525050506001600160a01b03881691905086614073565b6005805461ff001916905595945050505050565b600181565b600080612ed28786613d7d565b90506000612ee8670de0b6b3a764000085613c84565b9050612ef48582613e90565b90506000612f068a611e018c85613ce6565b90506000612f148285613f52565b90506000612f2a670de0b6b3a764000083613c84565b9050612f368a82613e90565b9c9b505050505050505050505050565b600a670de0b6b3a7640000610e8f565b671bc16d674ec7ffff81565b600554606090610100900460ff1615612fb0576040805162461bcd60e51b815260206004820152600b60248201526a4552525f5245454e54525960a81b604482015290519081900360640190fd5b600654600160a81b900460ff16613002576040805162461bcd60e51b815260206004820152601160248201527011549497d393d517d19253905312569151607a1b604482015290519081900360640190fd5b6007805480602002602001604051908101604052809291908181526020018280548015610e0d57602002820191906000526020600020905b81546001600160a01b0316815260019091019060200180831161303a575050505050905090565b600554606090610100900460ff1615613002576040805162461bcd60e51b815260206004820152600b60248201526a4552525f5245454e54525960a81b604482015290519081900360640190fd5b60075490565b336001600160a01b03166000356001600160e01b0319166001600160e01b03191660003660405180806020018281038252848482818152602001925080828437600083820152604051601f909101601f19169092018290039550909350505050a2600554610100900460ff1615613161576040805162461bcd60e51b815260206004820152600b60248201526a4552525f5245454e54525960a81b604482015290519081900360640190fd5b6005805461ff001916610100179055600654336001600160a01b03909116146131bf576040805162461bcd60e51b81526020600482015260126024820152600080516020614826833981519152604482015290519081900360640190fd5b6001600160a01b03811660009081526008602052604090205460ff1661321c576040805162461bcd60e51b815260206004820152600d60248201526c11549497d393d517d093d55391609a1b604482015290519081900360640190fd5b600654600160a81b900460ff161561326e576040805162461bcd60e51b815260206004820152601060248201526f11549497d254d7d1925390531256915160821b604482015290519081900360640190fd5b6001600160a01b03811660009081526008602052604090206003810154600954600290920154909161329f91613c84565b6009556001600160a01b0382166000908152600860205260409020600101546007805460001981019190829081106132d357fe5b600091825260209091200154600780546001600160a01b0390921691849081106132f957fe5b9060005260206000200160006101000a8154816001600160a01b0302191690836001600160a01b0316021790555081600860006007858154811061333957fe5b60009182526020808320909101546001600160a01b03168352820192909252604001902060010155600780548061336c57fe5b60008281526020808220600019908401810180546001600160a01b031916905590920190925560408051608081018252838152808301848152818301858152606083018681526001600160a01b038b1687526008909552929094209051815460ff19169015151781559251600184015551600283015551600390910155611677843385613d4f565b3360009081526001602090815260408083206001600160a01b03861684529091528120546134229083613ce6565b3360008181526001602090815260408083206001600160a01b03891680855290835292819020859055805194855251919360008051602061488f833981519152929081900390910190a350600192915050565b6001600160a01b03918216600090815260016020908152604080832093909416825291909152205490565b336001600160a01b03166000356001600160e01b0319166001600160e01b03191660003660405180806020018281038252848482818152602001925080828437600083820152604051601f909101601f19169092018290039550909350505050a26006546001600160a01b0316331461354e576040805162461bcd60e51b81526020600482015260126024820152600080516020614826833981519152604482015290519081900360640190fd5b6001600160a01b03831660009081526008602052604090205460ff16156135ab576040805162461bcd60e51b815260206004820152600c60248201526b11549497d254d7d093d5539160a21b604482015290519081900360640190fd5b600654600160a81b900460ff16156135fd576040805162461bcd60e51b815260206004820152601060248201526f11549497d254d7d1925390531256915160821b604482015290519081900360640190fd5b600754601011613645576040805162461bcd60e51b815260206004820152600e60248201526d4552525f4d41585f544f4b454e5360901b604482015290519081900360640190fd5b6040805160808101825260018082526007805460208085019182526000858701818152606087018281526001600160a01b038c1680845260089094529782209651875460ff1916901515178755925186860155915160028601559451600390940193909355805491820181559091527fa66cc928b5edb82af9bd49922954155ab7b0942694bea4ce44661d9a8736c6880180546001600160a01b03191690911790556136f28383836110c8565b505050565b6002670de0b6b3a7640000610e8f565b600554600090610100900460ff1615613755576040805162461bcd60e51b815260206004820152600b60248201526a4552525f5245454e54525960a81b604482015290519081900360640190fd5b6001600160a01b03821660009081526008602052604090205460ff166137b2576040805162461bcd60e51b815260206004820152600d60248201526c11549497d393d517d093d55391609a1b604482015290519081900360640190fd5b6000600560029054906101000a90046001600160a01b03166001600160a01b031663b18b78dd6040518163ffffffff1660e01b815260040160206040518083038186803b15801561380257600080fd5b505afa158015613816573d6000803e3d6000fd5b505050506040513d602081101561382c57600080fd5b50516001600160a01b0380851660008181526008602090815260408083206002015481516341976e0960e01b8152600481019590955290519596509491938616926341976e09926024808301939282900301818787803b15801561388f57600080fd5b505af11580156138a3573d6000803e3d6000fd5b505050506040513d60208110156138b957600080fd5b505160075490915060609067ffffffffffffffff811180156138da57600080fd5b50604051908082528060200260200182016040528015613904578160200160208202803683370190505b50905060005b60075481101561395d5761393e6007828154811061392457fe5b6000918252602090912001546001600160a01b0316613a86565b82828151811061394a57fe5b602090810291909101015260010161390a565b506000846001600160a01b031663422b66f46007846040518363ffffffff1660e01b815260040180806020018060200183810383528581815481526020019150805480156139d457602002820191906000526020600020905b81546001600160a01b031681526001909101906020018083116139b6575b50508381038252845181528451602091820191808701910280838360005b83811015613a0a5781810151838201526020016139f2565b50505050905001945050505050602060405180830381600087803b158015613a3157600080fd5b505af1158015613a45573d6000803e3d6000fd5b505050506040513d6020811015613a5b57600080fd5b505190506000613a6e846120238a613a86565b9050613a7a8183613d7d565b98975050505050505050565b600554600090610100900460ff1615613ad4576040805162461bcd60e51b815260206004820152600b60248201526a4552525f5245454e54525960a81b604482015290519081900360640190fd5b506001600160a01b031660009081526008602052604090206003015490565b600080613b008588613d7d565b90506000613b0e8786613c84565b90506000613b1c8883613d7d565b90506000613b2a8285613f52565b9050613b3e81670de0b6b3a7640000613c84565b9050613b52670de0b6b3a764000087613c84565b9450613b67613b618c83613e90565b86613d7d565b9b9a5050505050505050505050565b600654600160a01b900460ff1690565b6001600160a01b038316600090815260208190526040902054811115613bea576040805162461bcd60e51b815260206004820152601460248201527311549497d25394d551919250d251539517d0905360621b604482015290519081900360640190fd5b6001600160a01b038316600090815260208190526040902054613c0d9082613c84565b6001600160a01b038085166000908152602081905260408082209390935590841681522054613c3c9082613ce6565b6001600160a01b0380841660008181526020818152604091829020949094558051858152905191939287169260008051602061486f83398151915292918290030190a3505050565b6000806000613c9385856140a1565b915091508015613cde576040805162461bcd60e51b81526020600482015260116024820152704552525f5355425f554e444552464c4f5760781b604482015290519081900360640190fd5b509392505050565b600082820183811015613d33576040805162461bcd60e51b815260206004820152601060248201526f4552525f4144445f4f564552464c4f5760801b604482015290519081900360640190fd5b9392505050565b6136f26001600160a01b0384168330846140c6565b6136f26001600160a01b0384168383614126565b613d6c81614178565b50565b613d7982826141db565b5050565b600081613dc0576040805162461bcd60e51b815260206004820152600c60248201526b4552525f4449565f5a45524f60a01b604482015290519081900360640190fd5b670de0b6b3a76400008302831580613de85750670de0b6b3a7640000848281613de557fe5b04145b613e2c576040805162461bcd60e51b815260206004820152601060248201526f11549497d1125597d25395115493905360821b604482015290519081900360640190fd5b60028304810181811015613e7a576040805162461bcd60e51b815260206004820152601060248201526f11549497d1125597d25395115493905360821b604482015290519081900360640190fd5b6000848281613e8557fe5b049695505050505050565b6000828202831580613eaa575082848281613ea757fe5b04145b613eee576040805162461bcd60e51b815260206004820152601060248201526f4552525f4d554c5f4f564552464c4f5760801b604482015290519081900360640190fd5b6706f05b59d3b20000810181811015613f41576040805162461bcd60e51b815260206004820152601060248201526f4552525f4d554c5f4f564552464c4f5760801b604482015290519081900360640190fd5b6000670de0b6b3a764000082613e85565b60006001831015613fa2576040805162461bcd60e51b81526020600482015260156024820152744552525f42504f575f424153455f544f4f5f4c4f5760581b604482015290519081900360640190fd5b671bc16d674ec7ffff831115613ff8576040805162461bcd60e51b815260206004820152601660248201527508aa4a4be84a09eaebe8482a68abea89e9ebe90928e960531b604482015290519081900360640190fd5b6000614003836141e6565b905060006140118483613c84565b905060006140278661402285614201565b61420f565b905081614038579250610e66915050565b600061404987846305f5e100614266565b90506140558282613e90565b979650505050505050565b613d798282614344565b613d6c8161434f565b60606140998484846040518060600160405280602981526020016148466029913961440d565b949350505050565b6000808284106140b757505080820360006140bf565b505081810360015b9250929050565b604080516001600160a01b0380861660248301528416604482015260648082018490528251808303909101815260849091019091526020810180516001600160e01b03166323b872dd60e01b179052614120908590614463565b50505050565b604080516001600160a01b038416602482015260448082018490528251808303909101815260649091019091526020810180516001600160e01b031663a9059cbb60e01b1790526136f2908490614463565b306000908152602081905260409020546141929082613ce6565b306000908152602081905260409020556002546141af9082613ce6565b600255604080518281529051309160009160008051602061486f8339815191529181900360200190a350565b613d79308383613b86565b6000670de0b6b3a76400006141fa83614201565b0292915050565b670de0b6b3a7640000900490565b6000806002830661422857670de0b6b3a764000061422a565b835b90506002830492505b8215613d33576142438485613e90565b9350600283061561425b576142588185613e90565b90505b600283049250614233565b600082818061427d87670de0b6b3a76400006140a1565b9092509050670de0b6b3a764000080600060015b888410614335576000670de0b6b3a7640000820290506000806142c58a6142c085670de0b6b3a7640000613c84565b6140a1565b915091506142d787612023848c613e90565b96506142e38784613d7d565b9650866142f257505050614335565b87156142fc579315935b8015614306579315935b841561431d576143168688613c84565b955061432a565b6143278688613ce6565b95505b505050600101614291565b50909998505050505050505050565b613d79823083613b86565b306000908152602081905260409020548111156143aa576040805162461bcd60e51b815260206004820152601460248201527311549497d25394d551919250d251539517d0905360621b604482015290519081900360640190fd5b306000908152602081905260409020546143c49082613c84565b306000908152602081905260409020556002546143e19082613c84565b600255604080518281529051600091309160008051602061486f8339815191529181900360200190a350565b60608247101561444e5760405162461bcd60e51b81526004018080602001828103825260268152602001806148006026913960400191505060405180910390fd5b61445a8585858561461b565b95945050505050565b614475826001600160a01b03166147c6565b6144c6576040805162461bcd60e51b815260206004820152601f60248201527f5361666545524332303a2063616c6c20746f206e6f6e2d636f6e747261637400604482015290519081900360640190fd5b60006060836001600160a01b0316836040518082805190602001908083835b602083106145045780518252601f1990920191602091820191016144e5565b6001836020036101000a0380198251168184511680821785525050505050509050019150506000604051808303816000865af19150503d8060008114614566576040519150601f19603f3d011682016040523d82523d6000602084013e61456b565b606091505b5091509150816145c2576040805162461bcd60e51b815260206004820181905260248201527f5361666545524332303a206c6f772d6c6576656c2063616c6c206661696c6564604482015290519081900360640190fd5b805115614120578080602001905160208110156145de57600080fd5b50516141205760405162461bcd60e51b815260040180806020018281038252602a8152602001806148af602a913960400191505060405180910390fd5b6060614626856147c6565b614677576040805162461bcd60e51b815260206004820152601d60248201527f416464726573733a2063616c6c20746f206e6f6e2d636f6e7472616374000000604482015290519081900360640190fd5b60006060866001600160a01b031685876040518082805190602001908083835b602083106146b65780518252601f199092019160209182019101614697565b6001836020036101000a03801982511681845116808217855250505050505090500191505060006040518083038185875af1925050503d8060008114614718576040519150601f19603f3d011682016040523d82523d6000602084013e61471d565b606091505b509150915081156147315791506140999050565b8051156147415780518082602001fd5b8360405162461bcd60e51b81526004018080602001828103825283818151815260200191508051906020019080838360005b8381101561478b578181015183820152602001614773565b50505050905090810190601f1680156147b85780820380516001836020036101000a031916815260200191505b509250505060405180910390fd5b6000813f7fc5d2460186f7233c927e7db2dcc703c0e500b653ca82273b7bfad8045d85a47081811480159061409957505015159291505056fe416464726573733a20696e73756666696369656e742062616c616e636520666f722063616c6c4552525f4e4f545f434f4e54524f4c4c45520000000000000000000000000000416464726573733a206c6f772d6c6576656c2063616c6c20776974682076616c7565206661696c6564ddf252ad1be2c89b69c2b068fc378daa952ba7f163c4a11628f55a4df523b3ef8c5be1e5ebec7d5bd14f71427d1e84f3dd0314c0f7b2291e5b200ac8c7c3b9255361666545524332303a204552433230206f7065726174696f6e20646964206e6f742073756363656564a26469706673582212209a1894862f1b329a9b7f5eebd83dd85db3d2f2dcc04d037a2980a485babd826864736f6c634300060c0033",
  "linkReferences": {},
  "deployedLinkReferences": {}
}