{
  "address": "0xcD9fB0Df245701A3B4F5F18aF3A41fA1bb1619d4",
  "abi": [
    {
      "inputs": [],
      "stateMutability": "nonpayable",
      "type": "constructor"
    },
    {
      "inputs": [],
      "name": "PERIOD",
      "outputs": [
        {
          "internalType": "uint256",
          "name": "",
          "type": "uint256"
        }
      ],
      "stateMutability": "view",
      "type": "function"
    },
    {
      "inputs": [
        {
          "internalType": "address",
          "name": "token",
          "type": "address"
        },
        {
          "internalType": "uint256",
          "name": "amountIn",
          "type": "uint256"
        }
      ],
      "name": "consult",
      "outputs": [
        {
          "internalType": "uint256",
          "name": "amountOut",
          "type": "uint256"
        }
      ],
      "stateMutability": "view",
      "type": "function"
    },
    {
      "inputs": [],
      "name": "factory",
      "outputs": [
        {
          "internalType": "address",
          "name": "",
          "type": "address"
        }
      ],
      "stateMutability": "view",
      "type": "function"
    },
    {
      "inputs": [],
      "name": "price0Average",
      "outputs": [
        {
          "internalType": "uint224",
          "name": "_x",
          "type": "uint224"
        }
      ],
      "stateMutability": "view",
      "type": "function"
    },
    {
      "inputs": [],
      "name": "price1Average",
      "outputs": [
        {
          "internalType": "uint224",
          "name": "_x",
          "type": "uint224"
        }
      ],
      "stateMutability": "view",
      "type": "function"
    },
    {
      "inputs": [
        {
          "internalType": "address",
          "name": "tokena",
          "type": "address"
        },
        {
          "internalType": "address",
          "name": "tokenb",
          "type": "address"
        }
      ],
      "name": "setNewTokenInfo",
      "outputs": [],
      "stateMutability": "nonpayable",
      "type": "function"
    },
    {
      "inputs": [
        {
          "internalType": "address[]",
          "name": "tokensA",
          "type": "address[]"
        },
        {
          "internalType": "address[]",
          "name": "tokensB",
          "type": "address[]"
        }
      ],
      "name": "setNewTokensInfo",
      "outputs": [],
      "stateMutability": "nonpayable",
      "type": "function"
    },
    {
      "inputs": [
        {
          "internalType": "uint256",
          "name": "amount",
          "type": "uint256"
        }
      ],
      "name": "setPERIOD",
      "outputs": [],
      "stateMutability": "nonpayable",
      "type": "function"
    },
    {
      "inputs": [
        {
          "internalType": "address",
          "name": "",
          "type": "address"
        }
      ],
      "name": "tokenInfoList",
      "outputs": [
        {
          "internalType": "contract IUniswapV2Pair",
          "name": "pair",
          "type": "address"
        },
        {
          "internalType": "address",
          "name": "token0",
          "type": "address"
        },
        {
          "internalType": "address",
          "name": "token1",
          "type": "address"
        },
        {
          "internalType": "uint256",
          "name": "price0CumulativeLast",
          "type": "uint256"
        },
        {
          "internalType": "uint256",
          "name": "price1CumulativeLast",
          "type": "uint256"
        },
        {
          "internalType": "uint32",
          "name": "blockTimestampLast",
          "type": "uint32"
        },
        {
          "components": [
            {
              "internalType": "uint224",
              "name": "_x",
              "type": "uint224"
            }
          ],
          "internalType": "struct FixedPoint.uq112x112",
          "name": "price0Average",
          "type": "tuple"
        },
        {
          "components": [
            {
              "internalType": "uint224",
              "name": "_x",
              "type": "uint224"
            }
          ],
          "internalType": "struct FixedPoint.uq112x112",
          "name": "price1Average",
          "type": "tuple"
        }
      ],
      "stateMutability": "view",
      "type": "function"
    },
    {
      "inputs": [
        {
          "internalType": "address",
          "name": "token",
          "type": "address"
        }
      ],
      "name": "update",
      "outputs": [],
      "stateMutability": "nonpayable",
      "type": "function"
    }
  ],
  "transactionHash": "0x318b80fa57fabbf84fd916e157c5e6dc1a3f4a2b20a80af4515f539d30c25cff",
  "args": [],
  "numDeployments": 1,
  "solcInputHash": "28d09de99f40fc4bded8046e7d3f4ada",
  "bytecode": "0x60a0604052610e10600055600480546001600160a01b031916735c69bee701ef814a2b6a3edd4b1652cb9cc5aa6f17905534801561003c57600080fd5b5033606081901b6080526113e76100676000398061016d5280610871528061094752506113e76000f3fe608060405234801561001057600080fd5b506004361061008e5760003560e01c80630173d100146100935780630a109ec3146100a85780631c1b8772146100d85780633ddac953146100eb5780635e6aaf2c1461010b5780636ca94aac14610120578063a6bb453914610133578063b4d1d7951461013b578063c45a015514610143578063fa4277a814610158575b600080fd5b6100a66100a1366004610ec5565b61016b565b005b6100bb6100b6366004610e86565b610528565b6040516100cf989796959493929190611093565b60405180910390f35b6100a66100e6366004610e86565b6105a3565b6100fe6100f9366004610efd565b6106f4565b6040516100cf919061137b565b610113610860565b6040516100cf9190611367565b6100a661012e366004610f28565b61086f565b610113610921565b6100fe610930565b61014b610936565b6040516100cf919061107f565b6100a6610166366004610fdc565b610945565b7f00000000000000000000000000000000000000000000000000000000000000006001600160a01b031633146101bc5760405162461bcd60e51b81526004016101b390611191565b60405180910390fd5b6004546000906101d6906001600160a01b03168484610996565b6001600160a01b03808516600090815260016020526040902080549293509116156102135760405162461bcd60e51b81526004016101b3906110ec565b80546001600160a01b0319166001600160a01b038316908117825560408051630dfe168160e01b81529051630dfe168191600480820192602092909190829003018186803b15801561026457600080fd5b505afa158015610278573d6000803e3d6000fd5b505050506040513d601f19601f8201168201806040525081019061029c9190610ea9565b8160010160006101000a8154816001600160a01b0302191690836001600160a01b03160217905550816001600160a01b031663d21220a76040518163ffffffff1660e01b815260040160206040518083038186803b1580156102fd57600080fd5b505afa158015610311573d6000803e3d6000fd5b505050506040513d601f19601f820116820180604052508101906103359190610ea9565b8160020160006101000a8154816001600160a01b0302191690836001600160a01b03160217905550816001600160a01b0316635909c0d56040518163ffffffff1660e01b815260040160206040518083038186803b15801561039657600080fd5b505afa1580156103aa573d6000803e3d6000fd5b505050506040513d601f19601f820116820180604052508101906103ce9190610ff4565b8160030181905550816001600160a01b0316635a3d54936040518163ffffffff1660e01b815260040160206040518083038186803b15801561040f57600080fd5b505afa158015610423573d6000803e3d6000fd5b505050506040513d601f19601f820116820180604052508101906104479190610ff4565b8160040181905550600080836001600160a01b0316630902f1ac6040518163ffffffff1660e01b815260040160606040518083038186803b15801561048b57600080fd5b505afa15801561049f573d6000803e3d6000fd5b505050506040513d601f19601f820116820180604052508101906104c39190610f88565b60058601805463ffffffff191663ffffffff9290921691909117905590925090506001600160701b0382161580159061050457506001600160701b03811615155b6105205760405162461bcd60e51b81526004016101b39061115c565b505050505050565b600160208181526000928352604092839020805492810154600282015460038301546004840154600585015488518088018a5260068701546001600160e01b0390811682528a51988901909a5260079096015490981686526001600160a01b039687169793871696909216949093919263ffffffff16919088565b6001600160a01b03808216600090815260016020526040902080549091166105dd5760405162461bcd60e51b81526004016101b3906112cc565b8054600090819081906105f8906001600160a01b0316610a06565b6005870154600054939650919450925063ffffffff90811683039190821610156106345760405162461bcd60e51b81526004016101b390611214565b60405180602001604052808263ffffffff16876003015487038161065457fe5b046001600160e01b0390811690915290516006870180546001600160e01b0319169190921617905560408051602081019091526004860154819063ffffffff84169086038161069f57fe5b046001600160e01b0390811690915290516007870180546001600160e01b0319169190921617905550600384019290925560048301556005909101805463ffffffff191663ffffffff90921691909117905550565b60006106fe610d4b565b506001600160a01b038084166000908152600160208181526040928390208351610100810185528154861681529281015485168383015260028101548516838501526003810154606084015260048101546080840152600581015463ffffffff1660a08401528351808301855260068201546001600160e01b03908116825260c0850191909152845192830190945260070154909216825260e081019190915280519091166107bf5760405162461bcd60e51b81526004016101b3906112cc565b80602001516001600160a01b0316846001600160a01b031614156108055760c08101516107f5906107f09085610bdb565b610c3c565b6001600160901b03169150610859565b80604001516001600160a01b0316846001600160a01b03161461083a5760405162461bcd60e51b81526004016101b3906111d2565b60e081015161084d906107f09085610bdb565b6001600160901b031691505b5092915050565b6003546001600160e01b031681565b7f00000000000000000000000000000000000000000000000000000000000000006001600160a01b031633146108b75760405162461bcd60e51b81526004016101b390611191565b80518251146108d85760405162461bcd60e51b81526004016101b39061125b565b60005b825181101561091c576109148382815181106108f357fe5b602002602001015183838151811061090757fe5b602002602001015161016b565b6001016108db565b505050565b6002546001600160e01b031681565b60005481565b6004546001600160a01b031681565b7f00000000000000000000000000000000000000000000000000000000000000006001600160a01b0316331461098d5760405162461bcd60e51b81526004016101b390611191565b610e1002600055565b60008060006109a58585610c43565b915091508582826040516020016109bd92919061100c565b604051602081830303815290604052805190602001206040516020016109e492919061102e565b60408051601f1981840301815291905280516020909101209695505050505050565b6000806000610a13610ccd565b9050836001600160a01b0316635909c0d56040518163ffffffff1660e01b815260040160206040518083038186803b158015610a4e57600080fd5b505afa158015610a62573d6000803e3d6000fd5b505050506040513d601f19601f82011682018060405250810190610a869190610ff4565b9250836001600160a01b0316635a3d54936040518163ffffffff1660e01b815260040160206040518083038186803b158015610ac157600080fd5b505afa158015610ad5573d6000803e3d6000fd5b505050506040513d601f19601f82011682018060405250810190610af99190610ff4565b91506000806000866001600160a01b0316630902f1ac6040518163ffffffff1660e01b815260040160606040518083038186803b158015610b3957600080fd5b505afa158015610b4d573d6000803e3d6000fd5b505050506040513d601f19601f82011682018060405250810190610b719190610f88565b9250925092508363ffffffff168163ffffffff1614610bd15780840363ffffffff8116610b9e8486610cd7565b516001600160e01b031602969096019563ffffffff8116610bbf8585610cd7565b516001600160e01b0316029590950194505b5050509193909250565b610be3610dbc565b6000821580610c0957505082516001600160e01b031682810290838281610c0657fe5b04145b610c255760405162461bcd60e51b81526004016101b390611289565b604080516020810190915290815290505b92915050565b5160701c90565b600080826001600160a01b0316846001600160a01b03161415610c785760405162461bcd60e51b81526004016101b390611117565b826001600160a01b0316846001600160a01b031610610c98578284610c9b565b83835b90925090506001600160a01b038216610cc65760405162461bcd60e51b81526004016101b3906112ff565b9250929050565b63ffffffff421690565b610cdf610dcf565b6000826001600160701b031611610d085760405162461bcd60e51b81526004016101b390611336565b6040805160208101909152806001600160701b038416600160701b600160e01b03607087901b1681610d3657fe5b046001600160e01b0316815250905092915050565b60405180610100016040528060006001600160a01b0316815260200160006001600160a01b0316815260200160006001600160a01b031681526020016000815260200160008152602001600063ffffffff168152602001610daa610dcf565b8152602001610db7610dcf565b905290565b6040518060200160405280600081525090565b60408051602081019091526000815290565b8035610c3681611384565b600082601f830112610dfc578081fd5b81356001600160401b0380821115610e12578283fd5b602080830260405182828201018181108582111715610e2f578687fd5b604052848152945081850192508582018187018301881015610e5057600080fd5b600091505b84821015610e7b57610e678882610de1565b845292820192600191909101908201610e55565b505050505092915050565b600060208284031215610e97578081fd5b8135610ea281611384565b9392505050565b600060208284031215610eba578081fd5b8151610ea281611384565b60008060408385031215610ed7578081fd5b8235610ee281611384565b91506020830135610ef281611384565b809150509250929050565b60008060408385031215610f0f578182fd5b8235610f1a81611384565b946020939093013593505050565b60008060408385031215610f3a578182fd5b82356001600160401b0380821115610f50578384fd5b610f5c86838701610dec565b93506020850135915080821115610f71578283fd5b50610f7e85828601610dec565b9150509250929050565b600080600060608486031215610f9c578081fd5b8351610fa78161139c565b6020850151909350610fb88161139c565b604085015190925063ffffffff81168114610fd1578182fd5b809150509250925092565b600060208284031215610fed578081fd5b5035919050565b600060208284031215611005578081fd5b5051919050565b6001600160601b0319606093841b811682529190921b16601482015260280190565b6001600160f81b0319815260609290921b6001600160601b031916600183015260158201527f96e8ac4277198ff8b6f785478aa9a39f403cb768dd02cbee326c3e7da348845f603582015260550190565b6001600160a01b0391909116815260200190565b6001600160a01b03988916815296881660208801529490961660408601526060850192909252608084015263ffffffff1660a083015291516001600160e01b0390811660c0830152915190911660e08201526101000190565b60208082526011908201527011549497d513d2d15397d254d7d1561255607a1b604082015260600190565b60208082526025908201527f556e697377617056324c6962726172793a204944454e544943414c5f41444452604082015264455353455360d81b606082015260800190565b6020808252818101527f4578616d706c654f7261636c6553696d706c653a204e4f5f5245534552564553604082015260600190565b60208082526021908201527f4f776e61626c653a2063616c6c6572206973206e6f74207468652065726572656040820152603960f91b606082015260800190565b60208082526022908201527f4578616d706c654f7261636c6553696d706c653a20494e56414c49445f544f4b60408201526122a760f11b606082015260800190565b60208082526027908201527f4578616d706c654f7261636c6553696d706c653a20504552494f445f4e4f545f6040820152661153105414d15160ca1b606082015260800190565b60208082526014908201527308aa4a4be988a9c8ea890be9c9ea8be9a82a886960631b604082015260600190565b60208082526023908201527f4669786564506f696e743a204d554c5449504c49434154494f4e5f4f564552466040820152624c4f5760e81b606082015260800190565b602080825260199082015278746f6b656e206973206e6f7420696e6974207375636365737360381b604082015260600190565b6020808252601e908201527f556e697377617056324c6962726172793a205a45524f5f414444524553530000604082015260600190565b6020808252601790820152764669786564506f696e743a204449565f42595f5a45524f60481b604082015260600190565b6001600160e01b0391909116815260200190565b90815260200190565b6001600160a01b038116811461139957600080fd5b50565b6001600160701b038116811461139957600080fdfea2646970667358221220ad319d3ac2fb3ca889da97fc14d8a6b36eb4552b6798ae88b8ae95c9b9ab098c64736f6c634300060c0033",
  "libraries": {},
  "devdoc": {
    "kind": "dev",
    "methods": {},
    "version": 1
  },
  "userdoc": {
    "kind": "user",
    "methods": {},
    "version": 1
  },
  "storageLayout": {
    "storage": [
      {
        "astId": 1375,
        "contract": "contracts/deploy/Oracle.sol:Oracle",
        "label": "PERIOD",
        "offset": 0,
        "slot": "0",
        "type": "t_uint256"
      },
      {
        "astId": 1396,
        "contract": "contracts/deploy/Oracle.sol:Oracle",
        "label": "tokenInfoList",
        "offset": 0,
        "slot": "1",
        "type": "t_mapping(t_address,t_struct(tokenInfo)1392_storage)"
      },
      {
        "astId": 1398,
        "contract": "contracts/deploy/Oracle.sol:Oracle",
        "label": "price0Average",
        "offset": 0,
        "slot": "2",
        "type": "t_struct(uq112x112)558_storage"
      },
      {
        "astId": 1400,
        "contract": "contracts/deploy/Oracle.sol:Oracle",
        "label": "price1Average",
        "offset": 0,
        "slot": "3",
        "type": "t_struct(uq112x112)558_storage"
      },
      {
        "astId": 1403,
        "contract": "contracts/deploy/Oracle.sol:Oracle",
        "label": "factory",
        "offset": 0,
        "slot": "4",
        "type": "t_address"
      }
    ],
    "types": {
      "t_address": {
        "encoding": "inplace",
        "label": "address",
        "numberOfBytes": "20"
      },
      "t_contract(IUniswapV2Pair)303": {
        "encoding": "inplace",
        "label": "contract IUniswapV2Pair",
        "numberOfBytes": "20"
      },
      "t_mapping(t_address,t_struct(tokenInfo)1392_storage)": {
        "encoding": "mapping",
        "key": "t_address",
        "label": "mapping(address => struct Oracle.tokenInfo)",
        "numberOfBytes": "32",
        "value": "t_struct(tokenInfo)1392_storage"
      },
      "t_struct(tokenInfo)1392_storage": {
        "encoding": "inplace",
        "label": "struct Oracle.tokenInfo",
        "members": [
          {
            "astId": 1377,
            "contract": "contracts/deploy/Oracle.sol:Oracle",
            "label": "pair",
            "offset": 0,
            "slot": "0",
            "type": "t_contract(IUniswapV2Pair)303"
          },
          {
            "astId": 1379,
            "contract": "contracts/deploy/Oracle.sol:Oracle",
            "label": "token0",
            "offset": 0,
            "slot": "1",
            "type": "t_address"
          },
          {
            "astId": 1381,
            "contract": "contracts/deploy/Oracle.sol:Oracle",
            "label": "token1",
            "offset": 0,
            "slot": "2",
            "type": "t_address"
          },
          {
            "astId": 1383,
            "contract": "contracts/deploy/Oracle.sol:Oracle",
            "label": "price0CumulativeLast",
            "offset": 0,
            "slot": "3",
            "type": "t_uint256"
          },
          {
            "astId": 1385,
            "contract": "contracts/deploy/Oracle.sol:Oracle",
            "label": "price1CumulativeLast",
            "offset": 0,
            "slot": "4",
            "type": "t_uint256"
          },
          {
            "astId": 1387,
            "contract": "contracts/deploy/Oracle.sol:Oracle",
            "label": "blockTimestampLast",
            "offset": 0,
            "slot": "5",
            "type": "t_uint32"
          },
          {
            "astId": 1389,
            "contract": "contracts/deploy/Oracle.sol:Oracle",
            "label": "price0Average",
            "offset": 0,
            "slot": "6",
            "type": "t_struct(uq112x112)558_storage"
          },
          {
            "astId": 1391,
            "contract": "contracts/deploy/Oracle.sol:Oracle",
            "label": "price1Average",
            "offset": 0,
            "slot": "7",
            "type": "t_struct(uq112x112)558_storage"
          }
        ],
        "numberOfBytes": "256"
      },
      "t_struct(uq112x112)558_storage": {
        "encoding": "inplace",
        "label": "struct FixedPoint.uq112x112",
        "members": [
          {
            "astId": 557,
            "contract": "contracts/deploy/Oracle.sol:Oracle",
            "label": "_x",
            "offset": 0,
            "slot": "0",
            "type": "t_uint224"
          }
        ],
        "numberOfBytes": "32"
      },
      "t_uint224": {
        "encoding": "inplace",
        "label": "uint224",
        "numberOfBytes": "28"
      },
      "t_uint256": {
        "encoding": "inplace",
        "label": "uint256",
        "numberOfBytes": "32"
      },
      "t_uint32": {
        "encoding": "inplace",
        "label": "uint32",
        "numberOfBytes": "4"
      }
    }
  }
}