{
  "address": "0x5EA365e08876FBcD76C51D26F9cB4451571628a8",
  "abi": [
    {
      "inputs": [
        {
          "internalType": "bool",
          "name": "bool1",
          "type": "bool"
        },
        {
          "internalType": "bool",
          "name": "bool2",
          "type": "bool"
        },
        {
          "internalType": "address",
          "name": "adr",
          "type": "address"
        }
      ],
      "name": "WhitelistHandle",
      "outputs": [],
      "stateMutability": "pure",
      "type": "function"
    },
    {
      "inputs": [
        {
          "internalType": "uint256",
          "name": "collectPeriod",
          "type": "uint256"
        },
        {
          "internalType": "uint256",
          "name": "upperCap",
          "type": "uint256"
        },
        {
          "internalType": "uint256",
          "name": "initialSupply",
          "type": "uint256"
        }
      ],
      "name": "createPoolHandle",
      "outputs": [],
      "stateMutability": "pure",
      "type": "function"
    },
    {
      "inputs": [
        {
          "internalType": "contract IBPool",
          "name": "bPool",
          "type": "IBPool"
        },
        {
          "internalType": "uint256",
          "name": "initialSupply",
          "type": "uint256"
        }
      ],
      "name": "createPoolInternalHandle",
      "outputs": [],
      "stateMutability": "view",
      "type": "function"
    },
    {
      "inputs": [
        {
          "internalType": "contract IConfigurableRightsPool",
          "name": "self",
          "type": "IConfigurableRightsPool"
        },
        {
          "internalType": "contract IBPool",
          "name": "bPool",
          "type": "IBPool"
        },
        {
          "internalType": "uint256",
          "name": "poolAmountIn",
          "type": "uint256"
        },
        {
          "internalType": "uint256[]",
          "name": "minAmountsOut",
          "type": "uint256[]"
        }
      ],
      "name": "exitPool",
      "outputs": [
        {
          "internalType": "uint256[]",
          "name": "actualAmountsOut",
          "type": "uint256[]"
        }
      ],
      "stateMutability": "view",
      "type": "function"
    },
    {
      "inputs": [
        {
          "internalType": "uint256",
          "name": "_endEtfAmount",
          "type": "uint256"
        },
        {
          "internalType": "uint256",
          "name": "_endFundAmount",
          "type": "uint256"
        },
        {
          "internalType": "uint256",
          "name": "_beginEtfAmount",
          "type": "uint256"
        },
        {
          "internalType": "uint256",
          "name": "_beginFundAmount",
          "type": "uint256"
        },
        {
          "internalType": "uint256",
          "name": "poolAmountIn",
          "type": "uint256"
        },
        {
          "internalType": "uint256",
          "name": "totalEnd",
          "type": "uint256"
        }
      ],
      "name": "exitPoolHandle",
      "outputs": [
        {
          "internalType": "uint256",
          "name": "endEtfAmount",
          "type": "uint256"
        },
        {
          "internalType": "uint256",
          "name": "endFundAmount",
          "type": "uint256"
        },
        {
          "internalType": "uint256",
          "name": "profitRate",
          "type": "uint256"
        }
      ],
      "stateMutability": "pure",
      "type": "function"
    },
    {
      "inputs": [
        {
          "internalType": "contract IConfigurableRightsPool",
          "name": "self",
          "type": "IConfigurableRightsPool"
        },
        {
          "internalType": "bool",
          "name": "bools",
          "type": "bool"
        },
        {
          "internalType": "bool",
          "name": "isCompletedCollect",
          "type": "bool"
        },
        {
          "internalType": "uint256",
          "name": "closureEndTime",
          "type": "uint256"
        },
        {
          "internalType": "uint256",
          "name": "collectEndTime",
          "type": "uint256"
        },
        {
          "internalType": "uint256",
          "name": "poolAmountIn",
          "type": "uint256"
        }
      ],
      "name": "exitPoolHandleB",
      "outputs": [
        {
          "internalType": "uint256",
          "name": "actualPoolAmountIn",
          "type": "uint256"
        }
      ],
      "stateMutability": "view",
      "type": "function"
    },
    {
      "inputs": [
        {
          "internalType": "uint256",
          "name": "managerFee",
          "type": "uint256"
        },
        {
          "internalType": "uint256",
          "name": "issueFee",
          "type": "uint256"
        },
        {
          "internalType": "uint256",
          "name": "redeemFee",
          "type": "uint256"
        },
        {
          "internalType": "uint256",
          "name": "perfermanceFee",
          "type": "uint256"
        },
        {
          "internalType": "uint256",
          "name": "tokenBalancesLength",
          "type": "uint256"
        },
        {
          "internalType": "uint256",
          "name": "tokenWeightsLength",
          "type": "uint256"
        },
        {
          "internalType": "uint256",
          "name": "constituentTokensLength",
          "type": "uint256"
        },
        {
          "internalType": "bool",
          "name": "initBool",
          "type": "bool"
        }
      ],
      "name": "initRequire",
      "outputs": [],
      "stateMutability": "pure",
      "type": "function"
    },
    {
      "inputs": [
        {
          "internalType": "contract IConfigurableRightsPool",
          "name": "self",
          "type": "IConfigurableRightsPool"
        },
        {
          "internalType": "contract IBPool",
          "name": "bPool",
          "type": "IBPool"
        },
        {
          "internalType": "uint256",
          "name": "poolAmountOut",
          "type": "uint256"
        },
        {
          "internalType": "uint256[]",
          "name": "maxAmountsIn",
          "type": "uint256[]"
        },
        {
          "internalType": "uint256",
          "name": "issueFee",
          "type": "uint256"
        }
      ],
      "name": "joinPool",
      "outputs": [
        {
          "internalType": "uint256[]",
          "name": "actualAmountsIn",
          "type": "uint256[]"
        }
      ],
      "stateMutability": "view",
      "type": "function"
    },
    {
      "inputs": [
        {
          "internalType": "bool",
          "name": "canWhitelistLPs",
          "type": "bool"
        },
        {
          "internalType": "bool",
          "name": "isList",
          "type": "bool"
        },
        {
          "internalType": "bool",
          "name": "bools",
          "type": "bool"
        },
        {
          "internalType": "uint256",
          "name": "collectEndTime",
          "type": "uint256"
        }
      ],
      "name": "joinPoolHandle",
      "outputs": [],
      "stateMutability": "view",
      "type": "function"
    }
  ],
  "transactionHash": "0xeb7f4dcc92e5bd4a8da703bec2a3d06d23a089776f3687f53a743cf975b77e2a",
  "args": [],
  "numDeployments": 1,
  "solcInputHash": "ea87177e94f7977eab75d04c80b07225",
  "bytecode": "0x612ca6610026600b82828239805160001a60731461001957fe5b30600052607381538281f3fe73000000000000000000000000000000000000000030146080604052600436106100cf5760003560e01c80631c1af136146100d45780632c948f6f146100f6578063357934d21461012e5780633e9fc0bd1461015b57806344e3696f1461016e5780635471c3e41461018157806377d44349146101945780637f717d85146101b4578063b78e0bc9146101d4578063d03f2a0f146101e7578063d378778c146101fa578063d3aa47101461021a578063dba4989a1461022d578063de5bb5fc14610240578063ea8e866214610253575b600080fd5b8180156100e057600080fd5b506100f46100ef366004611de7565b610273565b005b81801561010257600080fd5b50610116610111366004612040565b61027f565b60405161012593929190612be5565b60405180910390f35b81801561013a57600080fd5b5061014e61014936600461211c565b6103df565b60405161012591906124d1565b6100f4610169366004612299565b61064c565b6100f461017c366004612306565b61069d565b61014e61018f366004612199565b6107e5565b8180156101a057600080fd5b506100f46101af366004611e1f565b610aa9565b6101c76101c2366004611fdc565b610ae5565b6040516101259190612bdc565b61014e6101e2366004612209565b610bb2565b6100f46101f5366004611fb1565b610eb3565b81801561020657600080fd5b506101c7610215366004612040565b610f99565b6100f4610228366004611f17565b6110f1565b6100f461023b366004611f61565b611151565b61011661024e3660046122c4565b6111a3565b81801561025f57600080fd5b506100f461026e36600461209a565b611223565b61027c816115d7565b50565b600080600061028e85856115ec565b9050600061029c818361166b565b93506102a88685611697565b92506102b6888833866116d0565b84156103d3576102c8888830876116d0565b61034e896001600160a01b031663430bf08a6040518163ffffffff1660e01b815260040160206040518083038186803b15801561030457600080fd5b505afa158015610318573d6000803e3d6000fd5b505050506040513d601f19601f8201168201806040525081019061033c9190611e03565b6001600160a01b038916906000611851565b6103d3896001600160a01b031663430bf08a6040518163ffffffff1660e01b815260040160206040518083038186803b15801561038a57600080fd5b505afa15801561039e573d6000803e3d6000fd5b505050506040513d601f19601f820116820180604052508101906103c29190611e03565b6001600160a01b0389169086611851565b50955095509592505050565b606080856001600160401b03811180156103f857600080fd5b50604051908082528060200260200182016040528015610422578160200160208202803683370190505b50905060005b8681101561063f57600088888381811061043e57fe5b90506020020160208101906104539190611de7565b905060008a6001600160a01b031663f8b2cb4f836040518263ffffffff1660e01b815260040161048391906123c5565b60206040518083038186803b15801561049b57600080fd5b505afa1580156104af573d6000803e3d6000fd5b505050506040513d601f19601f820116820180604052508101906104d39190612281565b90506000610503600c6104fd896104fd8c6104f78f896115ec90919063ffffffff16565b9061194b565b90611985565b90506105118c8430846116d0565b6105978d6001600160a01b031663430bf08a6040518163ffffffff1660e01b815260040160206040518083038186803b15801561054d57600080fd5b505afa158015610561573d6000803e3d6000fd5b505050506040513d601f19601f820116820180604052508101906105859190611e03565b6001600160a01b038516906000611851565b61061c8d6001600160a01b031663430bf08a6040518163ffffffff1660e01b815260040160206040518083038186803b1580156105d357600080fd5b505afa1580156105e7573d6000803e3d6000fd5b505050506040513d601f19601f8201168201806040525081019061060b9190611e03565b6001600160a01b0385169083611851565b8085858151811061062957fe5b6020908102919091010152505050600101610428565b5098975050505050505050565b624f1a008311156106785760405162461bcd60e51b815260040161066f9061297f565b60405180910390fd5b808210156106985760405162461bcd60e51b815260040161066f90612604565b505050565b80156106bb5760405162461bcd60e51b815260040161066f906126ff565b67016345785d8a00008811156106e35760405162461bcd60e51b815260040161066f90612548565b67016345785d8a000087111561070b5760405162461bcd60e51b815260040161066f90612860565b67016345785d8a00008611156107335760405162461bcd60e51b815260040161066f90612aa7565b6706f05b59d3b2000085111561075b5760405162461bcd60e51b815260040161066f906127d9565b81841461077a5760405162461bcd60e51b815260040161066f90612777565b8183146107995760405162461bcd60e51b815260040161066f90612579565b60018210156107ba5760405162461bcd60e51b815260040161066f906129b6565b60108211156107db5760405162461bcd60e51b815260040161066f90612a7a565b5050505050505050565b606080856001600160a01b031663cc77828d6040518163ffffffff1660e01b815260040160006040518083038186803b15801561082157600080fd5b505afa158015610835573d6000803e3d6000fd5b505050506040513d6000823e601f3d908101601f1916820160405261085d9190810190611e5e565b805190915083146108805760405162461bcd60e51b815260040161066f90612722565b6000876001600160a01b03166318160ddd6040518163ffffffff1660e01b815260040160206040518083038186803b1580156108bb57600080fd5b505afa1580156108cf573d6000803e3d6000fd5b505050506040513d601f19601f820116820180604052508101906108f39190612281565b9050600061090b8761090684600161166b565b6119c4565b90508061092a5760405162461bcd60e51b815260040161066f906125ad565b82516001600160401b038111801561094157600080fd5b5060405190808252806020026020018201604052801561096b578160200160208202803683370190505b50935060005b8351811015610a9c57600084828151811061098857fe5b6020026020010151905060008a6001600160a01b031663f8b2cb4f836040518263ffffffff1660e01b81526004016109c091906123c5565b60206040518083038186803b1580156109d857600080fd5b505afa1580156109ec573d6000803e3d6000fd5b505050506040513d601f19601f82011682018060405250810190610a109190612281565b90506000610a2885610a23846001611697565b6115ec565b905080610a475760405162461bcd60e51b815260040161066f906125ad565b898985818110610a5357fe5b90506020020135811015610a795760405162461bcd60e51b815260040161066f90612750565b80888581518110610a8657fe5b6020908102919091010152505050600101610971565b5050505095945050505050565b60005b8181101561069857610add838383818110610ac357fe5b9050602002016020810190610ad89190611de7565b6115d7565b600101610aac565b808515610ba857600085158015610afc5750834210155b9050428511158180610b0b5750805b610b275760405162461bcd60e51b815260040161066f90612a18565b6040516370a0823160e01b81526001600160a01b038a16906370a0823190610b539033906004016123c5565b60206040518083038186803b158015610b6b57600080fd5b505afa158015610b7f573d6000803e3d6000fd5b505050506040513d601f19601f82011682018060405250810190610ba39190612281565b925050505b9695505050505050565b606080866001600160a01b031663cc77828d6040518163ffffffff1660e01b815260040160006040518083038186803b158015610bee57600080fd5b505afa158015610c02573d6000803e3d6000fd5b505050506040513d6000823e601f3d908101601f19168201604052610c2a9190810190611e5e565b80519091508414610c4d5760405162461bcd60e51b815260040161066f90612722565b6000886001600160a01b03166318160ddd6040518163ffffffff1660e01b815260040160206040518083038186803b158015610c8857600080fd5b505afa158015610c9c573d6000803e3d6000fd5b505050506040513d601f19601f82011682018060405250810190610cc09190612281565b90506000610cd388610906846001611697565b905080610cf25760405162461bcd60e51b815260040161066f906125ad565b82516001600160401b0381118015610d0957600080fd5b50604051908082528060200260200182016040528015610d33578160200160208202803683370190505b5093506000610d44866103e86115ec565b905060005b8451811015610ea4576000858281518110610d6057fe5b6020026020010151905060008c6001600160a01b031663f8b2cb4f836040518263ffffffff1660e01b8152600401610d9891906123c5565b60206040518083038186803b158015610db057600080fd5b505afa158015610dc4573d6000803e3d6000fd5b505050506040513d601f19601f82011682018060405250810190610de89190612281565b90506000610e056103e88e02610dff84600161166b565b906115ec565b90506000610e2b610e186103e888611697565b610e238a6001611697565b8491026119c4565b905080610e4a5760405162461bcd60e51b815260040161066f906125ad565b8c8c86818110610e5657fe5b90506020020135811115610e7c5760405162461bcd60e51b815260040161066f9061283a565b808a8681518110610e8957fe5b6020908102919091010152505060019092019150610d499050565b50505050509695505050505050565b68056bc75e2d63100000811015610edc5760405162461bcd60e51b815260040161066f906127ac565b676765c793fa10079d601b1b811115610f075760405162461bcd60e51b815260040161066f9061263b565b816001600160a01b031663c6580d126040518163ffffffff1660e01b815260040160206040518083038186803b158015610f4057600080fd5b505afa158015610f54573d6000803e3d6000fd5b505050506040513d601f19601f82011682018060405250810190610f789190612281565b15610f955760405162461bcd60e51b815260040161066f90612951565b5050565b6000610fa583836115ec565b90506000610fb38483611697565b9050610fc186863384611a55565b82156110e757610fdc6001600160a01b038616333085611bde565b611062876001600160a01b031663430bf08a6040518163ffffffff1660e01b815260040160206040518083038186803b15801561101857600080fd5b505afa15801561102c573d6000803e3d6000fd5b505050506040513d601f19601f820116820180604052508101906110509190611e03565b6001600160a01b038716906000611851565b6110e7876001600160a01b031663430bf08a6040518163ffffffff1660e01b815260040160206040518083038186803b15801561109e57600080fd5b505afa1580156110b2573d6000803e3d6000fd5b505050506040513d601f19601f820116820180604052508101906110d69190611e03565b6001600160a01b0387169084611851565b5095945050505050565b8261110e5760405162461bcd60e51b815260040161066f9061269d565b8161112b5760405162461bcd60e51b815260040161066f906126cf565b6001600160a01b0381166106985760405162461bcd60e51b815260040161066f906128d4565b83158061115b5750825b6111775760405162461bcd60e51b815260040161066f906125d6565b811561119d578042111561119d5760405162461bcd60e51b815260040161066f906129e2565b50505050565b60008060006111b2898661166b565b92506111be888561166b565b915060006111cc83856119c4565b905060006111da888a6119c4565b9050808211156112155761121261120c6112066111f787896119c4565b6112018c8e6119c4565b611697565b896115ec565b876119c4565b92505b505096509650969350505050565b81156115cf576060836001600160401b038111801561124157600080fd5b5060405190808252806020026020018201604052801561126b578160200160208202803683370190505b50905060005b848110156113d457600086868381811061128757fe5b905060200201602081019061129c9190611de7565b90506000886001600160a01b031663f8b2cb4f836040518263ffffffff1660e01b81526004016112cc91906123c5565b60206040518083038186803b1580156112e457600080fd5b505afa1580156112f8573d6000803e3d6000fd5b505050506040513d601f19601f8201168201806040525081019061131c9190612281565b9050600061132a82886115ec565b90506113388a8430846116d0565b8085858151811061134557fe5b60200260200101818152505061138d8b6001600160a01b031663430bf08a6040518163ffffffff1660e01b815260040160206040518083038186803b15801561054d57600080fd5b6113c98b6001600160a01b031663430bf08a6040518163ffffffff1660e01b815260040160206040518083038186803b1580156105d357600080fd5b505050600101611271565b5081156114f657866001600160a01b031663430bf08a6040518163ffffffff1660e01b815260040160206040518083038186803b15801561141457600080fd5b505afa158015611428573d6000803e3d6000fd5b505050506040513d601f19601f8201168201806040525081019061144c9190611e03565b6001600160a01b0316631483d99d868684816001600160401b038111801561147357600080fd5b5060405190808252806020026020018201604052801561149d578160200160208202803683370190505b50876040518663ffffffff1660e01b81526004016114bf959493929190612451565b600060405180830381600087803b1580156114d957600080fd5b505af11580156114ed573d6000803e3d6000fd5b505050506115cd565b866001600160a01b031663430bf08a6040518163ffffffff1660e01b815260040160206040518083038186803b15801561152f57600080fd5b505afa158015611543573d6000803e3d6000fd5b505050506040513d601f19601f820116820180604052508101906115679190611e03565b6001600160a01b0316631483d99d86868485876040518663ffffffff1660e01b815260040161159a959493929190612451565b600060405180830381600087803b1580156115b457600080fd5b505af11580156115c8573d6000803e3d6000fd5b505050505b505b505050505050565b61027c6001600160a01b038216336000611bff565b6000826115fb57506000611665565b8282028284828161160857fe5b04146116265760405162461bcd60e51b815260040161066f90612901565b6706f05b59d3b200008101818110156116515760405162461bcd60e51b815260040161066f90612901565b6000670de0b6b3a7640000825b0493505050505b92915050565b6000828201838110156116905760405162461bcd60e51b815260040161066f90612adb565b9392505050565b60008060006116a68585611c1e565b9150915080156116c85760405162461bcd60e51b815260040161066f90612a4f565b509392505050565b60405163f8b2cb4f60e01b81526000906001600160a01b0386169063f8b2cb4f906116ff9087906004016123c5565b60206040518083038186803b15801561171757600080fd5b505afa15801561172b573d6000803e3d6000fd5b505050506040513d601f19601f8201168201806040525081019061174f9190612281565b90506000856001600160a01b031663948d8ce6866040518263ffffffff1660e01b815260040161177f91906123c5565b60206040518083038186803b15801561179757600080fd5b505afa1580156117ab573d6000803e3d6000fd5b505050506040513d601f19601f820116820180604052508101906117cf9190612281565b9050856001600160a01b0316633fdddaa2866117eb8587611697565b846040518463ffffffff1660e01b815260040161180a93929190612430565b600060405180830381600087803b15801561182457600080fd5b505af1158015611838573d6000803e3d6000fd5b506115cf925050506001600160a01b0386168585611bff565b8015806118d95750604051636eb1769f60e11b81526001600160a01b0384169063dd62ed3e9061188790309086906004016123d9565b60206040518083038186803b15801561189f57600080fd5b505afa1580156118b3573d6000803e3d6000fd5b505050506040513d601f19601f820116820180604052508101906118d79190612281565b155b6118f55760405162461bcd60e51b815260040161066f90612b4f565b6106988363095ea7b360e01b8484604051602401611914929190612417565b60408051601f198184030181529190526020810180516001600160e01b03166001600160e01b031990931692909217909152611c43565b60008261195a57506000611665565b8282028284828161196757fe5b04146116905760405162461bcd60e51b815260040161066f90612893565b600061169083836040518060400160405280601a815260200179536166654d6174683a206469766973696f6e206279207a65726f60301b815250611d28565b6000816119e35760405162461bcd60e51b815260040161066f9061292b565b826119f057506000611665565b670de0b6b3a764000083810290848281611a0657fe5b0414611a245760405162461bcd60e51b815260040161066f90612810565b60028304810181811015611a4a5760405162461bcd60e51b815260040161066f90612810565b600084828161165e57fe5b60405163f8b2cb4f60e01b81526000906001600160a01b0386169063f8b2cb4f90611a849087906004016123c5565b60206040518083038186803b158015611a9c57600080fd5b505afa158015611ab0573d6000803e3d6000fd5b505050506040513d601f19601f82011682018060405250810190611ad49190612281565b90506000856001600160a01b031663948d8ce6866040518263ffffffff1660e01b8152600401611b0491906123c5565b60206040518083038186803b158015611b1c57600080fd5b505afa158015611b30573d6000803e3d6000fd5b505050506040513d601f19601f82011682018060405250810190611b549190612281565b9050611b6b6001600160a01b038616853086611bde565b856001600160a01b0316633fdddaa286611b85858761166b565b846040518463ffffffff1660e01b8152600401611ba493929190612430565b600060405180830381600087803b158015611bbe57600080fd5b505af1158015611bd2573d6000803e3d6000fd5b50505050505050505050565b61119d846323b872dd60e01b858585604051602401611914939291906123f3565b6106988363a9059cbb60e01b8484604051602401611914929190612417565b600080838311611c345750508082036000611c3c565b505081810360015b9250929050565b611c55826001600160a01b0316611d5f565b611c715760405162461bcd60e51b815260040161066f90612ba5565b60006060836001600160a01b031683604051611c8d91906123a9565b6000604051808303816000865af19150503d8060008114611cca576040519150601f19603f3d011682016040523d82523d6000602084013e611ccf565b606091505b509150915081611cf15760405162461bcd60e51b815260040161066f90612668565b80511561119d5780806020019051810190611d0c9190611efb565b61119d5760405162461bcd60e51b815260040161066f90612b05565b60008183611d495760405162461bcd60e51b815260040161066f9190612515565b506000838581611d5557fe5b0495945050505050565b6000813f7fc5d2460186f7233c927e7db2dcc703c0e500b653ca82273b7bfad8045d85a470818114801590611d9357508115155b949350505050565b805161166581612c4d565b60008083601f840112611db7578182fd5b5081356001600160401b03811115611dcd578182fd5b6020830191508360208083028501011115611c3c57600080fd5b600060208284031215611df8578081fd5b813561169081612c4d565b600060208284031215611e14578081fd5b815161169081612c4d565b60008060208385031215611e31578081fd5b82356001600160401b03811115611e46578182fd5b611e5285828601611da6565b90969095509350505050565b60006020808385031215611e70578182fd5b82516001600160401b0380821115611e86578384fd5b818501915085601f830112611e99578384fd5b815181811115611ea7578485fd5b8381029150611eb7848301612bfb565b8181528481019084860184860187018a1015611ed1578788fd5b8795505b8386101561063f57611ee78a82611d9b565b835260019590950194918601918601611ed5565b600060208284031215611f0c578081fd5b815161169081612c62565b600080600060608486031215611f2b578081fd5b8335611f3681612c62565b92506020840135611f4681612c62565b91506040840135611f5681612c4d565b809150509250925092565b60008060008060808587031215611f76578081fd5b8435611f8181612c62565b93506020850135611f9181612c62565b92506040850135611fa181612c62565b9396929550929360600135925050565b60008060408385031215611fc3578182fd5b8235611fce81612c4d565b946020939093013593505050565b60008060008060008060c08789031215611ff4578182fd5b8635611fff81612c4d565b9550602087013561200f81612c62565b9450604087013561201f81612c62565b959894975094956060810135955060808101359460a0909101359350915050565b600080600080600060a08688031215612057578081fd5b853561206281612c4d565b9450602086013561207281612c4d565b9350604086013561208281612c4d565b94979396509394606081013594506080013592915050565b60008060008060008060a087890312156120b2578182fd5b86356120bd81612c4d565b955060208701356120cd81612c4d565b945060408701356001600160401b038111156120e7578283fd5b6120f389828a01611da6565b90955093505060608701359150608087013561210e81612c62565b809150509295509295509295565b600080600080600080600060c0888a031215612136578485fd5b873561214181612c4d565b9650602088013561215181612c4d565b955060408801356001600160401b0381111561216b578586fd5b6121778a828b01611da6565b989b979a50986060810135976080820135975060a09091013595509350505050565b6000806000806000608086880312156121b0578283fd5b85356121bb81612c4d565b945060208601356121cb81612c4d565b93506040860135925060608601356001600160401b038111156121ec578182fd5b6121f888828901611da6565b969995985093965092949392505050565b60008060008060008060a08789031215612221578384fd5b863561222c81612c4d565b9550602087013561223c81612c4d565b94506040870135935060608701356001600160401b0381111561225d578283fd5b61226989828a01611da6565b979a9699509497949695608090950135949350505050565b600060208284031215612292578081fd5b5051919050565b6000806000606084860312156122ad578081fd5b505081359360208301359350604090920135919050565b60008060008060008060c087890312156122dc578384fd5b505084359660208601359650604086013595606081013595506080810135945060a0013592509050565b600080600080600080600080610100898b031215612322578182fd5b883597506020890135965060408901359550606089013594506080890135935060a0890135925060c0890135915060e089013561235e81612c62565b809150509295985092959890939650565b6000815180845260208085019450808401835b8381101561239e57815187529582019590820190600101612382565b509495945050505050565b600082516123bb818460208701612c21565b9190910192915050565b6001600160a01b0391909116815260200190565b6001600160a01b0392831681529116602082015260400190565b6001600160a01b039384168152919092166020820152604081019190915260600190565b6001600160a01b03929092168252602082015260400190565b6001600160a01b039390931683526020830191909152604082015260600190565b6080808252810185905260008660a08301825b88811015612494576020833561247981612c4d565b6001600160a01b031683529283019290910190600101612464565b5083810360208501526124a7818861236f565b91505082810360408401526124bc818661236f565b91505082151560608301529695505050505050565b6020808252825182820181905260009190848201906040850190845b81811015612509578351835292840192918401916001016124ed565b50909695505050505050565b6000602082528251806020840152612534816040850160208701612c21565b601f01601f19169190910160400192915050565b6020808252601790820152764552525f494e56414c49445f4d414e414745525f46454560481b604082015260600190565b6020808252601a908201527908aa4a4bea6a882a4a8beae8a928e90a8a6be9a92a69a82a886960331b604082015260600190565b6020808252600f908201526e08aa4a4be9a82a890be82a0a0a49eb608b1b604082015260600190565b60208082526014908201527311549497d393d517d3d397d5d2125511531254d560621b604082015260600190565b6020808252601e908201527f4552525f4341505f4249474745525f5448414e5f494e4954535550504c590000604082015260600190565b60208082526013908201527208aa4a4be929c92a8bea6aaa0a098b2be9a82b606b1b604082015260600190565b6020808252818101527f5361666545524332303a206c6f772d6c6576656c2063616c6c206661696c6564604082015260600190565b6020808252601890820152774552525f43414e4e4f545f57484954454c4953545f4c505360401b604082015260600190565b60208082526016908201527511549497d31417d393d517d5d2125511531254d5115160521b604082015260600190565b602080825260099082015268125b9a5d0819985a5b60ba1b604082015260600190565b60208082526014908201527308aa4a4be829a9eaa9ca8a6be9a92a69a82a886960631b604082015260600190565b6020808252600d908201526c11549497d31253525517d3d555609a1b604082015260600190565b6020808252601b908201527a08aa4a4bea6a882a4a8be848298829c868aa6be9a92a69a82a8869602b1b604082015260600190565b60208082526013908201527222a9292fa4a724aa2fa9aaa828262cafa6a4a760691b604082015260600190565b6020808252601f908201527f4552525f494e56414c49445f5045524645524d414e43455f4d41585f46454500604082015260600190565b60208082526010908201526f11549497d1125597d25395115493905360821b604082015260600190565b6020808252600c908201526b22a9292fa624a6a4aa2fa4a760a11b604082015260600190565b6020808252601990820152784552525f494e56414c49445f49535355455f4d41585f46454560381b604082015260600190565b60208082526021908201527f536166654d6174683a206d756c7469706c69636174696f6e206f766572666c6f6040820152607760f81b606082015260800190565b6020808252601390820152724552525f494e56414c49445f4144445245535360681b604082015260600190565b60208082526010908201526f4552525f4d554c5f4f564552464c4f5760801b604082015260600190565b6020808252600c908201526b4552525f4449565f5a45524f60a01b604082015260600190565b6020808252601490820152734552525f4e4f4e5a45524f5f455849545f46454560601b604082015260600190565b6020808252601f908201527f4552525f455843454544535f46554e445f52414953494e475f504552494f4400604082015260600190565b6020808252601290820152714552525f544f4f5f4645575f544f4b454e5360701b604082015260600190565b6020808252601c908201527b4552525f434f4c4c4543545f504552494f445f46494e49534845442160201b604082015260600190565b6020808252601d908201527f4552525f434c4f535552455f54494d455f4e4f545f4152524956454421000000604082015260600190565b6020808252601190820152704552525f5355425f554e444552464c4f5760781b604082015260600190565b6020808252601390820152724552525f544f4f5f4d414e595f544f4b454e5360681b604082015260600190565b6020808252601a90820152794552525f494e56414c49445f52454445454d5f4d41585f46454560301b604082015260600190565b60208082526010908201526f4552525f4144445f4f564552464c4f5760801b604082015260600190565b6020808252602a908201527f5361666545524332303a204552433230206f7065726174696f6e20646964206e6040820152691bdd081cdd58d8d9595960b21b606082015260800190565b60208082526036908201527f5361666545524332303a20617070726f76652066726f6d206e6f6e2d7a65726f60408201527520746f206e6f6e2d7a65726f20616c6c6f77616e636560501b606082015260800190565b6020808252601f908201527f5361666545524332303a2063616c6c20746f206e6f6e2d636f6e747261637400604082015260600190565b90815260200190565b9283526020830191909152604082015260600190565b6040518181016001600160401b0381118282101715612c1957600080fd5b604052919050565b60005b83811015612c3c578181015183820152602001612c24565b8381111561119d5750506000910152565b6001600160a01b038116811461027c57600080fd5b801515811461027c57600080fdfea2646970667358221220bde045be201d1a99caa6960b678d0b78dad3abe28bbf416c2041839849cf08f564736f6c634300060c0033",
  "libraries": {},
  "devdoc": {
    "author": "Desyn Labs",
    "kind": "dev",
    "methods": {
      "exitPool(IConfigurableRightsPool,IBPool,uint256,uint256[])": {
        "params": {
          "bPool": "- Core BPool the CRP is wrapping",
          "minAmountsOut": "- minimum amount of asset tokens to receive",
          "poolAmountIn": "- amount of pool tokens to redeem",
          "self": "- ConfigurableRightsPool instance calling the library"
        },
        "returns": {
          "actualAmountsOut": "- calculated amounts of each token to pull"
        }
      },
      "joinPool(IConfigurableRightsPool,IBPool,uint256,uint256[],uint256)": {
        "params": {
          "bPool": "- Core BPool the CRP is wrapping",
          "maxAmountsIn": "- Max amount of asset tokens to spend",
          "poolAmountOut": "- number of pool tokens to receive",
          "self": "- ConfigurableRightsPool instance calling the library"
        },
        "returns": {
          "actualAmountsIn": "- calculated values of the tokens to pull in"
        }
      },
      "verifyTokenCompliance(address)": {
        "details": "Will revert if invalid",
        "params": {
          "token": "- The prospective token to verify"
        }
      },
      "verifyTokenCompliance(address[])": {
        "details": "Will revert if invalid - overloaded to save space in the main contract",
        "params": {
          "tokens": "- The prospective tokens to verify"
        }
      }
    },
    "title": "Factor out the weight updates",
    "version": 1
  },
  "userdoc": {
    "kind": "user",
    "methods": {
      "exitPool(IConfigurableRightsPool,IBPool,uint256,uint256[])": {
        "notice": "Exit a pool - redeem pool tokens for underlying assets"
      },
      "joinPool(IConfigurableRightsPool,IBPool,uint256,uint256[],uint256)": {
        "notice": "Join a pool"
      },
      "verifyTokenCompliance(address)": {
        "notice": "Non ERC20-conforming tokens are problematic; don't allow them in pools"
      },
      "verifyTokenCompliance(address[])": {
        "notice": "Non ERC20-conforming tokens are problematic; don't allow them in pools"
      }
    },
    "version": 1
  },
  "storageLayout": {
    "storage": [],
    "types": null
  }
}